{
	"contracts/026_FundMeFred.sol": {
		"FundMe": {
			"abi": [
				{
					"inputs": [],
					"stateMutability": "nonpayable",
					"type": "constructor"
				},
				{
					"inputs": [
						{
							"internalType": "int256",
							"name": "_weiAmout",
							"type": "int256"
						}
					],
					"name": "ethTousd",
					"outputs": [
						{
							"internalType": "int256",
							"name": "",
							"type": "int256"
						}
					],
					"stateMutability": "view",
					"type": "function"
				},
				{
					"inputs": [],
					"name": "fund",
					"outputs": [],
					"stateMutability": "payable",
					"type": "function"
				},
				{
					"inputs": [],
					"name": "getChainlinkDataFeedLatestAnswer",
					"outputs": [
						{
							"internalType": "int256",
							"name": "",
							"type": "int256"
						}
					],
					"stateMutability": "view",
					"type": "function"
				},
				{
					"inputs": [],
					"name": "msgValue",
					"outputs": [
						{
							"internalType": "uint256",
							"name": "",
							"type": "uint256"
						}
					],
					"stateMutability": "view",
					"type": "function"
				},
				{
					"inputs": [],
					"name": "owner",
					"outputs": [
						{
							"internalType": "address",
							"name": "",
							"type": "address"
						}
					],
					"stateMutability": "view",
					"type": "function"
				},
				{
					"inputs": [],
					"name": "sender",
					"outputs": [
						{
							"internalType": "address",
							"name": "",
							"type": "address"
						}
					],
					"stateMutability": "view",
					"type": "function"
				},
				{
					"inputs": [],
					"name": "value",
					"outputs": [
						{
							"internalType": "uint256",
							"name": "",
							"type": "uint256"
						}
					],
					"stateMutability": "view",
					"type": "function"
				}
			],
			"devdoc": {
				"kind": "dev",
				"methods": {},
				"version": 1
			},
			"evm": {
				"assembly": "    /* \"contracts/026_FundMeFred.sol\":171:1340  contract FundMe {... */\n  mstore(0x40, 0x80)\n    /* \"contracts/026_FundMeFred.sol\":296:453  constructor() {... */\n  callvalue\n  dup1\n  iszero\n  tag_1\n  jumpi\n  0x00\n  dup1\n  revert\ntag_1:\n  pop\n    /* \"contracts/026_FundMeFred.sol\":328:338  msg.sender */\n  caller\n    /* \"contracts/026_FundMeFred.sol\":320:325  owner */\n  0x01\n  0x00\n    /* \"contracts/026_FundMeFred.sol\":320:338  owner = msg.sender */\n  0x0100\n  exp\n  dup2\n  sload\n  dup2\n  0xffffffffffffffffffffffffffffffffffffffff\n  mul\n  not\n  and\n  swap1\n  dup4\n  0xffffffffffffffffffffffffffffffffffffffff\n  and\n  mul\n  or\n  swap1\n  sstore\n  pop\n    /* \"contracts/026_FundMeFred.sol\":394:436  0x694AA1769357215DE4FAC081bf1f309aDC325306 */\n  0x694aa1769357215de4fac081bf1f309adc325306\n    /* \"contracts/026_FundMeFred.sol\":348:356  dataFeed */\n  0x00\n  dup1\n    /* \"contracts/026_FundMeFred.sol\":348:446  dataFeed = AggregatorV3Interface(... */\n  0x0100\n  exp\n  dup2\n  sload\n  dup2\n  0xffffffffffffffffffffffffffffffffffffffff\n  mul\n  not\n  and\n  swap1\n  dup4\n  0xffffffffffffffffffffffffffffffffffffffff\n  and\n  mul\n  or\n  swap1\n  sstore\n  pop\n    /* \"contracts/026_FundMeFred.sol\":171:1340  contract FundMe {... */\n  dataSize(sub_0)\n  dup1\n  dataOffset(sub_0)\n  0x00\n  codecopy\n  0x00\n  return\nstop\n\nsub_0: assembly {\n        /* \"contracts/026_FundMeFred.sol\":171:1340  contract FundMe {... */\n      mstore(0x40, 0x80)\n      jumpi(tag_1, lt(calldatasize, 0x04))\n      shr(0xe0, calldataload(0x00))\n      dup1\n      0xb60d4288\n      gt\n      tag_9\n      jumpi\n      dup1\n      0xb60d4288\n      eq\n      tag_5\n      jumpi\n      dup1\n      0xbea4dfb5\n      eq\n      tag_6\n      jumpi\n      dup1\n      0xc7bc46c0\n      eq\n      tag_7\n      jumpi\n      dup1\n      0xddf363d7\n      eq\n      tag_8\n      jumpi\n      jump(tag_1)\n    tag_9:\n      dup1\n      0x3fa4f245\n      eq\n      tag_2\n      jumpi\n      dup1\n      0x67e404ce\n      eq\n      tag_3\n      jumpi\n      dup1\n      0x8da5cb5b\n      eq\n      tag_4\n      jumpi\n    tag_1:\n      0x00\n      dup1\n      revert\n        /* \"contracts/026_FundMeFred.sol\":619:713  function value() external view returns (uint256) {... */\n    tag_2:\n      callvalue\n      dup1\n      iszero\n      tag_10\n      jumpi\n      0x00\n      dup1\n      revert\n    tag_10:\n      pop\n      tag_11\n      tag_12\n      jump\t// in\n    tag_11:\n      mload(0x40)\n      tag_13\n      swap2\n      swap1\n      tag_14\n      jump\t// in\n    tag_13:\n      mload(0x40)\n      dup1\n      swap2\n      sub\n      swap1\n      return\n        /* \"contracts/026_FundMeFred.sol\":719:801  function sender() public view returns (address) {... */\n    tag_3:\n      callvalue\n      dup1\n      iszero\n      tag_15\n      jumpi\n      0x00\n      dup1\n      revert\n    tag_15:\n      pop\n      tag_16\n      tag_17\n      jump\t// in\n    tag_16:\n      mload(0x40)\n      tag_18\n      swap2\n      swap1\n      tag_19\n      jump\t// in\n    tag_18:\n      mload(0x40)\n      dup1\n      swap2\n      sub\n      swap1\n      return\n        /* \"contracts/026_FundMeFred.sol\":239:259  address public owner */\n    tag_4:\n      callvalue\n      dup1\n      iszero\n      tag_20\n      jumpi\n      0x00\n      dup1\n      revert\n    tag_20:\n      pop\n      tag_21\n      tag_22\n      jump\t// in\n    tag_21:\n      mload(0x40)\n      tag_23\n      swap2\n      swap1\n      tag_19\n      jump\t// in\n    tag_23:\n      mload(0x40)\n      dup1\n      swap2\n      sub\n      swap1\n      return\n        /* \"contracts/026_FundMeFred.sol\":459:613  function fund() external payable {... */\n    tag_5:\n      tag_24\n      tag_25\n      jump\t// in\n    tag_24:\n      stop\n        /* \"contracts/026_FundMeFred.sol\":858:1023  function getChainlinkDataFeedLatestAnswer() public view returns (int256) {... */\n    tag_6:\n      callvalue\n      dup1\n      iszero\n      tag_26\n      jumpi\n      0x00\n      dup1\n      revert\n    tag_26:\n      pop\n      tag_27\n      tag_28\n      jump\t// in\n    tag_27:\n      mload(0x40)\n      tag_29\n      swap2\n      swap1\n      tag_30\n      jump\t// in\n    tag_29:\n      mload(0x40)\n      dup1\n      swap2\n      sub\n      swap1\n      return\n        /* \"contracts/026_FundMeFred.sol\":1029:1338  function ethTousd(int256 _weiAmout) public view returns (int256) {... */\n    tag_7:\n      callvalue\n      dup1\n      iszero\n      tag_31\n      jumpi\n      0x00\n      dup1\n      revert\n    tag_31:\n      pop\n      tag_32\n      0x04\n      dup1\n      calldatasize\n      sub\n      dup2\n      add\n      swap1\n      tag_33\n      swap2\n      swap1\n      tag_34\n      jump\t// in\n    tag_33:\n      tag_35\n      jump\t// in\n    tag_32:\n      mload(0x40)\n      tag_36\n      swap2\n      swap1\n      tag_30\n      jump\t// in\n    tag_36:\n      mload(0x40)\n      dup1\n      swap2\n      sub\n      swap1\n      return\n        /* \"contracts/026_FundMeFred.sol\":266:289  uint256 public msgValue */\n    tag_8:\n      callvalue\n      dup1\n      iszero\n      tag_37\n      jumpi\n      0x00\n      dup1\n      revert\n    tag_37:\n      pop\n      tag_38\n      tag_39\n      jump\t// in\n    tag_38:\n      mload(0x40)\n      tag_40\n      swap2\n      swap1\n      tag_14\n      jump\t// in\n    tag_40:\n      mload(0x40)\n      dup1\n      swap2\n      sub\n      swap1\n      return\n        /* \"contracts/026_FundMeFred.sol\":619:713  function value() external view returns (uint256) {... */\n    tag_12:\n        /* \"contracts/026_FundMeFred.sol\":659:666  uint256 */\n      0x00\n        /* \"contracts/026_FundMeFred.sol\":685:706  address(this).balance */\n      selfbalance\n        /* \"contracts/026_FundMeFred.sol\":678:706  return address(this).balance */\n      swap1\n      pop\n        /* \"contracts/026_FundMeFred.sol\":619:713  function value() external view returns (uint256) {... */\n      swap1\n      jump\t// out\n        /* \"contracts/026_FundMeFred.sol\":719:801  function sender() public view returns (address) {... */\n    tag_17:\n        /* \"contracts/026_FundMeFred.sol\":758:765  address */\n      0x00\n        /* \"contracts/026_FundMeFred.sol\":784:794  msg.sender */\n      caller\n        /* \"contracts/026_FundMeFred.sol\":777:794  return msg.sender */\n      swap1\n      pop\n        /* \"contracts/026_FundMeFred.sol\":719:801  function sender() public view returns (address) {... */\n      swap1\n      jump\t// out\n        /* \"contracts/026_FundMeFred.sol\":239:259  address public owner */\n    tag_22:\n      0x01\n      0x00\n      swap1\n      sload\n      swap1\n      0x0100\n      exp\n      swap1\n      div\n      0xffffffffffffffffffffffffffffffffffffffff\n      and\n      dup2\n      jump\t// out\n        /* \"contracts/026_FundMeFred.sol\":459:613  function fund() external payable {... */\n    tag_25:\n        /* \"contracts/026_FundMeFred.sol\":502:517  int256 ethInUsd */\n      0x00\n        /* \"contracts/026_FundMeFred.sol\":520:547  ethTousd(int256(msg.value)) */\n      tag_44\n        /* \"contracts/026_FundMeFred.sol\":536:545  msg.value */\n      callvalue\n        /* \"contracts/026_FundMeFred.sol\":520:528  ethTousd */\n      tag_35\n        /* \"contracts/026_FundMeFred.sol\":520:547  ethTousd(int256(msg.value)) */\n      jump\t// in\n    tag_44:\n        /* \"contracts/026_FundMeFred.sol\":502:547  int256 ethInUsd = ethTousd(int256(msg.value)) */\n      swap1\n      pop\n        /* \"contracts/026_FundMeFred.sol\":576:578  10 */\n      0x0a\n        /* \"contracts/026_FundMeFred.sol\":565:573  ethInUsd */\n      dup2\n        /* \"contracts/026_FundMeFred.sol\":565:578  ethInUsd > 10 */\n      sgt\n        /* \"contracts/026_FundMeFred.sol\":557:606  require(ethInUsd > 10, unicode\"不能少于10 U\") */\n      tag_45\n      jumpi\n      mload(0x40)\n      0x08c379a000000000000000000000000000000000000000000000000000000000\n      dup2\n      mstore\n      0x04\n      add\n      tag_46\n      swap1\n      tag_47\n      jump\t// in\n    tag_46:\n      mload(0x40)\n      dup1\n      swap2\n      sub\n      swap1\n      revert\n    tag_45:\n        /* \"contracts/026_FundMeFred.sol\":492:613  {... */\n      pop\n        /* \"contracts/026_FundMeFred.sol\":459:613  function fund() external payable {... */\n      jump\t// out\n        /* \"contracts/026_FundMeFred.sol\":858:1023  function getChainlinkDataFeedLatestAnswer() public view returns (int256) {... */\n    tag_28:\n        /* \"contracts/026_FundMeFred.sol\":923:929  int256 */\n      0x00\n        /* \"contracts/026_FundMeFred.sol\":944:957  int256 answer */\n      dup1\n        /* \"contracts/026_FundMeFred.sol\":967:975  dataFeed */\n      0x00\n      dup1\n      sload\n      swap1\n      0x0100\n      exp\n      swap1\n      div\n      0xffffffffffffffffffffffffffffffffffffffff\n      and\n        /* \"contracts/026_FundMeFred.sol\":967:991  dataFeed.latestRoundData */\n      0xffffffffffffffffffffffffffffffffffffffff\n      and\n      0xfeaf968c\n        /* \"contracts/026_FundMeFred.sol\":967:993  dataFeed.latestRoundData() */\n      mload(0x40)\n      dup2\n      0xffffffff\n      and\n      0xe0\n      shl\n      dup2\n      mstore\n      0x04\n      add\n      0xa0\n      mload(0x40)\n      dup1\n      dup4\n      sub\n      dup2\n      dup7\n      gas\n      staticcall\n      iszero\n      dup1\n      iszero\n      tag_50\n      jumpi\n      returndatasize\n      0x00\n      dup1\n      returndatacopy\n      revert(0x00, returndatasize)\n    tag_50:\n      pop\n      pop\n      pop\n      pop\n      mload(0x40)\n      returndatasize\n      not(0x1f)\n      0x1f\n      dup3\n      add\n      and\n      dup3\n      add\n      dup1\n      0x40\n      mstore\n      pop\n      dup2\n      add\n      swap1\n      tag_51\n      swap2\n      swap1\n      tag_52\n      jump\t// in\n    tag_51:\n        /* \"contracts/026_FundMeFred.sol\":941:993  (, int256 answer, , , ) = dataFeed.latestRoundData() */\n      pop\n      pop\n      pop\n      swap2\n      pop\n      pop\n        /* \"contracts/026_FundMeFred.sol\":1010:1016  answer */\n      dup1\n        /* \"contracts/026_FundMeFred.sol\":1003:1016  return answer */\n      swap2\n      pop\n      pop\n        /* \"contracts/026_FundMeFred.sol\":858:1023  function getChainlinkDataFeedLatestAnswer() public view returns (int256) {... */\n      swap1\n      jump\t// out\n        /* \"contracts/026_FundMeFred.sol\":1029:1338  function ethTousd(int256 _weiAmout) public view returns (int256) {... */\n    tag_35:\n        /* \"contracts/026_FundMeFred.sol\":1086:1092  int256 */\n      0x00\n        /* \"contracts/026_FundMeFred.sol\":1104:1119  int256 ethprice */\n      dup1\n        /* \"contracts/026_FundMeFred.sol\":1122:1156  getChainlinkDataFeedLatestAnswer() */\n      tag_54\n        /* \"contracts/026_FundMeFred.sol\":1122:1154  getChainlinkDataFeedLatestAnswer */\n      tag_28\n        /* \"contracts/026_FundMeFred.sol\":1122:1156  getChainlinkDataFeedLatestAnswer() */\n      jump\t// in\n    tag_54:\n        /* \"contracts/026_FundMeFred.sol\":1104:1156  int256 ethprice = getChainlinkDataFeedLatestAnswer() */\n      swap1\n      pop\n        /* \"contracts/026_FundMeFred.sol\":1166:1182  int256 ethInusdt */\n      0x00\n        /* \"contracts/026_FundMeFred.sol\":1210:1214  1e26 */\n      0x52b7d2dcc80cd2e4000000\n        /* \"contracts/026_FundMeFred.sol\":1197:1206  _weiAmout */\n      dup5\n        /* \"contracts/026_FundMeFred.sol\":1186:1194  ethprice */\n      dup4\n        /* \"contracts/026_FundMeFred.sol\":1186:1206  ethprice * _weiAmout */\n      tag_55\n      swap2\n      swap1\n      tag_56\n      jump\t// in\n    tag_55:\n        /* \"contracts/026_FundMeFred.sol\":1185:1214  (ethprice * _weiAmout) / 1e26 */\n      tag_57\n      swap2\n      swap1\n      tag_58\n      jump\t// in\n    tag_57:\n        /* \"contracts/026_FundMeFred.sol\":1166:1214  int256 ethInusdt = (ethprice * _weiAmout) / 1e26 */\n      swap1\n      pop\n        /* \"contracts/026_FundMeFred.sol\":1279:1280  1 */\n      0x01\n        /* \"contracts/026_FundMeFred.sol\":1267:1276  ethInusdt */\n      dup2\n        /* \"contracts/026_FundMeFred.sol\":1267:1280  ethInusdt > 1 */\n      sgt\n        /* \"contracts/026_FundMeFred.sol\":1259:1305  require(ethInusdt > 1, unicode\"不能小于1\") */\n      tag_59\n      jumpi\n      mload(0x40)\n      0x08c379a000000000000000000000000000000000000000000000000000000000\n      dup2\n      mstore\n      0x04\n      add\n      tag_60\n      swap1\n      tag_61\n      jump\t// in\n    tag_60:\n      mload(0x40)\n      dup1\n      swap2\n      sub\n      swap1\n      revert\n    tag_59:\n        /* \"contracts/026_FundMeFred.sol\":1322:1331  ethInusdt */\n      dup1\n        /* \"contracts/026_FundMeFred.sol\":1315:1331  return ethInusdt */\n      swap3\n      pop\n      pop\n      pop\n        /* \"contracts/026_FundMeFred.sol\":1029:1338  function ethTousd(int256 _weiAmout) public view returns (int256) {... */\n      swap2\n      swap1\n      pop\n      jump\t// out\n        /* \"contracts/026_FundMeFred.sol\":266:289  uint256 public msgValue */\n    tag_39:\n      sload(0x02)\n      dup2\n      jump\t// out\n        /* \"#utility.yul\":7:84   */\n    tag_62:\n        /* \"#utility.yul\":44:51   */\n      0x00\n        /* \"#utility.yul\":73:78   */\n      dup2\n        /* \"#utility.yul\":62:78   */\n      swap1\n      pop\n        /* \"#utility.yul\":7:84   */\n      swap2\n      swap1\n      pop\n      jump\t// out\n        /* \"#utility.yul\":90:208   */\n    tag_63:\n        /* \"#utility.yul\":177:201   */\n      tag_90\n        /* \"#utility.yul\":195:200   */\n      dup2\n        /* \"#utility.yul\":177:201   */\n      tag_62\n      jump\t// in\n    tag_90:\n        /* \"#utility.yul\":172:175   */\n      dup3\n        /* \"#utility.yul\":165:202   */\n      mstore\n        /* \"#utility.yul\":90:208   */\n      pop\n      pop\n      jump\t// out\n        /* \"#utility.yul\":214:436   */\n    tag_14:\n        /* \"#utility.yul\":307:311   */\n      0x00\n        /* \"#utility.yul\":345:347   */\n      0x20\n        /* \"#utility.yul\":334:343   */\n      dup3\n        /* \"#utility.yul\":330:348   */\n      add\n        /* \"#utility.yul\":322:348   */\n      swap1\n      pop\n        /* \"#utility.yul\":358:429   */\n      tag_92\n        /* \"#utility.yul\":426:427   */\n      0x00\n        /* \"#utility.yul\":415:424   */\n      dup4\n        /* \"#utility.yul\":411:428   */\n      add\n        /* \"#utility.yul\":402:408   */\n      dup5\n        /* \"#utility.yul\":358:429   */\n      tag_63\n      jump\t// in\n    tag_92:\n        /* \"#utility.yul\":214:436   */\n      swap3\n      swap2\n      pop\n      pop\n      jump\t// out\n        /* \"#utility.yul\":442:568   */\n    tag_64:\n        /* \"#utility.yul\":479:486   */\n      0x00\n        /* \"#utility.yul\":519:561   */\n      0xffffffffffffffffffffffffffffffffffffffff\n        /* \"#utility.yul\":512:517   */\n      dup3\n        /* \"#utility.yul\":508:562   */\n      and\n        /* \"#utility.yul\":497:562   */\n      swap1\n      pop\n        /* \"#utility.yul\":442:568   */\n      swap2\n      swap1\n      pop\n      jump\t// out\n        /* \"#utility.yul\":574:670   */\n    tag_65:\n        /* \"#utility.yul\":611:618   */\n      0x00\n        /* \"#utility.yul\":640:664   */\n      tag_95\n        /* \"#utility.yul\":658:663   */\n      dup3\n        /* \"#utility.yul\":640:664   */\n      tag_64\n      jump\t// in\n    tag_95:\n        /* \"#utility.yul\":629:664   */\n      swap1\n      pop\n        /* \"#utility.yul\":574:670   */\n      swap2\n      swap1\n      pop\n      jump\t// out\n        /* \"#utility.yul\":676:794   */\n    tag_66:\n        /* \"#utility.yul\":763:787   */\n      tag_97\n        /* \"#utility.yul\":781:786   */\n      dup2\n        /* \"#utility.yul\":763:787   */\n      tag_65\n      jump\t// in\n    tag_97:\n        /* \"#utility.yul\":758:761   */\n      dup3\n        /* \"#utility.yul\":751:788   */\n      mstore\n        /* \"#utility.yul\":676:794   */\n      pop\n      pop\n      jump\t// out\n        /* \"#utility.yul\":800:1022   */\n    tag_19:\n        /* \"#utility.yul\":893:897   */\n      0x00\n        /* \"#utility.yul\":931:933   */\n      0x20\n        /* \"#utility.yul\":920:929   */\n      dup3\n        /* \"#utility.yul\":916:934   */\n      add\n        /* \"#utility.yul\":908:934   */\n      swap1\n      pop\n        /* \"#utility.yul\":944:1015   */\n      tag_99\n        /* \"#utility.yul\":1012:1013   */\n      0x00\n        /* \"#utility.yul\":1001:1010   */\n      dup4\n        /* \"#utility.yul\":997:1014   */\n      add\n        /* \"#utility.yul\":988:994   */\n      dup5\n        /* \"#utility.yul\":944:1015   */\n      tag_66\n      jump\t// in\n    tag_99:\n        /* \"#utility.yul\":800:1022   */\n      swap3\n      swap2\n      pop\n      pop\n      jump\t// out\n        /* \"#utility.yul\":1028:1104   */\n    tag_67:\n        /* \"#utility.yul\":1064:1071   */\n      0x00\n        /* \"#utility.yul\":1093:1098   */\n      dup2\n        /* \"#utility.yul\":1082:1098   */\n      swap1\n      pop\n        /* \"#utility.yul\":1028:1104   */\n      swap2\n      swap1\n      pop\n      jump\t// out\n        /* \"#utility.yul\":1110:1225   */\n    tag_68:\n        /* \"#utility.yul\":1195:1218   */\n      tag_102\n        /* \"#utility.yul\":1212:1217   */\n      dup2\n        /* \"#utility.yul\":1195:1218   */\n      tag_67\n      jump\t// in\n    tag_102:\n        /* \"#utility.yul\":1190:1193   */\n      dup3\n        /* \"#utility.yul\":1183:1219   */\n      mstore\n        /* \"#utility.yul\":1110:1225   */\n      pop\n      pop\n      jump\t// out\n        /* \"#utility.yul\":1231:1449   */\n    tag_30:\n        /* \"#utility.yul\":1322:1326   */\n      0x00\n        /* \"#utility.yul\":1360:1362   */\n      0x20\n        /* \"#utility.yul\":1349:1358   */\n      dup3\n        /* \"#utility.yul\":1345:1363   */\n      add\n        /* \"#utility.yul\":1337:1363   */\n      swap1\n      pop\n        /* \"#utility.yul\":1373:1442   */\n      tag_104\n        /* \"#utility.yul\":1439:1440   */\n      0x00\n        /* \"#utility.yul\":1428:1437   */\n      dup4\n        /* \"#utility.yul\":1424:1441   */\n      add\n        /* \"#utility.yul\":1415:1421   */\n      dup5\n        /* \"#utility.yul\":1373:1442   */\n      tag_68\n      jump\t// in\n    tag_104:\n        /* \"#utility.yul\":1231:1449   */\n      swap3\n      swap2\n      pop\n      pop\n      jump\t// out\n        /* \"#utility.yul\":1536:1653   */\n    tag_70:\n        /* \"#utility.yul\":1645:1646   */\n      0x00\n        /* \"#utility.yul\":1642:1643   */\n      dup1\n        /* \"#utility.yul\":1635:1647   */\n      revert\n        /* \"#utility.yul\":1782:1902   */\n    tag_72:\n        /* \"#utility.yul\":1854:1877   */\n      tag_109\n        /* \"#utility.yul\":1871:1876   */\n      dup2\n        /* \"#utility.yul\":1854:1877   */\n      tag_67\n      jump\t// in\n    tag_109:\n        /* \"#utility.yul\":1847:1852   */\n      dup2\n        /* \"#utility.yul\":1844:1878   */\n      eq\n        /* \"#utility.yul\":1834:1896   */\n      tag_110\n      jumpi\n        /* \"#utility.yul\":1892:1893   */\n      0x00\n        /* \"#utility.yul\":1889:1890   */\n      dup1\n        /* \"#utility.yul\":1882:1894   */\n      revert\n        /* \"#utility.yul\":1834:1896   */\n    tag_110:\n        /* \"#utility.yul\":1782:1902   */\n      pop\n      jump\t// out\n        /* \"#utility.yul\":1908:2045   */\n    tag_73:\n        /* \"#utility.yul\":1953:1958   */\n      0x00\n        /* \"#utility.yul\":1991:1997   */\n      dup2\n        /* \"#utility.yul\":1978:1998   */\n      calldataload\n        /* \"#utility.yul\":1969:1998   */\n      swap1\n      pop\n        /* \"#utility.yul\":2007:2039   */\n      tag_112\n        /* \"#utility.yul\":2033:2038   */\n      dup2\n        /* \"#utility.yul\":2007:2039   */\n      tag_72\n      jump\t// in\n    tag_112:\n        /* \"#utility.yul\":1908:2045   */\n      swap3\n      swap2\n      pop\n      pop\n      jump\t// out\n        /* \"#utility.yul\":2051:2378   */\n    tag_34:\n        /* \"#utility.yul\":2109:2115   */\n      0x00\n        /* \"#utility.yul\":2158:2160   */\n      0x20\n        /* \"#utility.yul\":2146:2155   */\n      dup3\n        /* \"#utility.yul\":2137:2144   */\n      dup5\n        /* \"#utility.yul\":2133:2156   */\n      sub\n        /* \"#utility.yul\":2129:2161   */\n      slt\n        /* \"#utility.yul\":2126:2245   */\n      iszero\n      tag_114\n      jumpi\n        /* \"#utility.yul\":2164:2243   */\n      tag_115\n      tag_70\n      jump\t// in\n    tag_115:\n        /* \"#utility.yul\":2126:2245   */\n    tag_114:\n        /* \"#utility.yul\":2284:2285   */\n      0x00\n        /* \"#utility.yul\":2309:2361   */\n      tag_116\n        /* \"#utility.yul\":2353:2360   */\n      dup5\n        /* \"#utility.yul\":2344:2350   */\n      dup3\n        /* \"#utility.yul\":2333:2342   */\n      dup6\n        /* \"#utility.yul\":2329:2351   */\n      add\n        /* \"#utility.yul\":2309:2361   */\n      tag_73\n      jump\t// in\n    tag_116:\n        /* \"#utility.yul\":2299:2361   */\n      swap2\n      pop\n        /* \"#utility.yul\":2255:2371   */\n      pop\n        /* \"#utility.yul\":2051:2378   */\n      swap3\n      swap2\n      pop\n      pop\n      jump\t// out\n        /* \"#utility.yul\":2384:2553   */\n    tag_74:\n        /* \"#utility.yul\":2468:2479   */\n      0x00\n        /* \"#utility.yul\":2502:2508   */\n      dup3\n        /* \"#utility.yul\":2497:2500   */\n      dup3\n        /* \"#utility.yul\":2490:2509   */\n      mstore\n        /* \"#utility.yul\":2542:2546   */\n      0x20\n        /* \"#utility.yul\":2537:2540   */\n      dup3\n        /* \"#utility.yul\":2533:2547   */\n      add\n        /* \"#utility.yul\":2518:2547   */\n      swap1\n      pop\n        /* \"#utility.yul\":2384:2553   */\n      swap3\n      swap2\n      pop\n      pop\n      jump\t// out\n        /* \"#utility.yul\":2559:2773   */\n    tag_75:\n        /* \"#utility.yul\":2699:2765   */\n      0xe4b88de883bde5b091e4ba8e3130205500000000000000000000000000000000\n        /* \"#utility.yul\":2695:2696   */\n      0x00\n        /* \"#utility.yul\":2687:2693   */\n      dup3\n        /* \"#utility.yul\":2683:2697   */\n      add\n        /* \"#utility.yul\":2676:2766   */\n      mstore\n        /* \"#utility.yul\":2559:2773   */\n      pop\n      jump\t// out\n        /* \"#utility.yul\":2779:3145   */\n    tag_76:\n        /* \"#utility.yul\":2921:2924   */\n      0x00\n        /* \"#utility.yul\":2942:3009   */\n      tag_120\n        /* \"#utility.yul\":3006:3008   */\n      0x10\n        /* \"#utility.yul\":3001:3004   */\n      dup4\n        /* \"#utility.yul\":2942:3009   */\n      tag_74\n      jump\t// in\n    tag_120:\n        /* \"#utility.yul\":2935:3009   */\n      swap2\n      pop\n        /* \"#utility.yul\":3018:3111   */\n      tag_121\n        /* \"#utility.yul\":3107:3110   */\n      dup3\n        /* \"#utility.yul\":3018:3111   */\n      tag_75\n      jump\t// in\n    tag_121:\n        /* \"#utility.yul\":3136:3138   */\n      0x20\n        /* \"#utility.yul\":3131:3134   */\n      dup3\n        /* \"#utility.yul\":3127:3139   */\n      add\n        /* \"#utility.yul\":3120:3139   */\n      swap1\n      pop\n        /* \"#utility.yul\":2779:3145   */\n      swap2\n      swap1\n      pop\n      jump\t// out\n        /* \"#utility.yul\":3151:3570   */\n    tag_47:\n        /* \"#utility.yul\":3317:3321   */\n      0x00\n        /* \"#utility.yul\":3355:3357   */\n      0x20\n        /* \"#utility.yul\":3344:3353   */\n      dup3\n        /* \"#utility.yul\":3340:3358   */\n      add\n        /* \"#utility.yul\":3332:3358   */\n      swap1\n      pop\n        /* \"#utility.yul\":3404:3413   */\n      dup2\n        /* \"#utility.yul\":3398:3402   */\n      dup2\n        /* \"#utility.yul\":3394:3414   */\n      sub\n        /* \"#utility.yul\":3390:3391   */\n      0x00\n        /* \"#utility.yul\":3379:3388   */\n      dup4\n        /* \"#utility.yul\":3375:3392   */\n      add\n        /* \"#utility.yul\":3368:3415   */\n      mstore\n        /* \"#utility.yul\":3432:3563   */\n      tag_123\n        /* \"#utility.yul\":3558:3562   */\n      dup2\n        /* \"#utility.yul\":3432:3563   */\n      tag_76\n      jump\t// in\n    tag_123:\n        /* \"#utility.yul\":3424:3563   */\n      swap1\n      pop\n        /* \"#utility.yul\":3151:3570   */\n      swap2\n      swap1\n      pop\n      jump\t// out\n        /* \"#utility.yul\":3576:3681   */\n    tag_77:\n        /* \"#utility.yul\":3612:3619   */\n      0x00\n        /* \"#utility.yul\":3652:3674   */\n      0xffffffffffffffffffff\n        /* \"#utility.yul\":3645:3650   */\n      dup3\n        /* \"#utility.yul\":3641:3675   */\n      and\n        /* \"#utility.yul\":3630:3675   */\n      swap1\n      pop\n        /* \"#utility.yul\":3576:3681   */\n      swap2\n      swap1\n      pop\n      jump\t// out\n        /* \"#utility.yul\":3687:3807   */\n    tag_78:\n        /* \"#utility.yul\":3759:3782   */\n      tag_126\n        /* \"#utility.yul\":3776:3781   */\n      dup2\n        /* \"#utility.yul\":3759:3782   */\n      tag_77\n      jump\t// in\n    tag_126:\n        /* \"#utility.yul\":3752:3757   */\n      dup2\n        /* \"#utility.yul\":3749:3783   */\n      eq\n        /* \"#utility.yul\":3739:3801   */\n      tag_127\n      jumpi\n        /* \"#utility.yul\":3797:3798   */\n      0x00\n        /* \"#utility.yul\":3794:3795   */\n      dup1\n        /* \"#utility.yul\":3787:3799   */\n      revert\n        /* \"#utility.yul\":3739:3801   */\n    tag_127:\n        /* \"#utility.yul\":3687:3807   */\n      pop\n      jump\t// out\n        /* \"#utility.yul\":3813:3954   */\n    tag_79:\n        /* \"#utility.yul\":3869:3874   */\n      0x00\n        /* \"#utility.yul\":3900:3906   */\n      dup2\n        /* \"#utility.yul\":3894:3907   */\n      mload\n        /* \"#utility.yul\":3885:3907   */\n      swap1\n      pop\n        /* \"#utility.yul\":3916:3948   */\n      tag_129\n        /* \"#utility.yul\":3942:3947   */\n      dup2\n        /* \"#utility.yul\":3916:3948   */\n      tag_78\n      jump\t// in\n    tag_129:\n        /* \"#utility.yul\":3813:3954   */\n      swap3\n      swap2\n      pop\n      pop\n      jump\t// out\n        /* \"#utility.yul\":3960:4101   */\n    tag_80:\n        /* \"#utility.yul\":4016:4021   */\n      0x00\n        /* \"#utility.yul\":4047:4053   */\n      dup2\n        /* \"#utility.yul\":4041:4054   */\n      mload\n        /* \"#utility.yul\":4032:4054   */\n      swap1\n      pop\n        /* \"#utility.yul\":4063:4095   */\n      tag_131\n        /* \"#utility.yul\":4089:4094   */\n      dup2\n        /* \"#utility.yul\":4063:4095   */\n      tag_72\n      jump\t// in\n    tag_131:\n        /* \"#utility.yul\":3960:4101   */\n      swap3\n      swap2\n      pop\n      pop\n      jump\t// out\n        /* \"#utility.yul\":4107:4229   */\n    tag_81:\n        /* \"#utility.yul\":4180:4204   */\n      tag_133\n        /* \"#utility.yul\":4198:4203   */\n      dup2\n        /* \"#utility.yul\":4180:4204   */\n      tag_62\n      jump\t// in\n    tag_133:\n        /* \"#utility.yul\":4173:4178   */\n      dup2\n        /* \"#utility.yul\":4170:4205   */\n      eq\n        /* \"#utility.yul\":4160:4223   */\n      tag_134\n      jumpi\n        /* \"#utility.yul\":4219:4220   */\n      0x00\n        /* \"#utility.yul\":4216:4217   */\n      dup1\n        /* \"#utility.yul\":4209:4221   */\n      revert\n        /* \"#utility.yul\":4160:4223   */\n    tag_134:\n        /* \"#utility.yul\":4107:4229   */\n      pop\n      jump\t// out\n        /* \"#utility.yul\":4235:4378   */\n    tag_82:\n        /* \"#utility.yul\":4292:4297   */\n      0x00\n        /* \"#utility.yul\":4323:4329   */\n      dup2\n        /* \"#utility.yul\":4317:4330   */\n      mload\n        /* \"#utility.yul\":4308:4330   */\n      swap1\n      pop\n        /* \"#utility.yul\":4339:4372   */\n      tag_136\n        /* \"#utility.yul\":4366:4371   */\n      dup2\n        /* \"#utility.yul\":4339:4372   */\n      tag_81\n      jump\t// in\n    tag_136:\n        /* \"#utility.yul\":4235:4378   */\n      swap3\n      swap2\n      pop\n      pop\n      jump\t// out\n        /* \"#utility.yul\":4384:5355   */\n    tag_52:\n        /* \"#utility.yul\":4487:4493   */\n      0x00\n        /* \"#utility.yul\":4495:4501   */\n      dup1\n        /* \"#utility.yul\":4503:4509   */\n      0x00\n        /* \"#utility.yul\":4511:4517   */\n      dup1\n        /* \"#utility.yul\":4519:4525   */\n      0x00\n        /* \"#utility.yul\":4568:4571   */\n      0xa0\n        /* \"#utility.yul\":4556:4565   */\n      dup7\n        /* \"#utility.yul\":4547:4554   */\n      dup9\n        /* \"#utility.yul\":4543:4566   */\n      sub\n        /* \"#utility.yul\":4539:4572   */\n      slt\n        /* \"#utility.yul\":4536:4656   */\n      iszero\n      tag_138\n      jumpi\n        /* \"#utility.yul\":4575:4654   */\n      tag_139\n      tag_70\n      jump\t// in\n    tag_139:\n        /* \"#utility.yul\":4536:4656   */\n    tag_138:\n        /* \"#utility.yul\":4695:4696   */\n      0x00\n        /* \"#utility.yul\":4720:4783   */\n      tag_140\n        /* \"#utility.yul\":4775:4782   */\n      dup9\n        /* \"#utility.yul\":4766:4772   */\n      dup3\n        /* \"#utility.yul\":4755:4764   */\n      dup10\n        /* \"#utility.yul\":4751:4773   */\n      add\n        /* \"#utility.yul\":4720:4783   */\n      tag_79\n      jump\t// in\n    tag_140:\n        /* \"#utility.yul\":4710:4783   */\n      swap6\n      pop\n        /* \"#utility.yul\":4666:4793   */\n      pop\n        /* \"#utility.yul\":4832:4834   */\n      0x20\n        /* \"#utility.yul\":4858:4921   */\n      tag_141\n        /* \"#utility.yul\":4913:4920   */\n      dup9\n        /* \"#utility.yul\":4904:4910   */\n      dup3\n        /* \"#utility.yul\":4893:4902   */\n      dup10\n        /* \"#utility.yul\":4889:4911   */\n      add\n        /* \"#utility.yul\":4858:4921   */\n      tag_80\n      jump\t// in\n    tag_141:\n        /* \"#utility.yul\":4848:4921   */\n      swap5\n      pop\n        /* \"#utility.yul\":4803:4931   */\n      pop\n        /* \"#utility.yul\":4970:4972   */\n      0x40\n        /* \"#utility.yul\":4996:5060   */\n      tag_142\n        /* \"#utility.yul\":5052:5059   */\n      dup9\n        /* \"#utility.yul\":5043:5049   */\n      dup3\n        /* \"#utility.yul\":5032:5041   */\n      dup10\n        /* \"#utility.yul\":5028:5050   */\n      add\n        /* \"#utility.yul\":4996:5060   */\n      tag_82\n      jump\t// in\n    tag_142:\n        /* \"#utility.yul\":4986:5060   */\n      swap4\n      pop\n        /* \"#utility.yul\":4941:5070   */\n      pop\n        /* \"#utility.yul\":5109:5111   */\n      0x60\n        /* \"#utility.yul\":5135:5199   */\n      tag_143\n        /* \"#utility.yul\":5191:5198   */\n      dup9\n        /* \"#utility.yul\":5182:5188   */\n      dup3\n        /* \"#utility.yul\":5171:5180   */\n      dup10\n        /* \"#utility.yul\":5167:5189   */\n      add\n        /* \"#utility.yul\":5135:5199   */\n      tag_82\n      jump\t// in\n    tag_143:\n        /* \"#utility.yul\":5125:5199   */\n      swap3\n      pop\n        /* \"#utility.yul\":5080:5209   */\n      pop\n        /* \"#utility.yul\":5248:5251   */\n      0x80\n        /* \"#utility.yul\":5275:5338   */\n      tag_144\n        /* \"#utility.yul\":5330:5337   */\n      dup9\n        /* \"#utility.yul\":5321:5327   */\n      dup3\n        /* \"#utility.yul\":5310:5319   */\n      dup10\n        /* \"#utility.yul\":5306:5328   */\n      add\n        /* \"#utility.yul\":5275:5338   */\n      tag_79\n      jump\t// in\n    tag_144:\n        /* \"#utility.yul\":5265:5338   */\n      swap2\n      pop\n        /* \"#utility.yul\":5219:5348   */\n      pop\n        /* \"#utility.yul\":4384:5355   */\n      swap3\n      swap6\n      pop\n      swap3\n      swap6\n      swap1\n      swap4\n      pop\n      jump\t// out\n        /* \"#utility.yul\":5361:5541   */\n    tag_83:\n        /* \"#utility.yul\":5409:5486   */\n      0x4e487b7100000000000000000000000000000000000000000000000000000000\n        /* \"#utility.yul\":5406:5407   */\n      0x00\n        /* \"#utility.yul\":5399:5487   */\n      mstore\n        /* \"#utility.yul\":5506:5510   */\n      0x11\n        /* \"#utility.yul\":5503:5504   */\n      0x04\n        /* \"#utility.yul\":5496:5511   */\n      mstore\n        /* \"#utility.yul\":5530:5534   */\n      0x24\n        /* \"#utility.yul\":5527:5528   */\n      0x00\n        /* \"#utility.yul\":5520:5535   */\n      revert\n        /* \"#utility.yul\":5547:6103   */\n    tag_56:\n        /* \"#utility.yul\":5586:5593   */\n      0x00\n        /* \"#utility.yul\":5609:5628   */\n      tag_147\n        /* \"#utility.yul\":5626:5627   */\n      dup3\n        /* \"#utility.yul\":5609:5628   */\n      tag_67\n      jump\t// in\n    tag_147:\n        /* \"#utility.yul\":5604:5628   */\n      swap2\n      pop\n        /* \"#utility.yul\":5642:5661   */\n      tag_148\n        /* \"#utility.yul\":5659:5660   */\n      dup4\n        /* \"#utility.yul\":5642:5661   */\n      tag_67\n      jump\t// in\n    tag_148:\n        /* \"#utility.yul\":5637:5661   */\n      swap3\n      pop\n        /* \"#utility.yul\":5696:5697   */\n      dup3\n        /* \"#utility.yul\":5693:5694   */\n      dup3\n        /* \"#utility.yul\":5689:5698   */\n      mul\n        /* \"#utility.yul\":5718:5747   */\n      tag_149\n        /* \"#utility.yul\":5735:5746   */\n      dup2\n        /* \"#utility.yul\":5718:5747   */\n      tag_67\n      jump\t// in\n    tag_149:\n        /* \"#utility.yul\":5707:5747   */\n      swap2\n      pop\n        /* \"#utility.yul\":5805:5871   */\n      0x8000000000000000000000000000000000000000000000000000000000000000\n        /* \"#utility.yul\":5802:5803   */\n      dup5\n        /* \"#utility.yul\":5799:5872   */\n      eq\n        /* \"#utility.yul\":5795:5796   */\n      0x00\n        /* \"#utility.yul\":5792:5793   */\n      dup5\n        /* \"#utility.yul\":5788:5797   */\n      slt\n        /* \"#utility.yul\":5784:5873   */\n      and\n        /* \"#utility.yul\":5781:5896   */\n      iszero\n      tag_150\n      jumpi\n        /* \"#utility.yul\":5876:5894   */\n      tag_151\n      tag_83\n      jump\t// in\n    tag_151:\n        /* \"#utility.yul\":5781:5896   */\n    tag_150:\n        /* \"#utility.yul\":6046:6047   */\n      dup3\n        /* \"#utility.yul\":6037:6044   */\n      dup3\n        /* \"#utility.yul\":6032:6048   */\n      sdiv\n        /* \"#utility.yul\":6029:6030   */\n      dup5\n        /* \"#utility.yul\":6026:6049   */\n      eq\n        /* \"#utility.yul\":6006:6007   */\n      dup4\n        /* \"#utility.yul\":5999:6008   */\n      iszero\n        /* \"#utility.yul\":5979:6063   */\n      or\n        /* \"#utility.yul\":5956:6096   */\n      tag_152\n      jumpi\n        /* \"#utility.yul\":6076:6094   */\n      tag_153\n      tag_83\n      jump\t// in\n    tag_153:\n        /* \"#utility.yul\":5956:6096   */\n    tag_152:\n        /* \"#utility.yul\":5594:6103   */\n      pop\n        /* \"#utility.yul\":5547:6103   */\n      swap3\n      swap2\n      pop\n      pop\n      jump\t// out\n        /* \"#utility.yul\":6109:6289   */\n    tag_84:\n        /* \"#utility.yul\":6157:6234   */\n      0x4e487b7100000000000000000000000000000000000000000000000000000000\n        /* \"#utility.yul\":6154:6155   */\n      0x00\n        /* \"#utility.yul\":6147:6235   */\n      mstore\n        /* \"#utility.yul\":6254:6258   */\n      0x12\n        /* \"#utility.yul\":6251:6252   */\n      0x04\n        /* \"#utility.yul\":6244:6259   */\n      mstore\n        /* \"#utility.yul\":6278:6282   */\n      0x24\n        /* \"#utility.yul\":6275:6276   */\n      0x00\n        /* \"#utility.yul\":6268:6283   */\n      revert\n        /* \"#utility.yul\":6295:6680   */\n    tag_58:\n        /* \"#utility.yul\":6334:6335   */\n      0x00\n        /* \"#utility.yul\":6351:6370   */\n      tag_156\n        /* \"#utility.yul\":6368:6369   */\n      dup3\n        /* \"#utility.yul\":6351:6370   */\n      tag_67\n      jump\t// in\n    tag_156:\n        /* \"#utility.yul\":6346:6370   */\n      swap2\n      pop\n        /* \"#utility.yul\":6384:6403   */\n      tag_157\n        /* \"#utility.yul\":6401:6402   */\n      dup4\n        /* \"#utility.yul\":6384:6403   */\n      tag_67\n      jump\t// in\n    tag_157:\n        /* \"#utility.yul\":6379:6403   */\n      swap3\n      pop\n        /* \"#utility.yul\":6422:6423   */\n      dup3\n        /* \"#utility.yul\":6412:6447   */\n      tag_158\n      jumpi\n        /* \"#utility.yul\":6427:6445   */\n      tag_159\n      tag_84\n      jump\t// in\n    tag_159:\n        /* \"#utility.yul\":6412:6447   */\n    tag_158:\n        /* \"#utility.yul\":6613:6614   */\n      0x01\n        /* \"#utility.yul\":6610:6611   */\n      0x00\n        /* \"#utility.yul\":6606:6615   */\n      sub\n        /* \"#utility.yul\":6603:6604   */\n      dup4\n        /* \"#utility.yul\":6600:6616   */\n      eq\n        /* \"#utility.yul\":6519:6585   */\n      0x8000000000000000000000000000000000000000000000000000000000000000\n        /* \"#utility.yul\":6516:6517   */\n      dup4\n        /* \"#utility.yul\":6513:6586   */\n      eq\n        /* \"#utility.yul\":6496:6626   */\n      and\n        /* \"#utility.yul\":6493:6649   */\n      iszero\n      tag_160\n      jumpi\n        /* \"#utility.yul\":6629:6647   */\n      tag_161\n      tag_83\n      jump\t// in\n    tag_161:\n        /* \"#utility.yul\":6493:6649   */\n    tag_160:\n        /* \"#utility.yul\":6672:6673   */\n      dup3\n        /* \"#utility.yul\":6669:6670   */\n      dup3\n        /* \"#utility.yul\":6664:6674   */\n      sdiv\n        /* \"#utility.yul\":6659:6674   */\n      swap1\n      pop\n        /* \"#utility.yul\":6295:6680   */\n      swap3\n      swap2\n      pop\n      pop\n      jump\t// out\n        /* \"#utility.yul\":6686:6900   */\n    tag_85:\n        /* \"#utility.yul\":6826:6892   */\n      0xe4b88de883bde5b08fe4ba8e3100000000000000000000000000000000000000\n        /* \"#utility.yul\":6822:6823   */\n      0x00\n        /* \"#utility.yul\":6814:6820   */\n      dup3\n        /* \"#utility.yul\":6810:6824   */\n      add\n        /* \"#utility.yul\":6803:6893   */\n      mstore\n        /* \"#utility.yul\":6686:6900   */\n      pop\n      jump\t// out\n        /* \"#utility.yul\":6906:7272   */\n    tag_86:\n        /* \"#utility.yul\":7048:7051   */\n      0x00\n        /* \"#utility.yul\":7069:7136   */\n      tag_164\n        /* \"#utility.yul\":7133:7135   */\n      0x0d\n        /* \"#utility.yul\":7128:7131   */\n      dup4\n        /* \"#utility.yul\":7069:7136   */\n      tag_74\n      jump\t// in\n    tag_164:\n        /* \"#utility.yul\":7062:7136   */\n      swap2\n      pop\n        /* \"#utility.yul\":7145:7238   */\n      tag_165\n        /* \"#utility.yul\":7234:7237   */\n      dup3\n        /* \"#utility.yul\":7145:7238   */\n      tag_85\n      jump\t// in\n    tag_165:\n        /* \"#utility.yul\":7263:7265   */\n      0x20\n        /* \"#utility.yul\":7258:7261   */\n      dup3\n        /* \"#utility.yul\":7254:7266   */\n      add\n        /* \"#utility.yul\":7247:7266   */\n      swap1\n      pop\n        /* \"#utility.yul\":6906:7272   */\n      swap2\n      swap1\n      pop\n      jump\t// out\n        /* \"#utility.yul\":7278:7697   */\n    tag_61:\n        /* \"#utility.yul\":7444:7448   */\n      0x00\n        /* \"#utility.yul\":7482:7484   */\n      0x20\n        /* \"#utility.yul\":7471:7480   */\n      dup3\n        /* \"#utility.yul\":7467:7485   */\n      add\n        /* \"#utility.yul\":7459:7485   */\n      swap1\n      pop\n        /* \"#utility.yul\":7531:7540   */\n      dup2\n        /* \"#utility.yul\":7525:7529   */\n      dup2\n        /* \"#utility.yul\":7521:7541   */\n      sub\n        /* \"#utility.yul\":7517:7518   */\n      0x00\n        /* \"#utility.yul\":7506:7515   */\n      dup4\n        /* \"#utility.yul\":7502:7519   */\n      add\n        /* \"#utility.yul\":7495:7542   */\n      mstore\n        /* \"#utility.yul\":7559:7690   */\n      tag_167\n        /* \"#utility.yul\":7685:7689   */\n      dup2\n        /* \"#utility.yul\":7559:7690   */\n      tag_86\n      jump\t// in\n    tag_167:\n        /* \"#utility.yul\":7551:7690   */\n      swap1\n      pop\n        /* \"#utility.yul\":7278:7697   */\n      swap2\n      swap1\n      pop\n      jump\t// out\n\n    auxdata: 0xa2646970667358221220f226529a21382b63647853c07cb5c26a432ee4e21d4a05bd9abb6632f3ef472064736f6c634300081a0033\n}\n",
				"bytecode": {
					"linkReferences": {},
					"object": "6080604052348015600e575f80fd5b503360015f6101000a81548173ffffffffffffffffffffffffffffffffffffffff021916908373ffffffffffffffffffffffffffffffffffffffff16021790555073694aa1769357215de4fac081bf1f309adc3253065f806101000a81548173ffffffffffffffffffffffffffffffffffffffff021916908373ffffffffffffffffffffffffffffffffffffffff160217905550610784806100af5f395ff3fe60806040526004361061006f575f3560e01c8063b60d42881161004d578063b60d4288146100f1578063bea4dfb5146100fb578063c7bc46c014610125578063ddf363d7146101615761006f565b80633fa4f2451461007357806367e404ce1461009d5780638da5cb5b146100c7575b5f80fd5b34801561007e575f80fd5b5061008761018b565b6040516100949190610347565b60405180910390f35b3480156100a8575f80fd5b506100b1610192565b6040516100be919061039f565b60405180910390f35b3480156100d2575f80fd5b506100db610199565b6040516100e8919061039f565b60405180910390f35b6100f96101be565b005b348015610106575f80fd5b5061010f610210565b60405161011c91906103d0565b60405180910390f35b348015610130575f80fd5b5061014b60048036038101906101469190610417565b6102ab565b60405161015891906103d0565b60405180910390f35b34801561016c575f80fd5b50610175610329565b6040516101829190610347565b60405180910390f35b5f47905090565b5f33905090565b60015f9054906101000a900473ffffffffffffffffffffffffffffffffffffffff1681565b5f6101c8346102ab565b9050600a811361020d576040517f08c379a00000000000000000000000000000000000000000000000000000000081526004016102049061049c565b60405180910390fd5b50565b5f805f8054906101000a900473ffffffffffffffffffffffffffffffffffffffff1673ffffffffffffffffffffffffffffffffffffffff1663feaf968c6040518163ffffffff1660e01b815260040160a060405180830381865afa15801561027a573d5f803e3d5ffd5b505050506040513d601f19601f8201168201806040525081019061029e9190610537565b5050509150508091505090565b5f806102b5610210565b90505f6a52b7d2dcc80cd2e400000084836102d091906105db565b6102da919061067e565b90506001811361031f576040517f08c379a000000000000000000000000000000000000000000000000000000000815260040161031690610730565b60405180910390fd5b8092505050919050565b60025481565b5f819050919050565b6103418161032f565b82525050565b5f60208201905061035a5f830184610338565b92915050565b5f73ffffffffffffffffffffffffffffffffffffffff82169050919050565b5f61038982610360565b9050919050565b6103998161037f565b82525050565b5f6020820190506103b25f830184610390565b92915050565b5f819050919050565b6103ca816103b8565b82525050565b5f6020820190506103e35f8301846103c1565b92915050565b5f80fd5b6103f6816103b8565b8114610400575f80fd5b50565b5f81359050610411816103ed565b92915050565b5f6020828403121561042c5761042b6103e9565b5b5f61043984828501610403565b91505092915050565b5f82825260208201905092915050565b7fe4b88de883bde5b091e4ba8e31302055000000000000000000000000000000005f82015250565b5f610486601083610442565b915061049182610452565b602082019050919050565b5f6020820190508181035f8301526104b38161047a565b9050919050565b5f69ffffffffffffffffffff82169050919050565b6104d8816104ba565b81146104e2575f80fd5b50565b5f815190506104f3816104cf565b92915050565b5f81519050610507816103ed565b92915050565b6105168161032f565b8114610520575f80fd5b50565b5f815190506105318161050d565b92915050565b5f805f805f60a086880312156105505761054f6103e9565b5b5f61055d888289016104e5565b955050602061056e888289016104f9565b945050604061057f88828901610523565b935050606061059088828901610523565b92505060806105a1888289016104e5565b9150509295509295909350565b7f4e487b71000000000000000000000000000000000000000000000000000000005f52601160045260245ffd5b5f6105e5826103b8565b91506105f0836103b8565b92508282026105fe816103b8565b91507f800000000000000000000000000000000000000000000000000000000000000084145f84121615610635576106346105ae565b5b828205841483151761064a576106496105ae565b5b5092915050565b7f4e487b71000000000000000000000000000000000000000000000000000000005f52601260045260245ffd5b5f610688826103b8565b9150610693836103b8565b9250826106a3576106a2610651565b5b60015f0383147f8000000000000000000000000000000000000000000000000000000000000000831416156106db576106da6105ae565b5b828205905092915050565b7fe4b88de883bde5b08fe4ba8e31000000000000000000000000000000000000005f82015250565b5f61071a600d83610442565b9150610725826106e6565b602082019050919050565b5f6020820190508181035f8301526107478161070e565b905091905056fea2646970667358221220f226529a21382b63647853c07cb5c26a432ee4e21d4a05bd9abb6632f3ef472064736f6c634300081a0033",
					"opcodes": "PUSH1 0x80 PUSH1 0x40 MSTORE CALLVALUE DUP1 ISZERO PUSH1 0xE JUMPI PUSH0 DUP1 REVERT JUMPDEST POP CALLER PUSH1 0x1 PUSH0 PUSH2 0x100 EXP DUP2 SLOAD DUP2 PUSH20 0xFFFFFFFFFFFFFFFFFFFFFFFFFFFFFFFFFFFFFFFF MUL NOT AND SWAP1 DUP4 PUSH20 0xFFFFFFFFFFFFFFFFFFFFFFFFFFFFFFFFFFFFFFFF AND MUL OR SWAP1 SSTORE POP PUSH20 0x694AA1769357215DE4FAC081BF1F309ADC325306 PUSH0 DUP1 PUSH2 0x100 EXP DUP2 SLOAD DUP2 PUSH20 0xFFFFFFFFFFFFFFFFFFFFFFFFFFFFFFFFFFFFFFFF MUL NOT AND SWAP1 DUP4 PUSH20 0xFFFFFFFFFFFFFFFFFFFFFFFFFFFFFFFFFFFFFFFF AND MUL OR SWAP1 SSTORE POP PUSH2 0x784 DUP1 PUSH2 0xAF PUSH0 CODECOPY PUSH0 RETURN INVALID PUSH1 0x80 PUSH1 0x40 MSTORE PUSH1 0x4 CALLDATASIZE LT PUSH2 0x6F JUMPI PUSH0 CALLDATALOAD PUSH1 0xE0 SHR DUP1 PUSH4 0xB60D4288 GT PUSH2 0x4D JUMPI DUP1 PUSH4 0xB60D4288 EQ PUSH2 0xF1 JUMPI DUP1 PUSH4 0xBEA4DFB5 EQ PUSH2 0xFB JUMPI DUP1 PUSH4 0xC7BC46C0 EQ PUSH2 0x125 JUMPI DUP1 PUSH4 0xDDF363D7 EQ PUSH2 0x161 JUMPI PUSH2 0x6F JUMP JUMPDEST DUP1 PUSH4 0x3FA4F245 EQ PUSH2 0x73 JUMPI DUP1 PUSH4 0x67E404CE EQ PUSH2 0x9D JUMPI DUP1 PUSH4 0x8DA5CB5B EQ PUSH2 0xC7 JUMPI JUMPDEST PUSH0 DUP1 REVERT JUMPDEST CALLVALUE DUP1 ISZERO PUSH2 0x7E JUMPI PUSH0 DUP1 REVERT JUMPDEST POP PUSH2 0x87 PUSH2 0x18B JUMP JUMPDEST PUSH1 0x40 MLOAD PUSH2 0x94 SWAP2 SWAP1 PUSH2 0x347 JUMP JUMPDEST PUSH1 0x40 MLOAD DUP1 SWAP2 SUB SWAP1 RETURN JUMPDEST CALLVALUE DUP1 ISZERO PUSH2 0xA8 JUMPI PUSH0 DUP1 REVERT JUMPDEST POP PUSH2 0xB1 PUSH2 0x192 JUMP JUMPDEST PUSH1 0x40 MLOAD PUSH2 0xBE SWAP2 SWAP1 PUSH2 0x39F JUMP JUMPDEST PUSH1 0x40 MLOAD DUP1 SWAP2 SUB SWAP1 RETURN JUMPDEST CALLVALUE DUP1 ISZERO PUSH2 0xD2 JUMPI PUSH0 DUP1 REVERT JUMPDEST POP PUSH2 0xDB PUSH2 0x199 JUMP JUMPDEST PUSH1 0x40 MLOAD PUSH2 0xE8 SWAP2 SWAP1 PUSH2 0x39F JUMP JUMPDEST PUSH1 0x40 MLOAD DUP1 SWAP2 SUB SWAP1 RETURN JUMPDEST PUSH2 0xF9 PUSH2 0x1BE JUMP JUMPDEST STOP JUMPDEST CALLVALUE DUP1 ISZERO PUSH2 0x106 JUMPI PUSH0 DUP1 REVERT JUMPDEST POP PUSH2 0x10F PUSH2 0x210 JUMP JUMPDEST PUSH1 0x40 MLOAD PUSH2 0x11C SWAP2 SWAP1 PUSH2 0x3D0 JUMP JUMPDEST PUSH1 0x40 MLOAD DUP1 SWAP2 SUB SWAP1 RETURN JUMPDEST CALLVALUE DUP1 ISZERO PUSH2 0x130 JUMPI PUSH0 DUP1 REVERT JUMPDEST POP PUSH2 0x14B PUSH1 0x4 DUP1 CALLDATASIZE SUB DUP2 ADD SWAP1 PUSH2 0x146 SWAP2 SWAP1 PUSH2 0x417 JUMP JUMPDEST PUSH2 0x2AB JUMP JUMPDEST PUSH1 0x40 MLOAD PUSH2 0x158 SWAP2 SWAP1 PUSH2 0x3D0 JUMP JUMPDEST PUSH1 0x40 MLOAD DUP1 SWAP2 SUB SWAP1 RETURN JUMPDEST CALLVALUE DUP1 ISZERO PUSH2 0x16C JUMPI PUSH0 DUP1 REVERT JUMPDEST POP PUSH2 0x175 PUSH2 0x329 JUMP JUMPDEST PUSH1 0x40 MLOAD PUSH2 0x182 SWAP2 SWAP1 PUSH2 0x347 JUMP JUMPDEST PUSH1 0x40 MLOAD DUP1 SWAP2 SUB SWAP1 RETURN JUMPDEST PUSH0 SELFBALANCE SWAP1 POP SWAP1 JUMP JUMPDEST PUSH0 CALLER SWAP1 POP SWAP1 JUMP JUMPDEST PUSH1 0x1 PUSH0 SWAP1 SLOAD SWAP1 PUSH2 0x100 EXP SWAP1 DIV PUSH20 0xFFFFFFFFFFFFFFFFFFFFFFFFFFFFFFFFFFFFFFFF AND DUP2 JUMP JUMPDEST PUSH0 PUSH2 0x1C8 CALLVALUE PUSH2 0x2AB JUMP JUMPDEST SWAP1 POP PUSH1 0xA DUP2 SGT PUSH2 0x20D JUMPI PUSH1 0x40 MLOAD PUSH32 0x8C379A000000000000000000000000000000000000000000000000000000000 DUP2 MSTORE PUSH1 0x4 ADD PUSH2 0x204 SWAP1 PUSH2 0x49C JUMP JUMPDEST PUSH1 0x40 MLOAD DUP1 SWAP2 SUB SWAP1 REVERT JUMPDEST POP JUMP JUMPDEST PUSH0 DUP1 PUSH0 DUP1 SLOAD SWAP1 PUSH2 0x100 EXP SWAP1 DIV PUSH20 0xFFFFFFFFFFFFFFFFFFFFFFFFFFFFFFFFFFFFFFFF AND PUSH20 0xFFFFFFFFFFFFFFFFFFFFFFFFFFFFFFFFFFFFFFFF AND PUSH4 0xFEAF968C PUSH1 0x40 MLOAD DUP2 PUSH4 0xFFFFFFFF AND PUSH1 0xE0 SHL DUP2 MSTORE PUSH1 0x4 ADD PUSH1 0xA0 PUSH1 0x40 MLOAD DUP1 DUP4 SUB DUP2 DUP7 GAS STATICCALL ISZERO DUP1 ISZERO PUSH2 0x27A JUMPI RETURNDATASIZE PUSH0 DUP1 RETURNDATACOPY RETURNDATASIZE PUSH0 REVERT JUMPDEST POP POP POP POP PUSH1 0x40 MLOAD RETURNDATASIZE PUSH1 0x1F NOT PUSH1 0x1F DUP3 ADD AND DUP3 ADD DUP1 PUSH1 0x40 MSTORE POP DUP2 ADD SWAP1 PUSH2 0x29E SWAP2 SWAP1 PUSH2 0x537 JUMP JUMPDEST POP POP POP SWAP2 POP POP DUP1 SWAP2 POP POP SWAP1 JUMP JUMPDEST PUSH0 DUP1 PUSH2 0x2B5 PUSH2 0x210 JUMP JUMPDEST SWAP1 POP PUSH0 PUSH11 0x52B7D2DCC80CD2E4000000 DUP5 DUP4 PUSH2 0x2D0 SWAP2 SWAP1 PUSH2 0x5DB JUMP JUMPDEST PUSH2 0x2DA SWAP2 SWAP1 PUSH2 0x67E JUMP JUMPDEST SWAP1 POP PUSH1 0x1 DUP2 SGT PUSH2 0x31F JUMPI PUSH1 0x40 MLOAD PUSH32 0x8C379A000000000000000000000000000000000000000000000000000000000 DUP2 MSTORE PUSH1 0x4 ADD PUSH2 0x316 SWAP1 PUSH2 0x730 JUMP JUMPDEST PUSH1 0x40 MLOAD DUP1 SWAP2 SUB SWAP1 REVERT JUMPDEST DUP1 SWAP3 POP POP POP SWAP2 SWAP1 POP JUMP JUMPDEST PUSH1 0x2 SLOAD DUP2 JUMP JUMPDEST PUSH0 DUP2 SWAP1 POP SWAP2 SWAP1 POP JUMP JUMPDEST PUSH2 0x341 DUP2 PUSH2 0x32F JUMP JUMPDEST DUP3 MSTORE POP POP JUMP JUMPDEST PUSH0 PUSH1 0x20 DUP3 ADD SWAP1 POP PUSH2 0x35A PUSH0 DUP4 ADD DUP5 PUSH2 0x338 JUMP JUMPDEST SWAP3 SWAP2 POP POP JUMP JUMPDEST PUSH0 PUSH20 0xFFFFFFFFFFFFFFFFFFFFFFFFFFFFFFFFFFFFFFFF DUP3 AND SWAP1 POP SWAP2 SWAP1 POP JUMP JUMPDEST PUSH0 PUSH2 0x389 DUP3 PUSH2 0x360 JUMP JUMPDEST SWAP1 POP SWAP2 SWAP1 POP JUMP JUMPDEST PUSH2 0x399 DUP2 PUSH2 0x37F JUMP JUMPDEST DUP3 MSTORE POP POP JUMP JUMPDEST PUSH0 PUSH1 0x20 DUP3 ADD SWAP1 POP PUSH2 0x3B2 PUSH0 DUP4 ADD DUP5 PUSH2 0x390 JUMP JUMPDEST SWAP3 SWAP2 POP POP JUMP JUMPDEST PUSH0 DUP2 SWAP1 POP SWAP2 SWAP1 POP JUMP JUMPDEST PUSH2 0x3CA DUP2 PUSH2 0x3B8 JUMP JUMPDEST DUP3 MSTORE POP POP JUMP JUMPDEST PUSH0 PUSH1 0x20 DUP3 ADD SWAP1 POP PUSH2 0x3E3 PUSH0 DUP4 ADD DUP5 PUSH2 0x3C1 JUMP JUMPDEST SWAP3 SWAP2 POP POP JUMP JUMPDEST PUSH0 DUP1 REVERT JUMPDEST PUSH2 0x3F6 DUP2 PUSH2 0x3B8 JUMP JUMPDEST DUP2 EQ PUSH2 0x400 JUMPI PUSH0 DUP1 REVERT JUMPDEST POP JUMP JUMPDEST PUSH0 DUP2 CALLDATALOAD SWAP1 POP PUSH2 0x411 DUP2 PUSH2 0x3ED JUMP JUMPDEST SWAP3 SWAP2 POP POP JUMP JUMPDEST PUSH0 PUSH1 0x20 DUP3 DUP5 SUB SLT ISZERO PUSH2 0x42C JUMPI PUSH2 0x42B PUSH2 0x3E9 JUMP JUMPDEST JUMPDEST PUSH0 PUSH2 0x439 DUP5 DUP3 DUP6 ADD PUSH2 0x403 JUMP JUMPDEST SWAP2 POP POP SWAP3 SWAP2 POP POP JUMP JUMPDEST PUSH0 DUP3 DUP3 MSTORE PUSH1 0x20 DUP3 ADD SWAP1 POP SWAP3 SWAP2 POP POP JUMP JUMPDEST PUSH32 0xE4B88DE883BDE5B091E4BA8E3130205500000000000000000000000000000000 PUSH0 DUP3 ADD MSTORE POP JUMP JUMPDEST PUSH0 PUSH2 0x486 PUSH1 0x10 DUP4 PUSH2 0x442 JUMP JUMPDEST SWAP2 POP PUSH2 0x491 DUP3 PUSH2 0x452 JUMP JUMPDEST PUSH1 0x20 DUP3 ADD SWAP1 POP SWAP2 SWAP1 POP JUMP JUMPDEST PUSH0 PUSH1 0x20 DUP3 ADD SWAP1 POP DUP2 DUP2 SUB PUSH0 DUP4 ADD MSTORE PUSH2 0x4B3 DUP2 PUSH2 0x47A JUMP JUMPDEST SWAP1 POP SWAP2 SWAP1 POP JUMP JUMPDEST PUSH0 PUSH10 0xFFFFFFFFFFFFFFFFFFFF DUP3 AND SWAP1 POP SWAP2 SWAP1 POP JUMP JUMPDEST PUSH2 0x4D8 DUP2 PUSH2 0x4BA JUMP JUMPDEST DUP2 EQ PUSH2 0x4E2 JUMPI PUSH0 DUP1 REVERT JUMPDEST POP JUMP JUMPDEST PUSH0 DUP2 MLOAD SWAP1 POP PUSH2 0x4F3 DUP2 PUSH2 0x4CF JUMP JUMPDEST SWAP3 SWAP2 POP POP JUMP JUMPDEST PUSH0 DUP2 MLOAD SWAP1 POP PUSH2 0x507 DUP2 PUSH2 0x3ED JUMP JUMPDEST SWAP3 SWAP2 POP POP JUMP JUMPDEST PUSH2 0x516 DUP2 PUSH2 0x32F JUMP JUMPDEST DUP2 EQ PUSH2 0x520 JUMPI PUSH0 DUP1 REVERT JUMPDEST POP JUMP JUMPDEST PUSH0 DUP2 MLOAD SWAP1 POP PUSH2 0x531 DUP2 PUSH2 0x50D JUMP JUMPDEST SWAP3 SWAP2 POP POP JUMP JUMPDEST PUSH0 DUP1 PUSH0 DUP1 PUSH0 PUSH1 0xA0 DUP7 DUP9 SUB SLT ISZERO PUSH2 0x550 JUMPI PUSH2 0x54F PUSH2 0x3E9 JUMP JUMPDEST JUMPDEST PUSH0 PUSH2 0x55D DUP9 DUP3 DUP10 ADD PUSH2 0x4E5 JUMP JUMPDEST SWAP6 POP POP PUSH1 0x20 PUSH2 0x56E DUP9 DUP3 DUP10 ADD PUSH2 0x4F9 JUMP JUMPDEST SWAP5 POP POP PUSH1 0x40 PUSH2 0x57F DUP9 DUP3 DUP10 ADD PUSH2 0x523 JUMP JUMPDEST SWAP4 POP POP PUSH1 0x60 PUSH2 0x590 DUP9 DUP3 DUP10 ADD PUSH2 0x523 JUMP JUMPDEST SWAP3 POP POP PUSH1 0x80 PUSH2 0x5A1 DUP9 DUP3 DUP10 ADD PUSH2 0x4E5 JUMP JUMPDEST SWAP2 POP POP SWAP3 SWAP6 POP SWAP3 SWAP6 SWAP1 SWAP4 POP JUMP JUMPDEST PUSH32 0x4E487B7100000000000000000000000000000000000000000000000000000000 PUSH0 MSTORE PUSH1 0x11 PUSH1 0x4 MSTORE PUSH1 0x24 PUSH0 REVERT JUMPDEST PUSH0 PUSH2 0x5E5 DUP3 PUSH2 0x3B8 JUMP JUMPDEST SWAP2 POP PUSH2 0x5F0 DUP4 PUSH2 0x3B8 JUMP JUMPDEST SWAP3 POP DUP3 DUP3 MUL PUSH2 0x5FE DUP2 PUSH2 0x3B8 JUMP JUMPDEST SWAP2 POP PUSH32 0x8000000000000000000000000000000000000000000000000000000000000000 DUP5 EQ PUSH0 DUP5 SLT AND ISZERO PUSH2 0x635 JUMPI PUSH2 0x634 PUSH2 0x5AE JUMP JUMPDEST JUMPDEST DUP3 DUP3 SDIV DUP5 EQ DUP4 ISZERO OR PUSH2 0x64A JUMPI PUSH2 0x649 PUSH2 0x5AE JUMP JUMPDEST JUMPDEST POP SWAP3 SWAP2 POP POP JUMP JUMPDEST PUSH32 0x4E487B7100000000000000000000000000000000000000000000000000000000 PUSH0 MSTORE PUSH1 0x12 PUSH1 0x4 MSTORE PUSH1 0x24 PUSH0 REVERT JUMPDEST PUSH0 PUSH2 0x688 DUP3 PUSH2 0x3B8 JUMP JUMPDEST SWAP2 POP PUSH2 0x693 DUP4 PUSH2 0x3B8 JUMP JUMPDEST SWAP3 POP DUP3 PUSH2 0x6A3 JUMPI PUSH2 0x6A2 PUSH2 0x651 JUMP JUMPDEST JUMPDEST PUSH1 0x1 PUSH0 SUB DUP4 EQ PUSH32 0x8000000000000000000000000000000000000000000000000000000000000000 DUP4 EQ AND ISZERO PUSH2 0x6DB JUMPI PUSH2 0x6DA PUSH2 0x5AE JUMP JUMPDEST JUMPDEST DUP3 DUP3 SDIV SWAP1 POP SWAP3 SWAP2 POP POP JUMP JUMPDEST PUSH32 0xE4B88DE883BDE5B08FE4BA8E3100000000000000000000000000000000000000 PUSH0 DUP3 ADD MSTORE POP JUMP JUMPDEST PUSH0 PUSH2 0x71A PUSH1 0xD DUP4 PUSH2 0x442 JUMP JUMPDEST SWAP2 POP PUSH2 0x725 DUP3 PUSH2 0x6E6 JUMP JUMPDEST PUSH1 0x20 DUP3 ADD SWAP1 POP SWAP2 SWAP1 POP JUMP JUMPDEST PUSH0 PUSH1 0x20 DUP3 ADD SWAP1 POP DUP2 DUP2 SUB PUSH0 DUP4 ADD MSTORE PUSH2 0x747 DUP2 PUSH2 0x70E JUMP JUMPDEST SWAP1 POP SWAP2 SWAP1 POP JUMP INVALID LOG2 PUSH5 0x6970667358 0x22 SLT KECCAK256 CALLCODE 0x26 MSTORE SWAP11 0x21 CODESIZE 0x2B PUSH4 0x647853C0 PUSH29 0xB5C26A432EE4E21D4A05BD9ABB6632F3EF472064736F6C634300081A00 CALLER "
				},
				"gasEstimates": {
					"creation": {
						"codeDepositCost": "384800",
						"executionCost": "48953",
						"totalCost": "433753"
					},
					"external": {
						"ethTousd(int256)": "infinite",
						"fund()": "infinite",
						"getChainlinkDataFeedLatestAnswer()": "infinite",
						"msgValue()": "2491",
						"owner()": "2553",
						"sender()": "402",
						"value()": "335"
					}
				},
				"methodIdentifiers": {
					"ethTousd(int256)": "c7bc46c0",
					"fund()": "b60d4288",
					"getChainlinkDataFeedLatestAnswer()": "bea4dfb5",
					"msgValue()": "ddf363d7",
					"owner()": "8da5cb5b",
					"sender()": "67e404ce",
					"value()": "3fa4f245"
				}
			},
			"storageLayout": {
				"storage": [
					{
						"astId": 52,
						"contract": "contracts/026_FundMeFred.sol:FundMe",
						"label": "dataFeed",
						"offset": 0,
						"slot": "0",
						"type": "t_contract(AggregatorV3Interface)45"
					},
					{
						"astId": 54,
						"contract": "contracts/026_FundMeFred.sol:FundMe",
						"label": "owner",
						"offset": 0,
						"slot": "1",
						"type": "t_address"
					},
					{
						"astId": 56,
						"contract": "contracts/026_FundMeFred.sol:FundMe",
						"label": "msgValue",
						"offset": 0,
						"slot": "2",
						"type": "t_uint256"
					}
				],
				"types": {
					"t_address": {
						"encoding": "inplace",
						"label": "address",
						"numberOfBytes": "20"
					},
					"t_contract(AggregatorV3Interface)45": {
						"encoding": "inplace",
						"label": "contract AggregatorV3Interface",
						"numberOfBytes": "20"
					},
					"t_uint256": {
						"encoding": "inplace",
						"label": "uint256",
						"numberOfBytes": "32"
					}
				}
			},
			"userdoc": {
				"kind": "user",
				"methods": {},
				"version": 1
			}
		}
	}
}