{
	"contracts/027_Feeds.sol": {
		"DataConsumerV3": {
			"abi": [
				{
					"inputs": [],
					"stateMutability": "nonpayable",
					"type": "constructor"
				},
				{
					"inputs": [],
					"name": "getChainlinkDataFeedLatestAnswer",
					"outputs": [
						{
							"internalType": "int256",
							"name": "",
							"type": "int256"
						}
					],
					"stateMutability": "view",
					"type": "function"
				}
			],
			"devdoc": {
				"kind": "dev",
				"methods": {},
				"version": 1
			},
			"evm": {
				"assembly": "    /* \"contracts/027_Feeds.sol\":668:1423  contract DataConsumerV3 {... */\n  mstore(0x40, 0x80)\n    /* \"contracts/027_Feeds.sol\":878:1011  constructor() {... */\n  callvalue\n  dup1\n  iszero\n  tag_1\n  jumpi\n  0x00\n  dup1\n  revert\ntag_1:\n  pop\n    /* \"contracts/027_Feeds.sol\":950:992  0x694AA1769357215DE4FAC081bf1f309aDC325306 */\n  0x694aa1769357215de4fac081bf1f309adc325306\n    /* \"contracts/027_Feeds.sol\":903:911  dataFeed */\n  0x00\n  dup1\n    /* \"contracts/027_Feeds.sol\":903:1003  dataFeed = AggregatorV3Interface(... */\n  0x0100\n  exp\n  dup2\n  sload\n  dup2\n  0xffffffffffffffffffffffffffffffffffffffff\n  mul\n  not\n  and\n  swap1\n  dup4\n  0xffffffffffffffffffffffffffffffffffffffff\n  and\n  mul\n  or\n  swap1\n  sstore\n  pop\n    /* \"contracts/027_Feeds.sol\":668:1423  contract DataConsumerV3 {... */\n  dataSize(sub_0)\n  dup1\n  dataOffset(sub_0)\n  0x00\n  codecopy\n  0x00\n  return\nstop\n\nsub_0: assembly {\n        /* \"contracts/027_Feeds.sol\":668:1423  contract DataConsumerV3 {... */\n      mstore(0x40, 0x80)\n      callvalue\n      dup1\n      iszero\n      tag_1\n      jumpi\n      0x00\n      dup1\n      revert\n    tag_1:\n      pop\n      jumpi(tag_2, lt(calldatasize, 0x04))\n      shr(0xe0, calldataload(0x00))\n      dup1\n      0xbea4dfb5\n      eq\n      tag_3\n      jumpi\n    tag_2:\n      0x00\n      dup1\n      revert\n        /* \"contracts/027_Feeds.sol\":1072:1420  function getChainlinkDataFeedLatestAnswer() public view returns (int) {... */\n    tag_3:\n      tag_4\n      tag_5\n      jump\t// in\n    tag_4:\n      mload(0x40)\n      tag_6\n      swap2\n      swap1\n      tag_7\n      jump\t// in\n    tag_6:\n      mload(0x40)\n      dup1\n      swap2\n      sub\n      swap1\n      return\n    tag_5:\n        /* \"contracts/027_Feeds.sol\":1137:1140  int */\n      0x00\n        /* \"contracts/027_Feeds.sol\":1231:1241  int answer */\n      dup1\n        /* \"contracts/027_Feeds.sol\":1362:1370  dataFeed */\n      0x00\n      dup1\n      sload\n      swap1\n      0x0100\n      exp\n      swap1\n      div\n      0xffffffffffffffffffffffffffffffffffffffff\n      and\n        /* \"contracts/027_Feeds.sol\":1362:1386  dataFeed.latestRoundData */\n      0xffffffffffffffffffffffffffffffffffffffff\n      and\n      0xfeaf968c\n        /* \"contracts/027_Feeds.sol\":1362:1388  dataFeed.latestRoundData() */\n      mload(0x40)\n      dup2\n      0xffffffff\n      and\n      0xe0\n      shl\n      dup2\n      mstore\n      0x04\n      add\n      0xa0\n      mload(0x40)\n      dup1\n      dup4\n      sub\n      dup2\n      dup7\n      gas\n      staticcall\n      iszero\n      dup1\n      iszero\n      tag_10\n      jumpi\n      returndatasize\n      0x00\n      dup1\n      returndatacopy\n      revert(0x00, returndatasize)\n    tag_10:\n      pop\n      pop\n      pop\n      pop\n      mload(0x40)\n      returndatasize\n      not(0x1f)\n      0x1f\n      dup3\n      add\n      and\n      dup3\n      add\n      dup1\n      0x40\n      mstore\n      pop\n      dup2\n      add\n      swap1\n      tag_11\n      swap2\n      swap1\n      tag_12\n      jump\t// in\n    tag_11:\n        /* \"contracts/027_Feeds.sol\":1181:1388  (... */\n      pop\n      pop\n      pop\n      swap2\n      pop\n      pop\n        /* \"contracts/027_Feeds.sol\":1406:1412  answer */\n      dup1\n        /* \"contracts/027_Feeds.sol\":1399:1412  return answer */\n      swap2\n      pop\n      pop\n        /* \"contracts/027_Feeds.sol\":1072:1420  function getChainlinkDataFeedLatestAnswer() public view returns (int) {... */\n      swap1\n      jump\t// out\n        /* \"#utility.yul\":7:83   */\n    tag_13:\n        /* \"#utility.yul\":43:50   */\n      0x00\n        /* \"#utility.yul\":72:77   */\n      dup2\n        /* \"#utility.yul\":61:77   */\n      swap1\n      pop\n        /* \"#utility.yul\":7:83   */\n      swap2\n      swap1\n      pop\n      jump\t// out\n        /* \"#utility.yul\":89:204   */\n    tag_14:\n        /* \"#utility.yul\":174:197   */\n      tag_29\n        /* \"#utility.yul\":191:196   */\n      dup2\n        /* \"#utility.yul\":174:197   */\n      tag_13\n      jump\t// in\n    tag_29:\n        /* \"#utility.yul\":169:172   */\n      dup3\n        /* \"#utility.yul\":162:198   */\n      mstore\n        /* \"#utility.yul\":89:204   */\n      pop\n      pop\n      jump\t// out\n        /* \"#utility.yul\":210:428   */\n    tag_7:\n        /* \"#utility.yul\":301:305   */\n      0x00\n        /* \"#utility.yul\":339:341   */\n      0x20\n        /* \"#utility.yul\":328:337   */\n      dup3\n        /* \"#utility.yul\":324:342   */\n      add\n        /* \"#utility.yul\":316:342   */\n      swap1\n      pop\n        /* \"#utility.yul\":352:421   */\n      tag_31\n        /* \"#utility.yul\":418:419   */\n      0x00\n        /* \"#utility.yul\":407:416   */\n      dup4\n        /* \"#utility.yul\":403:420   */\n      add\n        /* \"#utility.yul\":394:400   */\n      dup5\n        /* \"#utility.yul\":352:421   */\n      tag_14\n      jump\t// in\n    tag_31:\n        /* \"#utility.yul\":210:428   */\n      swap3\n      swap2\n      pop\n      pop\n      jump\t// out\n        /* \"#utility.yul\":515:632   */\n    tag_16:\n        /* \"#utility.yul\":624:625   */\n      0x00\n        /* \"#utility.yul\":621:622   */\n      dup1\n        /* \"#utility.yul\":614:626   */\n      revert\n        /* \"#utility.yul\":761:866   */\n    tag_18:\n        /* \"#utility.yul\":797:804   */\n      0x00\n        /* \"#utility.yul\":837:859   */\n      0xffffffffffffffffffff\n        /* \"#utility.yul\":830:835   */\n      dup3\n        /* \"#utility.yul\":826:860   */\n      and\n        /* \"#utility.yul\":815:860   */\n      swap1\n      pop\n        /* \"#utility.yul\":761:866   */\n      swap2\n      swap1\n      pop\n      jump\t// out\n        /* \"#utility.yul\":872:992   */\n    tag_19:\n        /* \"#utility.yul\":944:967   */\n      tag_37\n        /* \"#utility.yul\":961:966   */\n      dup2\n        /* \"#utility.yul\":944:967   */\n      tag_18\n      jump\t// in\n    tag_37:\n        /* \"#utility.yul\":937:942   */\n      dup2\n        /* \"#utility.yul\":934:968   */\n      eq\n        /* \"#utility.yul\":924:986   */\n      tag_38\n      jumpi\n        /* \"#utility.yul\":982:983   */\n      0x00\n        /* \"#utility.yul\":979:980   */\n      dup1\n        /* \"#utility.yul\":972:984   */\n      revert\n        /* \"#utility.yul\":924:986   */\n    tag_38:\n        /* \"#utility.yul\":872:992   */\n      pop\n      jump\t// out\n        /* \"#utility.yul\":998:1139   */\n    tag_20:\n        /* \"#utility.yul\":1054:1059   */\n      0x00\n        /* \"#utility.yul\":1085:1091   */\n      dup2\n        /* \"#utility.yul\":1079:1092   */\n      mload\n        /* \"#utility.yul\":1070:1092   */\n      swap1\n      pop\n        /* \"#utility.yul\":1101:1133   */\n      tag_40\n        /* \"#utility.yul\":1127:1132   */\n      dup2\n        /* \"#utility.yul\":1101:1133   */\n      tag_19\n      jump\t// in\n    tag_40:\n        /* \"#utility.yul\":998:1139   */\n      swap3\n      swap2\n      pop\n      pop\n      jump\t// out\n        /* \"#utility.yul\":1145:1265   */\n    tag_21:\n        /* \"#utility.yul\":1217:1240   */\n      tag_42\n        /* \"#utility.yul\":1234:1239   */\n      dup2\n        /* \"#utility.yul\":1217:1240   */\n      tag_13\n      jump\t// in\n    tag_42:\n        /* \"#utility.yul\":1210:1215   */\n      dup2\n        /* \"#utility.yul\":1207:1241   */\n      eq\n        /* \"#utility.yul\":1197:1259   */\n      tag_43\n      jumpi\n        /* \"#utility.yul\":1255:1256   */\n      0x00\n        /* \"#utility.yul\":1252:1253   */\n      dup1\n        /* \"#utility.yul\":1245:1257   */\n      revert\n        /* \"#utility.yul\":1197:1259   */\n    tag_43:\n        /* \"#utility.yul\":1145:1265   */\n      pop\n      jump\t// out\n        /* \"#utility.yul\":1271:1412   */\n    tag_22:\n        /* \"#utility.yul\":1327:1332   */\n      0x00\n        /* \"#utility.yul\":1358:1364   */\n      dup2\n        /* \"#utility.yul\":1352:1365   */\n      mload\n        /* \"#utility.yul\":1343:1365   */\n      swap1\n      pop\n        /* \"#utility.yul\":1374:1406   */\n      tag_45\n        /* \"#utility.yul\":1400:1405   */\n      dup2\n        /* \"#utility.yul\":1374:1406   */\n      tag_21\n      jump\t// in\n    tag_45:\n        /* \"#utility.yul\":1271:1412   */\n      swap3\n      swap2\n      pop\n      pop\n      jump\t// out\n        /* \"#utility.yul\":1418:1495   */\n    tag_23:\n        /* \"#utility.yul\":1455:1462   */\n      0x00\n        /* \"#utility.yul\":1484:1489   */\n      dup2\n        /* \"#utility.yul\":1473:1489   */\n      swap1\n      pop\n        /* \"#utility.yul\":1418:1495   */\n      swap2\n      swap1\n      pop\n      jump\t// out\n        /* \"#utility.yul\":1501:1623   */\n    tag_24:\n        /* \"#utility.yul\":1574:1598   */\n      tag_48\n        /* \"#utility.yul\":1592:1597   */\n      dup2\n        /* \"#utility.yul\":1574:1598   */\n      tag_23\n      jump\t// in\n    tag_48:\n        /* \"#utility.yul\":1567:1572   */\n      dup2\n        /* \"#utility.yul\":1564:1599   */\n      eq\n        /* \"#utility.yul\":1554:1617   */\n      tag_49\n      jumpi\n        /* \"#utility.yul\":1613:1614   */\n      0x00\n        /* \"#utility.yul\":1610:1611   */\n      dup1\n        /* \"#utility.yul\":1603:1615   */\n      revert\n        /* \"#utility.yul\":1554:1617   */\n    tag_49:\n        /* \"#utility.yul\":1501:1623   */\n      pop\n      jump\t// out\n        /* \"#utility.yul\":1629:1772   */\n    tag_25:\n        /* \"#utility.yul\":1686:1691   */\n      0x00\n        /* \"#utility.yul\":1717:1723   */\n      dup2\n        /* \"#utility.yul\":1711:1724   */\n      mload\n        /* \"#utility.yul\":1702:1724   */\n      swap1\n      pop\n        /* \"#utility.yul\":1733:1766   */\n      tag_51\n        /* \"#utility.yul\":1760:1765   */\n      dup2\n        /* \"#utility.yul\":1733:1766   */\n      tag_24\n      jump\t// in\n    tag_51:\n        /* \"#utility.yul\":1629:1772   */\n      swap3\n      swap2\n      pop\n      pop\n      jump\t// out\n        /* \"#utility.yul\":1778:2749   */\n    tag_12:\n        /* \"#utility.yul\":1881:1887   */\n      0x00\n        /* \"#utility.yul\":1889:1895   */\n      dup1\n        /* \"#utility.yul\":1897:1903   */\n      0x00\n        /* \"#utility.yul\":1905:1911   */\n      dup1\n        /* \"#utility.yul\":1913:1919   */\n      0x00\n        /* \"#utility.yul\":1962:1965   */\n      0xa0\n        /* \"#utility.yul\":1950:1959   */\n      dup7\n        /* \"#utility.yul\":1941:1948   */\n      dup9\n        /* \"#utility.yul\":1937:1960   */\n      sub\n        /* \"#utility.yul\":1933:1966   */\n      slt\n        /* \"#utility.yul\":1930:2050   */\n      iszero\n      tag_53\n      jumpi\n        /* \"#utility.yul\":1969:2048   */\n      tag_54\n      tag_16\n      jump\t// in\n    tag_54:\n        /* \"#utility.yul\":1930:2050   */\n    tag_53:\n        /* \"#utility.yul\":2089:2090   */\n      0x00\n        /* \"#utility.yul\":2114:2177   */\n      tag_55\n        /* \"#utility.yul\":2169:2176   */\n      dup9\n        /* \"#utility.yul\":2160:2166   */\n      dup3\n        /* \"#utility.yul\":2149:2158   */\n      dup10\n        /* \"#utility.yul\":2145:2167   */\n      add\n        /* \"#utility.yul\":2114:2177   */\n      tag_20\n      jump\t// in\n    tag_55:\n        /* \"#utility.yul\":2104:2177   */\n      swap6\n      pop\n        /* \"#utility.yul\":2060:2187   */\n      pop\n        /* \"#utility.yul\":2226:2228   */\n      0x20\n        /* \"#utility.yul\":2252:2315   */\n      tag_56\n        /* \"#utility.yul\":2307:2314   */\n      dup9\n        /* \"#utility.yul\":2298:2304   */\n      dup3\n        /* \"#utility.yul\":2287:2296   */\n      dup10\n        /* \"#utility.yul\":2283:2305   */\n      add\n        /* \"#utility.yul\":2252:2315   */\n      tag_22\n      jump\t// in\n    tag_56:\n        /* \"#utility.yul\":2242:2315   */\n      swap5\n      pop\n        /* \"#utility.yul\":2197:2325   */\n      pop\n        /* \"#utility.yul\":2364:2366   */\n      0x40\n        /* \"#utility.yul\":2390:2454   */\n      tag_57\n        /* \"#utility.yul\":2446:2453   */\n      dup9\n        /* \"#utility.yul\":2437:2443   */\n      dup3\n        /* \"#utility.yul\":2426:2435   */\n      dup10\n        /* \"#utility.yul\":2422:2444   */\n      add\n        /* \"#utility.yul\":2390:2454   */\n      tag_25\n      jump\t// in\n    tag_57:\n        /* \"#utility.yul\":2380:2454   */\n      swap4\n      pop\n        /* \"#utility.yul\":2335:2464   */\n      pop\n        /* \"#utility.yul\":2503:2505   */\n      0x60\n        /* \"#utility.yul\":2529:2593   */\n      tag_58\n        /* \"#utility.yul\":2585:2592   */\n      dup9\n        /* \"#utility.yul\":2576:2582   */\n      dup3\n        /* \"#utility.yul\":2565:2574   */\n      dup10\n        /* \"#utility.yul\":2561:2583   */\n      add\n        /* \"#utility.yul\":2529:2593   */\n      tag_25\n      jump\t// in\n    tag_58:\n        /* \"#utility.yul\":2519:2593   */\n      swap3\n      pop\n        /* \"#utility.yul\":2474:2603   */\n      pop\n        /* \"#utility.yul\":2642:2645   */\n      0x80\n        /* \"#utility.yul\":2669:2732   */\n      tag_59\n        /* \"#utility.yul\":2724:2731   */\n      dup9\n        /* \"#utility.yul\":2715:2721   */\n      dup3\n        /* \"#utility.yul\":2704:2713   */\n      dup10\n        /* \"#utility.yul\":2700:2722   */\n      add\n        /* \"#utility.yul\":2669:2732   */\n      tag_20\n      jump\t// in\n    tag_59:\n        /* \"#utility.yul\":2659:2732   */\n      swap2\n      pop\n        /* \"#utility.yul\":2613:2742   */\n      pop\n        /* \"#utility.yul\":1778:2749   */\n      swap3\n      swap6\n      pop\n      swap3\n      swap6\n      swap1\n      swap4\n      pop\n      jump\t// out\n\n    auxdata: 0xa26469706673582212206949ec45a516389f0322c7c8cc45a2e9bf9ea42705b2e8da5ca6967408d0ae8464736f6c634300081a0033\n}\n",
				"bytecode": {
					"linkReferences": {},
					"object": "6080604052348015600e575f80fd5b5073694aa1769357215de4fac081bf1f309adc3253065f806101000a81548173ffffffffffffffffffffffffffffffffffffffff021916908373ffffffffffffffffffffffffffffffffffffffff1602179055506102648061006f5f395ff3fe608060405234801561000f575f80fd5b5060043610610029575f3560e01c8063bea4dfb51461002d575b5f80fd5b61003561004b565b60405161004291906100fe565b60405180910390f35b5f805f8054906101000a900473ffffffffffffffffffffffffffffffffffffffff1673ffffffffffffffffffffffffffffffffffffffff1663feaf968c6040518163ffffffff1660e01b815260040160a060405180830381865afa1580156100b5573d5f803e3d5ffd5b505050506040513d601f19601f820116820180604052508101906100d991906101b7565b5050509150508091505090565b5f819050919050565b6100f8816100e6565b82525050565b5f6020820190506101115f8301846100ef565b92915050565b5f80fd5b5f69ffffffffffffffffffff82169050919050565b6101398161011b565b8114610143575f80fd5b50565b5f8151905061015481610130565b92915050565b610163816100e6565b811461016d575f80fd5b50565b5f8151905061017e8161015a565b92915050565b5f819050919050565b61019681610184565b81146101a0575f80fd5b50565b5f815190506101b18161018d565b92915050565b5f805f805f60a086880312156101d0576101cf610117565b5b5f6101dd88828901610146565b95505060206101ee88828901610170565b94505060406101ff888289016101a3565b9350506060610210888289016101a3565b925050608061022188828901610146565b915050929550929590935056fea26469706673582212206949ec45a516389f0322c7c8cc45a2e9bf9ea42705b2e8da5ca6967408d0ae8464736f6c634300081a0033",
					"opcodes": "PUSH1 0x80 PUSH1 0x40 MSTORE CALLVALUE DUP1 ISZERO PUSH1 0xE JUMPI PUSH0 DUP1 REVERT JUMPDEST POP PUSH20 0x694AA1769357215DE4FAC081BF1F309ADC325306 PUSH0 DUP1 PUSH2 0x100 EXP DUP2 SLOAD DUP2 PUSH20 0xFFFFFFFFFFFFFFFFFFFFFFFFFFFFFFFFFFFFFFFF MUL NOT AND SWAP1 DUP4 PUSH20 0xFFFFFFFFFFFFFFFFFFFFFFFFFFFFFFFFFFFFFFFF AND MUL OR SWAP1 SSTORE POP PUSH2 0x264 DUP1 PUSH2 0x6F PUSH0 CODECOPY PUSH0 RETURN INVALID PUSH1 0x80 PUSH1 0x40 MSTORE CALLVALUE DUP1 ISZERO PUSH2 0xF JUMPI PUSH0 DUP1 REVERT JUMPDEST POP PUSH1 0x4 CALLDATASIZE LT PUSH2 0x29 JUMPI PUSH0 CALLDATALOAD PUSH1 0xE0 SHR DUP1 PUSH4 0xBEA4DFB5 EQ PUSH2 0x2D JUMPI JUMPDEST PUSH0 DUP1 REVERT JUMPDEST PUSH2 0x35 PUSH2 0x4B JUMP JUMPDEST PUSH1 0x40 MLOAD PUSH2 0x42 SWAP2 SWAP1 PUSH2 0xFE JUMP JUMPDEST PUSH1 0x40 MLOAD DUP1 SWAP2 SUB SWAP1 RETURN JUMPDEST PUSH0 DUP1 PUSH0 DUP1 SLOAD SWAP1 PUSH2 0x100 EXP SWAP1 DIV PUSH20 0xFFFFFFFFFFFFFFFFFFFFFFFFFFFFFFFFFFFFFFFF AND PUSH20 0xFFFFFFFFFFFFFFFFFFFFFFFFFFFFFFFFFFFFFFFF AND PUSH4 0xFEAF968C PUSH1 0x40 MLOAD DUP2 PUSH4 0xFFFFFFFF AND PUSH1 0xE0 SHL DUP2 MSTORE PUSH1 0x4 ADD PUSH1 0xA0 PUSH1 0x40 MLOAD DUP1 DUP4 SUB DUP2 DUP7 GAS STATICCALL ISZERO DUP1 ISZERO PUSH2 0xB5 JUMPI RETURNDATASIZE PUSH0 DUP1 RETURNDATACOPY RETURNDATASIZE PUSH0 REVERT JUMPDEST POP POP POP POP PUSH1 0x40 MLOAD RETURNDATASIZE PUSH1 0x1F NOT PUSH1 0x1F DUP3 ADD AND DUP3 ADD DUP1 PUSH1 0x40 MSTORE POP DUP2 ADD SWAP1 PUSH2 0xD9 SWAP2 SWAP1 PUSH2 0x1B7 JUMP JUMPDEST POP POP POP SWAP2 POP POP DUP1 SWAP2 POP POP SWAP1 JUMP JUMPDEST PUSH0 DUP2 SWAP1 POP SWAP2 SWAP1 POP JUMP JUMPDEST PUSH2 0xF8 DUP2 PUSH2 0xE6 JUMP JUMPDEST DUP3 MSTORE POP POP JUMP JUMPDEST PUSH0 PUSH1 0x20 DUP3 ADD SWAP1 POP PUSH2 0x111 PUSH0 DUP4 ADD DUP5 PUSH2 0xEF JUMP JUMPDEST SWAP3 SWAP2 POP POP JUMP JUMPDEST PUSH0 DUP1 REVERT JUMPDEST PUSH0 PUSH10 0xFFFFFFFFFFFFFFFFFFFF DUP3 AND SWAP1 POP SWAP2 SWAP1 POP JUMP JUMPDEST PUSH2 0x139 DUP2 PUSH2 0x11B JUMP JUMPDEST DUP2 EQ PUSH2 0x143 JUMPI PUSH0 DUP1 REVERT JUMPDEST POP JUMP JUMPDEST PUSH0 DUP2 MLOAD SWAP1 POP PUSH2 0x154 DUP2 PUSH2 0x130 JUMP JUMPDEST SWAP3 SWAP2 POP POP JUMP JUMPDEST PUSH2 0x163 DUP2 PUSH2 0xE6 JUMP JUMPDEST DUP2 EQ PUSH2 0x16D JUMPI PUSH0 DUP1 REVERT JUMPDEST POP JUMP JUMPDEST PUSH0 DUP2 MLOAD SWAP1 POP PUSH2 0x17E DUP2 PUSH2 0x15A JUMP JUMPDEST SWAP3 SWAP2 POP POP JUMP JUMPDEST PUSH0 DUP2 SWAP1 POP SWAP2 SWAP1 POP JUMP JUMPDEST PUSH2 0x196 DUP2 PUSH2 0x184 JUMP JUMPDEST DUP2 EQ PUSH2 0x1A0 JUMPI PUSH0 DUP1 REVERT JUMPDEST POP JUMP JUMPDEST PUSH0 DUP2 MLOAD SWAP1 POP PUSH2 0x1B1 DUP2 PUSH2 0x18D JUMP JUMPDEST SWAP3 SWAP2 POP POP JUMP JUMPDEST PUSH0 DUP1 PUSH0 DUP1 PUSH0 PUSH1 0xA0 DUP7 DUP9 SUB SLT ISZERO PUSH2 0x1D0 JUMPI PUSH2 0x1CF PUSH2 0x117 JUMP JUMPDEST JUMPDEST PUSH0 PUSH2 0x1DD DUP9 DUP3 DUP10 ADD PUSH2 0x146 JUMP JUMPDEST SWAP6 POP POP PUSH1 0x20 PUSH2 0x1EE DUP9 DUP3 DUP10 ADD PUSH2 0x170 JUMP JUMPDEST SWAP5 POP POP PUSH1 0x40 PUSH2 0x1FF DUP9 DUP3 DUP10 ADD PUSH2 0x1A3 JUMP JUMPDEST SWAP4 POP POP PUSH1 0x60 PUSH2 0x210 DUP9 DUP3 DUP10 ADD PUSH2 0x1A3 JUMP JUMPDEST SWAP3 POP POP PUSH1 0x80 PUSH2 0x221 DUP9 DUP3 DUP10 ADD PUSH2 0x146 JUMP JUMPDEST SWAP2 POP POP SWAP3 SWAP6 POP SWAP3 SWAP6 SWAP1 SWAP4 POP JUMP INVALID LOG2 PUSH5 0x6970667358 0x22 SLT KECCAK256 PUSH10 0x49EC45A516389F0322C7 0xC8 0xCC GASLIMIT LOG2 0xE9 0xBF SWAP15 LOG4 0x27 SDIV 0xB2 0xE8 0xDA TLOAD 0xA6 SWAP7 PUSH21 0x8D0AE8464736F6C634300081A0033000000000000 "
				},
				"gasEstimates": {
					"creation": {
						"codeDepositCost": "122400",
						"executionCost": "24435",
						"totalCost": "146835"
					},
					"external": {
						"getChainlinkDataFeedLatestAnswer()": "infinite"
					}
				},
				"methodIdentifiers": {
					"getChainlinkDataFeedLatestAnswer()": "bea4dfb5"
				}
			},
			"storageLayout": {
				"storage": [
					{
						"astId": 53,
						"contract": "contracts/027_Feeds.sol:DataConsumerV3",
						"label": "dataFeed",
						"offset": 0,
						"slot": "0",
						"type": "t_contract(AggregatorV3Interface)45"
					}
				],
				"types": {
					"t_contract(AggregatorV3Interface)45": {
						"encoding": "inplace",
						"label": "contract AggregatorV3Interface",
						"numberOfBytes": "20"
					}
				}
			},
			"userdoc": {
				"kind": "user",
				"methods": {
					"constructor": {
						"notice": "Network: Sepolia Aggregator: BTC/USD Address: 0x1b44F3514812d835EB1BDB0acB33d3fA3351Ee43"
					},
					"getChainlinkDataFeedLatestAnswer()": {
						"notice": "Returns the latest answer."
					}
				},
				"notice": "If you are reading data feeds on L2 networks, you must check the latest answer from the L2 Sequencer Uptime Feed to ensure that the data is accurate in the event of an L2 sequencer outage. See the https://docs.chain.link/data-feeds/l2-sequencer-feeds page for details.",
				"version": 1
			}
		}
	}
}