{
	"contracts/Structs.sol": {
		"Todos": {
			"abi": [
				{
					"inputs": [
						{
							"internalType": "string",
							"name": "_text",
							"type": "string"
						}
					],
					"name": "create",
					"outputs": [],
					"stateMutability": "nonpayable",
					"type": "function"
				},
				{
					"inputs": [
						{
							"internalType": "uint256",
							"name": "",
							"type": "uint256"
						}
					],
					"name": "todos",
					"outputs": [
						{
							"internalType": "string",
							"name": "text",
							"type": "string"
						},
						{
							"internalType": "bool",
							"name": "completed",
							"type": "bool"
						}
					],
					"stateMutability": "view",
					"type": "function"
				}
			],
			"devdoc": {
				"kind": "dev",
				"methods": {},
				"version": 1
			},
			"evm": {
				"assembly": "    /* \"contracts/Structs.sol\":61:344  contract Todos{... */\n  mstore(0x40, 0x80)\n  callvalue\n  dup1\n  iszero\n  tag_1\n  jumpi\n  0x00\n  dup1\n  revert\ntag_1:\n  pop\n  dataSize(sub_0)\n  dup1\n  dataOffset(sub_0)\n  0x00\n  codecopy\n  0x00\n  return\nstop\n\nsub_0: assembly {\n        /* \"contracts/Structs.sol\":61:344  contract Todos{... */\n      mstore(0x40, 0x80)\n      callvalue\n      dup1\n      iszero\n      tag_1\n      jumpi\n      0x00\n      dup1\n      revert\n    tag_1:\n      pop\n      jumpi(tag_2, lt(calldatasize, 0x04))\n      shr(0xe0, calldataload(0x00))\n      dup1\n      0xb6a46b3b\n      eq\n      tag_3\n      jumpi\n      dup1\n      0xbc8bc2b4\n      eq\n      tag_4\n      jumpi\n    tag_2:\n      0x00\n      dup1\n      revert\n        /* \"contracts/Structs.sol\":184:341  function create(string calldata _text) public{... */\n    tag_3:\n      tag_5\n      0x04\n      dup1\n      calldatasize\n      sub\n      dup2\n      add\n      swap1\n      tag_6\n      swap2\n      swap1\n      tag_7\n      jump\t// in\n    tag_6:\n      tag_8\n      jump\t// in\n    tag_5:\n      stop\n        /* \"contracts/Structs.sol\":156:175  Todo[] public todos */\n    tag_4:\n      tag_9\n      0x04\n      dup1\n      calldatasize\n      sub\n      dup2\n      add\n      swap1\n      tag_10\n      swap2\n      swap1\n      tag_11\n      jump\t// in\n    tag_10:\n      tag_12\n      jump\t// in\n    tag_9:\n      mload(0x40)\n      tag_13\n      swap3\n      swap2\n      swap1\n      tag_14\n      jump\t// in\n    tag_13:\n      mload(0x40)\n      dup1\n      swap2\n      sub\n      swap1\n      return\n        /* \"contracts/Structs.sol\":184:341  function create(string calldata _text) public{... */\n    tag_8:\n        /* \"contracts/Structs.sol\":284:289  todos */\n      0x00\n        /* \"contracts/Structs.sol\":295:332  Todo({text: _text, completed: false}) */\n      mload(0x40)\n      dup1\n      0x40\n      add\n      0x40\n      mstore\n      dup1\n        /* \"contracts/Structs.sol\":307:312  _text */\n      dup5\n      dup5\n        /* \"contracts/Structs.sol\":295:332  Todo({text: _text, completed: false}) */\n      dup1\n      dup1\n      0x1f\n      add\n      0x20\n      dup1\n      swap2\n      div\n      mul\n      0x20\n      add\n      mload(0x40)\n      swap1\n      dup2\n      add\n      0x40\n      mstore\n      dup1\n      swap4\n      swap3\n      swap2\n      swap1\n      dup2\n      dup2\n      mstore\n      0x20\n      add\n      dup4\n      dup4\n      dup1\n      dup3\n      dup5\n      calldatacopy\n      0x00\n      dup2\n      dup5\n      add\n      mstore\n      not(0x1f)\n      0x1f\n      dup3\n      add\n      and\n      swap1\n      pop\n      dup1\n      dup4\n      add\n      swap3\n      pop\n      pop\n      pop\n      pop\n      pop\n      pop\n      pop\n      dup2\n      mstore\n      0x20\n      add\n        /* \"contracts/Structs.sol\":325:330  false */\n      0x00\n        /* \"contracts/Structs.sol\":295:332  Todo({text: _text, completed: false}) */\n      iszero\n      iszero\n      dup2\n      mstore\n      pop\n        /* \"contracts/Structs.sol\":284:333  todos.push(Todo({text: _text, completed: false})) */\n      swap1\n      dup1\n      0x01\n      dup2\n      sload\n      add\n      dup1\n      dup3\n      sstore\n      dup1\n      swap2\n      pop\n      pop\n      0x01\n      swap1\n      sub\n      swap1\n      0x00\n      mstore\n      keccak256(0x00, 0x20)\n      swap1\n      0x02\n      mul\n      add\n      0x00\n      swap1\n      swap2\n      swap1\n      swap2\n      swap1\n      swap2\n      pop\n      0x00\n      dup3\n      add\n      mload\n      dup2\n      0x00\n      add\n      swap1\n      dup2\n      tag_17\n      swap2\n      swap1\n      tag_18\n      jump\t// in\n    tag_17:\n      pop\n      0x20\n      dup3\n      add\n      mload\n      dup2\n      0x01\n      add\n      exp(0x0100, 0x00)\n      dup2\n      sload\n      dup2\n      0xff\n      mul\n      not\n      and\n      swap1\n      dup4\n      iszero\n      iszero\n      mul\n      or\n      swap1\n      sstore\n      pop\n      pop\n      pop\n        /* \"contracts/Structs.sol\":184:341  function create(string calldata _text) public{... */\n      pop\n      pop\n      jump\t// out\n        /* \"contracts/Structs.sol\":156:175  Todo[] public todos */\n    tag_12:\n      0x00\n      dup2\n      dup2\n      sload\n      dup2\n      lt\n      tag_19\n      jumpi\n      0x00\n      dup1\n      revert\n    tag_19:\n      swap1\n      0x00\n      mstore\n      keccak256(0x00, 0x20)\n      swap1\n      0x02\n      mul\n      add\n      0x00\n      swap2\n      pop\n      swap1\n      pop\n      dup1\n      0x00\n      add\n      dup1\n      sload\n      tag_21\n      swap1\n      tag_22\n      jump\t// in\n    tag_21:\n      dup1\n      0x1f\n      add\n      0x20\n      dup1\n      swap2\n      div\n      mul\n      0x20\n      add\n      mload(0x40)\n      swap1\n      dup2\n      add\n      0x40\n      mstore\n      dup1\n      swap3\n      swap2\n      swap1\n      dup2\n      dup2\n      mstore\n      0x20\n      add\n      dup3\n      dup1\n      sload\n      tag_23\n      swap1\n      tag_22\n      jump\t// in\n    tag_23:\n      dup1\n      iszero\n      tag_24\n      jumpi\n      dup1\n      0x1f\n      lt\n      tag_25\n      jumpi\n      0x0100\n      dup1\n      dup4\n      sload\n      div\n      mul\n      dup4\n      mstore\n      swap2\n      0x20\n      add\n      swap2\n      jump(tag_24)\n    tag_25:\n      dup3\n      add\n      swap2\n      swap1\n      0x00\n      mstore\n      keccak256(0x00, 0x20)\n      swap1\n    tag_26:\n      dup2\n      sload\n      dup2\n      mstore\n      swap1\n      0x01\n      add\n      swap1\n      0x20\n      add\n      dup1\n      dup4\n      gt\n      tag_26\n      jumpi\n      dup3\n      swap1\n      sub\n      0x1f\n      and\n      dup3\n      add\n      swap2\n    tag_24:\n      pop\n      pop\n      pop\n      pop\n      pop\n      swap1\n      dup1\n      0x01\n      add\n      0x00\n      swap1\n      sload\n      swap1\n      0x0100\n      exp\n      swap1\n      div\n      0xff\n      and\n      swap1\n      pop\n      dup3\n      jump\t// out\n        /* \"#utility.yul\":88:205   */\n    tag_28:\n        /* \"#utility.yul\":197:198   */\n      0x00\n        /* \"#utility.yul\":194:195   */\n      dup1\n        /* \"#utility.yul\":187:199   */\n      revert\n        /* \"#utility.yul\":211:328   */\n    tag_29:\n        /* \"#utility.yul\":320:321   */\n      0x00\n        /* \"#utility.yul\":317:318   */\n      dup1\n        /* \"#utility.yul\":310:322   */\n      revert\n        /* \"#utility.yul\":334:451   */\n    tag_30:\n        /* \"#utility.yul\":443:444   */\n      0x00\n        /* \"#utility.yul\":440:441   */\n      dup1\n        /* \"#utility.yul\":433:445   */\n      revert\n        /* \"#utility.yul\":457:574   */\n    tag_31:\n        /* \"#utility.yul\":566:567   */\n      0x00\n        /* \"#utility.yul\":563:564   */\n      dup1\n        /* \"#utility.yul\":556:568   */\n      revert\n        /* \"#utility.yul\":580:697   */\n    tag_32:\n        /* \"#utility.yul\":689:690   */\n      0x00\n        /* \"#utility.yul\":686:687   */\n      dup1\n        /* \"#utility.yul\":679:691   */\n      revert\n        /* \"#utility.yul\":717:1270   */\n    tag_33:\n        /* \"#utility.yul\":775:783   */\n      0x00\n        /* \"#utility.yul\":785:791   */\n      dup1\n        /* \"#utility.yul\":835:838   */\n      dup4\n        /* \"#utility.yul\":828:832   */\n      0x1f\n        /* \"#utility.yul\":820:826   */\n      dup5\n        /* \"#utility.yul\":816:833   */\n      add\n        /* \"#utility.yul\":812:839   */\n      slt\n        /* \"#utility.yul\":802:924   */\n      tag_69\n      jumpi\n        /* \"#utility.yul\":843:922   */\n      tag_70\n      tag_30\n      jump\t// in\n    tag_70:\n        /* \"#utility.yul\":802:924   */\n    tag_69:\n        /* \"#utility.yul\":956:962   */\n      dup3\n        /* \"#utility.yul\":943:963   */\n      calldataload\n        /* \"#utility.yul\":933:963   */\n      swap1\n      pop\n        /* \"#utility.yul\":986:1004   */\n      0xffffffffffffffff\n        /* \"#utility.yul\":978:984   */\n      dup2\n        /* \"#utility.yul\":975:1005   */\n      gt\n        /* \"#utility.yul\":972:1089   */\n      iszero\n      tag_71\n      jumpi\n        /* \"#utility.yul\":1008:1087   */\n      tag_72\n      tag_31\n      jump\t// in\n    tag_72:\n        /* \"#utility.yul\":972:1089   */\n    tag_71:\n        /* \"#utility.yul\":1122:1126   */\n      0x20\n        /* \"#utility.yul\":1114:1120   */\n      dup4\n        /* \"#utility.yul\":1110:1127   */\n      add\n        /* \"#utility.yul\":1098:1127   */\n      swap2\n      pop\n        /* \"#utility.yul\":1176:1179   */\n      dup4\n        /* \"#utility.yul\":1168:1172   */\n      0x01\n        /* \"#utility.yul\":1160:1166   */\n      dup3\n        /* \"#utility.yul\":1156:1173   */\n      mul\n        /* \"#utility.yul\":1146:1154   */\n      dup4\n        /* \"#utility.yul\":1142:1174   */\n      add\n        /* \"#utility.yul\":1139:1180   */\n      gt\n        /* \"#utility.yul\":1136:1264   */\n      iszero\n      tag_73\n      jumpi\n        /* \"#utility.yul\":1183:1262   */\n      tag_74\n      tag_32\n      jump\t// in\n    tag_74:\n        /* \"#utility.yul\":1136:1264   */\n    tag_73:\n        /* \"#utility.yul\":717:1270   */\n      swap3\n      pop\n      swap3\n      swap1\n      pop\n      jump\t// out\n        /* \"#utility.yul\":1276:1805   */\n    tag_7:\n        /* \"#utility.yul\":1347:1353   */\n      0x00\n        /* \"#utility.yul\":1355:1361   */\n      dup1\n        /* \"#utility.yul\":1404:1406   */\n      0x20\n        /* \"#utility.yul\":1392:1401   */\n      dup4\n        /* \"#utility.yul\":1383:1390   */\n      dup6\n        /* \"#utility.yul\":1379:1402   */\n      sub\n        /* \"#utility.yul\":1375:1407   */\n      slt\n        /* \"#utility.yul\":1372:1491   */\n      iszero\n      tag_76\n      jumpi\n        /* \"#utility.yul\":1410:1489   */\n      tag_77\n      tag_28\n      jump\t// in\n    tag_77:\n        /* \"#utility.yul\":1372:1491   */\n    tag_76:\n        /* \"#utility.yul\":1558:1559   */\n      0x00\n        /* \"#utility.yul\":1547:1556   */\n      dup4\n        /* \"#utility.yul\":1543:1560   */\n      add\n        /* \"#utility.yul\":1530:1561   */\n      calldataload\n        /* \"#utility.yul\":1588:1606   */\n      0xffffffffffffffff\n        /* \"#utility.yul\":1580:1586   */\n      dup2\n        /* \"#utility.yul\":1577:1607   */\n      gt\n        /* \"#utility.yul\":1574:1691   */\n      iszero\n      tag_78\n      jumpi\n        /* \"#utility.yul\":1610:1689   */\n      tag_79\n      tag_29\n      jump\t// in\n    tag_79:\n        /* \"#utility.yul\":1574:1691   */\n    tag_78:\n        /* \"#utility.yul\":1723:1788   */\n      tag_80\n        /* \"#utility.yul\":1780:1787   */\n      dup6\n        /* \"#utility.yul\":1771:1777   */\n      dup3\n        /* \"#utility.yul\":1760:1769   */\n      dup7\n        /* \"#utility.yul\":1756:1778   */\n      add\n        /* \"#utility.yul\":1723:1788   */\n      tag_33\n      jump\t// in\n    tag_80:\n        /* \"#utility.yul\":1705:1788   */\n      swap3\n      pop\n      swap3\n      pop\n        /* \"#utility.yul\":1501:1798   */\n      pop\n        /* \"#utility.yul\":1276:1805   */\n      swap3\n      pop\n      swap3\n      swap1\n      pop\n      jump\t// out\n        /* \"#utility.yul\":1811:1888   */\n    tag_34:\n        /* \"#utility.yul\":1848:1855   */\n      0x00\n        /* \"#utility.yul\":1877:1882   */\n      dup2\n        /* \"#utility.yul\":1866:1882   */\n      swap1\n      pop\n        /* \"#utility.yul\":1811:1888   */\n      swap2\n      swap1\n      pop\n      jump\t// out\n        /* \"#utility.yul\":1894:2016   */\n    tag_35:\n        /* \"#utility.yul\":1967:1991   */\n      tag_83\n        /* \"#utility.yul\":1985:1990   */\n      dup2\n        /* \"#utility.yul\":1967:1991   */\n      tag_34\n      jump\t// in\n    tag_83:\n        /* \"#utility.yul\":1960:1965   */\n      dup2\n        /* \"#utility.yul\":1957:1992   */\n      eq\n        /* \"#utility.yul\":1947:2010   */\n      tag_84\n      jumpi\n        /* \"#utility.yul\":2006:2007   */\n      0x00\n        /* \"#utility.yul\":2003:2004   */\n      dup1\n        /* \"#utility.yul\":1996:2008   */\n      revert\n        /* \"#utility.yul\":1947:2010   */\n    tag_84:\n        /* \"#utility.yul\":1894:2016   */\n      pop\n      jump\t// out\n        /* \"#utility.yul\":2022:2161   */\n    tag_36:\n        /* \"#utility.yul\":2068:2073   */\n      0x00\n        /* \"#utility.yul\":2106:2112   */\n      dup2\n        /* \"#utility.yul\":2093:2113   */\n      calldataload\n        /* \"#utility.yul\":2084:2113   */\n      swap1\n      pop\n        /* \"#utility.yul\":2122:2155   */\n      tag_86\n        /* \"#utility.yul\":2149:2154   */\n      dup2\n        /* \"#utility.yul\":2122:2155   */\n      tag_35\n      jump\t// in\n    tag_86:\n        /* \"#utility.yul\":2022:2161   */\n      swap3\n      swap2\n      pop\n      pop\n      jump\t// out\n        /* \"#utility.yul\":2167:2496   */\n    tag_11:\n        /* \"#utility.yul\":2226:2232   */\n      0x00\n        /* \"#utility.yul\":2275:2277   */\n      0x20\n        /* \"#utility.yul\":2263:2272   */\n      dup3\n        /* \"#utility.yul\":2254:2261   */\n      dup5\n        /* \"#utility.yul\":2250:2273   */\n      sub\n        /* \"#utility.yul\":2246:2278   */\n      slt\n        /* \"#utility.yul\":2243:2362   */\n      iszero\n      tag_88\n      jumpi\n        /* \"#utility.yul\":2281:2360   */\n      tag_89\n      tag_28\n      jump\t// in\n    tag_89:\n        /* \"#utility.yul\":2243:2362   */\n    tag_88:\n        /* \"#utility.yul\":2401:2402   */\n      0x00\n        /* \"#utility.yul\":2426:2479   */\n      tag_90\n        /* \"#utility.yul\":2471:2478   */\n      dup5\n        /* \"#utility.yul\":2462:2468   */\n      dup3\n        /* \"#utility.yul\":2451:2460   */\n      dup6\n        /* \"#utility.yul\":2447:2469   */\n      add\n        /* \"#utility.yul\":2426:2479   */\n      tag_36\n      jump\t// in\n    tag_90:\n        /* \"#utility.yul\":2416:2479   */\n      swap2\n      pop\n        /* \"#utility.yul\":2372:2489   */\n      pop\n        /* \"#utility.yul\":2167:2496   */\n      swap3\n      swap2\n      pop\n      pop\n      jump\t// out\n        /* \"#utility.yul\":2502:2601   */\n    tag_37:\n        /* \"#utility.yul\":2554:2560   */\n      0x00\n        /* \"#utility.yul\":2588:2593   */\n      dup2\n        /* \"#utility.yul\":2582:2594   */\n      mload\n        /* \"#utility.yul\":2572:2594   */\n      swap1\n      pop\n        /* \"#utility.yul\":2502:2601   */\n      swap2\n      swap1\n      pop\n      jump\t// out\n        /* \"#utility.yul\":2607:2776   */\n    tag_38:\n        /* \"#utility.yul\":2691:2702   */\n      0x00\n        /* \"#utility.yul\":2725:2731   */\n      dup3\n        /* \"#utility.yul\":2720:2723   */\n      dup3\n        /* \"#utility.yul\":2713:2732   */\n      mstore\n        /* \"#utility.yul\":2765:2769   */\n      0x20\n        /* \"#utility.yul\":2760:2763   */\n      dup3\n        /* \"#utility.yul\":2756:2770   */\n      add\n        /* \"#utility.yul\":2741:2770   */\n      swap1\n      pop\n        /* \"#utility.yul\":2607:2776   */\n      swap3\n      swap2\n      pop\n      pop\n      jump\t// out\n        /* \"#utility.yul\":2782:2921   */\n    tag_39:\n        /* \"#utility.yul\":2871:2877   */\n      dup3\n        /* \"#utility.yul\":2866:2869   */\n      dup2\n        /* \"#utility.yul\":2861:2864   */\n      dup4\n        /* \"#utility.yul\":2855:2878   */\n      mcopy\n        /* \"#utility.yul\":2912:2913   */\n      0x00\n        /* \"#utility.yul\":2903:2909   */\n      dup4\n        /* \"#utility.yul\":2898:2901   */\n      dup4\n        /* \"#utility.yul\":2894:2910   */\n      add\n        /* \"#utility.yul\":2887:2914   */\n      mstore\n        /* \"#utility.yul\":2782:2921   */\n      pop\n      pop\n      pop\n      jump\t// out\n        /* \"#utility.yul\":2927:3029   */\n    tag_40:\n        /* \"#utility.yul\":2968:2974   */\n      0x00\n        /* \"#utility.yul\":3019:3021   */\n      0x1f\n        /* \"#utility.yul\":3015:3022   */\n      not\n        /* \"#utility.yul\":3010:3012   */\n      0x1f\n        /* \"#utility.yul\":3003:3008   */\n      dup4\n        /* \"#utility.yul\":2999:3013   */\n      add\n        /* \"#utility.yul\":2995:3023   */\n      and\n        /* \"#utility.yul\":2985:3023   */\n      swap1\n      pop\n        /* \"#utility.yul\":2927:3029   */\n      swap2\n      swap1\n      pop\n      jump\t// out\n        /* \"#utility.yul\":3035:3412   */\n    tag_41:\n        /* \"#utility.yul\":3123:3126   */\n      0x00\n        /* \"#utility.yul\":3151:3190   */\n      tag_96\n        /* \"#utility.yul\":3184:3189   */\n      dup3\n        /* \"#utility.yul\":3151:3190   */\n      tag_37\n      jump\t// in\n    tag_96:\n        /* \"#utility.yul\":3206:3277   */\n      tag_97\n        /* \"#utility.yul\":3270:3276   */\n      dup2\n        /* \"#utility.yul\":3265:3268   */\n      dup6\n        /* \"#utility.yul\":3206:3277   */\n      tag_38\n      jump\t// in\n    tag_97:\n        /* \"#utility.yul\":3199:3277   */\n      swap4\n      pop\n        /* \"#utility.yul\":3286:3351   */\n      tag_98\n        /* \"#utility.yul\":3344:3350   */\n      dup2\n        /* \"#utility.yul\":3339:3342   */\n      dup6\n        /* \"#utility.yul\":3332:3336   */\n      0x20\n        /* \"#utility.yul\":3325:3330   */\n      dup7\n        /* \"#utility.yul\":3321:3337   */\n      add\n        /* \"#utility.yul\":3286:3351   */\n      tag_39\n      jump\t// in\n    tag_98:\n        /* \"#utility.yul\":3376:3405   */\n      tag_99\n        /* \"#utility.yul\":3398:3404   */\n      dup2\n        /* \"#utility.yul\":3376:3405   */\n      tag_40\n      jump\t// in\n    tag_99:\n        /* \"#utility.yul\":3371:3374   */\n      dup5\n        /* \"#utility.yul\":3367:3406   */\n      add\n        /* \"#utility.yul\":3360:3406   */\n      swap2\n      pop\n        /* \"#utility.yul\":3127:3412   */\n      pop\n        /* \"#utility.yul\":3035:3412   */\n      swap3\n      swap2\n      pop\n      pop\n      jump\t// out\n        /* \"#utility.yul\":3418:3508   */\n    tag_42:\n        /* \"#utility.yul\":3452:3459   */\n      0x00\n        /* \"#utility.yul\":3495:3500   */\n      dup2\n        /* \"#utility.yul\":3488:3501   */\n      iszero\n        /* \"#utility.yul\":3481:3502   */\n      iszero\n        /* \"#utility.yul\":3470:3502   */\n      swap1\n      pop\n        /* \"#utility.yul\":3418:3508   */\n      swap2\n      swap1\n      pop\n      jump\t// out\n        /* \"#utility.yul\":3514:3623   */\n    tag_43:\n        /* \"#utility.yul\":3595:3616   */\n      tag_102\n        /* \"#utility.yul\":3610:3615   */\n      dup2\n        /* \"#utility.yul\":3595:3616   */\n      tag_42\n      jump\t// in\n    tag_102:\n        /* \"#utility.yul\":3590:3593   */\n      dup3\n        /* \"#utility.yul\":3583:3617   */\n      mstore\n        /* \"#utility.yul\":3514:3623   */\n      pop\n      pop\n      jump\t// out\n        /* \"#utility.yul\":3629:4040   */\n    tag_14:\n        /* \"#utility.yul\":3764:3768   */\n      0x00\n        /* \"#utility.yul\":3802:3804   */\n      0x40\n        /* \"#utility.yul\":3791:3800   */\n      dup3\n        /* \"#utility.yul\":3787:3805   */\n      add\n        /* \"#utility.yul\":3779:3805   */\n      swap1\n      pop\n        /* \"#utility.yul\":3851:3860   */\n      dup2\n        /* \"#utility.yul\":3845:3849   */\n      dup2\n        /* \"#utility.yul\":3841:3861   */\n      sub\n        /* \"#utility.yul\":3837:3838   */\n      0x00\n        /* \"#utility.yul\":3826:3835   */\n      dup4\n        /* \"#utility.yul\":3822:3839   */\n      add\n        /* \"#utility.yul\":3815:3862   */\n      mstore\n        /* \"#utility.yul\":3879:3957   */\n      tag_104\n        /* \"#utility.yul\":3952:3956   */\n      dup2\n        /* \"#utility.yul\":3943:3949   */\n      dup6\n        /* \"#utility.yul\":3879:3957   */\n      tag_41\n      jump\t// in\n    tag_104:\n        /* \"#utility.yul\":3871:3957   */\n      swap1\n      pop\n        /* \"#utility.yul\":3967:4033   */\n      tag_105\n        /* \"#utility.yul\":4029:4031   */\n      0x20\n        /* \"#utility.yul\":4018:4027   */\n      dup4\n        /* \"#utility.yul\":4014:4032   */\n      add\n        /* \"#utility.yul\":4005:4011   */\n      dup5\n        /* \"#utility.yul\":3967:4033   */\n      tag_43\n      jump\t// in\n    tag_105:\n        /* \"#utility.yul\":3629:4040   */\n      swap4\n      swap3\n      pop\n      pop\n      pop\n      jump\t// out\n        /* \"#utility.yul\":4046:4226   */\n    tag_44:\n        /* \"#utility.yul\":4094:4171   */\n      0x4e487b7100000000000000000000000000000000000000000000000000000000\n        /* \"#utility.yul\":4091:4092   */\n      0x00\n        /* \"#utility.yul\":4084:4172   */\n      mstore\n        /* \"#utility.yul\":4191:4195   */\n      0x41\n        /* \"#utility.yul\":4188:4189   */\n      0x04\n        /* \"#utility.yul\":4181:4196   */\n      mstore\n        /* \"#utility.yul\":4215:4219   */\n      0x24\n        /* \"#utility.yul\":4212:4213   */\n      0x00\n        /* \"#utility.yul\":4205:4220   */\n      revert\n        /* \"#utility.yul\":4232:4412   */\n    tag_45:\n        /* \"#utility.yul\":4280:4357   */\n      0x4e487b7100000000000000000000000000000000000000000000000000000000\n        /* \"#utility.yul\":4277:4278   */\n      0x00\n        /* \"#utility.yul\":4270:4358   */\n      mstore\n        /* \"#utility.yul\":4377:4381   */\n      0x22\n        /* \"#utility.yul\":4374:4375   */\n      0x04\n        /* \"#utility.yul\":4367:4382   */\n      mstore\n        /* \"#utility.yul\":4401:4405   */\n      0x24\n        /* \"#utility.yul\":4398:4399   */\n      0x00\n        /* \"#utility.yul\":4391:4406   */\n      revert\n        /* \"#utility.yul\":4418:4738   */\n    tag_22:\n        /* \"#utility.yul\":4462:4468   */\n      0x00\n        /* \"#utility.yul\":4499:4500   */\n      0x02\n        /* \"#utility.yul\":4493:4497   */\n      dup3\n        /* \"#utility.yul\":4489:4501   */\n      div\n        /* \"#utility.yul\":4479:4501   */\n      swap1\n      pop\n        /* \"#utility.yul\":4546:4547   */\n      0x01\n        /* \"#utility.yul\":4540:4544   */\n      dup3\n        /* \"#utility.yul\":4536:4548   */\n      and\n        /* \"#utility.yul\":4567:4585   */\n      dup1\n        /* \"#utility.yul\":4557:4638   */\n      tag_109\n      jumpi\n        /* \"#utility.yul\":4623:4627   */\n      0x7f\n        /* \"#utility.yul\":4615:4621   */\n      dup3\n        /* \"#utility.yul\":4611:4628   */\n      and\n        /* \"#utility.yul\":4601:4628   */\n      swap2\n      pop\n        /* \"#utility.yul\":4557:4638   */\n    tag_109:\n        /* \"#utility.yul\":4685:4687   */\n      0x20\n        /* \"#utility.yul\":4677:4683   */\n      dup3\n        /* \"#utility.yul\":4674:4688   */\n      lt\n        /* \"#utility.yul\":4654:4672   */\n      dup2\n        /* \"#utility.yul\":4651:4689   */\n      sub\n        /* \"#utility.yul\":4648:4732   */\n      tag_110\n      jumpi\n        /* \"#utility.yul\":4704:4722   */\n      tag_111\n      tag_45\n      jump\t// in\n    tag_111:\n        /* \"#utility.yul\":4648:4732   */\n    tag_110:\n        /* \"#utility.yul\":4469:4738   */\n      pop\n        /* \"#utility.yul\":4418:4738   */\n      swap2\n      swap1\n      pop\n      jump\t// out\n        /* \"#utility.yul\":4744:4885   */\n    tag_46:\n        /* \"#utility.yul\":4793:4797   */\n      0x00\n        /* \"#utility.yul\":4816:4819   */\n      dup2\n        /* \"#utility.yul\":4808:4819   */\n      swap1\n      pop\n        /* \"#utility.yul\":4839:4842   */\n      dup2\n        /* \"#utility.yul\":4836:4837   */\n      0x00\n        /* \"#utility.yul\":4829:4843   */\n      mstore\n        /* \"#utility.yul\":4873:4877   */\n      0x20\n        /* \"#utility.yul\":4870:4871   */\n      0x00\n        /* \"#utility.yul\":4860:4878   */\n      keccak256\n        /* \"#utility.yul\":4852:4878   */\n      swap1\n      pop\n        /* \"#utility.yul\":4744:4885   */\n      swap2\n      swap1\n      pop\n      jump\t// out\n        /* \"#utility.yul\":4891:4984   */\n    tag_47:\n        /* \"#utility.yul\":4928:4934   */\n      0x00\n        /* \"#utility.yul\":4975:4977   */\n      0x20\n        /* \"#utility.yul\":4970:4972   */\n      0x1f\n        /* \"#utility.yul\":4963:4968   */\n      dup4\n        /* \"#utility.yul\":4959:4973   */\n      add\n        /* \"#utility.yul\":4955:4978   */\n      div\n        /* \"#utility.yul\":4945:4978   */\n      swap1\n      pop\n        /* \"#utility.yul\":4891:4984   */\n      swap2\n      swap1\n      pop\n      jump\t// out\n        /* \"#utility.yul\":4990:5097   */\n    tag_48:\n        /* \"#utility.yul\":5034:5042   */\n      0x00\n        /* \"#utility.yul\":5084:5089   */\n      dup3\n        /* \"#utility.yul\":5078:5082   */\n      dup3\n        /* \"#utility.yul\":5074:5090   */\n      shl\n        /* \"#utility.yul\":5053:5090   */\n      swap1\n      pop\n        /* \"#utility.yul\":4990:5097   */\n      swap3\n      swap2\n      pop\n      pop\n      jump\t// out\n        /* \"#utility.yul\":5103:5496   */\n    tag_49:\n        /* \"#utility.yul\":5172:5178   */\n      0x00\n        /* \"#utility.yul\":5222:5223   */\n      0x08\n        /* \"#utility.yul\":5210:5220   */\n      dup4\n        /* \"#utility.yul\":5206:5224   */\n      mul\n        /* \"#utility.yul\":5245:5342   */\n      tag_116\n        /* \"#utility.yul\":5275:5341   */\n      0xffffffffffffffffffffffffffffffffffffffffffffffffffffffffffffffff\n        /* \"#utility.yul\":5264:5273   */\n      dup3\n        /* \"#utility.yul\":5245:5342   */\n      tag_48\n      jump\t// in\n    tag_116:\n        /* \"#utility.yul\":5363:5402   */\n      tag_117\n        /* \"#utility.yul\":5393:5401   */\n      dup7\n        /* \"#utility.yul\":5382:5391   */\n      dup4\n        /* \"#utility.yul\":5363:5402   */\n      tag_48\n      jump\t// in\n    tag_117:\n        /* \"#utility.yul\":5351:5402   */\n      swap6\n      pop\n        /* \"#utility.yul\":5435:5439   */\n      dup1\n        /* \"#utility.yul\":5431:5440   */\n      not\n        /* \"#utility.yul\":5424:5429   */\n      dup5\n        /* \"#utility.yul\":5420:5441   */\n      and\n        /* \"#utility.yul\":5411:5441   */\n      swap4\n      pop\n        /* \"#utility.yul\":5484:5488   */\n      dup1\n        /* \"#utility.yul\":5474:5482   */\n      dup7\n        /* \"#utility.yul\":5470:5489   */\n      and\n        /* \"#utility.yul\":5463:5468   */\n      dup5\n        /* \"#utility.yul\":5460:5490   */\n      or\n        /* \"#utility.yul\":5450:5490   */\n      swap3\n      pop\n        /* \"#utility.yul\":5179:5496   */\n      pop\n      pop\n        /* \"#utility.yul\":5103:5496   */\n      swap4\n      swap3\n      pop\n      pop\n      pop\n      jump\t// out\n        /* \"#utility.yul\":5502:5562   */\n    tag_50:\n        /* \"#utility.yul\":5530:5533   */\n      0x00\n        /* \"#utility.yul\":5551:5556   */\n      dup2\n        /* \"#utility.yul\":5544:5556   */\n      swap1\n      pop\n        /* \"#utility.yul\":5502:5562   */\n      swap2\n      swap1\n      pop\n      jump\t// out\n        /* \"#utility.yul\":5568:5710   */\n    tag_51:\n        /* \"#utility.yul\":5618:5627   */\n      0x00\n        /* \"#utility.yul\":5651:5704   */\n      tag_120\n        /* \"#utility.yul\":5669:5703   */\n      tag_121\n        /* \"#utility.yul\":5678:5702   */\n      tag_122\n        /* \"#utility.yul\":5696:5701   */\n      dup5\n        /* \"#utility.yul\":5678:5702   */\n      tag_34\n      jump\t// in\n    tag_122:\n        /* \"#utility.yul\":5669:5703   */\n      tag_50\n      jump\t// in\n    tag_121:\n        /* \"#utility.yul\":5651:5704   */\n      tag_34\n      jump\t// in\n    tag_120:\n        /* \"#utility.yul\":5638:5704   */\n      swap1\n      pop\n        /* \"#utility.yul\":5568:5710   */\n      swap2\n      swap1\n      pop\n      jump\t// out\n        /* \"#utility.yul\":5716:5791   */\n    tag_52:\n        /* \"#utility.yul\":5759:5762   */\n      0x00\n        /* \"#utility.yul\":5780:5785   */\n      dup2\n        /* \"#utility.yul\":5773:5785   */\n      swap1\n      pop\n        /* \"#utility.yul\":5716:5791   */\n      swap2\n      swap1\n      pop\n      jump\t// out\n        /* \"#utility.yul\":5797:6066   */\n    tag_53:\n        /* \"#utility.yul\":5907:5946   */\n      tag_125\n        /* \"#utility.yul\":5938:5945   */\n      dup4\n        /* \"#utility.yul\":5907:5946   */\n      tag_51\n      jump\t// in\n    tag_125:\n        /* \"#utility.yul\":5968:6059   */\n      tag_126\n        /* \"#utility.yul\":6017:6058   */\n      tag_127\n        /* \"#utility.yul\":6041:6057   */\n      dup3\n        /* \"#utility.yul\":6017:6058   */\n      tag_52\n      jump\t// in\n    tag_127:\n        /* \"#utility.yul\":6009:6015   */\n      dup5\n        /* \"#utility.yul\":6002:6006   */\n      dup5\n        /* \"#utility.yul\":5996:6007   */\n      sload\n        /* \"#utility.yul\":5968:6059   */\n      tag_49\n      jump\t// in\n    tag_126:\n        /* \"#utility.yul\":5962:5966   */\n      dup3\n        /* \"#utility.yul\":5955:6060   */\n      sstore\n        /* \"#utility.yul\":5873:6066   */\n      pop\n        /* \"#utility.yul\":5797:6066   */\n      pop\n      pop\n      pop\n      jump\t// out\n        /* \"#utility.yul\":6072:6145   */\n    tag_54:\n        /* \"#utility.yul\":6117:6120   */\n      0x00\n        /* \"#utility.yul\":6072:6145   */\n      swap1\n      jump\t// out\n        /* \"#utility.yul\":6151:6340   */\n    tag_55:\n        /* \"#utility.yul\":6228:6260   */\n      tag_130\n      tag_54\n      jump\t// in\n    tag_130:\n        /* \"#utility.yul\":6269:6334   */\n      tag_131\n        /* \"#utility.yul\":6327:6333   */\n      dup2\n        /* \"#utility.yul\":6319:6325   */\n      dup5\n        /* \"#utility.yul\":6313:6317   */\n      dup5\n        /* \"#utility.yul\":6269:6334   */\n      tag_53\n      jump\t// in\n    tag_131:\n        /* \"#utility.yul\":6204:6340   */\n      pop\n        /* \"#utility.yul\":6151:6340   */\n      pop\n      pop\n      jump\t// out\n        /* \"#utility.yul\":6346:6532   */\n    tag_56:\n        /* \"#utility.yul\":6406:6526   */\n    tag_133:\n        /* \"#utility.yul\":6423:6426   */\n      dup2\n        /* \"#utility.yul\":6416:6421   */\n      dup2\n        /* \"#utility.yul\":6413:6427   */\n      lt\n        /* \"#utility.yul\":6406:6526   */\n      iszero\n      tag_135\n      jumpi\n        /* \"#utility.yul\":6477:6516   */\n      tag_136\n        /* \"#utility.yul\":6514:6515   */\n      0x00\n        /* \"#utility.yul\":6507:6512   */\n      dup3\n        /* \"#utility.yul\":6477:6516   */\n      tag_55\n      jump\t// in\n    tag_136:\n        /* \"#utility.yul\":6450:6451   */\n      0x01\n        /* \"#utility.yul\":6443:6448   */\n      dup2\n        /* \"#utility.yul\":6439:6452   */\n      add\n        /* \"#utility.yul\":6430:6452   */\n      swap1\n      pop\n        /* \"#utility.yul\":6406:6526   */\n      jump(tag_133)\n    tag_135:\n        /* \"#utility.yul\":6346:6532   */\n      pop\n      pop\n      jump\t// out\n        /* \"#utility.yul\":6538:7081   */\n    tag_57:\n        /* \"#utility.yul\":6639:6641   */\n      0x1f\n        /* \"#utility.yul\":6634:6637   */\n      dup3\n        /* \"#utility.yul\":6631:6642   */\n      gt\n        /* \"#utility.yul\":6628:7074   */\n      iszero\n      tag_138\n      jumpi\n        /* \"#utility.yul\":6673:6711   */\n      tag_139\n        /* \"#utility.yul\":6705:6710   */\n      dup2\n        /* \"#utility.yul\":6673:6711   */\n      tag_46\n      jump\t// in\n    tag_139:\n        /* \"#utility.yul\":6757:6786   */\n      tag_140\n        /* \"#utility.yul\":6775:6785   */\n      dup5\n        /* \"#utility.yul\":6757:6786   */\n      tag_47\n      jump\t// in\n    tag_140:\n        /* \"#utility.yul\":6747:6755   */\n      dup2\n        /* \"#utility.yul\":6743:6787   */\n      add\n        /* \"#utility.yul\":6940:6942   */\n      0x20\n        /* \"#utility.yul\":6928:6938   */\n      dup6\n        /* \"#utility.yul\":6925:6943   */\n      lt\n        /* \"#utility.yul\":6922:6971   */\n      iszero\n      tag_141\n      jumpi\n        /* \"#utility.yul\":6961:6969   */\n      dup2\n        /* \"#utility.yul\":6946:6969   */\n      swap1\n      pop\n        /* \"#utility.yul\":6922:6971   */\n    tag_141:\n        /* \"#utility.yul\":6984:7064   */\n      tag_142\n        /* \"#utility.yul\":7040:7062   */\n      tag_143\n        /* \"#utility.yul\":7058:7061   */\n      dup6\n        /* \"#utility.yul\":7040:7062   */\n      tag_47\n      jump\t// in\n    tag_143:\n        /* \"#utility.yul\":7030:7038   */\n      dup4\n        /* \"#utility.yul\":7026:7063   */\n      add\n        /* \"#utility.yul\":7013:7024   */\n      dup3\n        /* \"#utility.yul\":6984:7064   */\n      tag_56\n      jump\t// in\n    tag_142:\n        /* \"#utility.yul\":6643:7074   */\n      pop\n      pop\n        /* \"#utility.yul\":6628:7074   */\n    tag_138:\n        /* \"#utility.yul\":6538:7081   */\n      pop\n      pop\n      pop\n      jump\t// out\n        /* \"#utility.yul\":7087:7204   */\n    tag_58:\n        /* \"#utility.yul\":7141:7149   */\n      0x00\n        /* \"#utility.yul\":7191:7196   */\n      dup3\n        /* \"#utility.yul\":7185:7189   */\n      dup3\n        /* \"#utility.yul\":7181:7197   */\n      shr\n        /* \"#utility.yul\":7160:7197   */\n      swap1\n      pop\n        /* \"#utility.yul\":7087:7204   */\n      swap3\n      swap2\n      pop\n      pop\n      jump\t// out\n        /* \"#utility.yul\":7210:7379   */\n    tag_59:\n        /* \"#utility.yul\":7254:7260   */\n      0x00\n        /* \"#utility.yul\":7287:7338   */\n      tag_146\n        /* \"#utility.yul\":7335:7336   */\n      0x00\n        /* \"#utility.yul\":7331:7337   */\n      not\n        /* \"#utility.yul\":7323:7328   */\n      dup5\n        /* \"#utility.yul\":7320:7321   */\n      0x08\n        /* \"#utility.yul\":7316:7329   */\n      mul\n        /* \"#utility.yul\":7287:7338   */\n      tag_58\n      jump\t// in\n    tag_146:\n        /* \"#utility.yul\":7283:7339   */\n      not\n        /* \"#utility.yul\":7368:7372   */\n      dup1\n        /* \"#utility.yul\":7362:7366   */\n      dup4\n        /* \"#utility.yul\":7358:7373   */\n      and\n        /* \"#utility.yul\":7348:7373   */\n      swap2\n      pop\n        /* \"#utility.yul\":7261:7379   */\n      pop\n        /* \"#utility.yul\":7210:7379   */\n      swap3\n      swap2\n      pop\n      pop\n      jump\t// out\n        /* \"#utility.yul\":7384:7679   */\n    tag_60:\n        /* \"#utility.yul\":7460:7464   */\n      0x00\n        /* \"#utility.yul\":7606:7635   */\n      tag_148\n        /* \"#utility.yul\":7631:7634   */\n      dup4\n        /* \"#utility.yul\":7625:7629   */\n      dup4\n        /* \"#utility.yul\":7606:7635   */\n      tag_59\n      jump\t// in\n    tag_148:\n        /* \"#utility.yul\":7598:7635   */\n      swap2\n      pop\n        /* \"#utility.yul\":7668:7671   */\n      dup3\n        /* \"#utility.yul\":7665:7666   */\n      0x02\n        /* \"#utility.yul\":7661:7672   */\n      mul\n        /* \"#utility.yul\":7655:7659   */\n      dup3\n        /* \"#utility.yul\":7652:7673   */\n      or\n        /* \"#utility.yul\":7644:7673   */\n      swap1\n      pop\n        /* \"#utility.yul\":7384:7679   */\n      swap3\n      swap2\n      pop\n      pop\n      jump\t// out\n        /* \"#utility.yul\":7684:9079   */\n    tag_18:\n        /* \"#utility.yul\":7801:7838   */\n      tag_150\n        /* \"#utility.yul\":7834:7837   */\n      dup3\n        /* \"#utility.yul\":7801:7838   */\n      tag_37\n      jump\t// in\n    tag_150:\n        /* \"#utility.yul\":7903:7921   */\n      0xffffffffffffffff\n        /* \"#utility.yul\":7895:7901   */\n      dup2\n        /* \"#utility.yul\":7892:7922   */\n      gt\n        /* \"#utility.yul\":7889:7945   */\n      iszero\n      tag_151\n      jumpi\n        /* \"#utility.yul\":7925:7943   */\n      tag_152\n      tag_44\n      jump\t// in\n    tag_152:\n        /* \"#utility.yul\":7889:7945   */\n    tag_151:\n        /* \"#utility.yul\":7969:8007   */\n      tag_153\n        /* \"#utility.yul\":8001:8005   */\n      dup3\n        /* \"#utility.yul\":7995:8006   */\n      sload\n        /* \"#utility.yul\":7969:8007   */\n      tag_22\n      jump\t// in\n    tag_153:\n        /* \"#utility.yul\":8054:8121   */\n      tag_154\n        /* \"#utility.yul\":8114:8120   */\n      dup3\n        /* \"#utility.yul\":8106:8112   */\n      dup3\n        /* \"#utility.yul\":8100:8104   */\n      dup6\n        /* \"#utility.yul\":8054:8121   */\n      tag_57\n      jump\t// in\n    tag_154:\n        /* \"#utility.yul\":8148:8149   */\n      0x00\n        /* \"#utility.yul\":8172:8176   */\n      0x20\n        /* \"#utility.yul\":8159:8176   */\n      swap1\n      pop\n        /* \"#utility.yul\":8204:8206   */\n      0x1f\n        /* \"#utility.yul\":8196:8202   */\n      dup4\n        /* \"#utility.yul\":8193:8207   */\n      gt\n        /* \"#utility.yul\":8221:8222   */\n      0x01\n        /* \"#utility.yul\":8216:8834   */\n      dup2\n      eq\n      tag_156\n      jumpi\n        /* \"#utility.yul\":8878:8879   */\n      0x00\n        /* \"#utility.yul\":8895:8901   */\n      dup5\n        /* \"#utility.yul\":8892:8969   */\n      iszero\n      tag_157\n      jumpi\n        /* \"#utility.yul\":8944:8953   */\n      dup3\n        /* \"#utility.yul\":8939:8942   */\n      dup8\n        /* \"#utility.yul\":8935:8954   */\n      add\n        /* \"#utility.yul\":8929:8955   */\n      mload\n        /* \"#utility.yul\":8920:8955   */\n      swap1\n      pop\n        /* \"#utility.yul\":8892:8969   */\n    tag_157:\n        /* \"#utility.yul\":8995:9062   */\n      tag_158\n        /* \"#utility.yul\":9055:9061   */\n      dup6\n        /* \"#utility.yul\":9048:9053   */\n      dup3\n        /* \"#utility.yul\":8995:9062   */\n      tag_60\n      jump\t// in\n    tag_158:\n        /* \"#utility.yul\":8989:8993   */\n      dup7\n        /* \"#utility.yul\":8982:9063   */\n      sstore\n        /* \"#utility.yul\":8851:9073   */\n      pop\n        /* \"#utility.yul\":8186:9073   */\n      jump(tag_155)\n        /* \"#utility.yul\":8216:8834   */\n    tag_156:\n        /* \"#utility.yul\":8268:8272   */\n      0x1f\n        /* \"#utility.yul\":8264:8273   */\n      not\n        /* \"#utility.yul\":8256:8262   */\n      dup5\n        /* \"#utility.yul\":8252:8274   */\n      and\n        /* \"#utility.yul\":8302:8339   */\n      tag_159\n        /* \"#utility.yul\":8334:8338   */\n      dup7\n        /* \"#utility.yul\":8302:8339   */\n      tag_46\n      jump\t// in\n    tag_159:\n        /* \"#utility.yul\":8361:8362   */\n      0x00\n        /* \"#utility.yul\":8375:8583   */\n    tag_160:\n        /* \"#utility.yul\":8389:8396   */\n      dup3\n        /* \"#utility.yul\":8386:8387   */\n      dup2\n        /* \"#utility.yul\":8383:8397   */\n      lt\n        /* \"#utility.yul\":8375:8583   */\n      iszero\n      tag_162\n      jumpi\n        /* \"#utility.yul\":8468:8477   */\n      dup5\n        /* \"#utility.yul\":8463:8466   */\n      dup10\n        /* \"#utility.yul\":8459:8478   */\n      add\n        /* \"#utility.yul\":8453:8479   */\n      mload\n        /* \"#utility.yul\":8445:8451   */\n      dup3\n        /* \"#utility.yul\":8438:8480   */\n      sstore\n        /* \"#utility.yul\":8519:8520   */\n      0x01\n        /* \"#utility.yul\":8511:8517   */\n      dup3\n        /* \"#utility.yul\":8507:8521   */\n      add\n        /* \"#utility.yul\":8497:8521   */\n      swap2\n      pop\n        /* \"#utility.yul\":8566:8568   */\n      0x20\n        /* \"#utility.yul\":8555:8564   */\n      dup6\n        /* \"#utility.yul\":8551:8569   */\n      add\n        /* \"#utility.yul\":8538:8569   */\n      swap5\n      pop\n        /* \"#utility.yul\":8412:8416   */\n      0x20\n        /* \"#utility.yul\":8409:8410   */\n      dup2\n        /* \"#utility.yul\":8405:8417   */\n      add\n        /* \"#utility.yul\":8400:8417   */\n      swap1\n      pop\n        /* \"#utility.yul\":8375:8583   */\n      jump(tag_160)\n    tag_162:\n        /* \"#utility.yul\":8611:8617   */\n      dup7\n        /* \"#utility.yul\":8602:8609   */\n      dup4\n        /* \"#utility.yul\":8599:8618   */\n      lt\n        /* \"#utility.yul\":8596:8775   */\n      iszero\n      tag_163\n      jumpi\n        /* \"#utility.yul\":8669:8678   */\n      dup5\n        /* \"#utility.yul\":8664:8667   */\n      dup10\n        /* \"#utility.yul\":8660:8679   */\n      add\n        /* \"#utility.yul\":8654:8680   */\n      mload\n        /* \"#utility.yul\":8712:8760   */\n      tag_164\n        /* \"#utility.yul\":8754:8758   */\n      0x1f\n        /* \"#utility.yul\":8746:8752   */\n      dup10\n        /* \"#utility.yul\":8742:8759   */\n      and\n        /* \"#utility.yul\":8731:8740   */\n      dup3\n        /* \"#utility.yul\":8712:8760   */\n      tag_59\n      jump\t// in\n    tag_164:\n        /* \"#utility.yul\":8704:8710   */\n      dup4\n        /* \"#utility.yul\":8697:8761   */\n      sstore\n        /* \"#utility.yul\":8619:8775   */\n      pop\n        /* \"#utility.yul\":8596:8775   */\n    tag_163:\n        /* \"#utility.yul\":8821:8822   */\n      0x01\n        /* \"#utility.yul\":8817:8818   */\n      0x02\n        /* \"#utility.yul\":8809:8815   */\n      dup9\n        /* \"#utility.yul\":8805:8819   */\n      mul\n        /* \"#utility.yul\":8801:8823   */\n      add\n        /* \"#utility.yul\":8795:8799   */\n      dup9\n        /* \"#utility.yul\":8788:8824   */\n      sstore\n        /* \"#utility.yul\":8223:8834   */\n      pop\n      pop\n      pop\n        /* \"#utility.yul\":8186:9073   */\n    tag_155:\n      pop\n        /* \"#utility.yul\":7776:9079   */\n      pop\n      pop\n      pop\n        /* \"#utility.yul\":7684:9079   */\n      pop\n      pop\n      jump\t// out\n\n    auxdata: 0xa2646970667358221220d25723e799cfba6d60ba96930232f5e076126db550981472c626fad11056cb8d64736f6c634300081a0033\n}\n",
				"bytecode": {
					"linkReferences": {},
					"object": "6080604052348015600e575f80fd5b506106f58061001c5f395ff3fe608060405234801561000f575f80fd5b5060043610610034575f3560e01c8063b6a46b3b14610038578063bc8bc2b414610054575b5f80fd5b610052600480360381019061004d9190610268565b610085565b005b61006e600480360381019061006991906102e6565b61013f565b60405161007c92919061039b565b60405180910390f35b5f604051806040016040528084848080601f0160208091040260200160405190810160405280939291908181526020018383808284375f81840152601f19601f8201169050808301925050505050505081526020015f1515815250908060018154018082558091505060019003905f5260205f2090600202015f909190919091505f820151815f01908161011991906105f0565b506020820151816001015f6101000a81548160ff02191690831515021790555050505050565b5f818154811061014d575f80fd5b905f5260205f2090600202015f91509050805f01805461016c90610423565b80601f016020809104026020016040519081016040528092919081815260200182805461019890610423565b80156101e35780601f106101ba576101008083540402835291602001916101e3565b820191905f5260205f20905b8154815290600101906020018083116101c657829003601f168201915b505050505090806001015f9054906101000a900460ff16905082565b5f80fd5b5f80fd5b5f80fd5b5f80fd5b5f80fd5b5f8083601f84011261022857610227610207565b5b8235905067ffffffffffffffff8111156102455761024461020b565b5b6020830191508360018202830111156102615761026061020f565b5b9250929050565b5f806020838503121561027e5761027d6101ff565b5b5f83013567ffffffffffffffff81111561029b5761029a610203565b5b6102a785828601610213565b92509250509250929050565b5f819050919050565b6102c5816102b3565b81146102cf575f80fd5b50565b5f813590506102e0816102bc565b92915050565b5f602082840312156102fb576102fa6101ff565b5b5f610308848285016102d2565b91505092915050565b5f81519050919050565b5f82825260208201905092915050565b8281835e5f83830152505050565b5f601f19601f8301169050919050565b5f61035382610311565b61035d818561031b565b935061036d81856020860161032b565b61037681610339565b840191505092915050565b5f8115159050919050565b61039581610381565b82525050565b5f6040820190508181035f8301526103b38185610349565b90506103c2602083018461038c565b9392505050565b7f4e487b71000000000000000000000000000000000000000000000000000000005f52604160045260245ffd5b7f4e487b71000000000000000000000000000000000000000000000000000000005f52602260045260245ffd5b5f600282049050600182168061043a57607f821691505b60208210810361044d5761044c6103f6565b5b50919050565b5f819050815f5260205f209050919050565b5f6020601f8301049050919050565b5f82821b905092915050565b5f600883026104af7fffffffffffffffffffffffffffffffffffffffffffffffffffffffffffffffff82610474565b6104b98683610474565b95508019841693508086168417925050509392505050565b5f819050919050565b5f6104f46104ef6104ea846102b3565b6104d1565b6102b3565b9050919050565b5f819050919050565b61050d836104da565b610521610519826104fb565b848454610480565b825550505050565b5f90565b610535610529565b610540818484610504565b505050565b5b81811015610563576105585f8261052d565b600181019050610546565b5050565b601f8211156105a85761057981610453565b61058284610465565b81016020851015610591578190505b6105a561059d85610465565b830182610545565b50505b505050565b5f82821c905092915050565b5f6105c85f19846008026105ad565b1980831691505092915050565b5f6105e083836105b9565b9150826002028217905092915050565b6105f982610311565b67ffffffffffffffff811115610612576106116103c9565b5b61061c8254610423565b610627828285610567565b5f60209050601f831160018114610658575f8415610646578287015190505b61065085826105d5565b8655506106b7565b601f19841661066686610453565b5f5b8281101561068d57848901518255600182019150602085019450602081019050610668565b868310156106aa57848901516106a6601f8916826105b9565b8355505b6001600288020188555050505b50505050505056fea2646970667358221220d25723e799cfba6d60ba96930232f5e076126db550981472c626fad11056cb8d64736f6c634300081a0033",
					"opcodes": "PUSH1 0x80 PUSH1 0x40 MSTORE CALLVALUE DUP1 ISZERO PUSH1 0xE JUMPI PUSH0 DUP1 REVERT JUMPDEST POP PUSH2 0x6F5 DUP1 PUSH2 0x1C PUSH0 CODECOPY PUSH0 RETURN INVALID PUSH1 0x80 PUSH1 0x40 MSTORE CALLVALUE DUP1 ISZERO PUSH2 0xF JUMPI PUSH0 DUP1 REVERT JUMPDEST POP PUSH1 0x4 CALLDATASIZE LT PUSH2 0x34 JUMPI PUSH0 CALLDATALOAD PUSH1 0xE0 SHR DUP1 PUSH4 0xB6A46B3B EQ PUSH2 0x38 JUMPI DUP1 PUSH4 0xBC8BC2B4 EQ PUSH2 0x54 JUMPI JUMPDEST PUSH0 DUP1 REVERT JUMPDEST PUSH2 0x52 PUSH1 0x4 DUP1 CALLDATASIZE SUB DUP2 ADD SWAP1 PUSH2 0x4D SWAP2 SWAP1 PUSH2 0x268 JUMP JUMPDEST PUSH2 0x85 JUMP JUMPDEST STOP JUMPDEST PUSH2 0x6E PUSH1 0x4 DUP1 CALLDATASIZE SUB DUP2 ADD SWAP1 PUSH2 0x69 SWAP2 SWAP1 PUSH2 0x2E6 JUMP JUMPDEST PUSH2 0x13F JUMP JUMPDEST PUSH1 0x40 MLOAD PUSH2 0x7C SWAP3 SWAP2 SWAP1 PUSH2 0x39B JUMP JUMPDEST PUSH1 0x40 MLOAD DUP1 SWAP2 SUB SWAP1 RETURN JUMPDEST PUSH0 PUSH1 0x40 MLOAD DUP1 PUSH1 0x40 ADD PUSH1 0x40 MSTORE DUP1 DUP5 DUP5 DUP1 DUP1 PUSH1 0x1F ADD PUSH1 0x20 DUP1 SWAP2 DIV MUL PUSH1 0x20 ADD PUSH1 0x40 MLOAD SWAP1 DUP2 ADD PUSH1 0x40 MSTORE DUP1 SWAP4 SWAP3 SWAP2 SWAP1 DUP2 DUP2 MSTORE PUSH1 0x20 ADD DUP4 DUP4 DUP1 DUP3 DUP5 CALLDATACOPY PUSH0 DUP2 DUP5 ADD MSTORE PUSH1 0x1F NOT PUSH1 0x1F DUP3 ADD AND SWAP1 POP DUP1 DUP4 ADD SWAP3 POP POP POP POP POP POP POP DUP2 MSTORE PUSH1 0x20 ADD PUSH0 ISZERO ISZERO DUP2 MSTORE POP SWAP1 DUP1 PUSH1 0x1 DUP2 SLOAD ADD DUP1 DUP3 SSTORE DUP1 SWAP2 POP POP PUSH1 0x1 SWAP1 SUB SWAP1 PUSH0 MSTORE PUSH1 0x20 PUSH0 KECCAK256 SWAP1 PUSH1 0x2 MUL ADD PUSH0 SWAP1 SWAP2 SWAP1 SWAP2 SWAP1 SWAP2 POP PUSH0 DUP3 ADD MLOAD DUP2 PUSH0 ADD SWAP1 DUP2 PUSH2 0x119 SWAP2 SWAP1 PUSH2 0x5F0 JUMP JUMPDEST POP PUSH1 0x20 DUP3 ADD MLOAD DUP2 PUSH1 0x1 ADD PUSH0 PUSH2 0x100 EXP DUP2 SLOAD DUP2 PUSH1 0xFF MUL NOT AND SWAP1 DUP4 ISZERO ISZERO MUL OR SWAP1 SSTORE POP POP POP POP POP JUMP JUMPDEST PUSH0 DUP2 DUP2 SLOAD DUP2 LT PUSH2 0x14D JUMPI PUSH0 DUP1 REVERT JUMPDEST SWAP1 PUSH0 MSTORE PUSH1 0x20 PUSH0 KECCAK256 SWAP1 PUSH1 0x2 MUL ADD PUSH0 SWAP2 POP SWAP1 POP DUP1 PUSH0 ADD DUP1 SLOAD PUSH2 0x16C SWAP1 PUSH2 0x423 JUMP JUMPDEST DUP1 PUSH1 0x1F ADD PUSH1 0x20 DUP1 SWAP2 DIV MUL PUSH1 0x20 ADD PUSH1 0x40 MLOAD SWAP1 DUP2 ADD PUSH1 0x40 MSTORE DUP1 SWAP3 SWAP2 SWAP1 DUP2 DUP2 MSTORE PUSH1 0x20 ADD DUP3 DUP1 SLOAD PUSH2 0x198 SWAP1 PUSH2 0x423 JUMP JUMPDEST DUP1 ISZERO PUSH2 0x1E3 JUMPI DUP1 PUSH1 0x1F LT PUSH2 0x1BA JUMPI PUSH2 0x100 DUP1 DUP4 SLOAD DIV MUL DUP4 MSTORE SWAP2 PUSH1 0x20 ADD SWAP2 PUSH2 0x1E3 JUMP JUMPDEST DUP3 ADD SWAP2 SWAP1 PUSH0 MSTORE PUSH1 0x20 PUSH0 KECCAK256 SWAP1 JUMPDEST DUP2 SLOAD DUP2 MSTORE SWAP1 PUSH1 0x1 ADD SWAP1 PUSH1 0x20 ADD DUP1 DUP4 GT PUSH2 0x1C6 JUMPI DUP3 SWAP1 SUB PUSH1 0x1F AND DUP3 ADD SWAP2 JUMPDEST POP POP POP POP POP SWAP1 DUP1 PUSH1 0x1 ADD PUSH0 SWAP1 SLOAD SWAP1 PUSH2 0x100 EXP SWAP1 DIV PUSH1 0xFF AND SWAP1 POP DUP3 JUMP JUMPDEST PUSH0 DUP1 REVERT JUMPDEST PUSH0 DUP1 REVERT JUMPDEST PUSH0 DUP1 REVERT JUMPDEST PUSH0 DUP1 REVERT JUMPDEST PUSH0 DUP1 REVERT JUMPDEST PUSH0 DUP1 DUP4 PUSH1 0x1F DUP5 ADD SLT PUSH2 0x228 JUMPI PUSH2 0x227 PUSH2 0x207 JUMP JUMPDEST JUMPDEST DUP3 CALLDATALOAD SWAP1 POP PUSH8 0xFFFFFFFFFFFFFFFF DUP2 GT ISZERO PUSH2 0x245 JUMPI PUSH2 0x244 PUSH2 0x20B JUMP JUMPDEST JUMPDEST PUSH1 0x20 DUP4 ADD SWAP2 POP DUP4 PUSH1 0x1 DUP3 MUL DUP4 ADD GT ISZERO PUSH2 0x261 JUMPI PUSH2 0x260 PUSH2 0x20F JUMP JUMPDEST JUMPDEST SWAP3 POP SWAP3 SWAP1 POP JUMP JUMPDEST PUSH0 DUP1 PUSH1 0x20 DUP4 DUP6 SUB SLT ISZERO PUSH2 0x27E JUMPI PUSH2 0x27D PUSH2 0x1FF JUMP JUMPDEST JUMPDEST PUSH0 DUP4 ADD CALLDATALOAD PUSH8 0xFFFFFFFFFFFFFFFF DUP2 GT ISZERO PUSH2 0x29B JUMPI PUSH2 0x29A PUSH2 0x203 JUMP JUMPDEST JUMPDEST PUSH2 0x2A7 DUP6 DUP3 DUP7 ADD PUSH2 0x213 JUMP JUMPDEST SWAP3 POP SWAP3 POP POP SWAP3 POP SWAP3 SWAP1 POP JUMP JUMPDEST PUSH0 DUP2 SWAP1 POP SWAP2 SWAP1 POP JUMP JUMPDEST PUSH2 0x2C5 DUP2 PUSH2 0x2B3 JUMP JUMPDEST DUP2 EQ PUSH2 0x2CF JUMPI PUSH0 DUP1 REVERT JUMPDEST POP JUMP JUMPDEST PUSH0 DUP2 CALLDATALOAD SWAP1 POP PUSH2 0x2E0 DUP2 PUSH2 0x2BC JUMP JUMPDEST SWAP3 SWAP2 POP POP JUMP JUMPDEST PUSH0 PUSH1 0x20 DUP3 DUP5 SUB SLT ISZERO PUSH2 0x2FB JUMPI PUSH2 0x2FA PUSH2 0x1FF JUMP JUMPDEST JUMPDEST PUSH0 PUSH2 0x308 DUP5 DUP3 DUP6 ADD PUSH2 0x2D2 JUMP JUMPDEST SWAP2 POP POP SWAP3 SWAP2 POP POP JUMP JUMPDEST PUSH0 DUP2 MLOAD SWAP1 POP SWAP2 SWAP1 POP JUMP JUMPDEST PUSH0 DUP3 DUP3 MSTORE PUSH1 0x20 DUP3 ADD SWAP1 POP SWAP3 SWAP2 POP POP JUMP JUMPDEST DUP3 DUP2 DUP4 MCOPY PUSH0 DUP4 DUP4 ADD MSTORE POP POP POP JUMP JUMPDEST PUSH0 PUSH1 0x1F NOT PUSH1 0x1F DUP4 ADD AND SWAP1 POP SWAP2 SWAP1 POP JUMP JUMPDEST PUSH0 PUSH2 0x353 DUP3 PUSH2 0x311 JUMP JUMPDEST PUSH2 0x35D DUP2 DUP6 PUSH2 0x31B JUMP JUMPDEST SWAP4 POP PUSH2 0x36D DUP2 DUP6 PUSH1 0x20 DUP7 ADD PUSH2 0x32B JUMP JUMPDEST PUSH2 0x376 DUP2 PUSH2 0x339 JUMP JUMPDEST DUP5 ADD SWAP2 POP POP SWAP3 SWAP2 POP POP JUMP JUMPDEST PUSH0 DUP2 ISZERO ISZERO SWAP1 POP SWAP2 SWAP1 POP JUMP JUMPDEST PUSH2 0x395 DUP2 PUSH2 0x381 JUMP JUMPDEST DUP3 MSTORE POP POP JUMP JUMPDEST PUSH0 PUSH1 0x40 DUP3 ADD SWAP1 POP DUP2 DUP2 SUB PUSH0 DUP4 ADD MSTORE PUSH2 0x3B3 DUP2 DUP6 PUSH2 0x349 JUMP JUMPDEST SWAP1 POP PUSH2 0x3C2 PUSH1 0x20 DUP4 ADD DUP5 PUSH2 0x38C JUMP JUMPDEST SWAP4 SWAP3 POP POP POP JUMP JUMPDEST PUSH32 0x4E487B7100000000000000000000000000000000000000000000000000000000 PUSH0 MSTORE PUSH1 0x41 PUSH1 0x4 MSTORE PUSH1 0x24 PUSH0 REVERT JUMPDEST PUSH32 0x4E487B7100000000000000000000000000000000000000000000000000000000 PUSH0 MSTORE PUSH1 0x22 PUSH1 0x4 MSTORE PUSH1 0x24 PUSH0 REVERT JUMPDEST PUSH0 PUSH1 0x2 DUP3 DIV SWAP1 POP PUSH1 0x1 DUP3 AND DUP1 PUSH2 0x43A JUMPI PUSH1 0x7F DUP3 AND SWAP2 POP JUMPDEST PUSH1 0x20 DUP3 LT DUP2 SUB PUSH2 0x44D JUMPI PUSH2 0x44C PUSH2 0x3F6 JUMP JUMPDEST JUMPDEST POP SWAP2 SWAP1 POP JUMP JUMPDEST PUSH0 DUP2 SWAP1 POP DUP2 PUSH0 MSTORE PUSH1 0x20 PUSH0 KECCAK256 SWAP1 POP SWAP2 SWAP1 POP JUMP JUMPDEST PUSH0 PUSH1 0x20 PUSH1 0x1F DUP4 ADD DIV SWAP1 POP SWAP2 SWAP1 POP JUMP JUMPDEST PUSH0 DUP3 DUP3 SHL SWAP1 POP SWAP3 SWAP2 POP POP JUMP JUMPDEST PUSH0 PUSH1 0x8 DUP4 MUL PUSH2 0x4AF PUSH32 0xFFFFFFFFFFFFFFFFFFFFFFFFFFFFFFFFFFFFFFFFFFFFFFFFFFFFFFFFFFFFFFFF DUP3 PUSH2 0x474 JUMP JUMPDEST PUSH2 0x4B9 DUP7 DUP4 PUSH2 0x474 JUMP JUMPDEST SWAP6 POP DUP1 NOT DUP5 AND SWAP4 POP DUP1 DUP7 AND DUP5 OR SWAP3 POP POP POP SWAP4 SWAP3 POP POP POP JUMP JUMPDEST PUSH0 DUP2 SWAP1 POP SWAP2 SWAP1 POP JUMP JUMPDEST PUSH0 PUSH2 0x4F4 PUSH2 0x4EF PUSH2 0x4EA DUP5 PUSH2 0x2B3 JUMP JUMPDEST PUSH2 0x4D1 JUMP JUMPDEST PUSH2 0x2B3 JUMP JUMPDEST SWAP1 POP SWAP2 SWAP1 POP JUMP JUMPDEST PUSH0 DUP2 SWAP1 POP SWAP2 SWAP1 POP JUMP JUMPDEST PUSH2 0x50D DUP4 PUSH2 0x4DA JUMP JUMPDEST PUSH2 0x521 PUSH2 0x519 DUP3 PUSH2 0x4FB JUMP JUMPDEST DUP5 DUP5 SLOAD PUSH2 0x480 JUMP JUMPDEST DUP3 SSTORE POP POP POP POP JUMP JUMPDEST PUSH0 SWAP1 JUMP JUMPDEST PUSH2 0x535 PUSH2 0x529 JUMP JUMPDEST PUSH2 0x540 DUP2 DUP5 DUP5 PUSH2 0x504 JUMP JUMPDEST POP POP POP JUMP JUMPDEST JUMPDEST DUP2 DUP2 LT ISZERO PUSH2 0x563 JUMPI PUSH2 0x558 PUSH0 DUP3 PUSH2 0x52D JUMP JUMPDEST PUSH1 0x1 DUP2 ADD SWAP1 POP PUSH2 0x546 JUMP JUMPDEST POP POP JUMP JUMPDEST PUSH1 0x1F DUP3 GT ISZERO PUSH2 0x5A8 JUMPI PUSH2 0x579 DUP2 PUSH2 0x453 JUMP JUMPDEST PUSH2 0x582 DUP5 PUSH2 0x465 JUMP JUMPDEST DUP2 ADD PUSH1 0x20 DUP6 LT ISZERO PUSH2 0x591 JUMPI DUP2 SWAP1 POP JUMPDEST PUSH2 0x5A5 PUSH2 0x59D DUP6 PUSH2 0x465 JUMP JUMPDEST DUP4 ADD DUP3 PUSH2 0x545 JUMP JUMPDEST POP POP JUMPDEST POP POP POP JUMP JUMPDEST PUSH0 DUP3 DUP3 SHR SWAP1 POP SWAP3 SWAP2 POP POP JUMP JUMPDEST PUSH0 PUSH2 0x5C8 PUSH0 NOT DUP5 PUSH1 0x8 MUL PUSH2 0x5AD JUMP JUMPDEST NOT DUP1 DUP4 AND SWAP2 POP POP SWAP3 SWAP2 POP POP JUMP JUMPDEST PUSH0 PUSH2 0x5E0 DUP4 DUP4 PUSH2 0x5B9 JUMP JUMPDEST SWAP2 POP DUP3 PUSH1 0x2 MUL DUP3 OR SWAP1 POP SWAP3 SWAP2 POP POP JUMP JUMPDEST PUSH2 0x5F9 DUP3 PUSH2 0x311 JUMP JUMPDEST PUSH8 0xFFFFFFFFFFFFFFFF DUP2 GT ISZERO PUSH2 0x612 JUMPI PUSH2 0x611 PUSH2 0x3C9 JUMP JUMPDEST JUMPDEST PUSH2 0x61C DUP3 SLOAD PUSH2 0x423 JUMP JUMPDEST PUSH2 0x627 DUP3 DUP3 DUP6 PUSH2 0x567 JUMP JUMPDEST PUSH0 PUSH1 0x20 SWAP1 POP PUSH1 0x1F DUP4 GT PUSH1 0x1 DUP2 EQ PUSH2 0x658 JUMPI PUSH0 DUP5 ISZERO PUSH2 0x646 JUMPI DUP3 DUP8 ADD MLOAD SWAP1 POP JUMPDEST PUSH2 0x650 DUP6 DUP3 PUSH2 0x5D5 JUMP JUMPDEST DUP7 SSTORE POP PUSH2 0x6B7 JUMP JUMPDEST PUSH1 0x1F NOT DUP5 AND PUSH2 0x666 DUP7 PUSH2 0x453 JUMP JUMPDEST PUSH0 JUMPDEST DUP3 DUP2 LT ISZERO PUSH2 0x68D JUMPI DUP5 DUP10 ADD MLOAD DUP3 SSTORE PUSH1 0x1 DUP3 ADD SWAP2 POP PUSH1 0x20 DUP6 ADD SWAP5 POP PUSH1 0x20 DUP2 ADD SWAP1 POP PUSH2 0x668 JUMP JUMPDEST DUP7 DUP4 LT ISZERO PUSH2 0x6AA JUMPI DUP5 DUP10 ADD MLOAD PUSH2 0x6A6 PUSH1 0x1F DUP10 AND DUP3 PUSH2 0x5B9 JUMP JUMPDEST DUP4 SSTORE POP JUMPDEST PUSH1 0x1 PUSH1 0x2 DUP9 MUL ADD DUP9 SSTORE POP POP POP JUMPDEST POP POP POP POP POP POP JUMP INVALID LOG2 PUSH5 0x6970667358 0x22 SLT KECCAK256 0xD2 JUMPI 0x23 0xE7 SWAP10 0xCF 0xBA PUSH14 0x60BA96930232F5E076126DB55098 EQ PUSH19 0xC626FAD11056CB8D64736F6C634300081A0033 "
				},
				"gasEstimates": {
					"creation": {
						"codeDepositCost": "356200",
						"executionCost": "391",
						"totalCost": "356591"
					},
					"external": {
						"create(string)": "infinite",
						"todos(uint256)": "infinite"
					}
				},
				"methodIdentifiers": {
					"create(string)": "b6a46b3b",
					"todos(uint256)": "bc8bc2b4"
				}
			},
			"storageLayout": {
				"storage": [
					{
						"astId": 10,
						"contract": "contracts/Structs.sol:Todos",
						"label": "todos",
						"offset": 0,
						"slot": "0",
						"type": "t_array(t_struct(Todo)6_storage)dyn_storage"
					}
				],
				"types": {
					"t_array(t_struct(Todo)6_storage)dyn_storage": {
						"base": "t_struct(Todo)6_storage",
						"encoding": "dynamic_array",
						"label": "struct Todos.Todo[]",
						"numberOfBytes": "32"
					},
					"t_bool": {
						"encoding": "inplace",
						"label": "bool",
						"numberOfBytes": "1"
					},
					"t_string_storage": {
						"encoding": "bytes",
						"label": "string",
						"numberOfBytes": "32"
					},
					"t_struct(Todo)6_storage": {
						"encoding": "inplace",
						"label": "struct Todos.Todo",
						"members": [
							{
								"astId": 3,
								"contract": "contracts/Structs.sol:Todos",
								"label": "text",
								"offset": 0,
								"slot": "0",
								"type": "t_string_storage"
							},
							{
								"astId": 5,
								"contract": "contracts/Structs.sol:Todos",
								"label": "completed",
								"offset": 0,
								"slot": "1",
								"type": "t_bool"
							}
						],
						"numberOfBytes": "64"
					}
				}
			},
			"userdoc": {
				"kind": "user",
				"methods": {},
				"version": 1
			}
		}
	}
}