{
	"contracts/021_SimpleStorage.sol": {
		"SimpleStorage": {
			"abi": [
				{
					"inputs": [
						{
							"internalType": "uint256",
							"name": "_age",
							"type": "uint256"
						},
						{
							"internalType": "string",
							"name": "_name",
							"type": "string"
						}
					],
					"name": "addperson",
					"outputs": [],
					"stateMutability": "nonpayable",
					"type": "function"
				},
				{
					"inputs": [
						{
							"internalType": "uint256",
							"name": "_index",
							"type": "uint256"
						}
					],
					"name": "getPeople",
					"outputs": [
						{
							"components": [
								{
									"internalType": "uint256",
									"name": "age",
									"type": "uint256"
								},
								{
									"internalType": "string",
									"name": "name",
									"type": "string"
								}
							],
							"internalType": "struct SimpleStorage.People",
							"name": "",
							"type": "tuple"
						}
					],
					"stateMutability": "view",
					"type": "function"
				},
				{
					"inputs": [
						{
							"internalType": "uint256",
							"name": "",
							"type": "uint256"
						}
					],
					"name": "person",
					"outputs": [
						{
							"internalType": "uint256",
							"name": "age",
							"type": "uint256"
						},
						{
							"internalType": "string",
							"name": "name",
							"type": "string"
						}
					],
					"stateMutability": "view",
					"type": "function"
				},
				{
					"inputs": [],
					"name": "retrieve",
					"outputs": [
						{
							"internalType": "uint256",
							"name": "",
							"type": "uint256"
						}
					],
					"stateMutability": "view",
					"type": "function"
				},
				{
					"inputs": [
						{
							"internalType": "uint256",
							"name": "_favoriteNumber",
							"type": "uint256"
						}
					],
					"name": "store",
					"outputs": [],
					"stateMutability": "nonpayable",
					"type": "function"
				}
			],
			"devdoc": {
				"kind": "dev",
				"methods": {},
				"version": 1
			},
			"evm": {
				"assembly": "    /* \"contracts/021_SimpleStorage.sol\":58:637  contract SimpleStorage {... */\n  mstore(0x40, 0x80)\n  callvalue\n  dup1\n  iszero\n  tag_1\n  jumpi\n  0x00\n  dup1\n  revert\ntag_1:\n  pop\n  dataSize(sub_0)\n  dup1\n  dataOffset(sub_0)\n  0x00\n  codecopy\n  0x00\n  return\nstop\n\nsub_0: assembly {\n        /* \"contracts/021_SimpleStorage.sol\":58:637  contract SimpleStorage {... */\n      mstore(0x40, 0x80)\n      callvalue\n      dup1\n      iszero\n      tag_1\n      jumpi\n      0x00\n      dup1\n      revert\n    tag_1:\n      pop\n      jumpi(tag_2, lt(calldatasize, 0x04))\n      shr(0xe0, calldataload(0x00))\n      dup1\n      0x092a1820\n      eq\n      tag_3\n      jumpi\n      dup1\n      0x10b4801a\n      eq\n      tag_4\n      jumpi\n      dup1\n      0x2e64cec1\n      eq\n      tag_5\n      jumpi\n      dup1\n      0x6057361d\n      eq\n      tag_6\n      jumpi\n      dup1\n      0xa7279116\n      eq\n      tag_7\n      jumpi\n    tag_2:\n      0x00\n      dup1\n      revert\n        /* \"contracts/021_SimpleStorage.sol\":185:207  People[] public person */\n    tag_3:\n      tag_8\n      0x04\n      dup1\n      calldatasize\n      sub\n      dup2\n      add\n      swap1\n      tag_9\n      swap2\n      swap1\n      tag_10\n      jump\t// in\n    tag_9:\n      tag_11\n      jump\t// in\n    tag_8:\n      mload(0x40)\n      tag_12\n      swap3\n      swap2\n      swap1\n      tag_13\n      jump\t// in\n    tag_12:\n      mload(0x40)\n      dup1\n      swap2\n      sub\n      swap1\n      return\n        /* \"contracts/021_SimpleStorage.sol\":526:635  function getPeople(uint256 _index) public view returns (People memory) {... */\n    tag_4:\n      tag_14\n      0x04\n      dup1\n      calldatasize\n      sub\n      dup2\n      add\n      swap1\n      tag_15\n      swap2\n      swap1\n      tag_10\n      jump\t// in\n    tag_15:\n      tag_16\n      jump\t// in\n    tag_14:\n      mload(0x40)\n      tag_17\n      swap2\n      swap1\n      tag_18\n      jump\t// in\n    tag_17:\n      mload(0x40)\n      dup1\n      swap2\n      sub\n      swap1\n      return\n        /* \"contracts/021_SimpleStorage.sol\":316:404  function retrieve() public view returns (uint256) {... */\n    tag_5:\n      tag_19\n      tag_20\n      jump\t// in\n    tag_19:\n      mload(0x40)\n      tag_21\n      swap2\n      swap1\n      tag_22\n      jump\t// in\n    tag_21:\n      mload(0x40)\n      dup1\n      swap2\n      sub\n      swap1\n      return\n        /* \"contracts/021_SimpleStorage.sol\":214:310  function store(uint256 _favoriteNumber) public {... */\n    tag_6:\n      tag_23\n      0x04\n      dup1\n      calldatasize\n      sub\n      dup2\n      add\n      swap1\n      tag_24\n      swap2\n      swap1\n      tag_10\n      jump\t// in\n    tag_24:\n      tag_25\n      jump\t// in\n    tag_23:\n      stop\n        /* \"contracts/021_SimpleStorage.sol\":410:520  function addperson(uint256 _age, string memory _name) public {... */\n    tag_7:\n      tag_26\n      0x04\n      dup1\n      calldatasize\n      sub\n      dup2\n      add\n      swap1\n      tag_27\n      swap2\n      swap1\n      tag_28\n      jump\t// in\n    tag_27:\n      tag_29\n      jump\t// in\n    tag_26:\n      stop\n        /* \"contracts/021_SimpleStorage.sol\":185:207  People[] public person */\n    tag_11:\n      0x01\n      dup2\n      dup2\n      sload\n      dup2\n      lt\n      tag_30\n      jumpi\n      0x00\n      dup1\n      revert\n    tag_30:\n      swap1\n      0x00\n      mstore\n      keccak256(0x00, 0x20)\n      swap1\n      0x02\n      mul\n      add\n      0x00\n      swap2\n      pop\n      swap1\n      pop\n      dup1\n      0x00\n      add\n      sload\n      swap1\n      dup1\n      0x01\n      add\n      dup1\n      sload\n      tag_32\n      swap1\n      tag_33\n      jump\t// in\n    tag_32:\n      dup1\n      0x1f\n      add\n      0x20\n      dup1\n      swap2\n      div\n      mul\n      0x20\n      add\n      mload(0x40)\n      swap1\n      dup2\n      add\n      0x40\n      mstore\n      dup1\n      swap3\n      swap2\n      swap1\n      dup2\n      dup2\n      mstore\n      0x20\n      add\n      dup3\n      dup1\n      sload\n      tag_34\n      swap1\n      tag_33\n      jump\t// in\n    tag_34:\n      dup1\n      iszero\n      tag_35\n      jumpi\n      dup1\n      0x1f\n      lt\n      tag_36\n      jumpi\n      0x0100\n      dup1\n      dup4\n      sload\n      div\n      mul\n      dup4\n      mstore\n      swap2\n      0x20\n      add\n      swap2\n      jump(tag_35)\n    tag_36:\n      dup3\n      add\n      swap2\n      swap1\n      0x00\n      mstore\n      keccak256(0x00, 0x20)\n      swap1\n    tag_37:\n      dup2\n      sload\n      dup2\n      mstore\n      swap1\n      0x01\n      add\n      swap1\n      0x20\n      add\n      dup1\n      dup4\n      gt\n      tag_37\n      jumpi\n      dup3\n      swap1\n      sub\n      0x1f\n      and\n      dup3\n      add\n      swap2\n    tag_35:\n      pop\n      pop\n      pop\n      pop\n      pop\n      swap1\n      pop\n      dup3\n      jump\t// out\n        /* \"contracts/021_SimpleStorage.sol\":526:635  function getPeople(uint256 _index) public view returns (People memory) {... */\n    tag_16:\n        /* \"contracts/021_SimpleStorage.sol\":582:595  People memory */\n      tag_38\n      tag_39\n      jump\t// in\n    tag_38:\n        /* \"contracts/021_SimpleStorage.sol\":614:620  person */\n      0x01\n        /* \"contracts/021_SimpleStorage.sol\":621:627  _index */\n      dup3\n        /* \"contracts/021_SimpleStorage.sol\":614:628  person[_index] */\n      dup2\n      sload\n      dup2\n      lt\n      tag_41\n      jumpi\n      tag_42\n      tag_43\n      jump\t// in\n    tag_42:\n    tag_41:\n      swap1\n      0x00\n      mstore\n      keccak256(0x00, 0x20)\n      swap1\n      0x02\n      mul\n      add\n        /* \"contracts/021_SimpleStorage.sol\":607:628  return person[_index] */\n      mload(0x40)\n      dup1\n      0x40\n      add\n      0x40\n      mstore\n      swap1\n      dup2\n      0x00\n      dup3\n      add\n      sload\n      dup2\n      mstore\n      0x20\n      add\n      0x01\n      dup3\n      add\n      dup1\n      sload\n      tag_45\n      swap1\n      tag_33\n      jump\t// in\n    tag_45:\n      dup1\n      0x1f\n      add\n      0x20\n      dup1\n      swap2\n      div\n      mul\n      0x20\n      add\n      mload(0x40)\n      swap1\n      dup2\n      add\n      0x40\n      mstore\n      dup1\n      swap3\n      swap2\n      swap1\n      dup2\n      dup2\n      mstore\n      0x20\n      add\n      dup3\n      dup1\n      sload\n      tag_46\n      swap1\n      tag_33\n      jump\t// in\n    tag_46:\n      dup1\n      iszero\n      tag_47\n      jumpi\n      dup1\n      0x1f\n      lt\n      tag_48\n      jumpi\n      0x0100\n      dup1\n      dup4\n      sload\n      div\n      mul\n      dup4\n      mstore\n      swap2\n      0x20\n      add\n      swap2\n      jump(tag_47)\n    tag_48:\n      dup3\n      add\n      swap2\n      swap1\n      0x00\n      mstore\n      keccak256(0x00, 0x20)\n      swap1\n    tag_49:\n      dup2\n      sload\n      dup2\n      mstore\n      swap1\n      0x01\n      add\n      swap1\n      0x20\n      add\n      dup1\n      dup4\n      gt\n      tag_49\n      jumpi\n      dup3\n      swap1\n      sub\n      0x1f\n      and\n      dup3\n      add\n      swap2\n    tag_47:\n      pop\n      pop\n      pop\n      pop\n      pop\n      dup2\n      mstore\n      pop\n      pop\n      swap1\n      pop\n        /* \"contracts/021_SimpleStorage.sol\":526:635  function getPeople(uint256 _index) public view returns (People memory) {... */\n      swap2\n      swap1\n      pop\n      jump\t// out\n        /* \"contracts/021_SimpleStorage.sol\":316:404  function retrieve() public view returns (uint256) {... */\n    tag_20:\n        /* \"contracts/021_SimpleStorage.sol\":357:364  uint256 */\n      0x00\n        /* \"contracts/021_SimpleStorage.sol\":383:397  favoriteNumber */\n      dup1\n      sload\n        /* \"contracts/021_SimpleStorage.sol\":376:397  return favoriteNumber */\n      swap1\n      pop\n        /* \"contracts/021_SimpleStorage.sol\":316:404  function retrieve() public view returns (uint256) {... */\n      swap1\n      jump\t// out\n        /* \"contracts/021_SimpleStorage.sol\":214:310  function store(uint256 _favoriteNumber) public {... */\n    tag_25:\n        /* \"contracts/021_SimpleStorage.sol\":288:303  _favoriteNumber */\n      dup1\n        /* \"contracts/021_SimpleStorage.sol\":271:285  favoriteNumber */\n      0x00\n        /* \"contracts/021_SimpleStorage.sol\":271:303  favoriteNumber = _favoriteNumber */\n      dup2\n      swap1\n      sstore\n      pop\n        /* \"contracts/021_SimpleStorage.sol\":214:310  function store(uint256 _favoriteNumber) public {... */\n      pop\n      jump\t// out\n        /* \"contracts/021_SimpleStorage.sol\":410:520  function addperson(uint256 _age, string memory _name) public {... */\n    tag_29:\n        /* \"contracts/021_SimpleStorage.sol\":481:487  person */\n      0x01\n        /* \"contracts/021_SimpleStorage.sol\":493:512  People(_age, _name) */\n      mload(0x40)\n      dup1\n      0x40\n      add\n      0x40\n      mstore\n      dup1\n        /* \"contracts/021_SimpleStorage.sol\":500:504  _age */\n      dup5\n        /* \"contracts/021_SimpleStorage.sol\":493:512  People(_age, _name) */\n      dup2\n      mstore\n      0x20\n      add\n        /* \"contracts/021_SimpleStorage.sol\":506:511  _name */\n      dup4\n        /* \"contracts/021_SimpleStorage.sol\":493:512  People(_age, _name) */\n      dup2\n      mstore\n      pop\n        /* \"contracts/021_SimpleStorage.sol\":481:513  person.push(People(_age, _name)) */\n      swap1\n      dup1\n      0x01\n      dup2\n      sload\n      add\n      dup1\n      dup3\n      sstore\n      dup1\n      swap2\n      pop\n      pop\n      0x01\n      swap1\n      sub\n      swap1\n      0x00\n      mstore\n      keccak256(0x00, 0x20)\n      swap1\n      0x02\n      mul\n      add\n      0x00\n      swap1\n      swap2\n      swap1\n      swap2\n      swap1\n      swap2\n      pop\n      0x00\n      dup3\n      add\n      mload\n      dup2\n      0x00\n      add\n      sstore\n      0x20\n      dup3\n      add\n      mload\n      dup2\n      0x01\n      add\n      swap1\n      dup2\n      tag_54\n      swap2\n      swap1\n      tag_55\n      jump\t// in\n    tag_54:\n      pop\n      pop\n      pop\n        /* \"contracts/021_SimpleStorage.sol\":410:520  function addperson(uint256 _age, string memory _name) public {... */\n      pop\n      pop\n      jump\t// out\n    tag_39:\n      mload(0x40)\n      dup1\n      0x40\n      add\n      0x40\n      mstore\n      dup1\n      0x00\n      dup2\n      mstore\n      0x20\n      add\n      0x60\n      dup2\n      mstore\n      pop\n      swap1\n      jump\t// out\n        /* \"#utility.yul\":7:82   */\n    tag_56:\n        /* \"#utility.yul\":40:46   */\n      0x00\n        /* \"#utility.yul\":73:75   */\n      0x40\n        /* \"#utility.yul\":67:76   */\n      mload\n        /* \"#utility.yul\":57:76   */\n      swap1\n      pop\n        /* \"#utility.yul\":7:82   */\n      swap1\n      jump\t// out\n        /* \"#utility.yul\":88:205   */\n    tag_57:\n        /* \"#utility.yul\":197:198   */\n      0x00\n        /* \"#utility.yul\":194:195   */\n      dup1\n        /* \"#utility.yul\":187:199   */\n      revert\n        /* \"#utility.yul\":211:328   */\n    tag_58:\n        /* \"#utility.yul\":320:321   */\n      0x00\n        /* \"#utility.yul\":317:318   */\n      dup1\n        /* \"#utility.yul\":310:322   */\n      revert\n        /* \"#utility.yul\":334:411   */\n    tag_59:\n        /* \"#utility.yul\":371:378   */\n      0x00\n        /* \"#utility.yul\":400:405   */\n      dup2\n        /* \"#utility.yul\":389:405   */\n      swap1\n      pop\n        /* \"#utility.yul\":334:411   */\n      swap2\n      swap1\n      pop\n      jump\t// out\n        /* \"#utility.yul\":417:539   */\n    tag_60:\n        /* \"#utility.yul\":490:514   */\n      tag_103\n        /* \"#utility.yul\":508:513   */\n      dup2\n        /* \"#utility.yul\":490:514   */\n      tag_59\n      jump\t// in\n    tag_103:\n        /* \"#utility.yul\":483:488   */\n      dup2\n        /* \"#utility.yul\":480:515   */\n      eq\n        /* \"#utility.yul\":470:533   */\n      tag_104\n      jumpi\n        /* \"#utility.yul\":529:530   */\n      0x00\n        /* \"#utility.yul\":526:527   */\n      dup1\n        /* \"#utility.yul\":519:531   */\n      revert\n        /* \"#utility.yul\":470:533   */\n    tag_104:\n        /* \"#utility.yul\":417:539   */\n      pop\n      jump\t// out\n        /* \"#utility.yul\":545:684   */\n    tag_61:\n        /* \"#utility.yul\":591:596   */\n      0x00\n        /* \"#utility.yul\":629:635   */\n      dup2\n        /* \"#utility.yul\":616:636   */\n      calldataload\n        /* \"#utility.yul\":607:636   */\n      swap1\n      pop\n        /* \"#utility.yul\":645:678   */\n      tag_106\n        /* \"#utility.yul\":672:677   */\n      dup2\n        /* \"#utility.yul\":645:678   */\n      tag_60\n      jump\t// in\n    tag_106:\n        /* \"#utility.yul\":545:684   */\n      swap3\n      swap2\n      pop\n      pop\n      jump\t// out\n        /* \"#utility.yul\":690:1019   */\n    tag_10:\n        /* \"#utility.yul\":749:755   */\n      0x00\n        /* \"#utility.yul\":798:800   */\n      0x20\n        /* \"#utility.yul\":786:795   */\n      dup3\n        /* \"#utility.yul\":777:784   */\n      dup5\n        /* \"#utility.yul\":773:796   */\n      sub\n        /* \"#utility.yul\":769:801   */\n      slt\n        /* \"#utility.yul\":766:885   */\n      iszero\n      tag_108\n      jumpi\n        /* \"#utility.yul\":804:883   */\n      tag_109\n      tag_57\n      jump\t// in\n    tag_109:\n        /* \"#utility.yul\":766:885   */\n    tag_108:\n        /* \"#utility.yul\":924:925   */\n      0x00\n        /* \"#utility.yul\":949:1002   */\n      tag_110\n        /* \"#utility.yul\":994:1001   */\n      dup5\n        /* \"#utility.yul\":985:991   */\n      dup3\n        /* \"#utility.yul\":974:983   */\n      dup6\n        /* \"#utility.yul\":970:992   */\n      add\n        /* \"#utility.yul\":949:1002   */\n      tag_61\n      jump\t// in\n    tag_110:\n        /* \"#utility.yul\":939:1002   */\n      swap2\n      pop\n        /* \"#utility.yul\":895:1012   */\n      pop\n        /* \"#utility.yul\":690:1019   */\n      swap3\n      swap2\n      pop\n      pop\n      jump\t// out\n        /* \"#utility.yul\":1025:1143   */\n    tag_62:\n        /* \"#utility.yul\":1112:1136   */\n      tag_112\n        /* \"#utility.yul\":1130:1135   */\n      dup2\n        /* \"#utility.yul\":1112:1136   */\n      tag_59\n      jump\t// in\n    tag_112:\n        /* \"#utility.yul\":1107:1110   */\n      dup3\n        /* \"#utility.yul\":1100:1137   */\n      mstore\n        /* \"#utility.yul\":1025:1143   */\n      pop\n      pop\n      jump\t// out\n        /* \"#utility.yul\":1149:1248   */\n    tag_63:\n        /* \"#utility.yul\":1201:1207   */\n      0x00\n        /* \"#utility.yul\":1235:1240   */\n      dup2\n        /* \"#utility.yul\":1229:1241   */\n      mload\n        /* \"#utility.yul\":1219:1241   */\n      swap1\n      pop\n        /* \"#utility.yul\":1149:1248   */\n      swap2\n      swap1\n      pop\n      jump\t// out\n        /* \"#utility.yul\":1254:1423   */\n    tag_64:\n        /* \"#utility.yul\":1338:1349   */\n      0x00\n        /* \"#utility.yul\":1372:1378   */\n      dup3\n        /* \"#utility.yul\":1367:1370   */\n      dup3\n        /* \"#utility.yul\":1360:1379   */\n      mstore\n        /* \"#utility.yul\":1412:1416   */\n      0x20\n        /* \"#utility.yul\":1407:1410   */\n      dup3\n        /* \"#utility.yul\":1403:1417   */\n      add\n        /* \"#utility.yul\":1388:1417   */\n      swap1\n      pop\n        /* \"#utility.yul\":1254:1423   */\n      swap3\n      swap2\n      pop\n      pop\n      jump\t// out\n        /* \"#utility.yul\":1429:1568   */\n    tag_65:\n        /* \"#utility.yul\":1518:1524   */\n      dup3\n        /* \"#utility.yul\":1513:1516   */\n      dup2\n        /* \"#utility.yul\":1508:1511   */\n      dup4\n        /* \"#utility.yul\":1502:1525   */\n      mcopy\n        /* \"#utility.yul\":1559:1560   */\n      0x00\n        /* \"#utility.yul\":1550:1556   */\n      dup4\n        /* \"#utility.yul\":1545:1548   */\n      dup4\n        /* \"#utility.yul\":1541:1557   */\n      add\n        /* \"#utility.yul\":1534:1561   */\n      mstore\n        /* \"#utility.yul\":1429:1568   */\n      pop\n      pop\n      pop\n      jump\t// out\n        /* \"#utility.yul\":1574:1676   */\n    tag_66:\n        /* \"#utility.yul\":1615:1621   */\n      0x00\n        /* \"#utility.yul\":1666:1668   */\n      0x1f\n        /* \"#utility.yul\":1662:1669   */\n      not\n        /* \"#utility.yul\":1657:1659   */\n      0x1f\n        /* \"#utility.yul\":1650:1655   */\n      dup4\n        /* \"#utility.yul\":1646:1660   */\n      add\n        /* \"#utility.yul\":1642:1670   */\n      and\n        /* \"#utility.yul\":1632:1670   */\n      swap1\n      pop\n        /* \"#utility.yul\":1574:1676   */\n      swap2\n      swap1\n      pop\n      jump\t// out\n        /* \"#utility.yul\":1682:2059   */\n    tag_67:\n        /* \"#utility.yul\":1770:1773   */\n      0x00\n        /* \"#utility.yul\":1798:1837   */\n      tag_118\n        /* \"#utility.yul\":1831:1836   */\n      dup3\n        /* \"#utility.yul\":1798:1837   */\n      tag_63\n      jump\t// in\n    tag_118:\n        /* \"#utility.yul\":1853:1924   */\n      tag_119\n        /* \"#utility.yul\":1917:1923   */\n      dup2\n        /* \"#utility.yul\":1912:1915   */\n      dup6\n        /* \"#utility.yul\":1853:1924   */\n      tag_64\n      jump\t// in\n    tag_119:\n        /* \"#utility.yul\":1846:1924   */\n      swap4\n      pop\n        /* \"#utility.yul\":1933:1998   */\n      tag_120\n        /* \"#utility.yul\":1991:1997   */\n      dup2\n        /* \"#utility.yul\":1986:1989   */\n      dup6\n        /* \"#utility.yul\":1979:1983   */\n      0x20\n        /* \"#utility.yul\":1972:1977   */\n      dup7\n        /* \"#utility.yul\":1968:1984   */\n      add\n        /* \"#utility.yul\":1933:1998   */\n      tag_65\n      jump\t// in\n    tag_120:\n        /* \"#utility.yul\":2023:2052   */\n      tag_121\n        /* \"#utility.yul\":2045:2051   */\n      dup2\n        /* \"#utility.yul\":2023:2052   */\n      tag_66\n      jump\t// in\n    tag_121:\n        /* \"#utility.yul\":2018:2021   */\n      dup5\n        /* \"#utility.yul\":2014:2053   */\n      add\n        /* \"#utility.yul\":2007:2053   */\n      swap2\n      pop\n        /* \"#utility.yul\":1774:2059   */\n      pop\n        /* \"#utility.yul\":1682:2059   */\n      swap3\n      swap2\n      pop\n      pop\n      jump\t// out\n        /* \"#utility.yul\":2065:2488   */\n    tag_13:\n        /* \"#utility.yul\":2206:2210   */\n      0x00\n        /* \"#utility.yul\":2244:2246   */\n      0x40\n        /* \"#utility.yul\":2233:2242   */\n      dup3\n        /* \"#utility.yul\":2229:2247   */\n      add\n        /* \"#utility.yul\":2221:2247   */\n      swap1\n      pop\n        /* \"#utility.yul\":2257:2328   */\n      tag_123\n        /* \"#utility.yul\":2325:2326   */\n      0x00\n        /* \"#utility.yul\":2314:2323   */\n      dup4\n        /* \"#utility.yul\":2310:2327   */\n      add\n        /* \"#utility.yul\":2301:2307   */\n      dup6\n        /* \"#utility.yul\":2257:2328   */\n      tag_62\n      jump\t// in\n    tag_123:\n        /* \"#utility.yul\":2375:2384   */\n      dup2\n        /* \"#utility.yul\":2369:2373   */\n      dup2\n        /* \"#utility.yul\":2365:2385   */\n      sub\n        /* \"#utility.yul\":2360:2362   */\n      0x20\n        /* \"#utility.yul\":2349:2358   */\n      dup4\n        /* \"#utility.yul\":2345:2363   */\n      add\n        /* \"#utility.yul\":2338:2386   */\n      mstore\n        /* \"#utility.yul\":2403:2481   */\n      tag_124\n        /* \"#utility.yul\":2476:2480   */\n      dup2\n        /* \"#utility.yul\":2467:2473   */\n      dup5\n        /* \"#utility.yul\":2403:2481   */\n      tag_67\n      jump\t// in\n    tag_124:\n        /* \"#utility.yul\":2395:2481   */\n      swap1\n      pop\n        /* \"#utility.yul\":2065:2488   */\n      swap4\n      swap3\n      pop\n      pop\n      pop\n      jump\t// out\n        /* \"#utility.yul\":2494:2602   */\n    tag_68:\n        /* \"#utility.yul\":2571:2595   */\n      tag_126\n        /* \"#utility.yul\":2589:2594   */\n      dup2\n        /* \"#utility.yul\":2571:2595   */\n      tag_59\n      jump\t// in\n    tag_126:\n        /* \"#utility.yul\":2566:2569   */\n      dup3\n        /* \"#utility.yul\":2559:2596   */\n      mstore\n        /* \"#utility.yul\":2494:2602   */\n      pop\n      pop\n      jump\t// out\n        /* \"#utility.yul\":2608:2767   */\n    tag_69:\n        /* \"#utility.yul\":2682:2693   */\n      0x00\n        /* \"#utility.yul\":2716:2722   */\n      dup3\n        /* \"#utility.yul\":2711:2714   */\n      dup3\n        /* \"#utility.yul\":2704:2723   */\n      mstore\n        /* \"#utility.yul\":2756:2760   */\n      0x20\n        /* \"#utility.yul\":2751:2754   */\n      dup3\n        /* \"#utility.yul\":2747:2761   */\n      add\n        /* \"#utility.yul\":2732:2761   */\n      swap1\n      pop\n        /* \"#utility.yul\":2608:2767   */\n      swap3\n      swap2\n      pop\n      pop\n      jump\t// out\n        /* \"#utility.yul\":2773:3130   */\n    tag_70:\n        /* \"#utility.yul\":2851:2854   */\n      0x00\n        /* \"#utility.yul\":2879:2918   */\n      tag_129\n        /* \"#utility.yul\":2912:2917   */\n      dup3\n        /* \"#utility.yul\":2879:2918   */\n      tag_63\n      jump\t// in\n    tag_129:\n        /* \"#utility.yul\":2934:2995   */\n      tag_130\n        /* \"#utility.yul\":2988:2994   */\n      dup2\n        /* \"#utility.yul\":2983:2986   */\n      dup6\n        /* \"#utility.yul\":2934:2995   */\n      tag_69\n      jump\t// in\n    tag_130:\n        /* \"#utility.yul\":2927:2995   */\n      swap4\n      pop\n        /* \"#utility.yul\":3004:3069   */\n      tag_131\n        /* \"#utility.yul\":3062:3068   */\n      dup2\n        /* \"#utility.yul\":3057:3060   */\n      dup6\n        /* \"#utility.yul\":3050:3054   */\n      0x20\n        /* \"#utility.yul\":3043:3048   */\n      dup7\n        /* \"#utility.yul\":3039:3055   */\n      add\n        /* \"#utility.yul\":3004:3069   */\n      tag_65\n      jump\t// in\n    tag_131:\n        /* \"#utility.yul\":3094:3123   */\n      tag_132\n        /* \"#utility.yul\":3116:3122   */\n      dup2\n        /* \"#utility.yul\":3094:3123   */\n      tag_66\n      jump\t// in\n    tag_132:\n        /* \"#utility.yul\":3089:3092   */\n      dup5\n        /* \"#utility.yul\":3085:3124   */\n      add\n        /* \"#utility.yul\":3078:3124   */\n      swap2\n      pop\n        /* \"#utility.yul\":2855:3130   */\n      pop\n        /* \"#utility.yul\":2773:3130   */\n      swap3\n      swap2\n      pop\n      pop\n      jump\t// out\n        /* \"#utility.yul\":3202:3799   */\n    tag_71:\n        /* \"#utility.yul\":3313:3316   */\n      0x00\n        /* \"#utility.yul\":3349:3353   */\n      0x40\n        /* \"#utility.yul\":3344:3347   */\n      dup4\n        /* \"#utility.yul\":3340:3354   */\n      add\n        /* \"#utility.yul\":3435:3439   */\n      0x00\n        /* \"#utility.yul\":3428:3433   */\n      dup4\n        /* \"#utility.yul\":3424:3440   */\n      add\n        /* \"#utility.yul\":3418:3441   */\n      mload\n        /* \"#utility.yul\":3454:3517   */\n      tag_134\n        /* \"#utility.yul\":3511:3515   */\n      0x00\n        /* \"#utility.yul\":3506:3509   */\n      dup7\n        /* \"#utility.yul\":3502:3516   */\n      add\n        /* \"#utility.yul\":3488:3500   */\n      dup3\n        /* \"#utility.yul\":3454:3517   */\n      tag_68\n      jump\t// in\n    tag_134:\n        /* \"#utility.yul\":3364:3527   */\n      pop\n        /* \"#utility.yul\":3609:3613   */\n      0x20\n        /* \"#utility.yul\":3602:3607   */\n      dup4\n        /* \"#utility.yul\":3598:3614   */\n      add\n        /* \"#utility.yul\":3592:3615   */\n      mload\n        /* \"#utility.yul\":3662:3665   */\n      dup5\n        /* \"#utility.yul\":3656:3660   */\n      dup3\n        /* \"#utility.yul\":3652:3666   */\n      sub\n        /* \"#utility.yul\":3645:3649   */\n      0x20\n        /* \"#utility.yul\":3640:3643   */\n      dup7\n        /* \"#utility.yul\":3636:3650   */\n      add\n        /* \"#utility.yul\":3629:3667   */\n      mstore\n        /* \"#utility.yul\":3688:3761   */\n      tag_135\n        /* \"#utility.yul\":3756:3760   */\n      dup3\n        /* \"#utility.yul\":3742:3754   */\n      dup3\n        /* \"#utility.yul\":3688:3761   */\n      tag_70\n      jump\t// in\n    tag_135:\n        /* \"#utility.yul\":3680:3761   */\n      swap2\n      pop\n        /* \"#utility.yul\":3537:3772   */\n      pop\n        /* \"#utility.yul\":3789:3793   */\n      dup1\n        /* \"#utility.yul\":3782:3793   */\n      swap2\n      pop\n        /* \"#utility.yul\":3318:3799   */\n      pop\n        /* \"#utility.yul\":3202:3799   */\n      swap3\n      swap2\n      pop\n      pop\n      jump\t// out\n        /* \"#utility.yul\":3805:4162   */\n    tag_18:\n        /* \"#utility.yul\":3940:3944   */\n      0x00\n        /* \"#utility.yul\":3978:3980   */\n      0x20\n        /* \"#utility.yul\":3967:3976   */\n      dup3\n        /* \"#utility.yul\":3963:3981   */\n      add\n        /* \"#utility.yul\":3955:3981   */\n      swap1\n      pop\n        /* \"#utility.yul\":4027:4036   */\n      dup2\n        /* \"#utility.yul\":4021:4025   */\n      dup2\n        /* \"#utility.yul\":4017:4037   */\n      sub\n        /* \"#utility.yul\":4013:4014   */\n      0x00\n        /* \"#utility.yul\":4002:4011   */\n      dup4\n        /* \"#utility.yul\":3998:4015   */\n      add\n        /* \"#utility.yul\":3991:4038   */\n      mstore\n        /* \"#utility.yul\":4055:4155   */\n      tag_137\n        /* \"#utility.yul\":4150:4154   */\n      dup2\n        /* \"#utility.yul\":4141:4147   */\n      dup5\n        /* \"#utility.yul\":4055:4155   */\n      tag_71\n      jump\t// in\n    tag_137:\n        /* \"#utility.yul\":4047:4155   */\n      swap1\n      pop\n        /* \"#utility.yul\":3805:4162   */\n      swap3\n      swap2\n      pop\n      pop\n      jump\t// out\n        /* \"#utility.yul\":4168:4390   */\n    tag_22:\n        /* \"#utility.yul\":4261:4265   */\n      0x00\n        /* \"#utility.yul\":4299:4301   */\n      0x20\n        /* \"#utility.yul\":4288:4297   */\n      dup3\n        /* \"#utility.yul\":4284:4302   */\n      add\n        /* \"#utility.yul\":4276:4302   */\n      swap1\n      pop\n        /* \"#utility.yul\":4312:4383   */\n      tag_139\n        /* \"#utility.yul\":4380:4381   */\n      0x00\n        /* \"#utility.yul\":4369:4378   */\n      dup4\n        /* \"#utility.yul\":4365:4382   */\n      add\n        /* \"#utility.yul\":4356:4362   */\n      dup5\n        /* \"#utility.yul\":4312:4383   */\n      tag_62\n      jump\t// in\n    tag_139:\n        /* \"#utility.yul\":4168:4390   */\n      swap3\n      swap2\n      pop\n      pop\n      jump\t// out\n        /* \"#utility.yul\":4396:4513   */\n    tag_72:\n        /* \"#utility.yul\":4505:4506   */\n      0x00\n        /* \"#utility.yul\":4502:4503   */\n      dup1\n        /* \"#utility.yul\":4495:4507   */\n      revert\n        /* \"#utility.yul\":4519:4636   */\n    tag_73:\n        /* \"#utility.yul\":4628:4629   */\n      0x00\n        /* \"#utility.yul\":4625:4626   */\n      dup1\n        /* \"#utility.yul\":4618:4630   */\n      revert\n        /* \"#utility.yul\":4642:4822   */\n    tag_74:\n        /* \"#utility.yul\":4690:4767   */\n      0x4e487b7100000000000000000000000000000000000000000000000000000000\n        /* \"#utility.yul\":4687:4688   */\n      0x00\n        /* \"#utility.yul\":4680:4768   */\n      mstore\n        /* \"#utility.yul\":4787:4791   */\n      0x41\n        /* \"#utility.yul\":4784:4785   */\n      0x04\n        /* \"#utility.yul\":4777:4792   */\n      mstore\n        /* \"#utility.yul\":4811:4815   */\n      0x24\n        /* \"#utility.yul\":4808:4809   */\n      0x00\n        /* \"#utility.yul\":4801:4816   */\n      revert\n        /* \"#utility.yul\":4828:5109   */\n    tag_75:\n        /* \"#utility.yul\":4911:4938   */\n      tag_144\n        /* \"#utility.yul\":4933:4937   */\n      dup3\n        /* \"#utility.yul\":4911:4938   */\n      tag_66\n      jump\t// in\n    tag_144:\n        /* \"#utility.yul\":4903:4909   */\n      dup2\n        /* \"#utility.yul\":4899:4939   */\n      add\n        /* \"#utility.yul\":5041:5047   */\n      dup2\n        /* \"#utility.yul\":5029:5039   */\n      dup2\n        /* \"#utility.yul\":5026:5048   */\n      lt\n        /* \"#utility.yul\":5005:5023   */\n      0xffffffffffffffff\n        /* \"#utility.yul\":4993:5003   */\n      dup3\n        /* \"#utility.yul\":4990:5024   */\n      gt\n        /* \"#utility.yul\":4987:5049   */\n      or\n        /* \"#utility.yul\":4984:5072   */\n      iszero\n      tag_145\n      jumpi\n        /* \"#utility.yul\":5052:5070   */\n      tag_146\n      tag_74\n      jump\t// in\n    tag_146:\n        /* \"#utility.yul\":4984:5072   */\n    tag_145:\n        /* \"#utility.yul\":5092:5102   */\n      dup1\n        /* \"#utility.yul\":5088:5090   */\n      0x40\n        /* \"#utility.yul\":5081:5103   */\n      mstore\n        /* \"#utility.yul\":4871:5109   */\n      pop\n        /* \"#utility.yul\":4828:5109   */\n      pop\n      pop\n      jump\t// out\n        /* \"#utility.yul\":5115:5244   */\n    tag_76:\n        /* \"#utility.yul\":5149:5155   */\n      0x00\n        /* \"#utility.yul\":5176:5196   */\n      tag_148\n      tag_56\n      jump\t// in\n    tag_148:\n        /* \"#utility.yul\":5166:5196   */\n      swap1\n      pop\n        /* \"#utility.yul\":5205:5238   */\n      tag_149\n        /* \"#utility.yul\":5233:5237   */\n      dup3\n        /* \"#utility.yul\":5225:5231   */\n      dup3\n        /* \"#utility.yul\":5205:5238   */\n      tag_75\n      jump\t// in\n    tag_149:\n        /* \"#utility.yul\":5115:5244   */\n      swap2\n      swap1\n      pop\n      jump\t// out\n        /* \"#utility.yul\":5250:5558   */\n    tag_77:\n        /* \"#utility.yul\":5312:5316   */\n      0x00\n        /* \"#utility.yul\":5402:5420   */\n      0xffffffffffffffff\n        /* \"#utility.yul\":5394:5400   */\n      dup3\n        /* \"#utility.yul\":5391:5421   */\n      gt\n        /* \"#utility.yul\":5388:5444   */\n      iszero\n      tag_151\n      jumpi\n        /* \"#utility.yul\":5424:5442   */\n      tag_152\n      tag_74\n      jump\t// in\n    tag_152:\n        /* \"#utility.yul\":5388:5444   */\n    tag_151:\n        /* \"#utility.yul\":5462:5491   */\n      tag_153\n        /* \"#utility.yul\":5484:5490   */\n      dup3\n        /* \"#utility.yul\":5462:5491   */\n      tag_66\n      jump\t// in\n    tag_153:\n        /* \"#utility.yul\":5454:5491   */\n      swap1\n      pop\n        /* \"#utility.yul\":5546:5550   */\n      0x20\n        /* \"#utility.yul\":5540:5544   */\n      dup2\n        /* \"#utility.yul\":5536:5551   */\n      add\n        /* \"#utility.yul\":5528:5551   */\n      swap1\n      pop\n        /* \"#utility.yul\":5250:5558   */\n      swap2\n      swap1\n      pop\n      jump\t// out\n        /* \"#utility.yul\":5564:5712   */\n    tag_78:\n        /* \"#utility.yul\":5662:5668   */\n      dup3\n        /* \"#utility.yul\":5657:5660   */\n      dup2\n        /* \"#utility.yul\":5652:5655   */\n      dup4\n        /* \"#utility.yul\":5639:5669   */\n      calldatacopy\n        /* \"#utility.yul\":5703:5704   */\n      0x00\n        /* \"#utility.yul\":5694:5700   */\n      dup4\n        /* \"#utility.yul\":5689:5692   */\n      dup4\n        /* \"#utility.yul\":5685:5701   */\n      add\n        /* \"#utility.yul\":5678:5705   */\n      mstore\n        /* \"#utility.yul\":5564:5712   */\n      pop\n      pop\n      pop\n      jump\t// out\n        /* \"#utility.yul\":5718:6143   */\n    tag_79:\n        /* \"#utility.yul\":5796:5801   */\n      0x00\n        /* \"#utility.yul\":5821:5887   */\n      tag_156\n        /* \"#utility.yul\":5837:5886   */\n      tag_157\n        /* \"#utility.yul\":5879:5885   */\n      dup5\n        /* \"#utility.yul\":5837:5886   */\n      tag_77\n      jump\t// in\n    tag_157:\n        /* \"#utility.yul\":5821:5887   */\n      tag_76\n      jump\t// in\n    tag_156:\n        /* \"#utility.yul\":5812:5887   */\n      swap1\n      pop\n        /* \"#utility.yul\":5910:5916   */\n      dup3\n        /* \"#utility.yul\":5903:5908   */\n      dup2\n        /* \"#utility.yul\":5896:5917   */\n      mstore\n        /* \"#utility.yul\":5948:5952   */\n      0x20\n        /* \"#utility.yul\":5941:5946   */\n      dup2\n        /* \"#utility.yul\":5937:5953   */\n      add\n        /* \"#utility.yul\":5986:5989   */\n      dup5\n        /* \"#utility.yul\":5977:5983   */\n      dup5\n        /* \"#utility.yul\":5972:5975   */\n      dup5\n        /* \"#utility.yul\":5968:5984   */\n      add\n        /* \"#utility.yul\":5965:5990   */\n      gt\n        /* \"#utility.yul\":5962:6074   */\n      iszero\n      tag_158\n      jumpi\n        /* \"#utility.yul\":5993:6072   */\n      tag_159\n      tag_73\n      jump\t// in\n    tag_159:\n        /* \"#utility.yul\":5962:6074   */\n    tag_158:\n        /* \"#utility.yul\":6083:6137   */\n      tag_160\n        /* \"#utility.yul\":6130:6136   */\n      dup5\n        /* \"#utility.yul\":6125:6128   */\n      dup3\n        /* \"#utility.yul\":6120:6123   */\n      dup6\n        /* \"#utility.yul\":6083:6137   */\n      tag_78\n      jump\t// in\n    tag_160:\n        /* \"#utility.yul\":5802:6143   */\n      pop\n        /* \"#utility.yul\":5718:6143   */\n      swap4\n      swap3\n      pop\n      pop\n      pop\n      jump\t// out\n        /* \"#utility.yul\":6163:6503   */\n    tag_80:\n        /* \"#utility.yul\":6219:6224   */\n      0x00\n        /* \"#utility.yul\":6268:6271   */\n      dup3\n        /* \"#utility.yul\":6261:6265   */\n      0x1f\n        /* \"#utility.yul\":6253:6259   */\n      dup4\n        /* \"#utility.yul\":6249:6266   */\n      add\n        /* \"#utility.yul\":6245:6272   */\n      slt\n        /* \"#utility.yul\":6235:6357   */\n      tag_162\n      jumpi\n        /* \"#utility.yul\":6276:6355   */\n      tag_163\n      tag_72\n      jump\t// in\n    tag_163:\n        /* \"#utility.yul\":6235:6357   */\n    tag_162:\n        /* \"#utility.yul\":6393:6399   */\n      dup2\n        /* \"#utility.yul\":6380:6400   */\n      calldataload\n        /* \"#utility.yul\":6418:6497   */\n      tag_164\n        /* \"#utility.yul\":6493:6496   */\n      dup5\n        /* \"#utility.yul\":6485:6491   */\n      dup3\n        /* \"#utility.yul\":6478:6482   */\n      0x20\n        /* \"#utility.yul\":6470:6476   */\n      dup7\n        /* \"#utility.yul\":6466:6483   */\n      add\n        /* \"#utility.yul\":6418:6497   */\n      tag_79\n      jump\t// in\n    tag_164:\n        /* \"#utility.yul\":6409:6497   */\n      swap2\n      pop\n        /* \"#utility.yul\":6225:6503   */\n      pop\n        /* \"#utility.yul\":6163:6503   */\n      swap3\n      swap2\n      pop\n      pop\n      jump\t// out\n        /* \"#utility.yul\":6509:7163   */\n    tag_28:\n        /* \"#utility.yul\":6587:6593   */\n      0x00\n        /* \"#utility.yul\":6595:6601   */\n      dup1\n        /* \"#utility.yul\":6644:6646   */\n      0x40\n        /* \"#utility.yul\":6632:6641   */\n      dup4\n        /* \"#utility.yul\":6623:6630   */\n      dup6\n        /* \"#utility.yul\":6619:6642   */\n      sub\n        /* \"#utility.yul\":6615:6647   */\n      slt\n        /* \"#utility.yul\":6612:6731   */\n      iszero\n      tag_166\n      jumpi\n        /* \"#utility.yul\":6650:6729   */\n      tag_167\n      tag_57\n      jump\t// in\n    tag_167:\n        /* \"#utility.yul\":6612:6731   */\n    tag_166:\n        /* \"#utility.yul\":6770:6771   */\n      0x00\n        /* \"#utility.yul\":6795:6848   */\n      tag_168\n        /* \"#utility.yul\":6840:6847   */\n      dup6\n        /* \"#utility.yul\":6831:6837   */\n      dup3\n        /* \"#utility.yul\":6820:6829   */\n      dup7\n        /* \"#utility.yul\":6816:6838   */\n      add\n        /* \"#utility.yul\":6795:6848   */\n      tag_61\n      jump\t// in\n    tag_168:\n        /* \"#utility.yul\":6785:6848   */\n      swap3\n      pop\n        /* \"#utility.yul\":6741:6858   */\n      pop\n        /* \"#utility.yul\":6925:6927   */\n      0x20\n        /* \"#utility.yul\":6914:6923   */\n      dup4\n        /* \"#utility.yul\":6910:6928   */\n      add\n        /* \"#utility.yul\":6897:6929   */\n      calldataload\n        /* \"#utility.yul\":6956:6974   */\n      0xffffffffffffffff\n        /* \"#utility.yul\":6948:6954   */\n      dup2\n        /* \"#utility.yul\":6945:6975   */\n      gt\n        /* \"#utility.yul\":6942:7059   */\n      iszero\n      tag_169\n      jumpi\n        /* \"#utility.yul\":6978:7057   */\n      tag_170\n      tag_58\n      jump\t// in\n    tag_170:\n        /* \"#utility.yul\":6942:7059   */\n    tag_169:\n        /* \"#utility.yul\":7083:7146   */\n      tag_171\n        /* \"#utility.yul\":7138:7145   */\n      dup6\n        /* \"#utility.yul\":7129:7135   */\n      dup3\n        /* \"#utility.yul\":7118:7127   */\n      dup7\n        /* \"#utility.yul\":7114:7136   */\n      add\n        /* \"#utility.yul\":7083:7146   */\n      tag_80\n      jump\t// in\n    tag_171:\n        /* \"#utility.yul\":7073:7146   */\n      swap2\n      pop\n        /* \"#utility.yul\":6868:7156   */\n      pop\n        /* \"#utility.yul\":6509:7163   */\n      swap3\n      pop\n      swap3\n      swap1\n      pop\n      jump\t// out\n        /* \"#utility.yul\":7169:7349   */\n    tag_81:\n        /* \"#utility.yul\":7217:7294   */\n      0x4e487b7100000000000000000000000000000000000000000000000000000000\n        /* \"#utility.yul\":7214:7215   */\n      0x00\n        /* \"#utility.yul\":7207:7295   */\n      mstore\n        /* \"#utility.yul\":7314:7318   */\n      0x22\n        /* \"#utility.yul\":7311:7312   */\n      0x04\n        /* \"#utility.yul\":7304:7319   */\n      mstore\n        /* \"#utility.yul\":7338:7342   */\n      0x24\n        /* \"#utility.yul\":7335:7336   */\n      0x00\n        /* \"#utility.yul\":7328:7343   */\n      revert\n        /* \"#utility.yul\":7355:7675   */\n    tag_33:\n        /* \"#utility.yul\":7399:7405   */\n      0x00\n        /* \"#utility.yul\":7436:7437   */\n      0x02\n        /* \"#utility.yul\":7430:7434   */\n      dup3\n        /* \"#utility.yul\":7426:7438   */\n      div\n        /* \"#utility.yul\":7416:7438   */\n      swap1\n      pop\n        /* \"#utility.yul\":7483:7484   */\n      0x01\n        /* \"#utility.yul\":7477:7481   */\n      dup3\n        /* \"#utility.yul\":7473:7485   */\n      and\n        /* \"#utility.yul\":7504:7522   */\n      dup1\n        /* \"#utility.yul\":7494:7575   */\n      tag_174\n      jumpi\n        /* \"#utility.yul\":7560:7564   */\n      0x7f\n        /* \"#utility.yul\":7552:7558   */\n      dup3\n        /* \"#utility.yul\":7548:7565   */\n      and\n        /* \"#utility.yul\":7538:7565   */\n      swap2\n      pop\n        /* \"#utility.yul\":7494:7575   */\n    tag_174:\n        /* \"#utility.yul\":7622:7624   */\n      0x20\n        /* \"#utility.yul\":7614:7620   */\n      dup3\n        /* \"#utility.yul\":7611:7625   */\n      lt\n        /* \"#utility.yul\":7591:7609   */\n      dup2\n        /* \"#utility.yul\":7588:7626   */\n      sub\n        /* \"#utility.yul\":7585:7669   */\n      tag_175\n      jumpi\n        /* \"#utility.yul\":7641:7659   */\n      tag_176\n      tag_81\n      jump\t// in\n    tag_176:\n        /* \"#utility.yul\":7585:7669   */\n    tag_175:\n        /* \"#utility.yul\":7406:7675   */\n      pop\n        /* \"#utility.yul\":7355:7675   */\n      swap2\n      swap1\n      pop\n      jump\t// out\n        /* \"#utility.yul\":7681:7861   */\n    tag_43:\n        /* \"#utility.yul\":7729:7806   */\n      0x4e487b7100000000000000000000000000000000000000000000000000000000\n        /* \"#utility.yul\":7726:7727   */\n      0x00\n        /* \"#utility.yul\":7719:7807   */\n      mstore\n        /* \"#utility.yul\":7826:7830   */\n      0x32\n        /* \"#utility.yul\":7823:7824   */\n      0x04\n        /* \"#utility.yul\":7816:7831   */\n      mstore\n        /* \"#utility.yul\":7850:7854   */\n      0x24\n        /* \"#utility.yul\":7847:7848   */\n      0x00\n        /* \"#utility.yul\":7840:7855   */\n      revert\n        /* \"#utility.yul\":7867:8008   */\n    tag_82:\n        /* \"#utility.yul\":7916:7920   */\n      0x00\n        /* \"#utility.yul\":7939:7942   */\n      dup2\n        /* \"#utility.yul\":7931:7942   */\n      swap1\n      pop\n        /* \"#utility.yul\":7962:7965   */\n      dup2\n        /* \"#utility.yul\":7959:7960   */\n      0x00\n        /* \"#utility.yul\":7952:7966   */\n      mstore\n        /* \"#utility.yul\":7996:8000   */\n      0x20\n        /* \"#utility.yul\":7993:7994   */\n      0x00\n        /* \"#utility.yul\":7983:8001   */\n      keccak256\n        /* \"#utility.yul\":7975:8001   */\n      swap1\n      pop\n        /* \"#utility.yul\":7867:8008   */\n      swap2\n      swap1\n      pop\n      jump\t// out\n        /* \"#utility.yul\":8014:8107   */\n    tag_83:\n        /* \"#utility.yul\":8051:8057   */\n      0x00\n        /* \"#utility.yul\":8098:8100   */\n      0x20\n        /* \"#utility.yul\":8093:8095   */\n      0x1f\n        /* \"#utility.yul\":8086:8091   */\n      dup4\n        /* \"#utility.yul\":8082:8096   */\n      add\n        /* \"#utility.yul\":8078:8101   */\n      div\n        /* \"#utility.yul\":8068:8101   */\n      swap1\n      pop\n        /* \"#utility.yul\":8014:8107   */\n      swap2\n      swap1\n      pop\n      jump\t// out\n        /* \"#utility.yul\":8113:8220   */\n    tag_84:\n        /* \"#utility.yul\":8157:8165   */\n      0x00\n        /* \"#utility.yul\":8207:8212   */\n      dup3\n        /* \"#utility.yul\":8201:8205   */\n      dup3\n        /* \"#utility.yul\":8197:8213   */\n      shl\n        /* \"#utility.yul\":8176:8213   */\n      swap1\n      pop\n        /* \"#utility.yul\":8113:8220   */\n      swap3\n      swap2\n      pop\n      pop\n      jump\t// out\n        /* \"#utility.yul\":8226:8619   */\n    tag_85:\n        /* \"#utility.yul\":8295:8301   */\n      0x00\n        /* \"#utility.yul\":8345:8346   */\n      0x08\n        /* \"#utility.yul\":8333:8343   */\n      dup4\n        /* \"#utility.yul\":8329:8347   */\n      mul\n        /* \"#utility.yul\":8368:8465   */\n      tag_182\n        /* \"#utility.yul\":8398:8464   */\n      0xffffffffffffffffffffffffffffffffffffffffffffffffffffffffffffffff\n        /* \"#utility.yul\":8387:8396   */\n      dup3\n        /* \"#utility.yul\":8368:8465   */\n      tag_84\n      jump\t// in\n    tag_182:\n        /* \"#utility.yul\":8486:8525   */\n      tag_183\n        /* \"#utility.yul\":8516:8524   */\n      dup7\n        /* \"#utility.yul\":8505:8514   */\n      dup4\n        /* \"#utility.yul\":8486:8525   */\n      tag_84\n      jump\t// in\n    tag_183:\n        /* \"#utility.yul\":8474:8525   */\n      swap6\n      pop\n        /* \"#utility.yul\":8558:8562   */\n      dup1\n        /* \"#utility.yul\":8554:8563   */\n      not\n        /* \"#utility.yul\":8547:8552   */\n      dup5\n        /* \"#utility.yul\":8543:8564   */\n      and\n        /* \"#utility.yul\":8534:8564   */\n      swap4\n      pop\n        /* \"#utility.yul\":8607:8611   */\n      dup1\n        /* \"#utility.yul\":8597:8605   */\n      dup7\n        /* \"#utility.yul\":8593:8612   */\n      and\n        /* \"#utility.yul\":8586:8591   */\n      dup5\n        /* \"#utility.yul\":8583:8613   */\n      or\n        /* \"#utility.yul\":8573:8613   */\n      swap3\n      pop\n        /* \"#utility.yul\":8302:8619   */\n      pop\n      pop\n        /* \"#utility.yul\":8226:8619   */\n      swap4\n      swap3\n      pop\n      pop\n      pop\n      jump\t// out\n        /* \"#utility.yul\":8625:8685   */\n    tag_86:\n        /* \"#utility.yul\":8653:8656   */\n      0x00\n        /* \"#utility.yul\":8674:8679   */\n      dup2\n        /* \"#utility.yul\":8667:8679   */\n      swap1\n      pop\n        /* \"#utility.yul\":8625:8685   */\n      swap2\n      swap1\n      pop\n      jump\t// out\n        /* \"#utility.yul\":8691:8833   */\n    tag_87:\n        /* \"#utility.yul\":8741:8750   */\n      0x00\n        /* \"#utility.yul\":8774:8827   */\n      tag_186\n        /* \"#utility.yul\":8792:8826   */\n      tag_187\n        /* \"#utility.yul\":8801:8825   */\n      tag_188\n        /* \"#utility.yul\":8819:8824   */\n      dup5\n        /* \"#utility.yul\":8801:8825   */\n      tag_59\n      jump\t// in\n    tag_188:\n        /* \"#utility.yul\":8792:8826   */\n      tag_86\n      jump\t// in\n    tag_187:\n        /* \"#utility.yul\":8774:8827   */\n      tag_59\n      jump\t// in\n    tag_186:\n        /* \"#utility.yul\":8761:8827   */\n      swap1\n      pop\n        /* \"#utility.yul\":8691:8833   */\n      swap2\n      swap1\n      pop\n      jump\t// out\n        /* \"#utility.yul\":8839:8914   */\n    tag_88:\n        /* \"#utility.yul\":8882:8885   */\n      0x00\n        /* \"#utility.yul\":8903:8908   */\n      dup2\n        /* \"#utility.yul\":8896:8908   */\n      swap1\n      pop\n        /* \"#utility.yul\":8839:8914   */\n      swap2\n      swap1\n      pop\n      jump\t// out\n        /* \"#utility.yul\":8920:9189   */\n    tag_89:\n        /* \"#utility.yul\":9030:9069   */\n      tag_191\n        /* \"#utility.yul\":9061:9068   */\n      dup4\n        /* \"#utility.yul\":9030:9069   */\n      tag_87\n      jump\t// in\n    tag_191:\n        /* \"#utility.yul\":9091:9182   */\n      tag_192\n        /* \"#utility.yul\":9140:9181   */\n      tag_193\n        /* \"#utility.yul\":9164:9180   */\n      dup3\n        /* \"#utility.yul\":9140:9181   */\n      tag_88\n      jump\t// in\n    tag_193:\n        /* \"#utility.yul\":9132:9138   */\n      dup5\n        /* \"#utility.yul\":9125:9129   */\n      dup5\n        /* \"#utility.yul\":9119:9130   */\n      sload\n        /* \"#utility.yul\":9091:9182   */\n      tag_85\n      jump\t// in\n    tag_192:\n        /* \"#utility.yul\":9085:9089   */\n      dup3\n        /* \"#utility.yul\":9078:9183   */\n      sstore\n        /* \"#utility.yul\":8996:9189   */\n      pop\n        /* \"#utility.yul\":8920:9189   */\n      pop\n      pop\n      pop\n      jump\t// out\n        /* \"#utility.yul\":9195:9268   */\n    tag_90:\n        /* \"#utility.yul\":9240:9243   */\n      0x00\n        /* \"#utility.yul\":9195:9268   */\n      swap1\n      jump\t// out\n        /* \"#utility.yul\":9274:9463   */\n    tag_91:\n        /* \"#utility.yul\":9351:9383   */\n      tag_196\n      tag_90\n      jump\t// in\n    tag_196:\n        /* \"#utility.yul\":9392:9457   */\n      tag_197\n        /* \"#utility.yul\":9450:9456   */\n      dup2\n        /* \"#utility.yul\":9442:9448   */\n      dup5\n        /* \"#utility.yul\":9436:9440   */\n      dup5\n        /* \"#utility.yul\":9392:9457   */\n      tag_89\n      jump\t// in\n    tag_197:\n        /* \"#utility.yul\":9327:9463   */\n      pop\n        /* \"#utility.yul\":9274:9463   */\n      pop\n      pop\n      jump\t// out\n        /* \"#utility.yul\":9469:9655   */\n    tag_92:\n        /* \"#utility.yul\":9529:9649   */\n    tag_199:\n        /* \"#utility.yul\":9546:9549   */\n      dup2\n        /* \"#utility.yul\":9539:9544   */\n      dup2\n        /* \"#utility.yul\":9536:9550   */\n      lt\n        /* \"#utility.yul\":9529:9649   */\n      iszero\n      tag_201\n      jumpi\n        /* \"#utility.yul\":9600:9639   */\n      tag_202\n        /* \"#utility.yul\":9637:9638   */\n      0x00\n        /* \"#utility.yul\":9630:9635   */\n      dup3\n        /* \"#utility.yul\":9600:9639   */\n      tag_91\n      jump\t// in\n    tag_202:\n        /* \"#utility.yul\":9573:9574   */\n      0x01\n        /* \"#utility.yul\":9566:9571   */\n      dup2\n        /* \"#utility.yul\":9562:9575   */\n      add\n        /* \"#utility.yul\":9553:9575   */\n      swap1\n      pop\n        /* \"#utility.yul\":9529:9649   */\n      jump(tag_199)\n    tag_201:\n        /* \"#utility.yul\":9469:9655   */\n      pop\n      pop\n      jump\t// out\n        /* \"#utility.yul\":9661:10204   */\n    tag_93:\n        /* \"#utility.yul\":9762:9764   */\n      0x1f\n        /* \"#utility.yul\":9757:9760   */\n      dup3\n        /* \"#utility.yul\":9754:9765   */\n      gt\n        /* \"#utility.yul\":9751:10197   */\n      iszero\n      tag_204\n      jumpi\n        /* \"#utility.yul\":9796:9834   */\n      tag_205\n        /* \"#utility.yul\":9828:9833   */\n      dup2\n        /* \"#utility.yul\":9796:9834   */\n      tag_82\n      jump\t// in\n    tag_205:\n        /* \"#utility.yul\":9880:9909   */\n      tag_206\n        /* \"#utility.yul\":9898:9908   */\n      dup5\n        /* \"#utility.yul\":9880:9909   */\n      tag_83\n      jump\t// in\n    tag_206:\n        /* \"#utility.yul\":9870:9878   */\n      dup2\n        /* \"#utility.yul\":9866:9910   */\n      add\n        /* \"#utility.yul\":10063:10065   */\n      0x20\n        /* \"#utility.yul\":10051:10061   */\n      dup6\n        /* \"#utility.yul\":10048:10066   */\n      lt\n        /* \"#utility.yul\":10045:10094   */\n      iszero\n      tag_207\n      jumpi\n        /* \"#utility.yul\":10084:10092   */\n      dup2\n        /* \"#utility.yul\":10069:10092   */\n      swap1\n      pop\n        /* \"#utility.yul\":10045:10094   */\n    tag_207:\n        /* \"#utility.yul\":10107:10187   */\n      tag_208\n        /* \"#utility.yul\":10163:10185   */\n      tag_209\n        /* \"#utility.yul\":10181:10184   */\n      dup6\n        /* \"#utility.yul\":10163:10185   */\n      tag_83\n      jump\t// in\n    tag_209:\n        /* \"#utility.yul\":10153:10161   */\n      dup4\n        /* \"#utility.yul\":10149:10186   */\n      add\n        /* \"#utility.yul\":10136:10147   */\n      dup3\n        /* \"#utility.yul\":10107:10187   */\n      tag_92\n      jump\t// in\n    tag_208:\n        /* \"#utility.yul\":9766:10197   */\n      pop\n      pop\n        /* \"#utility.yul\":9751:10197   */\n    tag_204:\n        /* \"#utility.yul\":9661:10204   */\n      pop\n      pop\n      pop\n      jump\t// out\n        /* \"#utility.yul\":10210:10327   */\n    tag_94:\n        /* \"#utility.yul\":10264:10272   */\n      0x00\n        /* \"#utility.yul\":10314:10319   */\n      dup3\n        /* \"#utility.yul\":10308:10312   */\n      dup3\n        /* \"#utility.yul\":10304:10320   */\n      shr\n        /* \"#utility.yul\":10283:10320   */\n      swap1\n      pop\n        /* \"#utility.yul\":10210:10327   */\n      swap3\n      swap2\n      pop\n      pop\n      jump\t// out\n        /* \"#utility.yul\":10333:10502   */\n    tag_95:\n        /* \"#utility.yul\":10377:10383   */\n      0x00\n        /* \"#utility.yul\":10410:10461   */\n      tag_212\n        /* \"#utility.yul\":10458:10459   */\n      0x00\n        /* \"#utility.yul\":10454:10460   */\n      not\n        /* \"#utility.yul\":10446:10451   */\n      dup5\n        /* \"#utility.yul\":10443:10444   */\n      0x08\n        /* \"#utility.yul\":10439:10452   */\n      mul\n        /* \"#utility.yul\":10410:10461   */\n      tag_94\n      jump\t// in\n    tag_212:\n        /* \"#utility.yul\":10406:10462   */\n      not\n        /* \"#utility.yul\":10491:10495   */\n      dup1\n        /* \"#utility.yul\":10485:10489   */\n      dup4\n        /* \"#utility.yul\":10481:10496   */\n      and\n        /* \"#utility.yul\":10471:10496   */\n      swap2\n      pop\n        /* \"#utility.yul\":10384:10502   */\n      pop\n        /* \"#utility.yul\":10333:10502   */\n      swap3\n      swap2\n      pop\n      pop\n      jump\t// out\n        /* \"#utility.yul\":10507:10802   */\n    tag_96:\n        /* \"#utility.yul\":10583:10587   */\n      0x00\n        /* \"#utility.yul\":10729:10758   */\n      tag_214\n        /* \"#utility.yul\":10754:10757   */\n      dup4\n        /* \"#utility.yul\":10748:10752   */\n      dup4\n        /* \"#utility.yul\":10729:10758   */\n      tag_95\n      jump\t// in\n    tag_214:\n        /* \"#utility.yul\":10721:10758   */\n      swap2\n      pop\n        /* \"#utility.yul\":10791:10794   */\n      dup3\n        /* \"#utility.yul\":10788:10789   */\n      0x02\n        /* \"#utility.yul\":10784:10795   */\n      mul\n        /* \"#utility.yul\":10778:10782   */\n      dup3\n        /* \"#utility.yul\":10775:10796   */\n      or\n        /* \"#utility.yul\":10767:10796   */\n      swap1\n      pop\n        /* \"#utility.yul\":10507:10802   */\n      swap3\n      swap2\n      pop\n      pop\n      jump\t// out\n        /* \"#utility.yul\":10807:12202   */\n    tag_55:\n        /* \"#utility.yul\":10924:10961   */\n      tag_216\n        /* \"#utility.yul\":10957:10960   */\n      dup3\n        /* \"#utility.yul\":10924:10961   */\n      tag_63\n      jump\t// in\n    tag_216:\n        /* \"#utility.yul\":11026:11044   */\n      0xffffffffffffffff\n        /* \"#utility.yul\":11018:11024   */\n      dup2\n        /* \"#utility.yul\":11015:11045   */\n      gt\n        /* \"#utility.yul\":11012:11068   */\n      iszero\n      tag_217\n      jumpi\n        /* \"#utility.yul\":11048:11066   */\n      tag_218\n      tag_74\n      jump\t// in\n    tag_218:\n        /* \"#utility.yul\":11012:11068   */\n    tag_217:\n        /* \"#utility.yul\":11092:11130   */\n      tag_219\n        /* \"#utility.yul\":11124:11128   */\n      dup3\n        /* \"#utility.yul\":11118:11129   */\n      sload\n        /* \"#utility.yul\":11092:11130   */\n      tag_33\n      jump\t// in\n    tag_219:\n        /* \"#utility.yul\":11177:11244   */\n      tag_220\n        /* \"#utility.yul\":11237:11243   */\n      dup3\n        /* \"#utility.yul\":11229:11235   */\n      dup3\n        /* \"#utility.yul\":11223:11227   */\n      dup6\n        /* \"#utility.yul\":11177:11244   */\n      tag_93\n      jump\t// in\n    tag_220:\n        /* \"#utility.yul\":11271:11272   */\n      0x00\n        /* \"#utility.yul\":11295:11299   */\n      0x20\n        /* \"#utility.yul\":11282:11299   */\n      swap1\n      pop\n        /* \"#utility.yul\":11327:11329   */\n      0x1f\n        /* \"#utility.yul\":11319:11325   */\n      dup4\n        /* \"#utility.yul\":11316:11330   */\n      gt\n        /* \"#utility.yul\":11344:11345   */\n      0x01\n        /* \"#utility.yul\":11339:11957   */\n      dup2\n      eq\n      tag_222\n      jumpi\n        /* \"#utility.yul\":12001:12002   */\n      0x00\n        /* \"#utility.yul\":12018:12024   */\n      dup5\n        /* \"#utility.yul\":12015:12092   */\n      iszero\n      tag_223\n      jumpi\n        /* \"#utility.yul\":12067:12076   */\n      dup3\n        /* \"#utility.yul\":12062:12065   */\n      dup8\n        /* \"#utility.yul\":12058:12077   */\n      add\n        /* \"#utility.yul\":12052:12078   */\n      mload\n        /* \"#utility.yul\":12043:12078   */\n      swap1\n      pop\n        /* \"#utility.yul\":12015:12092   */\n    tag_223:\n        /* \"#utility.yul\":12118:12185   */\n      tag_224\n        /* \"#utility.yul\":12178:12184   */\n      dup6\n        /* \"#utility.yul\":12171:12176   */\n      dup3\n        /* \"#utility.yul\":12118:12185   */\n      tag_96\n      jump\t// in\n    tag_224:\n        /* \"#utility.yul\":12112:12116   */\n      dup7\n        /* \"#utility.yul\":12105:12186   */\n      sstore\n        /* \"#utility.yul\":11974:12196   */\n      pop\n        /* \"#utility.yul\":11309:12196   */\n      jump(tag_221)\n        /* \"#utility.yul\":11339:11957   */\n    tag_222:\n        /* \"#utility.yul\":11391:11395   */\n      0x1f\n        /* \"#utility.yul\":11387:11396   */\n      not\n        /* \"#utility.yul\":11379:11385   */\n      dup5\n        /* \"#utility.yul\":11375:11397   */\n      and\n        /* \"#utility.yul\":11425:11462   */\n      tag_225\n        /* \"#utility.yul\":11457:11461   */\n      dup7\n        /* \"#utility.yul\":11425:11462   */\n      tag_82\n      jump\t// in\n    tag_225:\n        /* \"#utility.yul\":11484:11485   */\n      0x00\n        /* \"#utility.yul\":11498:11706   */\n    tag_226:\n        /* \"#utility.yul\":11512:11519   */\n      dup3\n        /* \"#utility.yul\":11509:11510   */\n      dup2\n        /* \"#utility.yul\":11506:11520   */\n      lt\n        /* \"#utility.yul\":11498:11706   */\n      iszero\n      tag_228\n      jumpi\n        /* \"#utility.yul\":11591:11600   */\n      dup5\n        /* \"#utility.yul\":11586:11589   */\n      dup10\n        /* \"#utility.yul\":11582:11601   */\n      add\n        /* \"#utility.yul\":11576:11602   */\n      mload\n        /* \"#utility.yul\":11568:11574   */\n      dup3\n        /* \"#utility.yul\":11561:11603   */\n      sstore\n        /* \"#utility.yul\":11642:11643   */\n      0x01\n        /* \"#utility.yul\":11634:11640   */\n      dup3\n        /* \"#utility.yul\":11630:11644   */\n      add\n        /* \"#utility.yul\":11620:11644   */\n      swap2\n      pop\n        /* \"#utility.yul\":11689:11691   */\n      0x20\n        /* \"#utility.yul\":11678:11687   */\n      dup6\n        /* \"#utility.yul\":11674:11692   */\n      add\n        /* \"#utility.yul\":11661:11692   */\n      swap5\n      pop\n        /* \"#utility.yul\":11535:11539   */\n      0x20\n        /* \"#utility.yul\":11532:11533   */\n      dup2\n        /* \"#utility.yul\":11528:11540   */\n      add\n        /* \"#utility.yul\":11523:11540   */\n      swap1\n      pop\n        /* \"#utility.yul\":11498:11706   */\n      jump(tag_226)\n    tag_228:\n        /* \"#utility.yul\":11734:11740   */\n      dup7\n        /* \"#utility.yul\":11725:11732   */\n      dup4\n        /* \"#utility.yul\":11722:11741   */\n      lt\n        /* \"#utility.yul\":11719:11898   */\n      iszero\n      tag_229\n      jumpi\n        /* \"#utility.yul\":11792:11801   */\n      dup5\n        /* \"#utility.yul\":11787:11790   */\n      dup10\n        /* \"#utility.yul\":11783:11802   */\n      add\n        /* \"#utility.yul\":11777:11803   */\n      mload\n        /* \"#utility.yul\":11835:11883   */\n      tag_230\n        /* \"#utility.yul\":11877:11881   */\n      0x1f\n        /* \"#utility.yul\":11869:11875   */\n      dup10\n        /* \"#utility.yul\":11865:11882   */\n      and\n        /* \"#utility.yul\":11854:11863   */\n      dup3\n        /* \"#utility.yul\":11835:11883   */\n      tag_95\n      jump\t// in\n    tag_230:\n        /* \"#utility.yul\":11827:11833   */\n      dup4\n        /* \"#utility.yul\":11820:11884   */\n      sstore\n        /* \"#utility.yul\":11742:11898   */\n      pop\n        /* \"#utility.yul\":11719:11898   */\n    tag_229:\n        /* \"#utility.yul\":11944:11945   */\n      0x01\n        /* \"#utility.yul\":11940:11941   */\n      0x02\n        /* \"#utility.yul\":11932:11938   */\n      dup9\n        /* \"#utility.yul\":11928:11942   */\n      mul\n        /* \"#utility.yul\":11924:11946   */\n      add\n        /* \"#utility.yul\":11918:11922   */\n      dup9\n        /* \"#utility.yul\":11911:11947   */\n      sstore\n        /* \"#utility.yul\":11346:11957   */\n      pop\n      pop\n      pop\n        /* \"#utility.yul\":11309:12196   */\n    tag_221:\n      pop\n        /* \"#utility.yul\":10899:12202   */\n      pop\n      pop\n      pop\n        /* \"#utility.yul\":10807:12202   */\n      pop\n      pop\n      jump\t// out\n\n    auxdata: 0xa2646970667358221220722c814a07f12d7bbbafa73d4927c793665eceea4d7dfca8dbafd05ec8fe4a5664736f6c634300081a0033\n}\n",
				"bytecode": {
					"linkReferences": {},
					"object": "6080604052348015600e575f80fd5b506109bb8061001c5f395ff3fe608060405234801561000f575f80fd5b5060043610610055575f3560e01c8063092a18201461005957806310b4801a1461008a5780632e64cec1146100ba5780636057361d146100d8578063a7279116146100f4575b5f80fd5b610073600480360381019061006e9190610367565b610110565b604051610081929190610411565b60405180910390f35b6100a4600480360381019061009f9190610367565b6101c5565b6040516100b191906104d0565b60405180910390f35b6100c2610298565b6040516100cf91906104f0565b60405180910390f35b6100f260048036038101906100ed9190610367565b6102a0565b005b61010e60048036038101906101099190610635565b6102a9565b005b6001818154811061011f575f80fd5b905f5260205f2090600202015f91509050805f015490806001018054610144906106bc565b80601f0160208091040260200160405190810160405280929190818152602001828054610170906106bc565b80156101bb5780601f10610192576101008083540402835291602001916101bb565b820191905f5260205f20905b81548152906001019060200180831161019e57829003601f168201915b5050505050905082565b6101cd61030a565b600182815481106101e1576101e06106ec565b5b905f5260205f2090600202016040518060400160405290815f8201548152602001600182018054610211906106bc565b80601f016020809104026020016040519081016040528092919081815260200182805461023d906106bc565b80156102885780601f1061025f57610100808354040283529160200191610288565b820191905f5260205f20905b81548152906001019060200180831161026b57829003601f168201915b5050505050815250509050919050565b5f8054905090565b805f8190555050565b6001604051806040016040528084815260200183815250908060018154018082558091505060019003905f5260205f2090600202015f909190919091505f820151815f0155602082015181600101908161030391906108b6565b5050505050565b60405180604001604052805f8152602001606081525090565b5f604051905090565b5f80fd5b5f80fd5b5f819050919050565b61034681610334565b8114610350575f80fd5b50565b5f813590506103618161033d565b92915050565b5f6020828403121561037c5761037b61032c565b5b5f61038984828501610353565b91505092915050565b61039b81610334565b82525050565b5f81519050919050565b5f82825260208201905092915050565b8281835e5f83830152505050565b5f601f19601f8301169050919050565b5f6103e3826103a1565b6103ed81856103ab565b93506103fd8185602086016103bb565b610406816103c9565b840191505092915050565b5f6040820190506104245f830185610392565b818103602083015261043681846103d9565b90509392505050565b61044881610334565b82525050565b5f82825260208201905092915050565b5f610468826103a1565b610472818561044e565b93506104828185602086016103bb565b61048b816103c9565b840191505092915050565b5f604083015f8301516104ab5f86018261043f565b50602083015184820360208601526104c3828261045e565b9150508091505092915050565b5f6020820190508181035f8301526104e88184610496565b905092915050565b5f6020820190506105035f830184610392565b92915050565b5f80fd5b5f80fd5b7f4e487b71000000000000000000000000000000000000000000000000000000005f52604160045260245ffd5b610547826103c9565b810181811067ffffffffffffffff8211171561056657610565610511565b5b80604052505050565b5f610578610323565b9050610584828261053e565b919050565b5f67ffffffffffffffff8211156105a3576105a2610511565b5b6105ac826103c9565b9050602081019050919050565b828183375f83830152505050565b5f6105d96105d484610589565b61056f565b9050828152602081018484840111156105f5576105f461050d565b5b6106008482856105b9565b509392505050565b5f82601f83011261061c5761061b610509565b5b813561062c8482602086016105c7565b91505092915050565b5f806040838503121561064b5761064a61032c565b5b5f61065885828601610353565b925050602083013567ffffffffffffffff81111561067957610678610330565b5b61068585828601610608565b9150509250929050565b7f4e487b71000000000000000000000000000000000000000000000000000000005f52602260045260245ffd5b5f60028204905060018216806106d357607f821691505b6020821081036106e6576106e561068f565b5b50919050565b7f4e487b71000000000000000000000000000000000000000000000000000000005f52603260045260245ffd5b5f819050815f5260205f209050919050565b5f6020601f8301049050919050565b5f82821b905092915050565b5f600883026107757fffffffffffffffffffffffffffffffffffffffffffffffffffffffffffffffff8261073a565b61077f868361073a565b95508019841693508086168417925050509392505050565b5f819050919050565b5f6107ba6107b56107b084610334565b610797565b610334565b9050919050565b5f819050919050565b6107d3836107a0565b6107e76107df826107c1565b848454610746565b825550505050565b5f90565b6107fb6107ef565b6108068184846107ca565b505050565b5b818110156108295761081e5f826107f3565b60018101905061080c565b5050565b601f82111561086e5761083f81610719565b6108488461072b565b81016020851015610857578190505b61086b6108638561072b565b83018261080b565b50505b505050565b5f82821c905092915050565b5f61088e5f1984600802610873565b1980831691505092915050565b5f6108a6838361087f565b9150826002028217905092915050565b6108bf826103a1565b67ffffffffffffffff8111156108d8576108d7610511565b5b6108e282546106bc565b6108ed82828561082d565b5f60209050601f83116001811461091e575f841561090c578287015190505b610916858261089b565b86555061097d565b601f19841661092c86610719565b5f5b828110156109535784890151825560018201915060208501945060208101905061092e565b86831015610970578489015161096c601f89168261087f565b8355505b6001600288020188555050505b50505050505056fea2646970667358221220722c814a07f12d7bbbafa73d4927c793665eceea4d7dfca8dbafd05ec8fe4a5664736f6c634300081a0033",
					"opcodes": "PUSH1 0x80 PUSH1 0x40 MSTORE CALLVALUE DUP1 ISZERO PUSH1 0xE JUMPI PUSH0 DUP1 REVERT JUMPDEST POP PUSH2 0x9BB DUP1 PUSH2 0x1C PUSH0 CODECOPY PUSH0 RETURN INVALID PUSH1 0x80 PUSH1 0x40 MSTORE CALLVALUE DUP1 ISZERO PUSH2 0xF JUMPI PUSH0 DUP1 REVERT JUMPDEST POP PUSH1 0x4 CALLDATASIZE LT PUSH2 0x55 JUMPI PUSH0 CALLDATALOAD PUSH1 0xE0 SHR DUP1 PUSH4 0x92A1820 EQ PUSH2 0x59 JUMPI DUP1 PUSH4 0x10B4801A EQ PUSH2 0x8A JUMPI DUP1 PUSH4 0x2E64CEC1 EQ PUSH2 0xBA JUMPI DUP1 PUSH4 0x6057361D EQ PUSH2 0xD8 JUMPI DUP1 PUSH4 0xA7279116 EQ PUSH2 0xF4 JUMPI JUMPDEST PUSH0 DUP1 REVERT JUMPDEST PUSH2 0x73 PUSH1 0x4 DUP1 CALLDATASIZE SUB DUP2 ADD SWAP1 PUSH2 0x6E SWAP2 SWAP1 PUSH2 0x367 JUMP JUMPDEST PUSH2 0x110 JUMP JUMPDEST PUSH1 0x40 MLOAD PUSH2 0x81 SWAP3 SWAP2 SWAP1 PUSH2 0x411 JUMP JUMPDEST PUSH1 0x40 MLOAD DUP1 SWAP2 SUB SWAP1 RETURN JUMPDEST PUSH2 0xA4 PUSH1 0x4 DUP1 CALLDATASIZE SUB DUP2 ADD SWAP1 PUSH2 0x9F SWAP2 SWAP1 PUSH2 0x367 JUMP JUMPDEST PUSH2 0x1C5 JUMP JUMPDEST PUSH1 0x40 MLOAD PUSH2 0xB1 SWAP2 SWAP1 PUSH2 0x4D0 JUMP JUMPDEST PUSH1 0x40 MLOAD DUP1 SWAP2 SUB SWAP1 RETURN JUMPDEST PUSH2 0xC2 PUSH2 0x298 JUMP JUMPDEST PUSH1 0x40 MLOAD PUSH2 0xCF SWAP2 SWAP1 PUSH2 0x4F0 JUMP JUMPDEST PUSH1 0x40 MLOAD DUP1 SWAP2 SUB SWAP1 RETURN JUMPDEST PUSH2 0xF2 PUSH1 0x4 DUP1 CALLDATASIZE SUB DUP2 ADD SWAP1 PUSH2 0xED SWAP2 SWAP1 PUSH2 0x367 JUMP JUMPDEST PUSH2 0x2A0 JUMP JUMPDEST STOP JUMPDEST PUSH2 0x10E PUSH1 0x4 DUP1 CALLDATASIZE SUB DUP2 ADD SWAP1 PUSH2 0x109 SWAP2 SWAP1 PUSH2 0x635 JUMP JUMPDEST PUSH2 0x2A9 JUMP JUMPDEST STOP JUMPDEST PUSH1 0x1 DUP2 DUP2 SLOAD DUP2 LT PUSH2 0x11F JUMPI PUSH0 DUP1 REVERT JUMPDEST SWAP1 PUSH0 MSTORE PUSH1 0x20 PUSH0 KECCAK256 SWAP1 PUSH1 0x2 MUL ADD PUSH0 SWAP2 POP SWAP1 POP DUP1 PUSH0 ADD SLOAD SWAP1 DUP1 PUSH1 0x1 ADD DUP1 SLOAD PUSH2 0x144 SWAP1 PUSH2 0x6BC JUMP JUMPDEST DUP1 PUSH1 0x1F ADD PUSH1 0x20 DUP1 SWAP2 DIV MUL PUSH1 0x20 ADD PUSH1 0x40 MLOAD SWAP1 DUP2 ADD PUSH1 0x40 MSTORE DUP1 SWAP3 SWAP2 SWAP1 DUP2 DUP2 MSTORE PUSH1 0x20 ADD DUP3 DUP1 SLOAD PUSH2 0x170 SWAP1 PUSH2 0x6BC JUMP JUMPDEST DUP1 ISZERO PUSH2 0x1BB JUMPI DUP1 PUSH1 0x1F LT PUSH2 0x192 JUMPI PUSH2 0x100 DUP1 DUP4 SLOAD DIV MUL DUP4 MSTORE SWAP2 PUSH1 0x20 ADD SWAP2 PUSH2 0x1BB JUMP JUMPDEST DUP3 ADD SWAP2 SWAP1 PUSH0 MSTORE PUSH1 0x20 PUSH0 KECCAK256 SWAP1 JUMPDEST DUP2 SLOAD DUP2 MSTORE SWAP1 PUSH1 0x1 ADD SWAP1 PUSH1 0x20 ADD DUP1 DUP4 GT PUSH2 0x19E JUMPI DUP3 SWAP1 SUB PUSH1 0x1F AND DUP3 ADD SWAP2 JUMPDEST POP POP POP POP POP SWAP1 POP DUP3 JUMP JUMPDEST PUSH2 0x1CD PUSH2 0x30A JUMP JUMPDEST PUSH1 0x1 DUP3 DUP2 SLOAD DUP2 LT PUSH2 0x1E1 JUMPI PUSH2 0x1E0 PUSH2 0x6EC JUMP JUMPDEST JUMPDEST SWAP1 PUSH0 MSTORE PUSH1 0x20 PUSH0 KECCAK256 SWAP1 PUSH1 0x2 MUL ADD PUSH1 0x40 MLOAD DUP1 PUSH1 0x40 ADD PUSH1 0x40 MSTORE SWAP1 DUP2 PUSH0 DUP3 ADD SLOAD DUP2 MSTORE PUSH1 0x20 ADD PUSH1 0x1 DUP3 ADD DUP1 SLOAD PUSH2 0x211 SWAP1 PUSH2 0x6BC JUMP JUMPDEST DUP1 PUSH1 0x1F ADD PUSH1 0x20 DUP1 SWAP2 DIV MUL PUSH1 0x20 ADD PUSH1 0x40 MLOAD SWAP1 DUP2 ADD PUSH1 0x40 MSTORE DUP1 SWAP3 SWAP2 SWAP1 DUP2 DUP2 MSTORE PUSH1 0x20 ADD DUP3 DUP1 SLOAD PUSH2 0x23D SWAP1 PUSH2 0x6BC JUMP JUMPDEST DUP1 ISZERO PUSH2 0x288 JUMPI DUP1 PUSH1 0x1F LT PUSH2 0x25F JUMPI PUSH2 0x100 DUP1 DUP4 SLOAD DIV MUL DUP4 MSTORE SWAP2 PUSH1 0x20 ADD SWAP2 PUSH2 0x288 JUMP JUMPDEST DUP3 ADD SWAP2 SWAP1 PUSH0 MSTORE PUSH1 0x20 PUSH0 KECCAK256 SWAP1 JUMPDEST DUP2 SLOAD DUP2 MSTORE SWAP1 PUSH1 0x1 ADD SWAP1 PUSH1 0x20 ADD DUP1 DUP4 GT PUSH2 0x26B JUMPI DUP3 SWAP1 SUB PUSH1 0x1F AND DUP3 ADD SWAP2 JUMPDEST POP POP POP POP POP DUP2 MSTORE POP POP SWAP1 POP SWAP2 SWAP1 POP JUMP JUMPDEST PUSH0 DUP1 SLOAD SWAP1 POP SWAP1 JUMP JUMPDEST DUP1 PUSH0 DUP2 SWAP1 SSTORE POP POP JUMP JUMPDEST PUSH1 0x1 PUSH1 0x40 MLOAD DUP1 PUSH1 0x40 ADD PUSH1 0x40 MSTORE DUP1 DUP5 DUP2 MSTORE PUSH1 0x20 ADD DUP4 DUP2 MSTORE POP SWAP1 DUP1 PUSH1 0x1 DUP2 SLOAD ADD DUP1 DUP3 SSTORE DUP1 SWAP2 POP POP PUSH1 0x1 SWAP1 SUB SWAP1 PUSH0 MSTORE PUSH1 0x20 PUSH0 KECCAK256 SWAP1 PUSH1 0x2 MUL ADD PUSH0 SWAP1 SWAP2 SWAP1 SWAP2 SWAP1 SWAP2 POP PUSH0 DUP3 ADD MLOAD DUP2 PUSH0 ADD SSTORE PUSH1 0x20 DUP3 ADD MLOAD DUP2 PUSH1 0x1 ADD SWAP1 DUP2 PUSH2 0x303 SWAP2 SWAP1 PUSH2 0x8B6 JUMP JUMPDEST POP POP POP POP POP JUMP JUMPDEST PUSH1 0x40 MLOAD DUP1 PUSH1 0x40 ADD PUSH1 0x40 MSTORE DUP1 PUSH0 DUP2 MSTORE PUSH1 0x20 ADD PUSH1 0x60 DUP2 MSTORE POP SWAP1 JUMP JUMPDEST PUSH0 PUSH1 0x40 MLOAD SWAP1 POP SWAP1 JUMP JUMPDEST PUSH0 DUP1 REVERT JUMPDEST PUSH0 DUP1 REVERT JUMPDEST PUSH0 DUP2 SWAP1 POP SWAP2 SWAP1 POP JUMP JUMPDEST PUSH2 0x346 DUP2 PUSH2 0x334 JUMP JUMPDEST DUP2 EQ PUSH2 0x350 JUMPI PUSH0 DUP1 REVERT JUMPDEST POP JUMP JUMPDEST PUSH0 DUP2 CALLDATALOAD SWAP1 POP PUSH2 0x361 DUP2 PUSH2 0x33D JUMP JUMPDEST SWAP3 SWAP2 POP POP JUMP JUMPDEST PUSH0 PUSH1 0x20 DUP3 DUP5 SUB SLT ISZERO PUSH2 0x37C JUMPI PUSH2 0x37B PUSH2 0x32C JUMP JUMPDEST JUMPDEST PUSH0 PUSH2 0x389 DUP5 DUP3 DUP6 ADD PUSH2 0x353 JUMP JUMPDEST SWAP2 POP POP SWAP3 SWAP2 POP POP JUMP JUMPDEST PUSH2 0x39B DUP2 PUSH2 0x334 JUMP JUMPDEST DUP3 MSTORE POP POP JUMP JUMPDEST PUSH0 DUP2 MLOAD SWAP1 POP SWAP2 SWAP1 POP JUMP JUMPDEST PUSH0 DUP3 DUP3 MSTORE PUSH1 0x20 DUP3 ADD SWAP1 POP SWAP3 SWAP2 POP POP JUMP JUMPDEST DUP3 DUP2 DUP4 MCOPY PUSH0 DUP4 DUP4 ADD MSTORE POP POP POP JUMP JUMPDEST PUSH0 PUSH1 0x1F NOT PUSH1 0x1F DUP4 ADD AND SWAP1 POP SWAP2 SWAP1 POP JUMP JUMPDEST PUSH0 PUSH2 0x3E3 DUP3 PUSH2 0x3A1 JUMP JUMPDEST PUSH2 0x3ED DUP2 DUP6 PUSH2 0x3AB JUMP JUMPDEST SWAP4 POP PUSH2 0x3FD DUP2 DUP6 PUSH1 0x20 DUP7 ADD PUSH2 0x3BB JUMP JUMPDEST PUSH2 0x406 DUP2 PUSH2 0x3C9 JUMP JUMPDEST DUP5 ADD SWAP2 POP POP SWAP3 SWAP2 POP POP JUMP JUMPDEST PUSH0 PUSH1 0x40 DUP3 ADD SWAP1 POP PUSH2 0x424 PUSH0 DUP4 ADD DUP6 PUSH2 0x392 JUMP JUMPDEST DUP2 DUP2 SUB PUSH1 0x20 DUP4 ADD MSTORE PUSH2 0x436 DUP2 DUP5 PUSH2 0x3D9 JUMP JUMPDEST SWAP1 POP SWAP4 SWAP3 POP POP POP JUMP JUMPDEST PUSH2 0x448 DUP2 PUSH2 0x334 JUMP JUMPDEST DUP3 MSTORE POP POP JUMP JUMPDEST PUSH0 DUP3 DUP3 MSTORE PUSH1 0x20 DUP3 ADD SWAP1 POP SWAP3 SWAP2 POP POP JUMP JUMPDEST PUSH0 PUSH2 0x468 DUP3 PUSH2 0x3A1 JUMP JUMPDEST PUSH2 0x472 DUP2 DUP6 PUSH2 0x44E JUMP JUMPDEST SWAP4 POP PUSH2 0x482 DUP2 DUP6 PUSH1 0x20 DUP7 ADD PUSH2 0x3BB JUMP JUMPDEST PUSH2 0x48B DUP2 PUSH2 0x3C9 JUMP JUMPDEST DUP5 ADD SWAP2 POP POP SWAP3 SWAP2 POP POP JUMP JUMPDEST PUSH0 PUSH1 0x40 DUP4 ADD PUSH0 DUP4 ADD MLOAD PUSH2 0x4AB PUSH0 DUP7 ADD DUP3 PUSH2 0x43F JUMP JUMPDEST POP PUSH1 0x20 DUP4 ADD MLOAD DUP5 DUP3 SUB PUSH1 0x20 DUP7 ADD MSTORE PUSH2 0x4C3 DUP3 DUP3 PUSH2 0x45E JUMP JUMPDEST SWAP2 POP POP DUP1 SWAP2 POP POP SWAP3 SWAP2 POP POP JUMP JUMPDEST PUSH0 PUSH1 0x20 DUP3 ADD SWAP1 POP DUP2 DUP2 SUB PUSH0 DUP4 ADD MSTORE PUSH2 0x4E8 DUP2 DUP5 PUSH2 0x496 JUMP JUMPDEST SWAP1 POP SWAP3 SWAP2 POP POP JUMP JUMPDEST PUSH0 PUSH1 0x20 DUP3 ADD SWAP1 POP PUSH2 0x503 PUSH0 DUP4 ADD DUP5 PUSH2 0x392 JUMP JUMPDEST SWAP3 SWAP2 POP POP JUMP JUMPDEST PUSH0 DUP1 REVERT JUMPDEST PUSH0 DUP1 REVERT JUMPDEST PUSH32 0x4E487B7100000000000000000000000000000000000000000000000000000000 PUSH0 MSTORE PUSH1 0x41 PUSH1 0x4 MSTORE PUSH1 0x24 PUSH0 REVERT JUMPDEST PUSH2 0x547 DUP3 PUSH2 0x3C9 JUMP JUMPDEST DUP2 ADD DUP2 DUP2 LT PUSH8 0xFFFFFFFFFFFFFFFF DUP3 GT OR ISZERO PUSH2 0x566 JUMPI PUSH2 0x565 PUSH2 0x511 JUMP JUMPDEST JUMPDEST DUP1 PUSH1 0x40 MSTORE POP POP POP JUMP JUMPDEST PUSH0 PUSH2 0x578 PUSH2 0x323 JUMP JUMPDEST SWAP1 POP PUSH2 0x584 DUP3 DUP3 PUSH2 0x53E JUMP JUMPDEST SWAP2 SWAP1 POP JUMP JUMPDEST PUSH0 PUSH8 0xFFFFFFFFFFFFFFFF DUP3 GT ISZERO PUSH2 0x5A3 JUMPI PUSH2 0x5A2 PUSH2 0x511 JUMP JUMPDEST JUMPDEST PUSH2 0x5AC DUP3 PUSH2 0x3C9 JUMP JUMPDEST SWAP1 POP PUSH1 0x20 DUP2 ADD SWAP1 POP SWAP2 SWAP1 POP JUMP JUMPDEST DUP3 DUP2 DUP4 CALLDATACOPY PUSH0 DUP4 DUP4 ADD MSTORE POP POP POP JUMP JUMPDEST PUSH0 PUSH2 0x5D9 PUSH2 0x5D4 DUP5 PUSH2 0x589 JUMP JUMPDEST PUSH2 0x56F JUMP JUMPDEST SWAP1 POP DUP3 DUP2 MSTORE PUSH1 0x20 DUP2 ADD DUP5 DUP5 DUP5 ADD GT ISZERO PUSH2 0x5F5 JUMPI PUSH2 0x5F4 PUSH2 0x50D JUMP JUMPDEST JUMPDEST PUSH2 0x600 DUP5 DUP3 DUP6 PUSH2 0x5B9 JUMP JUMPDEST POP SWAP4 SWAP3 POP POP POP JUMP JUMPDEST PUSH0 DUP3 PUSH1 0x1F DUP4 ADD SLT PUSH2 0x61C JUMPI PUSH2 0x61B PUSH2 0x509 JUMP JUMPDEST JUMPDEST DUP2 CALLDATALOAD PUSH2 0x62C DUP5 DUP3 PUSH1 0x20 DUP7 ADD PUSH2 0x5C7 JUMP JUMPDEST SWAP2 POP POP SWAP3 SWAP2 POP POP JUMP JUMPDEST PUSH0 DUP1 PUSH1 0x40 DUP4 DUP6 SUB SLT ISZERO PUSH2 0x64B JUMPI PUSH2 0x64A PUSH2 0x32C JUMP JUMPDEST JUMPDEST PUSH0 PUSH2 0x658 DUP6 DUP3 DUP7 ADD PUSH2 0x353 JUMP JUMPDEST SWAP3 POP POP PUSH1 0x20 DUP4 ADD CALLDATALOAD PUSH8 0xFFFFFFFFFFFFFFFF DUP2 GT ISZERO PUSH2 0x679 JUMPI PUSH2 0x678 PUSH2 0x330 JUMP JUMPDEST JUMPDEST PUSH2 0x685 DUP6 DUP3 DUP7 ADD PUSH2 0x608 JUMP JUMPDEST SWAP2 POP POP SWAP3 POP SWAP3 SWAP1 POP JUMP JUMPDEST PUSH32 0x4E487B7100000000000000000000000000000000000000000000000000000000 PUSH0 MSTORE PUSH1 0x22 PUSH1 0x4 MSTORE PUSH1 0x24 PUSH0 REVERT JUMPDEST PUSH0 PUSH1 0x2 DUP3 DIV SWAP1 POP PUSH1 0x1 DUP3 AND DUP1 PUSH2 0x6D3 JUMPI PUSH1 0x7F DUP3 AND SWAP2 POP JUMPDEST PUSH1 0x20 DUP3 LT DUP2 SUB PUSH2 0x6E6 JUMPI PUSH2 0x6E5 PUSH2 0x68F JUMP JUMPDEST JUMPDEST POP SWAP2 SWAP1 POP JUMP JUMPDEST PUSH32 0x4E487B7100000000000000000000000000000000000000000000000000000000 PUSH0 MSTORE PUSH1 0x32 PUSH1 0x4 MSTORE PUSH1 0x24 PUSH0 REVERT JUMPDEST PUSH0 DUP2 SWAP1 POP DUP2 PUSH0 MSTORE PUSH1 0x20 PUSH0 KECCAK256 SWAP1 POP SWAP2 SWAP1 POP JUMP JUMPDEST PUSH0 PUSH1 0x20 PUSH1 0x1F DUP4 ADD DIV SWAP1 POP SWAP2 SWAP1 POP JUMP JUMPDEST PUSH0 DUP3 DUP3 SHL SWAP1 POP SWAP3 SWAP2 POP POP JUMP JUMPDEST PUSH0 PUSH1 0x8 DUP4 MUL PUSH2 0x775 PUSH32 0xFFFFFFFFFFFFFFFFFFFFFFFFFFFFFFFFFFFFFFFFFFFFFFFFFFFFFFFFFFFFFFFF DUP3 PUSH2 0x73A JUMP JUMPDEST PUSH2 0x77F DUP7 DUP4 PUSH2 0x73A JUMP JUMPDEST SWAP6 POP DUP1 NOT DUP5 AND SWAP4 POP DUP1 DUP7 AND DUP5 OR SWAP3 POP POP POP SWAP4 SWAP3 POP POP POP JUMP JUMPDEST PUSH0 DUP2 SWAP1 POP SWAP2 SWAP1 POP JUMP JUMPDEST PUSH0 PUSH2 0x7BA PUSH2 0x7B5 PUSH2 0x7B0 DUP5 PUSH2 0x334 JUMP JUMPDEST PUSH2 0x797 JUMP JUMPDEST PUSH2 0x334 JUMP JUMPDEST SWAP1 POP SWAP2 SWAP1 POP JUMP JUMPDEST PUSH0 DUP2 SWAP1 POP SWAP2 SWAP1 POP JUMP JUMPDEST PUSH2 0x7D3 DUP4 PUSH2 0x7A0 JUMP JUMPDEST PUSH2 0x7E7 PUSH2 0x7DF DUP3 PUSH2 0x7C1 JUMP JUMPDEST DUP5 DUP5 SLOAD PUSH2 0x746 JUMP JUMPDEST DUP3 SSTORE POP POP POP POP JUMP JUMPDEST PUSH0 SWAP1 JUMP JUMPDEST PUSH2 0x7FB PUSH2 0x7EF JUMP JUMPDEST PUSH2 0x806 DUP2 DUP5 DUP5 PUSH2 0x7CA JUMP JUMPDEST POP POP POP JUMP JUMPDEST JUMPDEST DUP2 DUP2 LT ISZERO PUSH2 0x829 JUMPI PUSH2 0x81E PUSH0 DUP3 PUSH2 0x7F3 JUMP JUMPDEST PUSH1 0x1 DUP2 ADD SWAP1 POP PUSH2 0x80C JUMP JUMPDEST POP POP JUMP JUMPDEST PUSH1 0x1F DUP3 GT ISZERO PUSH2 0x86E JUMPI PUSH2 0x83F DUP2 PUSH2 0x719 JUMP JUMPDEST PUSH2 0x848 DUP5 PUSH2 0x72B JUMP JUMPDEST DUP2 ADD PUSH1 0x20 DUP6 LT ISZERO PUSH2 0x857 JUMPI DUP2 SWAP1 POP JUMPDEST PUSH2 0x86B PUSH2 0x863 DUP6 PUSH2 0x72B JUMP JUMPDEST DUP4 ADD DUP3 PUSH2 0x80B JUMP JUMPDEST POP POP JUMPDEST POP POP POP JUMP JUMPDEST PUSH0 DUP3 DUP3 SHR SWAP1 POP SWAP3 SWAP2 POP POP JUMP JUMPDEST PUSH0 PUSH2 0x88E PUSH0 NOT DUP5 PUSH1 0x8 MUL PUSH2 0x873 JUMP JUMPDEST NOT DUP1 DUP4 AND SWAP2 POP POP SWAP3 SWAP2 POP POP JUMP JUMPDEST PUSH0 PUSH2 0x8A6 DUP4 DUP4 PUSH2 0x87F JUMP JUMPDEST SWAP2 POP DUP3 PUSH1 0x2 MUL DUP3 OR SWAP1 POP SWAP3 SWAP2 POP POP JUMP JUMPDEST PUSH2 0x8BF DUP3 PUSH2 0x3A1 JUMP JUMPDEST PUSH8 0xFFFFFFFFFFFFFFFF DUP2 GT ISZERO PUSH2 0x8D8 JUMPI PUSH2 0x8D7 PUSH2 0x511 JUMP JUMPDEST JUMPDEST PUSH2 0x8E2 DUP3 SLOAD PUSH2 0x6BC JUMP JUMPDEST PUSH2 0x8ED DUP3 DUP3 DUP6 PUSH2 0x82D JUMP JUMPDEST PUSH0 PUSH1 0x20 SWAP1 POP PUSH1 0x1F DUP4 GT PUSH1 0x1 DUP2 EQ PUSH2 0x91E JUMPI PUSH0 DUP5 ISZERO PUSH2 0x90C JUMPI DUP3 DUP8 ADD MLOAD SWAP1 POP JUMPDEST PUSH2 0x916 DUP6 DUP3 PUSH2 0x89B JUMP JUMPDEST DUP7 SSTORE POP PUSH2 0x97D JUMP JUMPDEST PUSH1 0x1F NOT DUP5 AND PUSH2 0x92C DUP7 PUSH2 0x719 JUMP JUMPDEST PUSH0 JUMPDEST DUP3 DUP2 LT ISZERO PUSH2 0x953 JUMPI DUP5 DUP10 ADD MLOAD DUP3 SSTORE PUSH1 0x1 DUP3 ADD SWAP2 POP PUSH1 0x20 DUP6 ADD SWAP5 POP PUSH1 0x20 DUP2 ADD SWAP1 POP PUSH2 0x92E JUMP JUMPDEST DUP7 DUP4 LT ISZERO PUSH2 0x970 JUMPI DUP5 DUP10 ADD MLOAD PUSH2 0x96C PUSH1 0x1F DUP10 AND DUP3 PUSH2 0x87F JUMP JUMPDEST DUP4 SSTORE POP JUMPDEST PUSH1 0x1 PUSH1 0x2 DUP9 MUL ADD DUP9 SSTORE POP POP POP JUMPDEST POP POP POP POP POP POP JUMP INVALID LOG2 PUSH5 0x6970667358 0x22 SLT KECCAK256 PUSH19 0x2C814A07F12D7BBBAFA73D4927C793665ECEEA 0x4D PUSH30 0xFCA8DBAFD05EC8FE4A5664736F6C634300081A0033000000000000000000 "
				},
				"gasEstimates": {
					"creation": {
						"codeDepositCost": "498200",
						"executionCost": "528",
						"totalCost": "498728"
					},
					"external": {
						"addperson(uint256,string)": "infinite",
						"getPeople(uint256)": "infinite",
						"person(uint256)": "infinite",
						"retrieve()": "2454",
						"store(uint256)": "22558"
					}
				},
				"methodIdentifiers": {
					"addperson(uint256,string)": "a7279116",
					"getPeople(uint256)": "10b4801a",
					"person(uint256)": "092a1820",
					"retrieve()": "2e64cec1",
					"store(uint256)": "6057361d"
				}
			},
			"storageLayout": {
				"storage": [
					{
						"astId": 3,
						"contract": "contracts/021_SimpleStorage.sol:SimpleStorage",
						"label": "favoriteNumber",
						"offset": 0,
						"slot": "0",
						"type": "t_uint256"
					},
					{
						"astId": 12,
						"contract": "contracts/021_SimpleStorage.sol:SimpleStorage",
						"label": "person",
						"offset": 0,
						"slot": "1",
						"type": "t_array(t_struct(People)8_storage)dyn_storage"
					}
				],
				"types": {
					"t_array(t_struct(People)8_storage)dyn_storage": {
						"base": "t_struct(People)8_storage",
						"encoding": "dynamic_array",
						"label": "struct SimpleStorage.People[]",
						"numberOfBytes": "32"
					},
					"t_string_storage": {
						"encoding": "bytes",
						"label": "string",
						"numberOfBytes": "32"
					},
					"t_struct(People)8_storage": {
						"encoding": "inplace",
						"label": "struct SimpleStorage.People",
						"members": [
							{
								"astId": 5,
								"contract": "contracts/021_SimpleStorage.sol:SimpleStorage",
								"label": "age",
								"offset": 0,
								"slot": "0",
								"type": "t_uint256"
							},
							{
								"astId": 7,
								"contract": "contracts/021_SimpleStorage.sol:SimpleStorage",
								"label": "name",
								"offset": 0,
								"slot": "1",
								"type": "t_string_storage"
							}
						],
						"numberOfBytes": "64"
					},
					"t_uint256": {
						"encoding": "inplace",
						"label": "uint256",
						"numberOfBytes": "32"
					}
				}
			},
			"userdoc": {
				"kind": "user",
				"methods": {},
				"version": 1
			}
		}
	}
}