{
	"contracts/017TransientStorage.sol": {
		"ReentrancyGuardTransient": {
			"abi": [
				{
					"inputs": [],
					"name": "test",
					"outputs": [],
					"stateMutability": "nonpayable",
					"type": "function"
				}
			],
			"devdoc": {
				"kind": "dev",
				"methods": {},
				"version": 1
			},
			"evm": {
				"assembly": "    /* \"contracts/017TransientStorage.sol\":1422:1854  contract ReentrancyGuardTransient {... */\n  mstore(0x40, 0x80)\n  callvalue\n  dup1\n  iszero\n  tag_1\n  jumpi\n  0x00\n  dup1\n  revert\ntag_1:\n  pop\n  dataSize(sub_0)\n  dup1\n  dataOffset(sub_0)\n  0x00\n  codecopy\n  0x00\n  return\nstop\n\nsub_0: assembly {\n        /* \"contracts/017TransientStorage.sol\":1422:1854  contract ReentrancyGuardTransient {... */\n      mstore(0x40, 0x80)\n      callvalue\n      dup1\n      iszero\n      tag_1\n      jumpi\n      0x00\n      dup1\n      revert\n    tag_1:\n      pop\n      jumpi(tag_2, lt(calldatasize, 0x04))\n      shr(0xe0, calldataload(0x00))\n      dup1\n      0xf8a8fd6d\n      eq\n      tag_3\n      jumpi\n    tag_2:\n      0x00\n      dup1\n      revert\n        /* \"contracts/017TransientStorage.sol\":1724:1851  function test() external lock {... */\n    tag_3:\n      tag_4\n      tag_5\n      jump\t// in\n    tag_4:\n      stop\n    tag_5:\n        /* \"contracts/017TransientStorage.sol\":1557:1561  SLOT */\n      0x00\n        /* \"contracts/017TransientStorage.sol\":1551:1562  tload(SLOT) */\n      tload\n        /* \"contracts/017TransientStorage.sol\":1548:1579  if tload(SLOT) { revert(0, 0) } */\n      iszero\n      tag_7\n      jumpi\n        /* \"contracts/017TransientStorage.sol\":1575:1576  0 */\n      0x00\n        /* \"contracts/017TransientStorage.sol\":1572:1573  0 */\n      dup1\n        /* \"contracts/017TransientStorage.sol\":1565:1577  revert(0, 0) */\n      revert\n        /* \"contracts/017TransientStorage.sol\":1548:1579  if tload(SLOT) { revert(0, 0) } */\n    tag_7:\n        /* \"contracts/017TransientStorage.sol\":1606:1607  1 */\n      0x01\n        /* \"contracts/017TransientStorage.sol\":1600:1604  SLOT */\n      0x00\n        /* \"contracts/017TransientStorage.sol\":1593:1608  tstore(SLOT, 1) */\n      tstore\n        /* \"contracts/017TransientStorage.sol\":1795:1809  bytes memory b */\n      0x00\n        /* \"contracts/017TransientStorage.sol\":1795:1814  bytes memory b = \"\" */\n      mload(0x40)\n      dup1\n      0x20\n      add\n      0x40\n      mstore\n      dup1\n      0x00\n      dup2\n      mstore\n      pop\n      swap1\n      pop\n        /* \"contracts/017TransientStorage.sol\":1825:1835  msg.sender */\n      caller\n        /* \"contracts/017TransientStorage.sol\":1825:1840  msg.sender.call */\n      0xffffffffffffffffffffffffffffffffffffffff\n      and\n        /* \"contracts/017TransientStorage.sol\":1841:1842  b */\n      dup2\n        /* \"contracts/017TransientStorage.sol\":1825:1843  msg.sender.call(b) */\n      mload(0x40)\n      tag_9\n      swap2\n      swap1\n      tag_10\n      jump\t// in\n    tag_9:\n      0x00\n      mload(0x40)\n      dup1\n      dup4\n      sub\n      dup2\n      0x00\n      dup7\n      gas\n      call\n      swap2\n      pop\n      pop\n      returndatasize\n      dup1\n      0x00\n      dup2\n      eq\n      tag_13\n      jumpi\n      mload(0x40)\n      swap2\n      pop\n      and(add(returndatasize, 0x3f), not(0x1f))\n      dup3\n      add\n      0x40\n      mstore\n      returndatasize\n      dup3\n      mstore\n      returndatasize\n      0x00\n      0x20\n      dup5\n      add\n      returndatacopy\n      jump(tag_12)\n    tag_13:\n      0x60\n      swap2\n      pop\n    tag_12:\n      pop\n      pop\n      pop\n        /* \"contracts/017TransientStorage.sol\":1754:1851  {... */\n      pop\n        /* \"contracts/017TransientStorage.sol\":1678:1679  0 */\n      0x00\n        /* \"contracts/017TransientStorage.sol\":1672:1676  SLOT */\n      dup1\n        /* \"contracts/017TransientStorage.sol\":1665:1680  tstore(SLOT, 0) */\n      tstore\n        /* \"contracts/017TransientStorage.sol\":1724:1851  function test() external lock {... */\n      jump\t// out\n        /* \"#utility.yul\":7:105   */\n    tag_14:\n        /* \"#utility.yul\":58:64   */\n      0x00\n        /* \"#utility.yul\":92:97   */\n      dup2\n        /* \"#utility.yul\":86:98   */\n      mload\n        /* \"#utility.yul\":76:98   */\n      swap1\n      pop\n        /* \"#utility.yul\":7:105   */\n      swap2\n      swap1\n      pop\n      jump\t// out\n        /* \"#utility.yul\":111:258   */\n    tag_15:\n        /* \"#utility.yul\":212:223   */\n      0x00\n        /* \"#utility.yul\":249:252   */\n      dup2\n        /* \"#utility.yul\":234:252   */\n      swap1\n      pop\n        /* \"#utility.yul\":111:258   */\n      swap3\n      swap2\n      pop\n      pop\n      jump\t// out\n        /* \"#utility.yul\":264:403   */\n    tag_16:\n        /* \"#utility.yul\":353:359   */\n      dup3\n        /* \"#utility.yul\":348:351   */\n      dup2\n        /* \"#utility.yul\":343:346   */\n      dup4\n        /* \"#utility.yul\":337:360   */\n      mcopy\n        /* \"#utility.yul\":394:395   */\n      0x00\n        /* \"#utility.yul\":385:391   */\n      dup4\n        /* \"#utility.yul\":380:383   */\n      dup4\n        /* \"#utility.yul\":376:392   */\n      add\n        /* \"#utility.yul\":369:396   */\n      mstore\n        /* \"#utility.yul\":264:403   */\n      pop\n      pop\n      pop\n      jump\t// out\n        /* \"#utility.yul\":409:795   */\n    tag_17:\n        /* \"#utility.yul\":513:516   */\n      0x00\n        /* \"#utility.yul\":541:579   */\n      tag_23\n        /* \"#utility.yul\":573:578   */\n      dup3\n        /* \"#utility.yul\":541:579   */\n      tag_14\n      jump\t// in\n    tag_23:\n        /* \"#utility.yul\":595:683   */\n      tag_24\n        /* \"#utility.yul\":676:682   */\n      dup2\n        /* \"#utility.yul\":671:674   */\n      dup6\n        /* \"#utility.yul\":595:683   */\n      tag_15\n      jump\t// in\n    tag_24:\n        /* \"#utility.yul\":588:683   */\n      swap4\n      pop\n        /* \"#utility.yul\":692:757   */\n      tag_25\n        /* \"#utility.yul\":750:756   */\n      dup2\n        /* \"#utility.yul\":745:748   */\n      dup6\n        /* \"#utility.yul\":738:742   */\n      0x20\n        /* \"#utility.yul\":731:736   */\n      dup7\n        /* \"#utility.yul\":727:743   */\n      add\n        /* \"#utility.yul\":692:757   */\n      tag_16\n      jump\t// in\n    tag_25:\n        /* \"#utility.yul\":782:788   */\n      dup1\n        /* \"#utility.yul\":777:780   */\n      dup5\n        /* \"#utility.yul\":773:789   */\n      add\n        /* \"#utility.yul\":766:789   */\n      swap2\n      pop\n        /* \"#utility.yul\":517:795   */\n      pop\n        /* \"#utility.yul\":409:795   */\n      swap3\n      swap2\n      pop\n      pop\n      jump\t// out\n        /* \"#utility.yul\":801:1072   */\n    tag_10:\n        /* \"#utility.yul\":931:934   */\n      0x00\n        /* \"#utility.yul\":953:1046   */\n      tag_27\n        /* \"#utility.yul\":1042:1045   */\n      dup3\n        /* \"#utility.yul\":1033:1039   */\n      dup5\n        /* \"#utility.yul\":953:1046   */\n      tag_17\n      jump\t// in\n    tag_27:\n        /* \"#utility.yul\":946:1046   */\n      swap2\n      pop\n        /* \"#utility.yul\":1063:1066   */\n      dup2\n        /* \"#utility.yul\":1056:1066   */\n      swap1\n      pop\n        /* \"#utility.yul\":801:1072   */\n      swap3\n      swap2\n      pop\n      pop\n      jump\t// out\n\n    auxdata: 0xa2646970667358221220490ad243b5353e87262e2c666f9eace585afb050af64963ed2c09540cf69173f64736f6c634300081a0033\n}\n",
				"bytecode": {
					"linkReferences": {},
					"object": "6080604052348015600e575f80fd5b506101628061001c5f395ff3fe608060405234801561000f575f80fd5b5060043610610029575f3560e01c8063f8a8fd6d1461002d575b5f80fd5b610035610037565b005b5f5c15610042575f80fd5b60015f5d5f60405180602001604052805f81525090503373ffffffffffffffffffffffffffffffffffffffff168160405161007d9190610116565b5f604051808303815f865af19150503d805f81146100b6576040519150601f19603f3d011682016040523d82523d5f602084013e6100bb565b606091505b505050505f805d565b5f81519050919050565b5f81905092915050565b8281835e5f83830152505050565b5f6100f0826100c4565b6100fa81856100ce565b935061010a8185602086016100d8565b80840191505092915050565b5f61012182846100e6565b91508190509291505056fea2646970667358221220490ad243b5353e87262e2c666f9eace585afb050af64963ed2c09540cf69173f64736f6c634300081a0033",
					"opcodes": "PUSH1 0x80 PUSH1 0x40 MSTORE CALLVALUE DUP1 ISZERO PUSH1 0xE JUMPI PUSH0 DUP1 REVERT JUMPDEST POP PUSH2 0x162 DUP1 PUSH2 0x1C PUSH0 CODECOPY PUSH0 RETURN INVALID PUSH1 0x80 PUSH1 0x40 MSTORE CALLVALUE DUP1 ISZERO PUSH2 0xF JUMPI PUSH0 DUP1 REVERT JUMPDEST POP PUSH1 0x4 CALLDATASIZE LT PUSH2 0x29 JUMPI PUSH0 CALLDATALOAD PUSH1 0xE0 SHR DUP1 PUSH4 0xF8A8FD6D EQ PUSH2 0x2D JUMPI JUMPDEST PUSH0 DUP1 REVERT JUMPDEST PUSH2 0x35 PUSH2 0x37 JUMP JUMPDEST STOP JUMPDEST PUSH0 TLOAD ISZERO PUSH2 0x42 JUMPI PUSH0 DUP1 REVERT JUMPDEST PUSH1 0x1 PUSH0 TSTORE PUSH0 PUSH1 0x40 MLOAD DUP1 PUSH1 0x20 ADD PUSH1 0x40 MSTORE DUP1 PUSH0 DUP2 MSTORE POP SWAP1 POP CALLER PUSH20 0xFFFFFFFFFFFFFFFFFFFFFFFFFFFFFFFFFFFFFFFF AND DUP2 PUSH1 0x40 MLOAD PUSH2 0x7D SWAP2 SWAP1 PUSH2 0x116 JUMP JUMPDEST PUSH0 PUSH1 0x40 MLOAD DUP1 DUP4 SUB DUP2 PUSH0 DUP7 GAS CALL SWAP2 POP POP RETURNDATASIZE DUP1 PUSH0 DUP2 EQ PUSH2 0xB6 JUMPI PUSH1 0x40 MLOAD SWAP2 POP PUSH1 0x1F NOT PUSH1 0x3F RETURNDATASIZE ADD AND DUP3 ADD PUSH1 0x40 MSTORE RETURNDATASIZE DUP3 MSTORE RETURNDATASIZE PUSH0 PUSH1 0x20 DUP5 ADD RETURNDATACOPY PUSH2 0xBB JUMP JUMPDEST PUSH1 0x60 SWAP2 POP JUMPDEST POP POP POP POP PUSH0 DUP1 TSTORE JUMP JUMPDEST PUSH0 DUP2 MLOAD SWAP1 POP SWAP2 SWAP1 POP JUMP JUMPDEST PUSH0 DUP2 SWAP1 POP SWAP3 SWAP2 POP POP JUMP JUMPDEST DUP3 DUP2 DUP4 MCOPY PUSH0 DUP4 DUP4 ADD MSTORE POP POP POP JUMP JUMPDEST PUSH0 PUSH2 0xF0 DUP3 PUSH2 0xC4 JUMP JUMPDEST PUSH2 0xFA DUP2 DUP6 PUSH2 0xCE JUMP JUMPDEST SWAP4 POP PUSH2 0x10A DUP2 DUP6 PUSH1 0x20 DUP7 ADD PUSH2 0xD8 JUMP JUMPDEST DUP1 DUP5 ADD SWAP2 POP POP SWAP3 SWAP2 POP POP JUMP JUMPDEST PUSH0 PUSH2 0x121 DUP3 DUP5 PUSH2 0xE6 JUMP JUMPDEST SWAP2 POP DUP2 SWAP1 POP SWAP3 SWAP2 POP POP JUMP INVALID LOG2 PUSH5 0x6970667358 0x22 SLT KECCAK256 BLOBHASH EXP 0xD2 NUMBER 0xB5 CALLDATALOAD RETURNDATACOPY DUP8 0x26 0x2E 0x2C PUSH7 0x6F9EACE585AFB0 POP 0xAF PUSH5 0x963ED2C095 BLOCKHASH 0xCF PUSH10 0x173F64736F6C63430008 BYTE STOP CALLER "
				},
				"gasEstimates": {
					"creation": {
						"codeDepositCost": "70800",
						"executionCost": "121",
						"totalCost": "70921"
					},
					"external": {
						"test()": "infinite"
					}
				},
				"methodIdentifiers": {
					"test()": "f8a8fd6d"
				}
			},
			"storageLayout": {
				"storage": [],
				"types": null
			},
			"userdoc": {
				"kind": "user",
				"methods": {},
				"version": 1
			}
		}
	}
}