{
	"contracts/015Structs.sol": {
		"Todos": {
			"abi": [
				{
					"inputs": [
						{
							"internalType": "string",
							"name": "_text",
							"type": "string"
						},
						{
							"internalType": "bool",
							"name": "_completed",
							"type": "bool"
						}
					],
					"name": "create",
					"outputs": [],
					"stateMutability": "nonpayable",
					"type": "function"
				},
				{
					"inputs": [
						{
							"internalType": "uint256",
							"name": "_index",
							"type": "uint256"
						}
					],
					"name": "get",
					"outputs": [
						{
							"internalType": "string",
							"name": "text",
							"type": "string"
						},
						{
							"internalType": "bool",
							"name": "completed",
							"type": "bool"
						}
					],
					"stateMutability": "view",
					"type": "function"
				},
				{
					"inputs": [
						{
							"internalType": "uint256",
							"name": "",
							"type": "uint256"
						}
					],
					"name": "todos",
					"outputs": [
						{
							"internalType": "string",
							"name": "text",
							"type": "string"
						},
						{
							"internalType": "bool",
							"name": "completed",
							"type": "bool"
						}
					],
					"stateMutability": "view",
					"type": "function"
				},
				{
					"inputs": [
						{
							"internalType": "uint8",
							"name": "_index",
							"type": "uint8"
						}
					],
					"name": "updateCpmpleted",
					"outputs": [],
					"stateMutability": "nonpayable",
					"type": "function"
				},
				{
					"inputs": [
						{
							"internalType": "uint8",
							"name": "_index",
							"type": "uint8"
						},
						{
							"internalType": "string",
							"name": "_text",
							"type": "string"
						}
					],
					"name": "updateText",
					"outputs": [],
					"stateMutability": "nonpayable",
					"type": "function"
				}
			],
			"devdoc": {
				"kind": "dev",
				"methods": {},
				"version": 1
			},
			"evm": {
				"assembly": "    /* \"contracts/015Structs.sol\":58:1262  contract Todos {... */\n  mstore(0x40, 0x80)\n  callvalue\n  dup1\n  iszero\n  tag_1\n  jumpi\n  0x00\n  dup1\n  revert\ntag_1:\n  pop\n  dataSize(sub_0)\n  dup1\n  dataOffset(sub_0)\n  0x00\n  codecopy\n  0x00\n  return\nstop\n\nsub_0: assembly {\n        /* \"contracts/015Structs.sol\":58:1262  contract Todos {... */\n      mstore(0x40, 0x80)\n      callvalue\n      dup1\n      iszero\n      tag_1\n      jumpi\n      0x00\n      dup1\n      revert\n    tag_1:\n      pop\n      jumpi(tag_2, lt(calldatasize, 0x04))\n      shr(0xe0, calldataload(0x00))\n      dup1\n      0x0ae11007\n      eq\n      tag_3\n      jumpi\n      dup1\n      0x39ffb305\n      eq\n      tag_4\n      jumpi\n      dup1\n      0x9507d39a\n      eq\n      tag_5\n      jumpi\n      dup1\n      0xbc8bc2b4\n      eq\n      tag_6\n      jumpi\n      dup1\n      0xcc10e401\n      eq\n      tag_7\n      jumpi\n    tag_2:\n      0x00\n      dup1\n      revert\n        /* \"contracts/015Structs.sol\":958:1093  function updateText(uint8 _index,string memory _text) public{... */\n    tag_3:\n      tag_8\n      0x04\n      dup1\n      calldatasize\n      sub\n      dup2\n      add\n      swap1\n      tag_9\n      swap2\n      swap1\n      tag_10\n      jump\t// in\n    tag_9:\n      tag_11\n      jump\t// in\n    tag_8:\n      stop\n        /* \"contracts/015Structs.sol\":1122:1260  function updateCpmpleted(uint8 _index) public{... */\n    tag_4:\n      tag_12\n      0x04\n      dup1\n      calldatasize\n      sub\n      dup2\n      add\n      swap1\n      tag_13\n      swap2\n      swap1\n      tag_14\n      jump\t// in\n    tag_13:\n      tag_15\n      jump\t// in\n    tag_12:\n      stop\n        /* \"contracts/015Structs.sol\":660:933  function get(uint256 _index)... */\n    tag_5:\n      tag_16\n      0x04\n      dup1\n      calldatasize\n      sub\n      dup2\n      add\n      swap1\n      tag_17\n      swap2\n      swap1\n      tag_18\n      jump\t// in\n    tag_17:\n      tag_19\n      jump\t// in\n    tag_16:\n      mload(0x40)\n      tag_20\n      swap3\n      swap2\n      swap1\n      tag_21\n      jump\t// in\n    tag_20:\n      mload(0x40)\n      dup1\n      swap2\n      sub\n      swap1\n      return\n        /* \"contracts/015Structs.sol\":172:191  Todo[] public todos */\n    tag_6:\n      tag_22\n      0x04\n      dup1\n      calldatasize\n      sub\n      dup2\n      add\n      swap1\n      tag_23\n      swap2\n      swap1\n      tag_18\n      jump\t// in\n    tag_23:\n      tag_24\n      jump\t// in\n    tag_22:\n      mload(0x40)\n      tag_25\n      swap3\n      swap2\n      swap1\n      tag_21\n      jump\t// in\n    tag_25:\n      mload(0x40)\n      dup1\n      swap2\n      sub\n      swap1\n      return\n        /* \"contracts/015Structs.sol\":198:654  function create(string calldata _text, bool _completed) public {... */\n    tag_7:\n      tag_26\n      0x04\n      dup1\n      calldatasize\n      sub\n      dup2\n      add\n      swap1\n      tag_27\n      swap2\n      swap1\n      tag_28\n      jump\t// in\n    tag_27:\n      tag_29\n      jump\t// in\n    tag_26:\n      stop\n        /* \"contracts/015Structs.sol\":958:1093  function updateText(uint8 _index,string memory _text) public{... */\n    tag_11:\n        /* \"contracts/015Structs.sol\":1027:1044  Todo storage todo */\n      0x00\n        /* \"contracts/015Structs.sol\":1047:1052  todos */\n      dup1\n        /* \"contracts/015Structs.sol\":1053:1059  _index */\n      dup4\n        /* \"contracts/015Structs.sol\":1047:1060  todos[_index] */\n      0xff\n      and\n      dup2\n      sload\n      dup2\n      lt\n      tag_31\n      jumpi\n      tag_32\n      tag_33\n      jump\t// in\n    tag_32:\n    tag_31:\n      swap1\n      0x00\n      mstore\n      keccak256(0x00, 0x20)\n      swap1\n      0x02\n      mul\n      add\n        /* \"contracts/015Structs.sol\":1027:1060  Todo storage todo = todos[_index] */\n      swap1\n      pop\n        /* \"contracts/015Structs.sol\":1081:1086  _text */\n      dup2\n        /* \"contracts/015Structs.sol\":1069:1073  todo */\n      dup2\n        /* \"contracts/015Structs.sol\":1069:1078  todo.text */\n      0x00\n      add\n        /* \"contracts/015Structs.sol\":1069:1086  todo.text = _text */\n      swap1\n      dup2\n      tag_35\n      swap2\n      swap1\n      tag_36\n      jump\t// in\n    tag_35:\n      pop\n        /* \"contracts/015Structs.sol\":1018:1093  {... */\n      pop\n        /* \"contracts/015Structs.sol\":958:1093  function updateText(uint8 _index,string memory _text) public{... */\n      pop\n      pop\n      jump\t// out\n        /* \"contracts/015Structs.sol\":1122:1260  function updateCpmpleted(uint8 _index) public{... */\n    tag_15:\n        /* \"contracts/015Structs.sol\":1177:1194  Todo storage todo */\n      0x00\n        /* \"contracts/015Structs.sol\":1197:1202  todos */\n      dup1\n        /* \"contracts/015Structs.sol\":1203:1209  _index */\n      dup3\n        /* \"contracts/015Structs.sol\":1197:1210  todos[_index] */\n      0xff\n      and\n      dup2\n      sload\n      dup2\n      lt\n      tag_38\n      jumpi\n      tag_39\n      tag_33\n      jump\t// in\n    tag_39:\n    tag_38:\n      swap1\n      0x00\n      mstore\n      keccak256(0x00, 0x20)\n      swap1\n      0x02\n      mul\n      add\n        /* \"contracts/015Structs.sol\":1177:1210  Todo storage todo = todos[_index] */\n      swap1\n      pop\n        /* \"contracts/015Structs.sol\":1238:1242  todo */\n      dup1\n        /* \"contracts/015Structs.sol\":1238:1252  todo.completed */\n      0x01\n      add\n      0x00\n      swap1\n      sload\n      swap1\n      0x0100\n      exp\n      swap1\n      div\n      0xff\n      and\n        /* \"contracts/015Structs.sol\":1237:1252  !todo.completed */\n      iszero\n        /* \"contracts/015Structs.sol\":1220:1224  todo */\n      dup2\n        /* \"contracts/015Structs.sol\":1220:1234  todo.completed */\n      0x01\n      add\n      0x00\n        /* \"contracts/015Structs.sol\":1220:1252  todo.completed = !todo.completed */\n      0x0100\n      exp\n      dup2\n      sload\n      dup2\n      0xff\n      mul\n      not\n      and\n      swap1\n      dup4\n      iszero\n      iszero\n      mul\n      or\n      swap1\n      sstore\n      pop\n        /* \"contracts/015Structs.sol\":1167:1260  {... */\n      pop\n        /* \"contracts/015Structs.sol\":1122:1260  function updateCpmpleted(uint8 _index) public{... */\n      pop\n      jump\t// out\n        /* \"contracts/015Structs.sol\":660:933  function get(uint256 _index)... */\n    tag_19:\n        /* \"contracts/015Structs.sol\":734:752  string memory text */\n      0x60\n        /* \"contracts/015Structs.sol\":754:768  bool completed */\n      0x00\n        /* \"contracts/015Structs.sol\":849:866  Todo storage todo */\n      dup1\n        /* \"contracts/015Structs.sol\":869:874  todos */\n      0x00\n        /* \"contracts/015Structs.sol\":875:881  _index */\n      dup5\n        /* \"contracts/015Structs.sol\":869:882  todos[_index] */\n      dup2\n      sload\n      dup2\n      lt\n      tag_42\n      jumpi\n      tag_43\n      tag_33\n      jump\t// in\n    tag_43:\n    tag_42:\n      swap1\n      0x00\n      mstore\n      keccak256(0x00, 0x20)\n      swap1\n      0x02\n      mul\n      add\n        /* \"contracts/015Structs.sol\":849:882  Todo storage todo = todos[_index] */\n      swap1\n      pop\n        /* \"contracts/015Structs.sol\":900:904  todo */\n      dup1\n        /* \"contracts/015Structs.sol\":900:909  todo.text */\n      0x00\n      add\n        /* \"contracts/015Structs.sol\":911:915  todo */\n      dup2\n        /* \"contracts/015Structs.sol\":911:925  todo.completed */\n      0x01\n      add\n      0x00\n      swap1\n      sload\n      swap1\n      0x0100\n      exp\n      swap1\n      div\n      0xff\n      and\n        /* \"contracts/015Structs.sol\":892:926  return (todo.text, todo.completed) */\n      dup2\n      dup1\n      sload\n      tag_45\n      swap1\n      tag_46\n      jump\t// in\n    tag_45:\n      dup1\n      0x1f\n      add\n      0x20\n      dup1\n      swap2\n      div\n      mul\n      0x20\n      add\n      mload(0x40)\n      swap1\n      dup2\n      add\n      0x40\n      mstore\n      dup1\n      swap3\n      swap2\n      swap1\n      dup2\n      dup2\n      mstore\n      0x20\n      add\n      dup3\n      dup1\n      sload\n      tag_47\n      swap1\n      tag_46\n      jump\t// in\n    tag_47:\n      dup1\n      iszero\n      tag_48\n      jumpi\n      dup1\n      0x1f\n      lt\n      tag_49\n      jumpi\n      0x0100\n      dup1\n      dup4\n      sload\n      div\n      mul\n      dup4\n      mstore\n      swap2\n      0x20\n      add\n      swap2\n      jump(tag_48)\n    tag_49:\n      dup3\n      add\n      swap2\n      swap1\n      0x00\n      mstore\n      keccak256(0x00, 0x20)\n      swap1\n    tag_50:\n      dup2\n      sload\n      dup2\n      mstore\n      swap1\n      0x01\n      add\n      swap1\n      0x20\n      add\n      dup1\n      dup4\n      gt\n      tag_50\n      jumpi\n      dup3\n      swap1\n      sub\n      0x1f\n      and\n      dup3\n      add\n      swap2\n    tag_48:\n      pop\n      pop\n      pop\n      pop\n      pop\n      swap2\n      pop\n      swap3\n      pop\n      swap3\n      pop\n      pop\n        /* \"contracts/015Structs.sol\":660:933  function get(uint256 _index)... */\n      swap2\n      pop\n      swap2\n      jump\t// out\n        /* \"contracts/015Structs.sol\":172:191  Todo[] public todos */\n    tag_24:\n      0x00\n      dup2\n      dup2\n      sload\n      dup2\n      lt\n      tag_51\n      jumpi\n      0x00\n      dup1\n      revert\n    tag_51:\n      swap1\n      0x00\n      mstore\n      keccak256(0x00, 0x20)\n      swap1\n      0x02\n      mul\n      add\n      0x00\n      swap2\n      pop\n      swap1\n      pop\n      dup1\n      0x00\n      add\n      dup1\n      sload\n      tag_53\n      swap1\n      tag_46\n      jump\t// in\n    tag_53:\n      dup1\n      0x1f\n      add\n      0x20\n      dup1\n      swap2\n      div\n      mul\n      0x20\n      add\n      mload(0x40)\n      swap1\n      dup2\n      add\n      0x40\n      mstore\n      dup1\n      swap3\n      swap2\n      swap1\n      dup2\n      dup2\n      mstore\n      0x20\n      add\n      dup3\n      dup1\n      sload\n      tag_54\n      swap1\n      tag_46\n      jump\t// in\n    tag_54:\n      dup1\n      iszero\n      tag_55\n      jumpi\n      dup1\n      0x1f\n      lt\n      tag_56\n      jumpi\n      0x0100\n      dup1\n      dup4\n      sload\n      div\n      mul\n      dup4\n      mstore\n      swap2\n      0x20\n      add\n      swap2\n      jump(tag_55)\n    tag_56:\n      dup3\n      add\n      swap2\n      swap1\n      0x00\n      mstore\n      keccak256(0x00, 0x20)\n      swap1\n    tag_57:\n      dup2\n      sload\n      dup2\n      mstore\n      swap1\n      0x01\n      add\n      swap1\n      0x20\n      add\n      dup1\n      dup4\n      gt\n      tag_57\n      jumpi\n      dup3\n      swap1\n      sub\n      0x1f\n      and\n      dup3\n      add\n      swap2\n    tag_55:\n      pop\n      pop\n      pop\n      pop\n      pop\n      swap1\n      dup1\n      0x01\n      add\n      0x00\n      swap1\n      sload\n      swap1\n      0x0100\n      exp\n      swap1\n      div\n      0xff\n      and\n      swap1\n      pop\n      dup3\n      jump\t// out\n        /* \"contracts/015Structs.sol\":198:654  function create(string calldata _text, bool _completed) public {... */\n    tag_29:\n        /* \"contracts/015Structs.sol\":412:417  todos */\n      0x00\n        /* \"contracts/015Structs.sol\":423:465  Todo({text: _text, completed: _completed}) */\n      mload(0x40)\n      dup1\n      0x40\n      add\n      0x40\n      mstore\n      dup1\n        /* \"contracts/015Structs.sol\":435:440  _text */\n      dup6\n      dup6\n        /* \"contracts/015Structs.sol\":423:465  Todo({text: _text, completed: _completed}) */\n      dup1\n      dup1\n      0x1f\n      add\n      0x20\n      dup1\n      swap2\n      div\n      mul\n      0x20\n      add\n      mload(0x40)\n      swap1\n      dup2\n      add\n      0x40\n      mstore\n      dup1\n      swap4\n      swap3\n      swap2\n      swap1\n      dup2\n      dup2\n      mstore\n      0x20\n      add\n      dup4\n      dup4\n      dup1\n      dup3\n      dup5\n      calldatacopy\n      0x00\n      dup2\n      dup5\n      add\n      mstore\n      not(0x1f)\n      0x1f\n      dup3\n      add\n      and\n      swap1\n      pop\n      dup1\n      dup4\n      add\n      swap3\n      pop\n      pop\n      pop\n      pop\n      pop\n      pop\n      pop\n      dup2\n      mstore\n      0x20\n      add\n        /* \"contracts/015Structs.sol\":453:463  _completed */\n      dup4\n        /* \"contracts/015Structs.sol\":423:465  Todo({text: _text, completed: _completed}) */\n      iszero\n      iszero\n      dup2\n      mstore\n      pop\n        /* \"contracts/015Structs.sol\":412:466  todos.push(Todo({text: _text, completed: _completed})) */\n      swap1\n      dup1\n      0x01\n      dup2\n      sload\n      add\n      dup1\n      dup3\n      sstore\n      dup1\n      swap2\n      pop\n      pop\n      0x01\n      swap1\n      sub\n      swap1\n      0x00\n      mstore\n      keccak256(0x00, 0x20)\n      swap1\n      0x02\n      mul\n      add\n      0x00\n      swap1\n      swap2\n      swap1\n      swap2\n      swap1\n      swap2\n      pop\n      0x00\n      dup3\n      add\n      mload\n      dup2\n      0x00\n      add\n      swap1\n      dup2\n      tag_60\n      swap2\n      swap1\n      tag_36\n      jump\t// in\n    tag_60:\n      pop\n      0x20\n      dup3\n      add\n      mload\n      dup2\n      0x01\n      add\n      exp(0x0100, 0x00)\n      dup2\n      sload\n      dup2\n      0xff\n      mul\n      not\n      and\n      swap1\n      dup4\n      iszero\n      iszero\n      mul\n      or\n      swap1\n      sstore\n      pop\n      pop\n      pop\n        /* \"contracts/015Structs.sol\":198:654  function create(string calldata _text, bool _completed) public {... */\n      pop\n      pop\n      pop\n      jump\t// out\n        /* \"#utility.yul\":7:82   */\n    tag_61:\n        /* \"#utility.yul\":40:46   */\n      0x00\n        /* \"#utility.yul\":73:75   */\n      0x40\n        /* \"#utility.yul\":67:76   */\n      mload\n        /* \"#utility.yul\":57:76   */\n      swap1\n      pop\n        /* \"#utility.yul\":7:82   */\n      swap1\n      jump\t// out\n        /* \"#utility.yul\":88:205   */\n    tag_62:\n        /* \"#utility.yul\":197:198   */\n      0x00\n        /* \"#utility.yul\":194:195   */\n      dup1\n        /* \"#utility.yul\":187:199   */\n      revert\n        /* \"#utility.yul\":211:328   */\n    tag_63:\n        /* \"#utility.yul\":320:321   */\n      0x00\n        /* \"#utility.yul\":317:318   */\n      dup1\n        /* \"#utility.yul\":310:322   */\n      revert\n        /* \"#utility.yul\":334:420   */\n    tag_64:\n        /* \"#utility.yul\":369:376   */\n      0x00\n        /* \"#utility.yul\":409:413   */\n      0xff\n        /* \"#utility.yul\":402:407   */\n      dup3\n        /* \"#utility.yul\":398:414   */\n      and\n        /* \"#utility.yul\":387:414   */\n      swap1\n      pop\n        /* \"#utility.yul\":334:420   */\n      swap2\n      swap1\n      pop\n      jump\t// out\n        /* \"#utility.yul\":426:544   */\n    tag_65:\n        /* \"#utility.yul\":497:519   */\n      tag_113\n        /* \"#utility.yul\":513:518   */\n      dup2\n        /* \"#utility.yul\":497:519   */\n      tag_64\n      jump\t// in\n    tag_113:\n        /* \"#utility.yul\":490:495   */\n      dup2\n        /* \"#utility.yul\":487:520   */\n      eq\n        /* \"#utility.yul\":477:538   */\n      tag_114\n      jumpi\n        /* \"#utility.yul\":534:535   */\n      0x00\n        /* \"#utility.yul\":531:532   */\n      dup1\n        /* \"#utility.yul\":524:536   */\n      revert\n        /* \"#utility.yul\":477:538   */\n    tag_114:\n        /* \"#utility.yul\":426:544   */\n      pop\n      jump\t// out\n        /* \"#utility.yul\":550:685   */\n    tag_66:\n        /* \"#utility.yul\":594:599   */\n      0x00\n        /* \"#utility.yul\":632:638   */\n      dup2\n        /* \"#utility.yul\":619:639   */\n      calldataload\n        /* \"#utility.yul\":610:639   */\n      swap1\n      pop\n        /* \"#utility.yul\":648:679   */\n      tag_116\n        /* \"#utility.yul\":673:678   */\n      dup2\n        /* \"#utility.yul\":648:679   */\n      tag_65\n      jump\t// in\n    tag_116:\n        /* \"#utility.yul\":550:685   */\n      swap3\n      swap2\n      pop\n      pop\n      jump\t// out\n        /* \"#utility.yul\":691:808   */\n    tag_67:\n        /* \"#utility.yul\":800:801   */\n      0x00\n        /* \"#utility.yul\":797:798   */\n      dup1\n        /* \"#utility.yul\":790:802   */\n      revert\n        /* \"#utility.yul\":814:931   */\n    tag_68:\n        /* \"#utility.yul\":923:924   */\n      0x00\n        /* \"#utility.yul\":920:921   */\n      dup1\n        /* \"#utility.yul\":913:925   */\n      revert\n        /* \"#utility.yul\":937:1039   */\n    tag_69:\n        /* \"#utility.yul\":978:984   */\n      0x00\n        /* \"#utility.yul\":1029:1031   */\n      0x1f\n        /* \"#utility.yul\":1025:1032   */\n      not\n        /* \"#utility.yul\":1020:1022   */\n      0x1f\n        /* \"#utility.yul\":1013:1018   */\n      dup4\n        /* \"#utility.yul\":1009:1023   */\n      add\n        /* \"#utility.yul\":1005:1033   */\n      and\n        /* \"#utility.yul\":995:1033   */\n      swap1\n      pop\n        /* \"#utility.yul\":937:1039   */\n      swap2\n      swap1\n      pop\n      jump\t// out\n        /* \"#utility.yul\":1045:1225   */\n    tag_70:\n        /* \"#utility.yul\":1093:1170   */\n      0x4e487b7100000000000000000000000000000000000000000000000000000000\n        /* \"#utility.yul\":1090:1091   */\n      0x00\n        /* \"#utility.yul\":1083:1171   */\n      mstore\n        /* \"#utility.yul\":1190:1194   */\n      0x41\n        /* \"#utility.yul\":1187:1188   */\n      0x04\n        /* \"#utility.yul\":1180:1195   */\n      mstore\n        /* \"#utility.yul\":1214:1218   */\n      0x24\n        /* \"#utility.yul\":1211:1212   */\n      0x00\n        /* \"#utility.yul\":1204:1219   */\n      revert\n        /* \"#utility.yul\":1231:1512   */\n    tag_71:\n        /* \"#utility.yul\":1314:1341   */\n      tag_122\n        /* \"#utility.yul\":1336:1340   */\n      dup3\n        /* \"#utility.yul\":1314:1341   */\n      tag_69\n      jump\t// in\n    tag_122:\n        /* \"#utility.yul\":1306:1312   */\n      dup2\n        /* \"#utility.yul\":1302:1342   */\n      add\n        /* \"#utility.yul\":1444:1450   */\n      dup2\n        /* \"#utility.yul\":1432:1442   */\n      dup2\n        /* \"#utility.yul\":1429:1451   */\n      lt\n        /* \"#utility.yul\":1408:1426   */\n      0xffffffffffffffff\n        /* \"#utility.yul\":1396:1406   */\n      dup3\n        /* \"#utility.yul\":1393:1427   */\n      gt\n        /* \"#utility.yul\":1390:1452   */\n      or\n        /* \"#utility.yul\":1387:1475   */\n      iszero\n      tag_123\n      jumpi\n        /* \"#utility.yul\":1455:1473   */\n      tag_124\n      tag_70\n      jump\t// in\n    tag_124:\n        /* \"#utility.yul\":1387:1475   */\n    tag_123:\n        /* \"#utility.yul\":1495:1505   */\n      dup1\n        /* \"#utility.yul\":1491:1493   */\n      0x40\n        /* \"#utility.yul\":1484:1506   */\n      mstore\n        /* \"#utility.yul\":1274:1512   */\n      pop\n        /* \"#utility.yul\":1231:1512   */\n      pop\n      pop\n      jump\t// out\n        /* \"#utility.yul\":1518:1647   */\n    tag_72:\n        /* \"#utility.yul\":1552:1558   */\n      0x00\n        /* \"#utility.yul\":1579:1599   */\n      tag_126\n      tag_61\n      jump\t// in\n    tag_126:\n        /* \"#utility.yul\":1569:1599   */\n      swap1\n      pop\n        /* \"#utility.yul\":1608:1641   */\n      tag_127\n        /* \"#utility.yul\":1636:1640   */\n      dup3\n        /* \"#utility.yul\":1628:1634   */\n      dup3\n        /* \"#utility.yul\":1608:1641   */\n      tag_71\n      jump\t// in\n    tag_127:\n        /* \"#utility.yul\":1518:1647   */\n      swap2\n      swap1\n      pop\n      jump\t// out\n        /* \"#utility.yul\":1653:1961   */\n    tag_73:\n        /* \"#utility.yul\":1715:1719   */\n      0x00\n        /* \"#utility.yul\":1805:1823   */\n      0xffffffffffffffff\n        /* \"#utility.yul\":1797:1803   */\n      dup3\n        /* \"#utility.yul\":1794:1824   */\n      gt\n        /* \"#utility.yul\":1791:1847   */\n      iszero\n      tag_129\n      jumpi\n        /* \"#utility.yul\":1827:1845   */\n      tag_130\n      tag_70\n      jump\t// in\n    tag_130:\n        /* \"#utility.yul\":1791:1847   */\n    tag_129:\n        /* \"#utility.yul\":1865:1894   */\n      tag_131\n        /* \"#utility.yul\":1887:1893   */\n      dup3\n        /* \"#utility.yul\":1865:1894   */\n      tag_69\n      jump\t// in\n    tag_131:\n        /* \"#utility.yul\":1857:1894   */\n      swap1\n      pop\n        /* \"#utility.yul\":1949:1953   */\n      0x20\n        /* \"#utility.yul\":1943:1947   */\n      dup2\n        /* \"#utility.yul\":1939:1954   */\n      add\n        /* \"#utility.yul\":1931:1954   */\n      swap1\n      pop\n        /* \"#utility.yul\":1653:1961   */\n      swap2\n      swap1\n      pop\n      jump\t// out\n        /* \"#utility.yul\":1967:2115   */\n    tag_74:\n        /* \"#utility.yul\":2065:2071   */\n      dup3\n        /* \"#utility.yul\":2060:2063   */\n      dup2\n        /* \"#utility.yul\":2055:2058   */\n      dup4\n        /* \"#utility.yul\":2042:2072   */\n      calldatacopy\n        /* \"#utility.yul\":2106:2107   */\n      0x00\n        /* \"#utility.yul\":2097:2103   */\n      dup4\n        /* \"#utility.yul\":2092:2095   */\n      dup4\n        /* \"#utility.yul\":2088:2104   */\n      add\n        /* \"#utility.yul\":2081:2108   */\n      mstore\n        /* \"#utility.yul\":1967:2115   */\n      pop\n      pop\n      pop\n      jump\t// out\n        /* \"#utility.yul\":2121:2546   */\n    tag_75:\n        /* \"#utility.yul\":2199:2204   */\n      0x00\n        /* \"#utility.yul\":2224:2290   */\n      tag_134\n        /* \"#utility.yul\":2240:2289   */\n      tag_135\n        /* \"#utility.yul\":2282:2288   */\n      dup5\n        /* \"#utility.yul\":2240:2289   */\n      tag_73\n      jump\t// in\n    tag_135:\n        /* \"#utility.yul\":2224:2290   */\n      tag_72\n      jump\t// in\n    tag_134:\n        /* \"#utility.yul\":2215:2290   */\n      swap1\n      pop\n        /* \"#utility.yul\":2313:2319   */\n      dup3\n        /* \"#utility.yul\":2306:2311   */\n      dup2\n        /* \"#utility.yul\":2299:2320   */\n      mstore\n        /* \"#utility.yul\":2351:2355   */\n      0x20\n        /* \"#utility.yul\":2344:2349   */\n      dup2\n        /* \"#utility.yul\":2340:2356   */\n      add\n        /* \"#utility.yul\":2389:2392   */\n      dup5\n        /* \"#utility.yul\":2380:2386   */\n      dup5\n        /* \"#utility.yul\":2375:2378   */\n      dup5\n        /* \"#utility.yul\":2371:2387   */\n      add\n        /* \"#utility.yul\":2368:2393   */\n      gt\n        /* \"#utility.yul\":2365:2477   */\n      iszero\n      tag_136\n      jumpi\n        /* \"#utility.yul\":2396:2475   */\n      tag_137\n      tag_68\n      jump\t// in\n    tag_137:\n        /* \"#utility.yul\":2365:2477   */\n    tag_136:\n        /* \"#utility.yul\":2486:2540   */\n      tag_138\n        /* \"#utility.yul\":2533:2539   */\n      dup5\n        /* \"#utility.yul\":2528:2531   */\n      dup3\n        /* \"#utility.yul\":2523:2526   */\n      dup6\n        /* \"#utility.yul\":2486:2540   */\n      tag_74\n      jump\t// in\n    tag_138:\n        /* \"#utility.yul\":2205:2546   */\n      pop\n        /* \"#utility.yul\":2121:2546   */\n      swap4\n      swap3\n      pop\n      pop\n      pop\n      jump\t// out\n        /* \"#utility.yul\":2566:2906   */\n    tag_76:\n        /* \"#utility.yul\":2622:2627   */\n      0x00\n        /* \"#utility.yul\":2671:2674   */\n      dup3\n        /* \"#utility.yul\":2664:2668   */\n      0x1f\n        /* \"#utility.yul\":2656:2662   */\n      dup4\n        /* \"#utility.yul\":2652:2669   */\n      add\n        /* \"#utility.yul\":2648:2675   */\n      slt\n        /* \"#utility.yul\":2638:2760   */\n      tag_140\n      jumpi\n        /* \"#utility.yul\":2679:2758   */\n      tag_141\n      tag_67\n      jump\t// in\n    tag_141:\n        /* \"#utility.yul\":2638:2760   */\n    tag_140:\n        /* \"#utility.yul\":2796:2802   */\n      dup2\n        /* \"#utility.yul\":2783:2803   */\n      calldataload\n        /* \"#utility.yul\":2821:2900   */\n      tag_142\n        /* \"#utility.yul\":2896:2899   */\n      dup5\n        /* \"#utility.yul\":2888:2894   */\n      dup3\n        /* \"#utility.yul\":2881:2885   */\n      0x20\n        /* \"#utility.yul\":2873:2879   */\n      dup7\n        /* \"#utility.yul\":2869:2886   */\n      add\n        /* \"#utility.yul\":2821:2900   */\n      tag_75\n      jump\t// in\n    tag_142:\n        /* \"#utility.yul\":2812:2900   */\n      swap2\n      pop\n        /* \"#utility.yul\":2628:2906   */\n      pop\n        /* \"#utility.yul\":2566:2906   */\n      swap3\n      swap2\n      pop\n      pop\n      jump\t// out\n        /* \"#utility.yul\":2912:3562   */\n    tag_10:\n        /* \"#utility.yul\":2988:2994   */\n      0x00\n        /* \"#utility.yul\":2996:3002   */\n      dup1\n        /* \"#utility.yul\":3045:3047   */\n      0x40\n        /* \"#utility.yul\":3033:3042   */\n      dup4\n        /* \"#utility.yul\":3024:3031   */\n      dup6\n        /* \"#utility.yul\":3020:3043   */\n      sub\n        /* \"#utility.yul\":3016:3048   */\n      slt\n        /* \"#utility.yul\":3013:3132   */\n      iszero\n      tag_144\n      jumpi\n        /* \"#utility.yul\":3051:3130   */\n      tag_145\n      tag_62\n      jump\t// in\n    tag_145:\n        /* \"#utility.yul\":3013:3132   */\n    tag_144:\n        /* \"#utility.yul\":3171:3172   */\n      0x00\n        /* \"#utility.yul\":3196:3247   */\n      tag_146\n        /* \"#utility.yul\":3239:3246   */\n      dup6\n        /* \"#utility.yul\":3230:3236   */\n      dup3\n        /* \"#utility.yul\":3219:3228   */\n      dup7\n        /* \"#utility.yul\":3215:3237   */\n      add\n        /* \"#utility.yul\":3196:3247   */\n      tag_66\n      jump\t// in\n    tag_146:\n        /* \"#utility.yul\":3186:3247   */\n      swap3\n      pop\n        /* \"#utility.yul\":3142:3257   */\n      pop\n        /* \"#utility.yul\":3324:3326   */\n      0x20\n        /* \"#utility.yul\":3313:3322   */\n      dup4\n        /* \"#utility.yul\":3309:3327   */\n      add\n        /* \"#utility.yul\":3296:3328   */\n      calldataload\n        /* \"#utility.yul\":3355:3373   */\n      0xffffffffffffffff\n        /* \"#utility.yul\":3347:3353   */\n      dup2\n        /* \"#utility.yul\":3344:3374   */\n      gt\n        /* \"#utility.yul\":3341:3458   */\n      iszero\n      tag_147\n      jumpi\n        /* \"#utility.yul\":3377:3456   */\n      tag_148\n      tag_63\n      jump\t// in\n    tag_148:\n        /* \"#utility.yul\":3341:3458   */\n    tag_147:\n        /* \"#utility.yul\":3482:3545   */\n      tag_149\n        /* \"#utility.yul\":3537:3544   */\n      dup6\n        /* \"#utility.yul\":3528:3534   */\n      dup3\n        /* \"#utility.yul\":3517:3526   */\n      dup7\n        /* \"#utility.yul\":3513:3535   */\n      add\n        /* \"#utility.yul\":3482:3545   */\n      tag_76\n      jump\t// in\n    tag_149:\n        /* \"#utility.yul\":3472:3545   */\n      swap2\n      pop\n        /* \"#utility.yul\":3267:3555   */\n      pop\n        /* \"#utility.yul\":2912:3562   */\n      swap3\n      pop\n      swap3\n      swap1\n      pop\n      jump\t// out\n        /* \"#utility.yul\":3568:3893   */\n    tag_14:\n        /* \"#utility.yul\":3625:3631   */\n      0x00\n        /* \"#utility.yul\":3674:3676   */\n      0x20\n        /* \"#utility.yul\":3662:3671   */\n      dup3\n        /* \"#utility.yul\":3653:3660   */\n      dup5\n        /* \"#utility.yul\":3649:3672   */\n      sub\n        /* \"#utility.yul\":3645:3677   */\n      slt\n        /* \"#utility.yul\":3642:3761   */\n      iszero\n      tag_151\n      jumpi\n        /* \"#utility.yul\":3680:3759   */\n      tag_152\n      tag_62\n      jump\t// in\n    tag_152:\n        /* \"#utility.yul\":3642:3761   */\n    tag_151:\n        /* \"#utility.yul\":3800:3801   */\n      0x00\n        /* \"#utility.yul\":3825:3876   */\n      tag_153\n        /* \"#utility.yul\":3868:3875   */\n      dup5\n        /* \"#utility.yul\":3859:3865   */\n      dup3\n        /* \"#utility.yul\":3848:3857   */\n      dup6\n        /* \"#utility.yul\":3844:3866   */\n      add\n        /* \"#utility.yul\":3825:3876   */\n      tag_66\n      jump\t// in\n    tag_153:\n        /* \"#utility.yul\":3815:3876   */\n      swap2\n      pop\n        /* \"#utility.yul\":3771:3886   */\n      pop\n        /* \"#utility.yul\":3568:3893   */\n      swap3\n      swap2\n      pop\n      pop\n      jump\t// out\n        /* \"#utility.yul\":3899:3976   */\n    tag_77:\n        /* \"#utility.yul\":3936:3943   */\n      0x00\n        /* \"#utility.yul\":3965:3970   */\n      dup2\n        /* \"#utility.yul\":3954:3970   */\n      swap1\n      pop\n        /* \"#utility.yul\":3899:3976   */\n      swap2\n      swap1\n      pop\n      jump\t// out\n        /* \"#utility.yul\":3982:4104   */\n    tag_78:\n        /* \"#utility.yul\":4055:4079   */\n      tag_156\n        /* \"#utility.yul\":4073:4078   */\n      dup2\n        /* \"#utility.yul\":4055:4079   */\n      tag_77\n      jump\t// in\n    tag_156:\n        /* \"#utility.yul\":4048:4053   */\n      dup2\n        /* \"#utility.yul\":4045:4080   */\n      eq\n        /* \"#utility.yul\":4035:4098   */\n      tag_157\n      jumpi\n        /* \"#utility.yul\":4094:4095   */\n      0x00\n        /* \"#utility.yul\":4091:4092   */\n      dup1\n        /* \"#utility.yul\":4084:4096   */\n      revert\n        /* \"#utility.yul\":4035:4098   */\n    tag_157:\n        /* \"#utility.yul\":3982:4104   */\n      pop\n      jump\t// out\n        /* \"#utility.yul\":4110:4249   */\n    tag_79:\n        /* \"#utility.yul\":4156:4161   */\n      0x00\n        /* \"#utility.yul\":4194:4200   */\n      dup2\n        /* \"#utility.yul\":4181:4201   */\n      calldataload\n        /* \"#utility.yul\":4172:4201   */\n      swap1\n      pop\n        /* \"#utility.yul\":4210:4243   */\n      tag_159\n        /* \"#utility.yul\":4237:4242   */\n      dup2\n        /* \"#utility.yul\":4210:4243   */\n      tag_78\n      jump\t// in\n    tag_159:\n        /* \"#utility.yul\":4110:4249   */\n      swap3\n      swap2\n      pop\n      pop\n      jump\t// out\n        /* \"#utility.yul\":4255:4584   */\n    tag_18:\n        /* \"#utility.yul\":4314:4320   */\n      0x00\n        /* \"#utility.yul\":4363:4365   */\n      0x20\n        /* \"#utility.yul\":4351:4360   */\n      dup3\n        /* \"#utility.yul\":4342:4349   */\n      dup5\n        /* \"#utility.yul\":4338:4361   */\n      sub\n        /* \"#utility.yul\":4334:4366   */\n      slt\n        /* \"#utility.yul\":4331:4450   */\n      iszero\n      tag_161\n      jumpi\n        /* \"#utility.yul\":4369:4448   */\n      tag_162\n      tag_62\n      jump\t// in\n    tag_162:\n        /* \"#utility.yul\":4331:4450   */\n    tag_161:\n        /* \"#utility.yul\":4489:4490   */\n      0x00\n        /* \"#utility.yul\":4514:4567   */\n      tag_163\n        /* \"#utility.yul\":4559:4566   */\n      dup5\n        /* \"#utility.yul\":4550:4556   */\n      dup3\n        /* \"#utility.yul\":4539:4548   */\n      dup6\n        /* \"#utility.yul\":4535:4557   */\n      add\n        /* \"#utility.yul\":4514:4567   */\n      tag_79\n      jump\t// in\n    tag_163:\n        /* \"#utility.yul\":4504:4567   */\n      swap2\n      pop\n        /* \"#utility.yul\":4460:4577   */\n      pop\n        /* \"#utility.yul\":4255:4584   */\n      swap3\n      swap2\n      pop\n      pop\n      jump\t// out\n        /* \"#utility.yul\":4590:4689   */\n    tag_80:\n        /* \"#utility.yul\":4642:4648   */\n      0x00\n        /* \"#utility.yul\":4676:4681   */\n      dup2\n        /* \"#utility.yul\":4670:4682   */\n      mload\n        /* \"#utility.yul\":4660:4682   */\n      swap1\n      pop\n        /* \"#utility.yul\":4590:4689   */\n      swap2\n      swap1\n      pop\n      jump\t// out\n        /* \"#utility.yul\":4695:4864   */\n    tag_81:\n        /* \"#utility.yul\":4779:4790   */\n      0x00\n        /* \"#utility.yul\":4813:4819   */\n      dup3\n        /* \"#utility.yul\":4808:4811   */\n      dup3\n        /* \"#utility.yul\":4801:4820   */\n      mstore\n        /* \"#utility.yul\":4853:4857   */\n      0x20\n        /* \"#utility.yul\":4848:4851   */\n      dup3\n        /* \"#utility.yul\":4844:4858   */\n      add\n        /* \"#utility.yul\":4829:4858   */\n      swap1\n      pop\n        /* \"#utility.yul\":4695:4864   */\n      swap3\n      swap2\n      pop\n      pop\n      jump\t// out\n        /* \"#utility.yul\":4870:5009   */\n    tag_82:\n        /* \"#utility.yul\":4959:4965   */\n      dup3\n        /* \"#utility.yul\":4954:4957   */\n      dup2\n        /* \"#utility.yul\":4949:4952   */\n      dup4\n        /* \"#utility.yul\":4943:4966   */\n      mcopy\n        /* \"#utility.yul\":5000:5001   */\n      0x00\n        /* \"#utility.yul\":4991:4997   */\n      dup4\n        /* \"#utility.yul\":4986:4989   */\n      dup4\n        /* \"#utility.yul\":4982:4998   */\n      add\n        /* \"#utility.yul\":4975:5002   */\n      mstore\n        /* \"#utility.yul\":4870:5009   */\n      pop\n      pop\n      pop\n      jump\t// out\n        /* \"#utility.yul\":5015:5392   */\n    tag_83:\n        /* \"#utility.yul\":5103:5106   */\n      0x00\n        /* \"#utility.yul\":5131:5170   */\n      tag_168\n        /* \"#utility.yul\":5164:5169   */\n      dup3\n        /* \"#utility.yul\":5131:5170   */\n      tag_80\n      jump\t// in\n    tag_168:\n        /* \"#utility.yul\":5186:5257   */\n      tag_169\n        /* \"#utility.yul\":5250:5256   */\n      dup2\n        /* \"#utility.yul\":5245:5248   */\n      dup6\n        /* \"#utility.yul\":5186:5257   */\n      tag_81\n      jump\t// in\n    tag_169:\n        /* \"#utility.yul\":5179:5257   */\n      swap4\n      pop\n        /* \"#utility.yul\":5266:5331   */\n      tag_170\n        /* \"#utility.yul\":5324:5330   */\n      dup2\n        /* \"#utility.yul\":5319:5322   */\n      dup6\n        /* \"#utility.yul\":5312:5316   */\n      0x20\n        /* \"#utility.yul\":5305:5310   */\n      dup7\n        /* \"#utility.yul\":5301:5317   */\n      add\n        /* \"#utility.yul\":5266:5331   */\n      tag_82\n      jump\t// in\n    tag_170:\n        /* \"#utility.yul\":5356:5385   */\n      tag_171\n        /* \"#utility.yul\":5378:5384   */\n      dup2\n        /* \"#utility.yul\":5356:5385   */\n      tag_69\n      jump\t// in\n    tag_171:\n        /* \"#utility.yul\":5351:5354   */\n      dup5\n        /* \"#utility.yul\":5347:5386   */\n      add\n        /* \"#utility.yul\":5340:5386   */\n      swap2\n      pop\n        /* \"#utility.yul\":5107:5392   */\n      pop\n        /* \"#utility.yul\":5015:5392   */\n      swap3\n      swap2\n      pop\n      pop\n      jump\t// out\n        /* \"#utility.yul\":5398:5488   */\n    tag_84:\n        /* \"#utility.yul\":5432:5439   */\n      0x00\n        /* \"#utility.yul\":5475:5480   */\n      dup2\n        /* \"#utility.yul\":5468:5481   */\n      iszero\n        /* \"#utility.yul\":5461:5482   */\n      iszero\n        /* \"#utility.yul\":5450:5482   */\n      swap1\n      pop\n        /* \"#utility.yul\":5398:5488   */\n      swap2\n      swap1\n      pop\n      jump\t// out\n        /* \"#utility.yul\":5494:5603   */\n    tag_85:\n        /* \"#utility.yul\":5575:5596   */\n      tag_174\n        /* \"#utility.yul\":5590:5595   */\n      dup2\n        /* \"#utility.yul\":5575:5596   */\n      tag_84\n      jump\t// in\n    tag_174:\n        /* \"#utility.yul\":5570:5573   */\n      dup3\n        /* \"#utility.yul\":5563:5597   */\n      mstore\n        /* \"#utility.yul\":5494:5603   */\n      pop\n      pop\n      jump\t// out\n        /* \"#utility.yul\":5609:6020   */\n    tag_21:\n        /* \"#utility.yul\":5744:5748   */\n      0x00\n        /* \"#utility.yul\":5782:5784   */\n      0x40\n        /* \"#utility.yul\":5771:5780   */\n      dup3\n        /* \"#utility.yul\":5767:5785   */\n      add\n        /* \"#utility.yul\":5759:5785   */\n      swap1\n      pop\n        /* \"#utility.yul\":5831:5840   */\n      dup2\n        /* \"#utility.yul\":5825:5829   */\n      dup2\n        /* \"#utility.yul\":5821:5841   */\n      sub\n        /* \"#utility.yul\":5817:5818   */\n      0x00\n        /* \"#utility.yul\":5806:5815   */\n      dup4\n        /* \"#utility.yul\":5802:5819   */\n      add\n        /* \"#utility.yul\":5795:5842   */\n      mstore\n        /* \"#utility.yul\":5859:5937   */\n      tag_176\n        /* \"#utility.yul\":5932:5936   */\n      dup2\n        /* \"#utility.yul\":5923:5929   */\n      dup6\n        /* \"#utility.yul\":5859:5937   */\n      tag_83\n      jump\t// in\n    tag_176:\n        /* \"#utility.yul\":5851:5937   */\n      swap1\n      pop\n        /* \"#utility.yul\":5947:6013   */\n      tag_177\n        /* \"#utility.yul\":6009:6011   */\n      0x20\n        /* \"#utility.yul\":5998:6007   */\n      dup4\n        /* \"#utility.yul\":5994:6012   */\n      add\n        /* \"#utility.yul\":5985:5991   */\n      dup5\n        /* \"#utility.yul\":5947:6013   */\n      tag_85\n      jump\t// in\n    tag_177:\n        /* \"#utility.yul\":5609:6020   */\n      swap4\n      swap3\n      pop\n      pop\n      pop\n      jump\t// out\n        /* \"#utility.yul\":6026:6143   */\n    tag_86:\n        /* \"#utility.yul\":6135:6136   */\n      0x00\n        /* \"#utility.yul\":6132:6133   */\n      dup1\n        /* \"#utility.yul\":6125:6137   */\n      revert\n        /* \"#utility.yul\":6149:6266   */\n    tag_87:\n        /* \"#utility.yul\":6258:6259   */\n      0x00\n        /* \"#utility.yul\":6255:6256   */\n      dup1\n        /* \"#utility.yul\":6248:6260   */\n      revert\n        /* \"#utility.yul\":6286:6839   */\n    tag_88:\n        /* \"#utility.yul\":6344:6352   */\n      0x00\n        /* \"#utility.yul\":6354:6360   */\n      dup1\n        /* \"#utility.yul\":6404:6407   */\n      dup4\n        /* \"#utility.yul\":6397:6401   */\n      0x1f\n        /* \"#utility.yul\":6389:6395   */\n      dup5\n        /* \"#utility.yul\":6385:6402   */\n      add\n        /* \"#utility.yul\":6381:6408   */\n      slt\n        /* \"#utility.yul\":6371:6493   */\n      tag_181\n      jumpi\n        /* \"#utility.yul\":6412:6491   */\n      tag_182\n      tag_67\n      jump\t// in\n    tag_182:\n        /* \"#utility.yul\":6371:6493   */\n    tag_181:\n        /* \"#utility.yul\":6525:6531   */\n      dup3\n        /* \"#utility.yul\":6512:6532   */\n      calldataload\n        /* \"#utility.yul\":6502:6532   */\n      swap1\n      pop\n        /* \"#utility.yul\":6555:6573   */\n      0xffffffffffffffff\n        /* \"#utility.yul\":6547:6553   */\n      dup2\n        /* \"#utility.yul\":6544:6574   */\n      gt\n        /* \"#utility.yul\":6541:6658   */\n      iszero\n      tag_183\n      jumpi\n        /* \"#utility.yul\":6577:6656   */\n      tag_184\n      tag_86\n      jump\t// in\n    tag_184:\n        /* \"#utility.yul\":6541:6658   */\n    tag_183:\n        /* \"#utility.yul\":6691:6695   */\n      0x20\n        /* \"#utility.yul\":6683:6689   */\n      dup4\n        /* \"#utility.yul\":6679:6696   */\n      add\n        /* \"#utility.yul\":6667:6696   */\n      swap2\n      pop\n        /* \"#utility.yul\":6745:6748   */\n      dup4\n        /* \"#utility.yul\":6737:6741   */\n      0x01\n        /* \"#utility.yul\":6729:6735   */\n      dup3\n        /* \"#utility.yul\":6725:6742   */\n      mul\n        /* \"#utility.yul\":6715:6723   */\n      dup4\n        /* \"#utility.yul\":6711:6743   */\n      add\n        /* \"#utility.yul\":6708:6749   */\n      gt\n        /* \"#utility.yul\":6705:6833   */\n      iszero\n      tag_185\n      jumpi\n        /* \"#utility.yul\":6752:6831   */\n      tag_186\n      tag_87\n      jump\t// in\n    tag_186:\n        /* \"#utility.yul\":6705:6833   */\n    tag_185:\n        /* \"#utility.yul\":6286:6839   */\n      swap3\n      pop\n      swap3\n      swap1\n      pop\n      jump\t// out\n        /* \"#utility.yul\":6845:6961   */\n    tag_89:\n        /* \"#utility.yul\":6915:6936   */\n      tag_188\n        /* \"#utility.yul\":6930:6935   */\n      dup2\n        /* \"#utility.yul\":6915:6936   */\n      tag_84\n      jump\t// in\n    tag_188:\n        /* \"#utility.yul\":6908:6913   */\n      dup2\n        /* \"#utility.yul\":6905:6937   */\n      eq\n        /* \"#utility.yul\":6895:6955   */\n      tag_189\n      jumpi\n        /* \"#utility.yul\":6951:6952   */\n      0x00\n        /* \"#utility.yul\":6948:6949   */\n      dup1\n        /* \"#utility.yul\":6941:6953   */\n      revert\n        /* \"#utility.yul\":6895:6955   */\n    tag_189:\n        /* \"#utility.yul\":6845:6961   */\n      pop\n      jump\t// out\n        /* \"#utility.yul\":6967:7100   */\n    tag_90:\n        /* \"#utility.yul\":7010:7015   */\n      0x00\n        /* \"#utility.yul\":7048:7054   */\n      dup2\n        /* \"#utility.yul\":7035:7055   */\n      calldataload\n        /* \"#utility.yul\":7026:7055   */\n      swap1\n      pop\n        /* \"#utility.yul\":7064:7094   */\n      tag_191\n        /* \"#utility.yul\":7088:7093   */\n      dup2\n        /* \"#utility.yul\":7064:7094   */\n      tag_89\n      jump\t// in\n    tag_191:\n        /* \"#utility.yul\":6967:7100   */\n      swap3\n      swap2\n      pop\n      pop\n      jump\t// out\n        /* \"#utility.yul\":7106:7774   */\n    tag_28:\n        /* \"#utility.yul\":7183:7189   */\n      0x00\n        /* \"#utility.yul\":7191:7197   */\n      dup1\n        /* \"#utility.yul\":7199:7205   */\n      0x00\n        /* \"#utility.yul\":7248:7250   */\n      0x40\n        /* \"#utility.yul\":7236:7245   */\n      dup5\n        /* \"#utility.yul\":7227:7234   */\n      dup7\n        /* \"#utility.yul\":7223:7246   */\n      sub\n        /* \"#utility.yul\":7219:7251   */\n      slt\n        /* \"#utility.yul\":7216:7335   */\n      iszero\n      tag_193\n      jumpi\n        /* \"#utility.yul\":7254:7333   */\n      tag_194\n      tag_62\n      jump\t// in\n    tag_194:\n        /* \"#utility.yul\":7216:7335   */\n    tag_193:\n        /* \"#utility.yul\":7402:7403   */\n      0x00\n        /* \"#utility.yul\":7391:7400   */\n      dup5\n        /* \"#utility.yul\":7387:7404   */\n      add\n        /* \"#utility.yul\":7374:7405   */\n      calldataload\n        /* \"#utility.yul\":7432:7450   */\n      0xffffffffffffffff\n        /* \"#utility.yul\":7424:7430   */\n      dup2\n        /* \"#utility.yul\":7421:7451   */\n      gt\n        /* \"#utility.yul\":7418:7535   */\n      iszero\n      tag_195\n      jumpi\n        /* \"#utility.yul\":7454:7533   */\n      tag_196\n      tag_63\n      jump\t// in\n    tag_196:\n        /* \"#utility.yul\":7418:7535   */\n    tag_195:\n        /* \"#utility.yul\":7567:7632   */\n      tag_197\n        /* \"#utility.yul\":7624:7631   */\n      dup7\n        /* \"#utility.yul\":7615:7621   */\n      dup3\n        /* \"#utility.yul\":7604:7613   */\n      dup8\n        /* \"#utility.yul\":7600:7622   */\n      add\n        /* \"#utility.yul\":7567:7632   */\n      tag_88\n      jump\t// in\n    tag_197:\n        /* \"#utility.yul\":7549:7632   */\n      swap4\n      pop\n      swap4\n      pop\n        /* \"#utility.yul\":7345:7642   */\n      pop\n        /* \"#utility.yul\":7681:7683   */\n      0x20\n        /* \"#utility.yul\":7707:7757   */\n      tag_198\n        /* \"#utility.yul\":7749:7756   */\n      dup7\n        /* \"#utility.yul\":7740:7746   */\n      dup3\n        /* \"#utility.yul\":7729:7738   */\n      dup8\n        /* \"#utility.yul\":7725:7747   */\n      add\n        /* \"#utility.yul\":7707:7757   */\n      tag_90\n      jump\t// in\n    tag_198:\n        /* \"#utility.yul\":7697:7757   */\n      swap2\n      pop\n        /* \"#utility.yul\":7652:7767   */\n      pop\n        /* \"#utility.yul\":7106:7774   */\n      swap3\n      pop\n      swap3\n      pop\n      swap3\n      jump\t// out\n        /* \"#utility.yul\":7780:7960   */\n    tag_33:\n        /* \"#utility.yul\":7828:7905   */\n      0x4e487b7100000000000000000000000000000000000000000000000000000000\n        /* \"#utility.yul\":7825:7826   */\n      0x00\n        /* \"#utility.yul\":7818:7906   */\n      mstore\n        /* \"#utility.yul\":7925:7929   */\n      0x32\n        /* \"#utility.yul\":7922:7923   */\n      0x04\n        /* \"#utility.yul\":7915:7930   */\n      mstore\n        /* \"#utility.yul\":7949:7953   */\n      0x24\n        /* \"#utility.yul\":7946:7947   */\n      0x00\n        /* \"#utility.yul\":7939:7954   */\n      revert\n        /* \"#utility.yul\":7966:8146   */\n    tag_91:\n        /* \"#utility.yul\":8014:8091   */\n      0x4e487b7100000000000000000000000000000000000000000000000000000000\n        /* \"#utility.yul\":8011:8012   */\n      0x00\n        /* \"#utility.yul\":8004:8092   */\n      mstore\n        /* \"#utility.yul\":8111:8115   */\n      0x22\n        /* \"#utility.yul\":8108:8109   */\n      0x04\n        /* \"#utility.yul\":8101:8116   */\n      mstore\n        /* \"#utility.yul\":8135:8139   */\n      0x24\n        /* \"#utility.yul\":8132:8133   */\n      0x00\n        /* \"#utility.yul\":8125:8140   */\n      revert\n        /* \"#utility.yul\":8152:8472   */\n    tag_46:\n        /* \"#utility.yul\":8196:8202   */\n      0x00\n        /* \"#utility.yul\":8233:8234   */\n      0x02\n        /* \"#utility.yul\":8227:8231   */\n      dup3\n        /* \"#utility.yul\":8223:8235   */\n      div\n        /* \"#utility.yul\":8213:8235   */\n      swap1\n      pop\n        /* \"#utility.yul\":8280:8281   */\n      0x01\n        /* \"#utility.yul\":8274:8278   */\n      dup3\n        /* \"#utility.yul\":8270:8282   */\n      and\n        /* \"#utility.yul\":8301:8319   */\n      dup1\n        /* \"#utility.yul\":8291:8372   */\n      tag_202\n      jumpi\n        /* \"#utility.yul\":8357:8361   */\n      0x7f\n        /* \"#utility.yul\":8349:8355   */\n      dup3\n        /* \"#utility.yul\":8345:8362   */\n      and\n        /* \"#utility.yul\":8335:8362   */\n      swap2\n      pop\n        /* \"#utility.yul\":8291:8372   */\n    tag_202:\n        /* \"#utility.yul\":8419:8421   */\n      0x20\n        /* \"#utility.yul\":8411:8417   */\n      dup3\n        /* \"#utility.yul\":8408:8422   */\n      lt\n        /* \"#utility.yul\":8388:8406   */\n      dup2\n        /* \"#utility.yul\":8385:8423   */\n      sub\n        /* \"#utility.yul\":8382:8466   */\n      tag_203\n      jumpi\n        /* \"#utility.yul\":8438:8456   */\n      tag_204\n      tag_91\n      jump\t// in\n    tag_204:\n        /* \"#utility.yul\":8382:8466   */\n    tag_203:\n        /* \"#utility.yul\":8203:8472   */\n      pop\n        /* \"#utility.yul\":8152:8472   */\n      swap2\n      swap1\n      pop\n      jump\t// out\n        /* \"#utility.yul\":8478:8619   */\n    tag_92:\n        /* \"#utility.yul\":8527:8531   */\n      0x00\n        /* \"#utility.yul\":8550:8553   */\n      dup2\n        /* \"#utility.yul\":8542:8553   */\n      swap1\n      pop\n        /* \"#utility.yul\":8573:8576   */\n      dup2\n        /* \"#utility.yul\":8570:8571   */\n      0x00\n        /* \"#utility.yul\":8563:8577   */\n      mstore\n        /* \"#utility.yul\":8607:8611   */\n      0x20\n        /* \"#utility.yul\":8604:8605   */\n      0x00\n        /* \"#utility.yul\":8594:8612   */\n      keccak256\n        /* \"#utility.yul\":8586:8612   */\n      swap1\n      pop\n        /* \"#utility.yul\":8478:8619   */\n      swap2\n      swap1\n      pop\n      jump\t// out\n        /* \"#utility.yul\":8625:8718   */\n    tag_93:\n        /* \"#utility.yul\":8662:8668   */\n      0x00\n        /* \"#utility.yul\":8709:8711   */\n      0x20\n        /* \"#utility.yul\":8704:8706   */\n      0x1f\n        /* \"#utility.yul\":8697:8702   */\n      dup4\n        /* \"#utility.yul\":8693:8707   */\n      add\n        /* \"#utility.yul\":8689:8712   */\n      div\n        /* \"#utility.yul\":8679:8712   */\n      swap1\n      pop\n        /* \"#utility.yul\":8625:8718   */\n      swap2\n      swap1\n      pop\n      jump\t// out\n        /* \"#utility.yul\":8724:8831   */\n    tag_94:\n        /* \"#utility.yul\":8768:8776   */\n      0x00\n        /* \"#utility.yul\":8818:8823   */\n      dup3\n        /* \"#utility.yul\":8812:8816   */\n      dup3\n        /* \"#utility.yul\":8808:8824   */\n      shl\n        /* \"#utility.yul\":8787:8824   */\n      swap1\n      pop\n        /* \"#utility.yul\":8724:8831   */\n      swap3\n      swap2\n      pop\n      pop\n      jump\t// out\n        /* \"#utility.yul\":8837:9230   */\n    tag_95:\n        /* \"#utility.yul\":8906:8912   */\n      0x00\n        /* \"#utility.yul\":8956:8957   */\n      0x08\n        /* \"#utility.yul\":8944:8954   */\n      dup4\n        /* \"#utility.yul\":8940:8958   */\n      mul\n        /* \"#utility.yul\":8979:9076   */\n      tag_209\n        /* \"#utility.yul\":9009:9075   */\n      0xffffffffffffffffffffffffffffffffffffffffffffffffffffffffffffffff\n        /* \"#utility.yul\":8998:9007   */\n      dup3\n        /* \"#utility.yul\":8979:9076   */\n      tag_94\n      jump\t// in\n    tag_209:\n        /* \"#utility.yul\":9097:9136   */\n      tag_210\n        /* \"#utility.yul\":9127:9135   */\n      dup7\n        /* \"#utility.yul\":9116:9125   */\n      dup4\n        /* \"#utility.yul\":9097:9136   */\n      tag_94\n      jump\t// in\n    tag_210:\n        /* \"#utility.yul\":9085:9136   */\n      swap6\n      pop\n        /* \"#utility.yul\":9169:9173   */\n      dup1\n        /* \"#utility.yul\":9165:9174   */\n      not\n        /* \"#utility.yul\":9158:9163   */\n      dup5\n        /* \"#utility.yul\":9154:9175   */\n      and\n        /* \"#utility.yul\":9145:9175   */\n      swap4\n      pop\n        /* \"#utility.yul\":9218:9222   */\n      dup1\n        /* \"#utility.yul\":9208:9216   */\n      dup7\n        /* \"#utility.yul\":9204:9223   */\n      and\n        /* \"#utility.yul\":9197:9202   */\n      dup5\n        /* \"#utility.yul\":9194:9224   */\n      or\n        /* \"#utility.yul\":9184:9224   */\n      swap3\n      pop\n        /* \"#utility.yul\":8913:9230   */\n      pop\n      pop\n        /* \"#utility.yul\":8837:9230   */\n      swap4\n      swap3\n      pop\n      pop\n      pop\n      jump\t// out\n        /* \"#utility.yul\":9236:9296   */\n    tag_96:\n        /* \"#utility.yul\":9264:9267   */\n      0x00\n        /* \"#utility.yul\":9285:9290   */\n      dup2\n        /* \"#utility.yul\":9278:9290   */\n      swap1\n      pop\n        /* \"#utility.yul\":9236:9296   */\n      swap2\n      swap1\n      pop\n      jump\t// out\n        /* \"#utility.yul\":9302:9444   */\n    tag_97:\n        /* \"#utility.yul\":9352:9361   */\n      0x00\n        /* \"#utility.yul\":9385:9438   */\n      tag_213\n        /* \"#utility.yul\":9403:9437   */\n      tag_214\n        /* \"#utility.yul\":9412:9436   */\n      tag_215\n        /* \"#utility.yul\":9430:9435   */\n      dup5\n        /* \"#utility.yul\":9412:9436   */\n      tag_77\n      jump\t// in\n    tag_215:\n        /* \"#utility.yul\":9403:9437   */\n      tag_96\n      jump\t// in\n    tag_214:\n        /* \"#utility.yul\":9385:9438   */\n      tag_77\n      jump\t// in\n    tag_213:\n        /* \"#utility.yul\":9372:9438   */\n      swap1\n      pop\n        /* \"#utility.yul\":9302:9444   */\n      swap2\n      swap1\n      pop\n      jump\t// out\n        /* \"#utility.yul\":9450:9525   */\n    tag_98:\n        /* \"#utility.yul\":9493:9496   */\n      0x00\n        /* \"#utility.yul\":9514:9519   */\n      dup2\n        /* \"#utility.yul\":9507:9519   */\n      swap1\n      pop\n        /* \"#utility.yul\":9450:9525   */\n      swap2\n      swap1\n      pop\n      jump\t// out\n        /* \"#utility.yul\":9531:9800   */\n    tag_99:\n        /* \"#utility.yul\":9641:9680   */\n      tag_218\n        /* \"#utility.yul\":9672:9679   */\n      dup4\n        /* \"#utility.yul\":9641:9680   */\n      tag_97\n      jump\t// in\n    tag_218:\n        /* \"#utility.yul\":9702:9793   */\n      tag_219\n        /* \"#utility.yul\":9751:9792   */\n      tag_220\n        /* \"#utility.yul\":9775:9791   */\n      dup3\n        /* \"#utility.yul\":9751:9792   */\n      tag_98\n      jump\t// in\n    tag_220:\n        /* \"#utility.yul\":9743:9749   */\n      dup5\n        /* \"#utility.yul\":9736:9740   */\n      dup5\n        /* \"#utility.yul\":9730:9741   */\n      sload\n        /* \"#utility.yul\":9702:9793   */\n      tag_95\n      jump\t// in\n    tag_219:\n        /* \"#utility.yul\":9696:9700   */\n      dup3\n        /* \"#utility.yul\":9689:9794   */\n      sstore\n        /* \"#utility.yul\":9607:9800   */\n      pop\n        /* \"#utility.yul\":9531:9800   */\n      pop\n      pop\n      pop\n      jump\t// out\n        /* \"#utility.yul\":9806:9879   */\n    tag_100:\n        /* \"#utility.yul\":9851:9854   */\n      0x00\n        /* \"#utility.yul\":9806:9879   */\n      swap1\n      jump\t// out\n        /* \"#utility.yul\":9885:10074   */\n    tag_101:\n        /* \"#utility.yul\":9962:9994   */\n      tag_223\n      tag_100\n      jump\t// in\n    tag_223:\n        /* \"#utility.yul\":10003:10068   */\n      tag_224\n        /* \"#utility.yul\":10061:10067   */\n      dup2\n        /* \"#utility.yul\":10053:10059   */\n      dup5\n        /* \"#utility.yul\":10047:10051   */\n      dup5\n        /* \"#utility.yul\":10003:10068   */\n      tag_99\n      jump\t// in\n    tag_224:\n        /* \"#utility.yul\":9938:10074   */\n      pop\n        /* \"#utility.yul\":9885:10074   */\n      pop\n      pop\n      jump\t// out\n        /* \"#utility.yul\":10080:10266   */\n    tag_102:\n        /* \"#utility.yul\":10140:10260   */\n    tag_226:\n        /* \"#utility.yul\":10157:10160   */\n      dup2\n        /* \"#utility.yul\":10150:10155   */\n      dup2\n        /* \"#utility.yul\":10147:10161   */\n      lt\n        /* \"#utility.yul\":10140:10260   */\n      iszero\n      tag_228\n      jumpi\n        /* \"#utility.yul\":10211:10250   */\n      tag_229\n        /* \"#utility.yul\":10248:10249   */\n      0x00\n        /* \"#utility.yul\":10241:10246   */\n      dup3\n        /* \"#utility.yul\":10211:10250   */\n      tag_101\n      jump\t// in\n    tag_229:\n        /* \"#utility.yul\":10184:10185   */\n      0x01\n        /* \"#utility.yul\":10177:10182   */\n      dup2\n        /* \"#utility.yul\":10173:10186   */\n      add\n        /* \"#utility.yul\":10164:10186   */\n      swap1\n      pop\n        /* \"#utility.yul\":10140:10260   */\n      jump(tag_226)\n    tag_228:\n        /* \"#utility.yul\":10080:10266   */\n      pop\n      pop\n      jump\t// out\n        /* \"#utility.yul\":10272:10815   */\n    tag_103:\n        /* \"#utility.yul\":10373:10375   */\n      0x1f\n        /* \"#utility.yul\":10368:10371   */\n      dup3\n        /* \"#utility.yul\":10365:10376   */\n      gt\n        /* \"#utility.yul\":10362:10808   */\n      iszero\n      tag_231\n      jumpi\n        /* \"#utility.yul\":10407:10445   */\n      tag_232\n        /* \"#utility.yul\":10439:10444   */\n      dup2\n        /* \"#utility.yul\":10407:10445   */\n      tag_92\n      jump\t// in\n    tag_232:\n        /* \"#utility.yul\":10491:10520   */\n      tag_233\n        /* \"#utility.yul\":10509:10519   */\n      dup5\n        /* \"#utility.yul\":10491:10520   */\n      tag_93\n      jump\t// in\n    tag_233:\n        /* \"#utility.yul\":10481:10489   */\n      dup2\n        /* \"#utility.yul\":10477:10521   */\n      add\n        /* \"#utility.yul\":10674:10676   */\n      0x20\n        /* \"#utility.yul\":10662:10672   */\n      dup6\n        /* \"#utility.yul\":10659:10677   */\n      lt\n        /* \"#utility.yul\":10656:10705   */\n      iszero\n      tag_234\n      jumpi\n        /* \"#utility.yul\":10695:10703   */\n      dup2\n        /* \"#utility.yul\":10680:10703   */\n      swap1\n      pop\n        /* \"#utility.yul\":10656:10705   */\n    tag_234:\n        /* \"#utility.yul\":10718:10798   */\n      tag_235\n        /* \"#utility.yul\":10774:10796   */\n      tag_236\n        /* \"#utility.yul\":10792:10795   */\n      dup6\n        /* \"#utility.yul\":10774:10796   */\n      tag_93\n      jump\t// in\n    tag_236:\n        /* \"#utility.yul\":10764:10772   */\n      dup4\n        /* \"#utility.yul\":10760:10797   */\n      add\n        /* \"#utility.yul\":10747:10758   */\n      dup3\n        /* \"#utility.yul\":10718:10798   */\n      tag_102\n      jump\t// in\n    tag_235:\n        /* \"#utility.yul\":10377:10808   */\n      pop\n      pop\n        /* \"#utility.yul\":10362:10808   */\n    tag_231:\n        /* \"#utility.yul\":10272:10815   */\n      pop\n      pop\n      pop\n      jump\t// out\n        /* \"#utility.yul\":10821:10938   */\n    tag_104:\n        /* \"#utility.yul\":10875:10883   */\n      0x00\n        /* \"#utility.yul\":10925:10930   */\n      dup3\n        /* \"#utility.yul\":10919:10923   */\n      dup3\n        /* \"#utility.yul\":10915:10931   */\n      shr\n        /* \"#utility.yul\":10894:10931   */\n      swap1\n      pop\n        /* \"#utility.yul\":10821:10938   */\n      swap3\n      swap2\n      pop\n      pop\n      jump\t// out\n        /* \"#utility.yul\":10944:11113   */\n    tag_105:\n        /* \"#utility.yul\":10988:10994   */\n      0x00\n        /* \"#utility.yul\":11021:11072   */\n      tag_239\n        /* \"#utility.yul\":11069:11070   */\n      0x00\n        /* \"#utility.yul\":11065:11071   */\n      not\n        /* \"#utility.yul\":11057:11062   */\n      dup5\n        /* \"#utility.yul\":11054:11055   */\n      0x08\n        /* \"#utility.yul\":11050:11063   */\n      mul\n        /* \"#utility.yul\":11021:11072   */\n      tag_104\n      jump\t// in\n    tag_239:\n        /* \"#utility.yul\":11017:11073   */\n      not\n        /* \"#utility.yul\":11102:11106   */\n      dup1\n        /* \"#utility.yul\":11096:11100   */\n      dup4\n        /* \"#utility.yul\":11092:11107   */\n      and\n        /* \"#utility.yul\":11082:11107   */\n      swap2\n      pop\n        /* \"#utility.yul\":10995:11113   */\n      pop\n        /* \"#utility.yul\":10944:11113   */\n      swap3\n      swap2\n      pop\n      pop\n      jump\t// out\n        /* \"#utility.yul\":11118:11413   */\n    tag_106:\n        /* \"#utility.yul\":11194:11198   */\n      0x00\n        /* \"#utility.yul\":11340:11369   */\n      tag_241\n        /* \"#utility.yul\":11365:11368   */\n      dup4\n        /* \"#utility.yul\":11359:11363   */\n      dup4\n        /* \"#utility.yul\":11340:11369   */\n      tag_105\n      jump\t// in\n    tag_241:\n        /* \"#utility.yul\":11332:11369   */\n      swap2\n      pop\n        /* \"#utility.yul\":11402:11405   */\n      dup3\n        /* \"#utility.yul\":11399:11400   */\n      0x02\n        /* \"#utility.yul\":11395:11406   */\n      mul\n        /* \"#utility.yul\":11389:11393   */\n      dup3\n        /* \"#utility.yul\":11386:11407   */\n      or\n        /* \"#utility.yul\":11378:11407   */\n      swap1\n      pop\n        /* \"#utility.yul\":11118:11413   */\n      swap3\n      swap2\n      pop\n      pop\n      jump\t// out\n        /* \"#utility.yul\":11418:12813   */\n    tag_36:\n        /* \"#utility.yul\":11535:11572   */\n      tag_243\n        /* \"#utility.yul\":11568:11571   */\n      dup3\n        /* \"#utility.yul\":11535:11572   */\n      tag_80\n      jump\t// in\n    tag_243:\n        /* \"#utility.yul\":11637:11655   */\n      0xffffffffffffffff\n        /* \"#utility.yul\":11629:11635   */\n      dup2\n        /* \"#utility.yul\":11626:11656   */\n      gt\n        /* \"#utility.yul\":11623:11679   */\n      iszero\n      tag_244\n      jumpi\n        /* \"#utility.yul\":11659:11677   */\n      tag_245\n      tag_70\n      jump\t// in\n    tag_245:\n        /* \"#utility.yul\":11623:11679   */\n    tag_244:\n        /* \"#utility.yul\":11703:11741   */\n      tag_246\n        /* \"#utility.yul\":11735:11739   */\n      dup3\n        /* \"#utility.yul\":11729:11740   */\n      sload\n        /* \"#utility.yul\":11703:11741   */\n      tag_46\n      jump\t// in\n    tag_246:\n        /* \"#utility.yul\":11788:11855   */\n      tag_247\n        /* \"#utility.yul\":11848:11854   */\n      dup3\n        /* \"#utility.yul\":11840:11846   */\n      dup3\n        /* \"#utility.yul\":11834:11838   */\n      dup6\n        /* \"#utility.yul\":11788:11855   */\n      tag_103\n      jump\t// in\n    tag_247:\n        /* \"#utility.yul\":11882:11883   */\n      0x00\n        /* \"#utility.yul\":11906:11910   */\n      0x20\n        /* \"#utility.yul\":11893:11910   */\n      swap1\n      pop\n        /* \"#utility.yul\":11938:11940   */\n      0x1f\n        /* \"#utility.yul\":11930:11936   */\n      dup4\n        /* \"#utility.yul\":11927:11941   */\n      gt\n        /* \"#utility.yul\":11955:11956   */\n      0x01\n        /* \"#utility.yul\":11950:12568   */\n      dup2\n      eq\n      tag_249\n      jumpi\n        /* \"#utility.yul\":12612:12613   */\n      0x00\n        /* \"#utility.yul\":12629:12635   */\n      dup5\n        /* \"#utility.yul\":12626:12703   */\n      iszero\n      tag_250\n      jumpi\n        /* \"#utility.yul\":12678:12687   */\n      dup3\n        /* \"#utility.yul\":12673:12676   */\n      dup8\n        /* \"#utility.yul\":12669:12688   */\n      add\n        /* \"#utility.yul\":12663:12689   */\n      mload\n        /* \"#utility.yul\":12654:12689   */\n      swap1\n      pop\n        /* \"#utility.yul\":12626:12703   */\n    tag_250:\n        /* \"#utility.yul\":12729:12796   */\n      tag_251\n        /* \"#utility.yul\":12789:12795   */\n      dup6\n        /* \"#utility.yul\":12782:12787   */\n      dup3\n        /* \"#utility.yul\":12729:12796   */\n      tag_106\n      jump\t// in\n    tag_251:\n        /* \"#utility.yul\":12723:12727   */\n      dup7\n        /* \"#utility.yul\":12716:12797   */\n      sstore\n        /* \"#utility.yul\":12585:12807   */\n      pop\n        /* \"#utility.yul\":11920:12807   */\n      jump(tag_248)\n        /* \"#utility.yul\":11950:12568   */\n    tag_249:\n        /* \"#utility.yul\":12002:12006   */\n      0x1f\n        /* \"#utility.yul\":11998:12007   */\n      not\n        /* \"#utility.yul\":11990:11996   */\n      dup5\n        /* \"#utility.yul\":11986:12008   */\n      and\n        /* \"#utility.yul\":12036:12073   */\n      tag_252\n        /* \"#utility.yul\":12068:12072   */\n      dup7\n        /* \"#utility.yul\":12036:12073   */\n      tag_92\n      jump\t// in\n    tag_252:\n        /* \"#utility.yul\":12095:12096   */\n      0x00\n        /* \"#utility.yul\":12109:12317   */\n    tag_253:\n        /* \"#utility.yul\":12123:12130   */\n      dup3\n        /* \"#utility.yul\":12120:12121   */\n      dup2\n        /* \"#utility.yul\":12117:12131   */\n      lt\n        /* \"#utility.yul\":12109:12317   */\n      iszero\n      tag_255\n      jumpi\n        /* \"#utility.yul\":12202:12211   */\n      dup5\n        /* \"#utility.yul\":12197:12200   */\n      dup10\n        /* \"#utility.yul\":12193:12212   */\n      add\n        /* \"#utility.yul\":12187:12213   */\n      mload\n        /* \"#utility.yul\":12179:12185   */\n      dup3\n        /* \"#utility.yul\":12172:12214   */\n      sstore\n        /* \"#utility.yul\":12253:12254   */\n      0x01\n        /* \"#utility.yul\":12245:12251   */\n      dup3\n        /* \"#utility.yul\":12241:12255   */\n      add\n        /* \"#utility.yul\":12231:12255   */\n      swap2\n      pop\n        /* \"#utility.yul\":12300:12302   */\n      0x20\n        /* \"#utility.yul\":12289:12298   */\n      dup6\n        /* \"#utility.yul\":12285:12303   */\n      add\n        /* \"#utility.yul\":12272:12303   */\n      swap5\n      pop\n        /* \"#utility.yul\":12146:12150   */\n      0x20\n        /* \"#utility.yul\":12143:12144   */\n      dup2\n        /* \"#utility.yul\":12139:12151   */\n      add\n        /* \"#utility.yul\":12134:12151   */\n      swap1\n      pop\n        /* \"#utility.yul\":12109:12317   */\n      jump(tag_253)\n    tag_255:\n        /* \"#utility.yul\":12345:12351   */\n      dup7\n        /* \"#utility.yul\":12336:12343   */\n      dup4\n        /* \"#utility.yul\":12333:12352   */\n      lt\n        /* \"#utility.yul\":12330:12509   */\n      iszero\n      tag_256\n      jumpi\n        /* \"#utility.yul\":12403:12412   */\n      dup5\n        /* \"#utility.yul\":12398:12401   */\n      dup10\n        /* \"#utility.yul\":12394:12413   */\n      add\n        /* \"#utility.yul\":12388:12414   */\n      mload\n        /* \"#utility.yul\":12446:12494   */\n      tag_257\n        /* \"#utility.yul\":12488:12492   */\n      0x1f\n        /* \"#utility.yul\":12480:12486   */\n      dup10\n        /* \"#utility.yul\":12476:12493   */\n      and\n        /* \"#utility.yul\":12465:12474   */\n      dup3\n        /* \"#utility.yul\":12446:12494   */\n      tag_105\n      jump\t// in\n    tag_257:\n        /* \"#utility.yul\":12438:12444   */\n      dup4\n        /* \"#utility.yul\":12431:12495   */\n      sstore\n        /* \"#utility.yul\":12353:12509   */\n      pop\n        /* \"#utility.yul\":12330:12509   */\n    tag_256:\n        /* \"#utility.yul\":12555:12556   */\n      0x01\n        /* \"#utility.yul\":12551:12552   */\n      0x02\n        /* \"#utility.yul\":12543:12549   */\n      dup9\n        /* \"#utility.yul\":12539:12553   */\n      mul\n        /* \"#utility.yul\":12535:12557   */\n      add\n        /* \"#utility.yul\":12529:12533   */\n      dup9\n        /* \"#utility.yul\":12522:12558   */\n      sstore\n        /* \"#utility.yul\":11957:12568   */\n      pop\n      pop\n      pop\n        /* \"#utility.yul\":11920:12807   */\n    tag_248:\n      pop\n        /* \"#utility.yul\":11510:12813   */\n      pop\n      pop\n      pop\n        /* \"#utility.yul\":11418:12813   */\n      pop\n      pop\n      jump\t// out\n\n    auxdata: 0xa264697066735822122063a3f9d583f2b184c21bb008f204ed254fbb1c5e31b9a992699aae8400e5fc3864736f6c634300081a0033\n}\n",
				"bytecode": {
					"linkReferences": {},
					"object": "6080604052348015600e575f80fd5b50610b058061001c5f395ff3fe608060405234801561000f575f80fd5b5060043610610055575f3560e01c80630ae110071461005957806339ffb305146100755780639507d39a14610091578063bc8bc2b4146100c2578063cc10e401146100f3575b5f80fd5b610073600480360381019061006e919061056a565b61010f565b005b61008f600480360381019061008a91906105c4565b61014a565b005b6100ab60048036038101906100a69190610622565b61019f565b6040516100b99291906106c7565b60405180910390f35b6100dc60048036038101906100d79190610622565b61026c565b6040516100ea9291906106c7565b60405180910390f35b61010d6004803603810190610108919061077c565b61032c565b005b5f808360ff1681548110610126576101256107d9565b5b905f5260205f209060020201905081815f0190816101449190610a00565b50505050565b5f808260ff1681548110610161576101606107d9565b5b905f5260205f2090600202019050806001015f9054906101000a900460ff1615816001015f6101000a81548160ff0219169083151502179055505050565b60605f805f84815481106101b6576101b56107d9565b5b905f5260205f2090600202019050805f01816001015f9054906101000a900460ff168180546101e490610833565b80601f016020809104026020016040519081016040528092919081815260200182805461021090610833565b801561025b5780601f106102325761010080835404028352916020019161025b565b820191905f5260205f20905b81548152906001019060200180831161023e57829003601f168201915b505050505091509250925050915091565b5f818154811061027a575f80fd5b905f5260205f2090600202015f91509050805f01805461029990610833565b80601f01602080910402602001604051908101604052809291908181526020018280546102c590610833565b80156103105780601f106102e757610100808354040283529160200191610310565b820191905f5260205f20905b8154815290600101906020018083116102f357829003601f168201915b505050505090806001015f9054906101000a900460ff16905082565b5f604051806040016040528085858080601f0160208091040260200160405190810160405280939291908181526020018383808284375f81840152601f19601f820116905080830192505050505050508152602001831515815250908060018154018082558091505060019003905f5260205f2090600202015f909190919091505f820151815f0190816103c09190610a00565b506020820151816001015f6101000a81548160ff0219169083151502179055505050505050565b5f604051905090565b5f80fd5b5f80fd5b5f60ff82169050919050565b61040d816103f8565b8114610417575f80fd5b50565b5f8135905061042881610404565b92915050565b5f80fd5b5f80fd5b5f601f19601f8301169050919050565b7f4e487b71000000000000000000000000000000000000000000000000000000005f52604160045260245ffd5b61047c82610436565b810181811067ffffffffffffffff8211171561049b5761049a610446565b5b80604052505050565b5f6104ad6103e7565b90506104b98282610473565b919050565b5f67ffffffffffffffff8211156104d8576104d7610446565b5b6104e182610436565b9050602081019050919050565b828183375f83830152505050565b5f61050e610509846104be565b6104a4565b90508281526020810184848401111561052a57610529610432565b5b6105358482856104ee565b509392505050565b5f82601f8301126105515761055061042e565b5b81356105618482602086016104fc565b91505092915050565b5f80604083850312156105805761057f6103f0565b5b5f61058d8582860161041a565b925050602083013567ffffffffffffffff8111156105ae576105ad6103f4565b5b6105ba8582860161053d565b9150509250929050565b5f602082840312156105d9576105d86103f0565b5b5f6105e68482850161041a565b91505092915050565b5f819050919050565b610601816105ef565b811461060b575f80fd5b50565b5f8135905061061c816105f8565b92915050565b5f60208284031215610637576106366103f0565b5b5f6106448482850161060e565b91505092915050565b5f81519050919050565b5f82825260208201905092915050565b8281835e5f83830152505050565b5f61067f8261064d565b6106898185610657565b9350610699818560208601610667565b6106a281610436565b840191505092915050565b5f8115159050919050565b6106c1816106ad565b82525050565b5f6040820190508181035f8301526106df8185610675565b90506106ee60208301846106b8565b9392505050565b5f80fd5b5f80fd5b5f8083601f8401126107125761071161042e565b5b8235905067ffffffffffffffff81111561072f5761072e6106f5565b5b60208301915083600182028301111561074b5761074a6106f9565b5b9250929050565b61075b816106ad565b8114610765575f80fd5b50565b5f8135905061077681610752565b92915050565b5f805f60408486031215610793576107926103f0565b5b5f84013567ffffffffffffffff8111156107b0576107af6103f4565b5b6107bc868287016106fd565b935093505060206107cf86828701610768565b9150509250925092565b7f4e487b71000000000000000000000000000000000000000000000000000000005f52603260045260245ffd5b7f4e487b71000000000000000000000000000000000000000000000000000000005f52602260045260245ffd5b5f600282049050600182168061084a57607f821691505b60208210810361085d5761085c610806565b5b50919050565b5f819050815f5260205f209050919050565b5f6020601f8301049050919050565b5f82821b905092915050565b5f600883026108bf7fffffffffffffffffffffffffffffffffffffffffffffffffffffffffffffffff82610884565b6108c98683610884565b95508019841693508086168417925050509392505050565b5f819050919050565b5f6109046108ff6108fa846105ef565b6108e1565b6105ef565b9050919050565b5f819050919050565b61091d836108ea565b6109316109298261090b565b848454610890565b825550505050565b5f90565b610945610939565b610950818484610914565b505050565b5b81811015610973576109685f8261093d565b600181019050610956565b5050565b601f8211156109b85761098981610863565b61099284610875565b810160208510156109a1578190505b6109b56109ad85610875565b830182610955565b50505b505050565b5f82821c905092915050565b5f6109d85f19846008026109bd565b1980831691505092915050565b5f6109f083836109c9565b9150826002028217905092915050565b610a098261064d565b67ffffffffffffffff811115610a2257610a21610446565b5b610a2c8254610833565b610a37828285610977565b5f60209050601f831160018114610a68575f8415610a56578287015190505b610a6085826109e5565b865550610ac7565b601f198416610a7686610863565b5f5b82811015610a9d57848901518255600182019150602085019450602081019050610a78565b86831015610aba5784890151610ab6601f8916826109c9565b8355505b6001600288020188555050505b50505050505056fea264697066735822122063a3f9d583f2b184c21bb008f204ed254fbb1c5e31b9a992699aae8400e5fc3864736f6c634300081a0033",
					"opcodes": "PUSH1 0x80 PUSH1 0x40 MSTORE CALLVALUE DUP1 ISZERO PUSH1 0xE JUMPI PUSH0 DUP1 REVERT JUMPDEST POP PUSH2 0xB05 DUP1 PUSH2 0x1C PUSH0 CODECOPY PUSH0 RETURN INVALID PUSH1 0x80 PUSH1 0x40 MSTORE CALLVALUE DUP1 ISZERO PUSH2 0xF JUMPI PUSH0 DUP1 REVERT JUMPDEST POP PUSH1 0x4 CALLDATASIZE LT PUSH2 0x55 JUMPI PUSH0 CALLDATALOAD PUSH1 0xE0 SHR DUP1 PUSH4 0xAE11007 EQ PUSH2 0x59 JUMPI DUP1 PUSH4 0x39FFB305 EQ PUSH2 0x75 JUMPI DUP1 PUSH4 0x9507D39A EQ PUSH2 0x91 JUMPI DUP1 PUSH4 0xBC8BC2B4 EQ PUSH2 0xC2 JUMPI DUP1 PUSH4 0xCC10E401 EQ PUSH2 0xF3 JUMPI JUMPDEST PUSH0 DUP1 REVERT JUMPDEST PUSH2 0x73 PUSH1 0x4 DUP1 CALLDATASIZE SUB DUP2 ADD SWAP1 PUSH2 0x6E SWAP2 SWAP1 PUSH2 0x56A JUMP JUMPDEST PUSH2 0x10F JUMP JUMPDEST STOP JUMPDEST PUSH2 0x8F PUSH1 0x4 DUP1 CALLDATASIZE SUB DUP2 ADD SWAP1 PUSH2 0x8A SWAP2 SWAP1 PUSH2 0x5C4 JUMP JUMPDEST PUSH2 0x14A JUMP JUMPDEST STOP JUMPDEST PUSH2 0xAB PUSH1 0x4 DUP1 CALLDATASIZE SUB DUP2 ADD SWAP1 PUSH2 0xA6 SWAP2 SWAP1 PUSH2 0x622 JUMP JUMPDEST PUSH2 0x19F JUMP JUMPDEST PUSH1 0x40 MLOAD PUSH2 0xB9 SWAP3 SWAP2 SWAP1 PUSH2 0x6C7 JUMP JUMPDEST PUSH1 0x40 MLOAD DUP1 SWAP2 SUB SWAP1 RETURN JUMPDEST PUSH2 0xDC PUSH1 0x4 DUP1 CALLDATASIZE SUB DUP2 ADD SWAP1 PUSH2 0xD7 SWAP2 SWAP1 PUSH2 0x622 JUMP JUMPDEST PUSH2 0x26C JUMP JUMPDEST PUSH1 0x40 MLOAD PUSH2 0xEA SWAP3 SWAP2 SWAP1 PUSH2 0x6C7 JUMP JUMPDEST PUSH1 0x40 MLOAD DUP1 SWAP2 SUB SWAP1 RETURN JUMPDEST PUSH2 0x10D PUSH1 0x4 DUP1 CALLDATASIZE SUB DUP2 ADD SWAP1 PUSH2 0x108 SWAP2 SWAP1 PUSH2 0x77C JUMP JUMPDEST PUSH2 0x32C JUMP JUMPDEST STOP JUMPDEST PUSH0 DUP1 DUP4 PUSH1 0xFF AND DUP2 SLOAD DUP2 LT PUSH2 0x126 JUMPI PUSH2 0x125 PUSH2 0x7D9 JUMP JUMPDEST JUMPDEST SWAP1 PUSH0 MSTORE PUSH1 0x20 PUSH0 KECCAK256 SWAP1 PUSH1 0x2 MUL ADD SWAP1 POP DUP2 DUP2 PUSH0 ADD SWAP1 DUP2 PUSH2 0x144 SWAP2 SWAP1 PUSH2 0xA00 JUMP JUMPDEST POP POP POP POP JUMP JUMPDEST PUSH0 DUP1 DUP3 PUSH1 0xFF AND DUP2 SLOAD DUP2 LT PUSH2 0x161 JUMPI PUSH2 0x160 PUSH2 0x7D9 JUMP JUMPDEST JUMPDEST SWAP1 PUSH0 MSTORE PUSH1 0x20 PUSH0 KECCAK256 SWAP1 PUSH1 0x2 MUL ADD SWAP1 POP DUP1 PUSH1 0x1 ADD PUSH0 SWAP1 SLOAD SWAP1 PUSH2 0x100 EXP SWAP1 DIV PUSH1 0xFF AND ISZERO DUP2 PUSH1 0x1 ADD PUSH0 PUSH2 0x100 EXP DUP2 SLOAD DUP2 PUSH1 0xFF MUL NOT AND SWAP1 DUP4 ISZERO ISZERO MUL OR SWAP1 SSTORE POP POP POP JUMP JUMPDEST PUSH1 0x60 PUSH0 DUP1 PUSH0 DUP5 DUP2 SLOAD DUP2 LT PUSH2 0x1B6 JUMPI PUSH2 0x1B5 PUSH2 0x7D9 JUMP JUMPDEST JUMPDEST SWAP1 PUSH0 MSTORE PUSH1 0x20 PUSH0 KECCAK256 SWAP1 PUSH1 0x2 MUL ADD SWAP1 POP DUP1 PUSH0 ADD DUP2 PUSH1 0x1 ADD PUSH0 SWAP1 SLOAD SWAP1 PUSH2 0x100 EXP SWAP1 DIV PUSH1 0xFF AND DUP2 DUP1 SLOAD PUSH2 0x1E4 SWAP1 PUSH2 0x833 JUMP JUMPDEST DUP1 PUSH1 0x1F ADD PUSH1 0x20 DUP1 SWAP2 DIV MUL PUSH1 0x20 ADD PUSH1 0x40 MLOAD SWAP1 DUP2 ADD PUSH1 0x40 MSTORE DUP1 SWAP3 SWAP2 SWAP1 DUP2 DUP2 MSTORE PUSH1 0x20 ADD DUP3 DUP1 SLOAD PUSH2 0x210 SWAP1 PUSH2 0x833 JUMP JUMPDEST DUP1 ISZERO PUSH2 0x25B JUMPI DUP1 PUSH1 0x1F LT PUSH2 0x232 JUMPI PUSH2 0x100 DUP1 DUP4 SLOAD DIV MUL DUP4 MSTORE SWAP2 PUSH1 0x20 ADD SWAP2 PUSH2 0x25B JUMP JUMPDEST DUP3 ADD SWAP2 SWAP1 PUSH0 MSTORE PUSH1 0x20 PUSH0 KECCAK256 SWAP1 JUMPDEST DUP2 SLOAD DUP2 MSTORE SWAP1 PUSH1 0x1 ADD SWAP1 PUSH1 0x20 ADD DUP1 DUP4 GT PUSH2 0x23E JUMPI DUP3 SWAP1 SUB PUSH1 0x1F AND DUP3 ADD SWAP2 JUMPDEST POP POP POP POP POP SWAP2 POP SWAP3 POP SWAP3 POP POP SWAP2 POP SWAP2 JUMP JUMPDEST PUSH0 DUP2 DUP2 SLOAD DUP2 LT PUSH2 0x27A JUMPI PUSH0 DUP1 REVERT JUMPDEST SWAP1 PUSH0 MSTORE PUSH1 0x20 PUSH0 KECCAK256 SWAP1 PUSH1 0x2 MUL ADD PUSH0 SWAP2 POP SWAP1 POP DUP1 PUSH0 ADD DUP1 SLOAD PUSH2 0x299 SWAP1 PUSH2 0x833 JUMP JUMPDEST DUP1 PUSH1 0x1F ADD PUSH1 0x20 DUP1 SWAP2 DIV MUL PUSH1 0x20 ADD PUSH1 0x40 MLOAD SWAP1 DUP2 ADD PUSH1 0x40 MSTORE DUP1 SWAP3 SWAP2 SWAP1 DUP2 DUP2 MSTORE PUSH1 0x20 ADD DUP3 DUP1 SLOAD PUSH2 0x2C5 SWAP1 PUSH2 0x833 JUMP JUMPDEST DUP1 ISZERO PUSH2 0x310 JUMPI DUP1 PUSH1 0x1F LT PUSH2 0x2E7 JUMPI PUSH2 0x100 DUP1 DUP4 SLOAD DIV MUL DUP4 MSTORE SWAP2 PUSH1 0x20 ADD SWAP2 PUSH2 0x310 JUMP JUMPDEST DUP3 ADD SWAP2 SWAP1 PUSH0 MSTORE PUSH1 0x20 PUSH0 KECCAK256 SWAP1 JUMPDEST DUP2 SLOAD DUP2 MSTORE SWAP1 PUSH1 0x1 ADD SWAP1 PUSH1 0x20 ADD DUP1 DUP4 GT PUSH2 0x2F3 JUMPI DUP3 SWAP1 SUB PUSH1 0x1F AND DUP3 ADD SWAP2 JUMPDEST POP POP POP POP POP SWAP1 DUP1 PUSH1 0x1 ADD PUSH0 SWAP1 SLOAD SWAP1 PUSH2 0x100 EXP SWAP1 DIV PUSH1 0xFF AND SWAP1 POP DUP3 JUMP JUMPDEST PUSH0 PUSH1 0x40 MLOAD DUP1 PUSH1 0x40 ADD PUSH1 0x40 MSTORE DUP1 DUP6 DUP6 DUP1 DUP1 PUSH1 0x1F ADD PUSH1 0x20 DUP1 SWAP2 DIV MUL PUSH1 0x20 ADD PUSH1 0x40 MLOAD SWAP1 DUP2 ADD PUSH1 0x40 MSTORE DUP1 SWAP4 SWAP3 SWAP2 SWAP1 DUP2 DUP2 MSTORE PUSH1 0x20 ADD DUP4 DUP4 DUP1 DUP3 DUP5 CALLDATACOPY PUSH0 DUP2 DUP5 ADD MSTORE PUSH1 0x1F NOT PUSH1 0x1F DUP3 ADD AND SWAP1 POP DUP1 DUP4 ADD SWAP3 POP POP POP POP POP POP POP DUP2 MSTORE PUSH1 0x20 ADD DUP4 ISZERO ISZERO DUP2 MSTORE POP SWAP1 DUP1 PUSH1 0x1 DUP2 SLOAD ADD DUP1 DUP3 SSTORE DUP1 SWAP2 POP POP PUSH1 0x1 SWAP1 SUB SWAP1 PUSH0 MSTORE PUSH1 0x20 PUSH0 KECCAK256 SWAP1 PUSH1 0x2 MUL ADD PUSH0 SWAP1 SWAP2 SWAP1 SWAP2 SWAP1 SWAP2 POP PUSH0 DUP3 ADD MLOAD DUP2 PUSH0 ADD SWAP1 DUP2 PUSH2 0x3C0 SWAP2 SWAP1 PUSH2 0xA00 JUMP JUMPDEST POP PUSH1 0x20 DUP3 ADD MLOAD DUP2 PUSH1 0x1 ADD PUSH0 PUSH2 0x100 EXP DUP2 SLOAD DUP2 PUSH1 0xFF MUL NOT AND SWAP1 DUP4 ISZERO ISZERO MUL OR SWAP1 SSTORE POP POP POP POP POP POP JUMP JUMPDEST PUSH0 PUSH1 0x40 MLOAD SWAP1 POP SWAP1 JUMP JUMPDEST PUSH0 DUP1 REVERT JUMPDEST PUSH0 DUP1 REVERT JUMPDEST PUSH0 PUSH1 0xFF DUP3 AND SWAP1 POP SWAP2 SWAP1 POP JUMP JUMPDEST PUSH2 0x40D DUP2 PUSH2 0x3F8 JUMP JUMPDEST DUP2 EQ PUSH2 0x417 JUMPI PUSH0 DUP1 REVERT JUMPDEST POP JUMP JUMPDEST PUSH0 DUP2 CALLDATALOAD SWAP1 POP PUSH2 0x428 DUP2 PUSH2 0x404 JUMP JUMPDEST SWAP3 SWAP2 POP POP JUMP JUMPDEST PUSH0 DUP1 REVERT JUMPDEST PUSH0 DUP1 REVERT JUMPDEST PUSH0 PUSH1 0x1F NOT PUSH1 0x1F DUP4 ADD AND SWAP1 POP SWAP2 SWAP1 POP JUMP JUMPDEST PUSH32 0x4E487B7100000000000000000000000000000000000000000000000000000000 PUSH0 MSTORE PUSH1 0x41 PUSH1 0x4 MSTORE PUSH1 0x24 PUSH0 REVERT JUMPDEST PUSH2 0x47C DUP3 PUSH2 0x436 JUMP JUMPDEST DUP2 ADD DUP2 DUP2 LT PUSH8 0xFFFFFFFFFFFFFFFF DUP3 GT OR ISZERO PUSH2 0x49B JUMPI PUSH2 0x49A PUSH2 0x446 JUMP JUMPDEST JUMPDEST DUP1 PUSH1 0x40 MSTORE POP POP POP JUMP JUMPDEST PUSH0 PUSH2 0x4AD PUSH2 0x3E7 JUMP JUMPDEST SWAP1 POP PUSH2 0x4B9 DUP3 DUP3 PUSH2 0x473 JUMP JUMPDEST SWAP2 SWAP1 POP JUMP JUMPDEST PUSH0 PUSH8 0xFFFFFFFFFFFFFFFF DUP3 GT ISZERO PUSH2 0x4D8 JUMPI PUSH2 0x4D7 PUSH2 0x446 JUMP JUMPDEST JUMPDEST PUSH2 0x4E1 DUP3 PUSH2 0x436 JUMP JUMPDEST SWAP1 POP PUSH1 0x20 DUP2 ADD SWAP1 POP SWAP2 SWAP1 POP JUMP JUMPDEST DUP3 DUP2 DUP4 CALLDATACOPY PUSH0 DUP4 DUP4 ADD MSTORE POP POP POP JUMP JUMPDEST PUSH0 PUSH2 0x50E PUSH2 0x509 DUP5 PUSH2 0x4BE JUMP JUMPDEST PUSH2 0x4A4 JUMP JUMPDEST SWAP1 POP DUP3 DUP2 MSTORE PUSH1 0x20 DUP2 ADD DUP5 DUP5 DUP5 ADD GT ISZERO PUSH2 0x52A JUMPI PUSH2 0x529 PUSH2 0x432 JUMP JUMPDEST JUMPDEST PUSH2 0x535 DUP5 DUP3 DUP6 PUSH2 0x4EE JUMP JUMPDEST POP SWAP4 SWAP3 POP POP POP JUMP JUMPDEST PUSH0 DUP3 PUSH1 0x1F DUP4 ADD SLT PUSH2 0x551 JUMPI PUSH2 0x550 PUSH2 0x42E JUMP JUMPDEST JUMPDEST DUP2 CALLDATALOAD PUSH2 0x561 DUP5 DUP3 PUSH1 0x20 DUP7 ADD PUSH2 0x4FC JUMP JUMPDEST SWAP2 POP POP SWAP3 SWAP2 POP POP JUMP JUMPDEST PUSH0 DUP1 PUSH1 0x40 DUP4 DUP6 SUB SLT ISZERO PUSH2 0x580 JUMPI PUSH2 0x57F PUSH2 0x3F0 JUMP JUMPDEST JUMPDEST PUSH0 PUSH2 0x58D DUP6 DUP3 DUP7 ADD PUSH2 0x41A JUMP JUMPDEST SWAP3 POP POP PUSH1 0x20 DUP4 ADD CALLDATALOAD PUSH8 0xFFFFFFFFFFFFFFFF DUP2 GT ISZERO PUSH2 0x5AE JUMPI PUSH2 0x5AD PUSH2 0x3F4 JUMP JUMPDEST JUMPDEST PUSH2 0x5BA DUP6 DUP3 DUP7 ADD PUSH2 0x53D JUMP JUMPDEST SWAP2 POP POP SWAP3 POP SWAP3 SWAP1 POP JUMP JUMPDEST PUSH0 PUSH1 0x20 DUP3 DUP5 SUB SLT ISZERO PUSH2 0x5D9 JUMPI PUSH2 0x5D8 PUSH2 0x3F0 JUMP JUMPDEST JUMPDEST PUSH0 PUSH2 0x5E6 DUP5 DUP3 DUP6 ADD PUSH2 0x41A JUMP JUMPDEST SWAP2 POP POP SWAP3 SWAP2 POP POP JUMP JUMPDEST PUSH0 DUP2 SWAP1 POP SWAP2 SWAP1 POP JUMP JUMPDEST PUSH2 0x601 DUP2 PUSH2 0x5EF JUMP JUMPDEST DUP2 EQ PUSH2 0x60B JUMPI PUSH0 DUP1 REVERT JUMPDEST POP JUMP JUMPDEST PUSH0 DUP2 CALLDATALOAD SWAP1 POP PUSH2 0x61C DUP2 PUSH2 0x5F8 JUMP JUMPDEST SWAP3 SWAP2 POP POP JUMP JUMPDEST PUSH0 PUSH1 0x20 DUP3 DUP5 SUB SLT ISZERO PUSH2 0x637 JUMPI PUSH2 0x636 PUSH2 0x3F0 JUMP JUMPDEST JUMPDEST PUSH0 PUSH2 0x644 DUP5 DUP3 DUP6 ADD PUSH2 0x60E JUMP JUMPDEST SWAP2 POP POP SWAP3 SWAP2 POP POP JUMP JUMPDEST PUSH0 DUP2 MLOAD SWAP1 POP SWAP2 SWAP1 POP JUMP JUMPDEST PUSH0 DUP3 DUP3 MSTORE PUSH1 0x20 DUP3 ADD SWAP1 POP SWAP3 SWAP2 POP POP JUMP JUMPDEST DUP3 DUP2 DUP4 MCOPY PUSH0 DUP4 DUP4 ADD MSTORE POP POP POP JUMP JUMPDEST PUSH0 PUSH2 0x67F DUP3 PUSH2 0x64D JUMP JUMPDEST PUSH2 0x689 DUP2 DUP6 PUSH2 0x657 JUMP JUMPDEST SWAP4 POP PUSH2 0x699 DUP2 DUP6 PUSH1 0x20 DUP7 ADD PUSH2 0x667 JUMP JUMPDEST PUSH2 0x6A2 DUP2 PUSH2 0x436 JUMP JUMPDEST DUP5 ADD SWAP2 POP POP SWAP3 SWAP2 POP POP JUMP JUMPDEST PUSH0 DUP2 ISZERO ISZERO SWAP1 POP SWAP2 SWAP1 POP JUMP JUMPDEST PUSH2 0x6C1 DUP2 PUSH2 0x6AD JUMP JUMPDEST DUP3 MSTORE POP POP JUMP JUMPDEST PUSH0 PUSH1 0x40 DUP3 ADD SWAP1 POP DUP2 DUP2 SUB PUSH0 DUP4 ADD MSTORE PUSH2 0x6DF DUP2 DUP6 PUSH2 0x675 JUMP JUMPDEST SWAP1 POP PUSH2 0x6EE PUSH1 0x20 DUP4 ADD DUP5 PUSH2 0x6B8 JUMP JUMPDEST SWAP4 SWAP3 POP POP POP JUMP JUMPDEST PUSH0 DUP1 REVERT JUMPDEST PUSH0 DUP1 REVERT JUMPDEST PUSH0 DUP1 DUP4 PUSH1 0x1F DUP5 ADD SLT PUSH2 0x712 JUMPI PUSH2 0x711 PUSH2 0x42E JUMP JUMPDEST JUMPDEST DUP3 CALLDATALOAD SWAP1 POP PUSH8 0xFFFFFFFFFFFFFFFF DUP2 GT ISZERO PUSH2 0x72F JUMPI PUSH2 0x72E PUSH2 0x6F5 JUMP JUMPDEST JUMPDEST PUSH1 0x20 DUP4 ADD SWAP2 POP DUP4 PUSH1 0x1 DUP3 MUL DUP4 ADD GT ISZERO PUSH2 0x74B JUMPI PUSH2 0x74A PUSH2 0x6F9 JUMP JUMPDEST JUMPDEST SWAP3 POP SWAP3 SWAP1 POP JUMP JUMPDEST PUSH2 0x75B DUP2 PUSH2 0x6AD JUMP JUMPDEST DUP2 EQ PUSH2 0x765 JUMPI PUSH0 DUP1 REVERT JUMPDEST POP JUMP JUMPDEST PUSH0 DUP2 CALLDATALOAD SWAP1 POP PUSH2 0x776 DUP2 PUSH2 0x752 JUMP JUMPDEST SWAP3 SWAP2 POP POP JUMP JUMPDEST PUSH0 DUP1 PUSH0 PUSH1 0x40 DUP5 DUP7 SUB SLT ISZERO PUSH2 0x793 JUMPI PUSH2 0x792 PUSH2 0x3F0 JUMP JUMPDEST JUMPDEST PUSH0 DUP5 ADD CALLDATALOAD PUSH8 0xFFFFFFFFFFFFFFFF DUP2 GT ISZERO PUSH2 0x7B0 JUMPI PUSH2 0x7AF PUSH2 0x3F4 JUMP JUMPDEST JUMPDEST PUSH2 0x7BC DUP7 DUP3 DUP8 ADD PUSH2 0x6FD JUMP JUMPDEST SWAP4 POP SWAP4 POP POP PUSH1 0x20 PUSH2 0x7CF DUP7 DUP3 DUP8 ADD PUSH2 0x768 JUMP JUMPDEST SWAP2 POP POP SWAP3 POP SWAP3 POP SWAP3 JUMP JUMPDEST PUSH32 0x4E487B7100000000000000000000000000000000000000000000000000000000 PUSH0 MSTORE PUSH1 0x32 PUSH1 0x4 MSTORE PUSH1 0x24 PUSH0 REVERT JUMPDEST PUSH32 0x4E487B7100000000000000000000000000000000000000000000000000000000 PUSH0 MSTORE PUSH1 0x22 PUSH1 0x4 MSTORE PUSH1 0x24 PUSH0 REVERT JUMPDEST PUSH0 PUSH1 0x2 DUP3 DIV SWAP1 POP PUSH1 0x1 DUP3 AND DUP1 PUSH2 0x84A JUMPI PUSH1 0x7F DUP3 AND SWAP2 POP JUMPDEST PUSH1 0x20 DUP3 LT DUP2 SUB PUSH2 0x85D JUMPI PUSH2 0x85C PUSH2 0x806 JUMP JUMPDEST JUMPDEST POP SWAP2 SWAP1 POP JUMP JUMPDEST PUSH0 DUP2 SWAP1 POP DUP2 PUSH0 MSTORE PUSH1 0x20 PUSH0 KECCAK256 SWAP1 POP SWAP2 SWAP1 POP JUMP JUMPDEST PUSH0 PUSH1 0x20 PUSH1 0x1F DUP4 ADD DIV SWAP1 POP SWAP2 SWAP1 POP JUMP JUMPDEST PUSH0 DUP3 DUP3 SHL SWAP1 POP SWAP3 SWAP2 POP POP JUMP JUMPDEST PUSH0 PUSH1 0x8 DUP4 MUL PUSH2 0x8BF PUSH32 0xFFFFFFFFFFFFFFFFFFFFFFFFFFFFFFFFFFFFFFFFFFFFFFFFFFFFFFFFFFFFFFFF DUP3 PUSH2 0x884 JUMP JUMPDEST PUSH2 0x8C9 DUP7 DUP4 PUSH2 0x884 JUMP JUMPDEST SWAP6 POP DUP1 NOT DUP5 AND SWAP4 POP DUP1 DUP7 AND DUP5 OR SWAP3 POP POP POP SWAP4 SWAP3 POP POP POP JUMP JUMPDEST PUSH0 DUP2 SWAP1 POP SWAP2 SWAP1 POP JUMP JUMPDEST PUSH0 PUSH2 0x904 PUSH2 0x8FF PUSH2 0x8FA DUP5 PUSH2 0x5EF JUMP JUMPDEST PUSH2 0x8E1 JUMP JUMPDEST PUSH2 0x5EF JUMP JUMPDEST SWAP1 POP SWAP2 SWAP1 POP JUMP JUMPDEST PUSH0 DUP2 SWAP1 POP SWAP2 SWAP1 POP JUMP JUMPDEST PUSH2 0x91D DUP4 PUSH2 0x8EA JUMP JUMPDEST PUSH2 0x931 PUSH2 0x929 DUP3 PUSH2 0x90B JUMP JUMPDEST DUP5 DUP5 SLOAD PUSH2 0x890 JUMP JUMPDEST DUP3 SSTORE POP POP POP POP JUMP JUMPDEST PUSH0 SWAP1 JUMP JUMPDEST PUSH2 0x945 PUSH2 0x939 JUMP JUMPDEST PUSH2 0x950 DUP2 DUP5 DUP5 PUSH2 0x914 JUMP JUMPDEST POP POP POP JUMP JUMPDEST JUMPDEST DUP2 DUP2 LT ISZERO PUSH2 0x973 JUMPI PUSH2 0x968 PUSH0 DUP3 PUSH2 0x93D JUMP JUMPDEST PUSH1 0x1 DUP2 ADD SWAP1 POP PUSH2 0x956 JUMP JUMPDEST POP POP JUMP JUMPDEST PUSH1 0x1F DUP3 GT ISZERO PUSH2 0x9B8 JUMPI PUSH2 0x989 DUP2 PUSH2 0x863 JUMP JUMPDEST PUSH2 0x992 DUP5 PUSH2 0x875 JUMP JUMPDEST DUP2 ADD PUSH1 0x20 DUP6 LT ISZERO PUSH2 0x9A1 JUMPI DUP2 SWAP1 POP JUMPDEST PUSH2 0x9B5 PUSH2 0x9AD DUP6 PUSH2 0x875 JUMP JUMPDEST DUP4 ADD DUP3 PUSH2 0x955 JUMP JUMPDEST POP POP JUMPDEST POP POP POP JUMP JUMPDEST PUSH0 DUP3 DUP3 SHR SWAP1 POP SWAP3 SWAP2 POP POP JUMP JUMPDEST PUSH0 PUSH2 0x9D8 PUSH0 NOT DUP5 PUSH1 0x8 MUL PUSH2 0x9BD JUMP JUMPDEST NOT DUP1 DUP4 AND SWAP2 POP POP SWAP3 SWAP2 POP POP JUMP JUMPDEST PUSH0 PUSH2 0x9F0 DUP4 DUP4 PUSH2 0x9C9 JUMP JUMPDEST SWAP2 POP DUP3 PUSH1 0x2 MUL DUP3 OR SWAP1 POP SWAP3 SWAP2 POP POP JUMP JUMPDEST PUSH2 0xA09 DUP3 PUSH2 0x64D JUMP JUMPDEST PUSH8 0xFFFFFFFFFFFFFFFF DUP2 GT ISZERO PUSH2 0xA22 JUMPI PUSH2 0xA21 PUSH2 0x446 JUMP JUMPDEST JUMPDEST PUSH2 0xA2C DUP3 SLOAD PUSH2 0x833 JUMP JUMPDEST PUSH2 0xA37 DUP3 DUP3 DUP6 PUSH2 0x977 JUMP JUMPDEST PUSH0 PUSH1 0x20 SWAP1 POP PUSH1 0x1F DUP4 GT PUSH1 0x1 DUP2 EQ PUSH2 0xA68 JUMPI PUSH0 DUP5 ISZERO PUSH2 0xA56 JUMPI DUP3 DUP8 ADD MLOAD SWAP1 POP JUMPDEST PUSH2 0xA60 DUP6 DUP3 PUSH2 0x9E5 JUMP JUMPDEST DUP7 SSTORE POP PUSH2 0xAC7 JUMP JUMPDEST PUSH1 0x1F NOT DUP5 AND PUSH2 0xA76 DUP7 PUSH2 0x863 JUMP JUMPDEST PUSH0 JUMPDEST DUP3 DUP2 LT ISZERO PUSH2 0xA9D JUMPI DUP5 DUP10 ADD MLOAD DUP3 SSTORE PUSH1 0x1 DUP3 ADD SWAP2 POP PUSH1 0x20 DUP6 ADD SWAP5 POP PUSH1 0x20 DUP2 ADD SWAP1 POP PUSH2 0xA78 JUMP JUMPDEST DUP7 DUP4 LT ISZERO PUSH2 0xABA JUMPI DUP5 DUP10 ADD MLOAD PUSH2 0xAB6 PUSH1 0x1F DUP10 AND DUP3 PUSH2 0x9C9 JUMP JUMPDEST DUP4 SSTORE POP JUMPDEST PUSH1 0x1 PUSH1 0x2 DUP9 MUL ADD DUP9 SSTORE POP POP POP JUMPDEST POP POP POP POP POP POP JUMP INVALID LOG2 PUSH5 0x6970667358 0x22 SLT KECCAK256 PUSH4 0xA3F9D583 CALLCODE 0xB1 DUP5 0xC2 SHL 0xB0 ADDMOD CALLCODE DIV 0xED 0x25 0x4F 0xBB SHR MCOPY BALANCE 0xB9 0xA9 SWAP3 PUSH10 0x9AAE8400E5FC3864736F PUSH13 0x634300081A0033000000000000 "
				},
				"gasEstimates": {
					"creation": {
						"codeDepositCost": "564200",
						"executionCost": "598",
						"totalCost": "564798"
					},
					"external": {
						"create(string,bool)": "infinite",
						"get(uint256)": "infinite",
						"todos(uint256)": "infinite",
						"updateCpmpleted(uint8)": "29030",
						"updateText(uint8,string)": "infinite"
					}
				},
				"methodIdentifiers": {
					"create(string,bool)": "cc10e401",
					"get(uint256)": "9507d39a",
					"todos(uint256)": "bc8bc2b4",
					"updateCpmpleted(uint8)": "39ffb305",
					"updateText(uint8,string)": "0ae11007"
				}
			},
			"storageLayout": {
				"storage": [
					{
						"astId": 10,
						"contract": "contracts/015Structs.sol:Todos",
						"label": "todos",
						"offset": 0,
						"slot": "0",
						"type": "t_array(t_struct(Todo)6_storage)dyn_storage"
					}
				],
				"types": {
					"t_array(t_struct(Todo)6_storage)dyn_storage": {
						"base": "t_struct(Todo)6_storage",
						"encoding": "dynamic_array",
						"label": "struct Todos.Todo[]",
						"numberOfBytes": "32"
					},
					"t_bool": {
						"encoding": "inplace",
						"label": "bool",
						"numberOfBytes": "1"
					},
					"t_string_storage": {
						"encoding": "bytes",
						"label": "string",
						"numberOfBytes": "32"
					},
					"t_struct(Todo)6_storage": {
						"encoding": "inplace",
						"label": "struct Todos.Todo",
						"members": [
							{
								"astId": 3,
								"contract": "contracts/015Structs.sol:Todos",
								"label": "text",
								"offset": 0,
								"slot": "0",
								"type": "t_string_storage"
							},
							{
								"astId": 5,
								"contract": "contracts/015Structs.sol:Todos",
								"label": "completed",
								"offset": 0,
								"slot": "1",
								"type": "t_bool"
							}
						],
						"numberOfBytes": "64"
					}
				}
			},
			"userdoc": {
				"kind": "user",
				"methods": {},
				"version": 1
			}
		}
	}
}