{
	"data": {
		"bytecode": {
			"linkReferences": {},
			"object": "6080604052348015600e575f80fd5b5061039d8061001c5f395ff3fe608060405234801561000f575f80fd5b5060043610610029575f3560e01c8063bb29998e1461002d575b5f80fd5b61004760048036038101906100429190610147565b61005d565b60405161005491906101e2565b60405180910390f35b60605f8290508073ffffffffffffffffffffffffffffffffffffffff1663340a2a4e6040518163ffffffff1660e01b81526004015f604051808303815f875af11580156100ac573d5f803e3d5ffd5b505050506040513d5f823e3d601f19601f820116820180604052508101906100d49190610320565b915050919050565b5f604051905090565b5f80fd5b5f80fd5b5f73ffffffffffffffffffffffffffffffffffffffff82169050919050565b5f610116826100ed565b9050919050565b6101268161010c565b8114610130575f80fd5b50565b5f813590506101418161011d565b92915050565b5f6020828403121561015c5761015b6100e5565b5b5f61016984828501610133565b91505092915050565b5f81519050919050565b5f82825260208201905092915050565b8281835e5f83830152505050565b5f601f19601f8301169050919050565b5f6101b482610172565b6101be818561017c565b93506101ce81856020860161018c565b6101d78161019a565b840191505092915050565b5f6020820190508181035f8301526101fa81846101aa565b905092915050565b5f80fd5b5f80fd5b7f4e487b71000000000000000000000000000000000000000000000000000000005f52604160045260245ffd5b6102408261019a565b810181811067ffffffffffffffff8211171561025f5761025e61020a565b5b80604052505050565b5f6102716100dc565b905061027d8282610237565b919050565b5f67ffffffffffffffff82111561029c5761029b61020a565b5b6102a58261019a565b9050602081019050919050565b5f6102c46102bf84610282565b610268565b9050828152602081018484840111156102e0576102df610206565b5b6102eb84828561018c565b509392505050565b5f82601f83011261030757610306610202565b5b81516103178482602086016102b2565b91505092915050565b5f60208284031215610335576103346100e5565b5b5f82015167ffffffffffffffff811115610352576103516100e9565b5b61035e848285016102f3565b9150509291505056fea26469706673582212200da8a1c15fd49b8391744051768622909afd06a2d10fabace59bebf3d976a49e64736f6c634300081a0033",
			"opcodes": "PUSH1 0x80 PUSH1 0x40 MSTORE CALLVALUE DUP1 ISZERO PUSH1 0xE JUMPI PUSH0 DUP1 REVERT JUMPDEST POP PUSH2 0x39D DUP1 PUSH2 0x1C PUSH0 CODECOPY PUSH0 RETURN INVALID PUSH1 0x80 PUSH1 0x40 MSTORE CALLVALUE DUP1 ISZERO PUSH2 0xF JUMPI PUSH0 DUP1 REVERT JUMPDEST POP PUSH1 0x4 CALLDATASIZE LT PUSH2 0x29 JUMPI PUSH0 CALLDATALOAD PUSH1 0xE0 SHR DUP1 PUSH4 0xBB29998E EQ PUSH2 0x2D JUMPI JUMPDEST PUSH0 DUP1 REVERT JUMPDEST PUSH2 0x47 PUSH1 0x4 DUP1 CALLDATASIZE SUB DUP2 ADD SWAP1 PUSH2 0x42 SWAP2 SWAP1 PUSH2 0x147 JUMP JUMPDEST PUSH2 0x5D JUMP JUMPDEST PUSH1 0x40 MLOAD PUSH2 0x54 SWAP2 SWAP1 PUSH2 0x1E2 JUMP JUMPDEST PUSH1 0x40 MLOAD DUP1 SWAP2 SUB SWAP1 RETURN JUMPDEST PUSH1 0x60 PUSH0 DUP3 SWAP1 POP DUP1 PUSH20 0xFFFFFFFFFFFFFFFFFFFFFFFFFFFFFFFFFFFFFFFF AND PUSH4 0x340A2A4E PUSH1 0x40 MLOAD DUP2 PUSH4 0xFFFFFFFF AND PUSH1 0xE0 SHL DUP2 MSTORE PUSH1 0x4 ADD PUSH0 PUSH1 0x40 MLOAD DUP1 DUP4 SUB DUP2 PUSH0 DUP8 GAS CALL ISZERO DUP1 ISZERO PUSH2 0xAC JUMPI RETURNDATASIZE PUSH0 DUP1 RETURNDATACOPY RETURNDATASIZE PUSH0 REVERT JUMPDEST POP POP POP POP PUSH1 0x40 MLOAD RETURNDATASIZE PUSH0 DUP3 RETURNDATACOPY RETURNDATASIZE PUSH1 0x1F NOT PUSH1 0x1F DUP3 ADD AND DUP3 ADD DUP1 PUSH1 0x40 MSTORE POP DUP2 ADD SWAP1 PUSH2 0xD4 SWAP2 SWAP1 PUSH2 0x320 JUMP JUMPDEST SWAP2 POP POP SWAP2 SWAP1 POP JUMP JUMPDEST PUSH0 PUSH1 0x40 MLOAD SWAP1 POP SWAP1 JUMP JUMPDEST PUSH0 DUP1 REVERT JUMPDEST PUSH0 DUP1 REVERT JUMPDEST PUSH0 PUSH20 0xFFFFFFFFFFFFFFFFFFFFFFFFFFFFFFFFFFFFFFFF DUP3 AND SWAP1 POP SWAP2 SWAP1 POP JUMP JUMPDEST PUSH0 PUSH2 0x116 DUP3 PUSH2 0xED JUMP JUMPDEST SWAP1 POP SWAP2 SWAP1 POP JUMP JUMPDEST PUSH2 0x126 DUP2 PUSH2 0x10C JUMP JUMPDEST DUP2 EQ PUSH2 0x130 JUMPI PUSH0 DUP1 REVERT JUMPDEST POP JUMP JUMPDEST PUSH0 DUP2 CALLDATALOAD SWAP1 POP PUSH2 0x141 DUP2 PUSH2 0x11D JUMP JUMPDEST SWAP3 SWAP2 POP POP JUMP JUMPDEST PUSH0 PUSH1 0x20 DUP3 DUP5 SUB SLT ISZERO PUSH2 0x15C JUMPI PUSH2 0x15B PUSH2 0xE5 JUMP JUMPDEST JUMPDEST PUSH0 PUSH2 0x169 DUP5 DUP3 DUP6 ADD PUSH2 0x133 JUMP JUMPDEST SWAP2 POP POP SWAP3 SWAP2 POP POP JUMP JUMPDEST PUSH0 DUP2 MLOAD SWAP1 POP SWAP2 SWAP1 POP JUMP JUMPDEST PUSH0 DUP3 DUP3 MSTORE PUSH1 0x20 DUP3 ADD SWAP1 POP SWAP3 SWAP2 POP POP JUMP JUMPDEST DUP3 DUP2 DUP4 MCOPY PUSH0 DUP4 DUP4 ADD MSTORE POP POP POP JUMP JUMPDEST PUSH0 PUSH1 0x1F NOT PUSH1 0x1F DUP4 ADD AND SWAP1 POP SWAP2 SWAP1 POP JUMP JUMPDEST PUSH0 PUSH2 0x1B4 DUP3 PUSH2 0x172 JUMP JUMPDEST PUSH2 0x1BE DUP2 DUP6 PUSH2 0x17C JUMP JUMPDEST SWAP4 POP PUSH2 0x1CE DUP2 DUP6 PUSH1 0x20 DUP7 ADD PUSH2 0x18C JUMP JUMPDEST PUSH2 0x1D7 DUP2 PUSH2 0x19A JUMP JUMPDEST DUP5 ADD SWAP2 POP POP SWAP3 SWAP2 POP POP JUMP JUMPDEST PUSH0 PUSH1 0x20 DUP3 ADD SWAP1 POP DUP2 DUP2 SUB PUSH0 DUP4 ADD MSTORE PUSH2 0x1FA DUP2 DUP5 PUSH2 0x1AA JUMP JUMPDEST SWAP1 POP SWAP3 SWAP2 POP POP JUMP JUMPDEST PUSH0 DUP1 REVERT JUMPDEST PUSH0 DUP1 REVERT JUMPDEST PUSH32 0x4E487B7100000000000000000000000000000000000000000000000000000000 PUSH0 MSTORE PUSH1 0x41 PUSH1 0x4 MSTORE PUSH1 0x24 PUSH0 REVERT JUMPDEST PUSH2 0x240 DUP3 PUSH2 0x19A JUMP JUMPDEST DUP2 ADD DUP2 DUP2 LT PUSH8 0xFFFFFFFFFFFFFFFF DUP3 GT OR ISZERO PUSH2 0x25F JUMPI PUSH2 0x25E PUSH2 0x20A JUMP JUMPDEST JUMPDEST DUP1 PUSH1 0x40 MSTORE POP POP POP JUMP JUMPDEST PUSH0 PUSH2 0x271 PUSH2 0xDC JUMP JUMPDEST SWAP1 POP PUSH2 0x27D DUP3 DUP3 PUSH2 0x237 JUMP JUMPDEST SWAP2 SWAP1 POP JUMP JUMPDEST PUSH0 PUSH8 0xFFFFFFFFFFFFFFFF DUP3 GT ISZERO PUSH2 0x29C JUMPI PUSH2 0x29B PUSH2 0x20A JUMP JUMPDEST JUMPDEST PUSH2 0x2A5 DUP3 PUSH2 0x19A JUMP JUMPDEST SWAP1 POP PUSH1 0x20 DUP2 ADD SWAP1 POP SWAP2 SWAP1 POP JUMP JUMPDEST PUSH0 PUSH2 0x2C4 PUSH2 0x2BF DUP5 PUSH2 0x282 JUMP JUMPDEST PUSH2 0x268 JUMP JUMPDEST SWAP1 POP DUP3 DUP2 MSTORE PUSH1 0x20 DUP2 ADD DUP5 DUP5 DUP5 ADD GT ISZERO PUSH2 0x2E0 JUMPI PUSH2 0x2DF PUSH2 0x206 JUMP JUMPDEST JUMPDEST PUSH2 0x2EB DUP5 DUP3 DUP6 PUSH2 0x18C JUMP JUMPDEST POP SWAP4 SWAP3 POP POP POP JUMP JUMPDEST PUSH0 DUP3 PUSH1 0x1F DUP4 ADD SLT PUSH2 0x307 JUMPI PUSH2 0x306 PUSH2 0x202 JUMP JUMPDEST JUMPDEST DUP2 MLOAD PUSH2 0x317 DUP5 DUP3 PUSH1 0x20 DUP7 ADD PUSH2 0x2B2 JUMP JUMPDEST SWAP2 POP POP SWAP3 SWAP2 POP POP JUMP JUMPDEST PUSH0 PUSH1 0x20 DUP3 DUP5 SUB SLT ISZERO PUSH2 0x335 JUMPI PUSH2 0x334 PUSH2 0xE5 JUMP JUMPDEST JUMPDEST PUSH0 DUP3 ADD MLOAD PUSH8 0xFFFFFFFFFFFFFFFF DUP2 GT ISZERO PUSH2 0x352 JUMPI PUSH2 0x351 PUSH2 0xE9 JUMP JUMPDEST JUMPDEST PUSH2 0x35E DUP5 DUP3 DUP6 ADD PUSH2 0x2F3 JUMP JUMPDEST SWAP2 POP POP SWAP3 SWAP2 POP POP JUMP INVALID LOG2 PUSH5 0x6970667358 0x22 SLT KECCAK256 0xD 0xA8 LOG1 0xC1 PUSH0 0xD4 SWAP12 DUP4 SWAP2 PUSH21 0x4051768622909AFD06A2D10FABACE59BEBF3D976A4 SWAP15 PUSH5 0x736F6C6343 STOP ADDMOD BYTE STOP CALLER "
		},
		"gasEstimates": {
			"creation": {
				"codeDepositCost": "185000",
				"executionCost": "224",
				"totalCost": "185224"
			},
			"external": {
				"test(address)": "infinite"
			}
		},
		"methodIdentifiers": {
			"test(address)": "bb29998e"
		}
	},
	"abi": [
		{
			"inputs": [
				{
					"internalType": "address",
					"name": "_addr",
					"type": "address"
				}
			],
			"name": "test",
			"outputs": [
				{
					"internalType": "string",
					"name": "",
					"type": "string"
				}
			],
			"stateMutability": "nonpayable",
			"type": "function"
		}
	]
}