{
	"data": {
		"bytecode": {
			"linkReferences": {},
			"object": "60a06040525f6080908152503480156015575f80fd5b5060166080818152505060805160cb6100345f395f6046015260cb5ff3fe6080604052348015600e575f80fd5b50600436106026575f3560e01c8063e6af845a14602a575b5f80fd5b60306044565b604051603b9190607e565b60405180910390f35b7f000000000000000000000000000000000000000000000000000000000000000081565b5f819050919050565b6078816068565b82525050565b5f602082019050608f5f8301846071565b9291505056fea2646970667358221220d3d4eae5bac22e6dbe91f89e1995f5f1c147fbc7a9fe489f1ffac6bebcb61f0664736f6c634300081a0033",
			"opcodes": "PUSH1 0xA0 PUSH1 0x40 MSTORE PUSH0 PUSH1 0x80 SWAP1 DUP2 MSTORE POP CALLVALUE DUP1 ISZERO PUSH1 0x15 JUMPI PUSH0 DUP1 REVERT JUMPDEST POP PUSH1 0x16 PUSH1 0x80 DUP2 DUP2 MSTORE POP POP PUSH1 0x80 MLOAD PUSH1 0xCB PUSH2 0x34 PUSH0 CODECOPY PUSH0 PUSH1 0x46 ADD MSTORE PUSH1 0xCB PUSH0 RETURN INVALID PUSH1 0x80 PUSH1 0x40 MSTORE CALLVALUE DUP1 ISZERO PUSH1 0xE JUMPI PUSH0 DUP1 REVERT JUMPDEST POP PUSH1 0x4 CALLDATASIZE LT PUSH1 0x26 JUMPI PUSH0 CALLDATALOAD PUSH1 0xE0 SHR DUP1 PUSH4 0xE6AF845A EQ PUSH1 0x2A JUMPI JUMPDEST PUSH0 DUP1 REVERT JUMPDEST PUSH1 0x30 PUSH1 0x44 JUMP JUMPDEST PUSH1 0x40 MLOAD PUSH1 0x3B SWAP2 SWAP1 PUSH1 0x7E JUMP JUMPDEST PUSH1 0x40 MLOAD DUP1 SWAP2 SUB SWAP1 RETURN JUMPDEST PUSH32 0x0 DUP2 JUMP JUMPDEST PUSH0 DUP2 SWAP1 POP SWAP2 SWAP1 POP JUMP JUMPDEST PUSH1 0x78 DUP2 PUSH1 0x68 JUMP JUMPDEST DUP3 MSTORE POP POP JUMP JUMPDEST PUSH0 PUSH1 0x20 DUP3 ADD SWAP1 POP PUSH1 0x8F PUSH0 DUP4 ADD DUP5 PUSH1 0x71 JUMP JUMPDEST SWAP3 SWAP2 POP POP JUMP INVALID LOG2 PUSH5 0x6970667358 0x22 SLT KECCAK256 0xD3 0xD4 0xEA 0xE5 0xBA 0xC2 0x2E PUSH14 0xBE91F89E1995F5F1C147FBC7A9FE BASEFEE SWAP16 0x1F STATICCALL 0xC6 0xBE 0xBC 0xB6 0x1F MOD PUSH5 0x736F6C6343 STOP ADDMOD BYTE STOP CALLER "
		},
		"gasEstimates": {
			"creation": {
				"codeDepositCost": "40600",
				"executionCost": "infinite",
				"totalCost": "infinite"
			},
			"external": {
				"MY_STRING()": "infinite"
			}
		},
		"methodIdentifiers": {
			"MY_STRING()": "e6af845a"
		}
	},
	"abi": [
		{
			"inputs": [],
			"stateMutability": "nonpayable",
			"type": "constructor"
		},
		{
			"inputs": [],
			"name": "MY_STRING",
			"outputs": [
				{
					"internalType": "uint256",
					"name": "",
					"type": "uint256"
				}
			],
			"stateMutability": "view",
			"type": "function"
		}
	]
}